:1000000040DD0020292F0200D7DC0300152F02005D
:10001000152F0200152F0200152F0200000000000E
:10002000000000000000000000000000E9300200B5
:10003000152F020000000000B5300200152F02004D
:10004000A532020017230400A5320200A5320200E7
:10005000A5320200A5320200A5320200A53202003C
:10006000CD220400A5320200A532020001230400C3
:10007000A5320200A5320200A5320200A53202001C
:10008000A5320200A5320200A5320200A53202000C
:10009000A5320200A5320200A5320200A5320200FC
:1000A000A5320200A5320200A5320200A5320200EC
:1000B000A5320200A5320200A5320200A5320200DC
:1000C000A5320200A5320200A5320200A5320200CC
:1000D000A5320200A5320200A5320200A5320200BC
:1000E000A5320200A5320200A5320200A5320200AC
:1000F000A5320200A5320200A5320200A53202009C
:100100002DE9F00791E8F807B2E802105B1854EB0C
:100110000C04B2E802104D4156EB0C06B2E8021096
:100120004F4158EB0C08B2E8021059EB01095AEBA9
:100130000C0A80E8F80780410130BDE8F0077047FD
:100140002DE9F00791E8F807B2E802105B1A74EBAA
:100150000C04B2E802108D4176EB0C06B2E80210F6
:100160008F4178EB0C08B2E8021079EB01097AEBC9
:100170000C0A80E8F80780414042BDE8F00770476C
:100180002DE9F007524290E87800B1E88007174067
:10019000DB1918EA020854EB080419EA020955EBC6
:1001A00009051AEA020A56EB0A0678C090E87800B8
:1001B000B1E8800717407B4118EA020854EB0804B5
:1001C00019EA020955EB09051AEA020A56EB0A0672
:1001D00078C080410130BDE8F00770472DE9F00795
:1001E000524290E87800B1E880071740DB1B18EA1C
:1001F000020874EB080419EA020975EB09051AEA0A
:10020000020A76EB0A0678C090E87800B1E8800729
:100210001740BB4118EA020874EB080419EA020906
:1002200075EB09051AEA020A76EB0A0678C08041E6
:100230004042BDE8F00770472DE9F00152424FF00F
:10024000040890E8300091E8C000A31B1340E41AB2
:10025000F618EB1B1340ED1AFF1830C0C0C1B8F1FF
:100260000108EED1BDE8F001704700BF00B592E88B
:10027000DC072DE9DC07B1E8805702B4A7FB025187
:100280000A95A8FB020BE7FB6310E9FB62B00B9138
:10029000A8FB0351EAFB6201E7FB64B5E7FB6605D7
:1002A000E8FB6615CDF830B0A9FB03B6EAFB631690
:1002B000ECFB6356E8FB640BE9FB641BEAFB645B45
:1002C000ECFB646B0D90ACFB0230059CEEFB6250C6
:1002D000E9FB6460EAFB64B0E7FB6431E8FB64516E
:1002E000069CE8FB6461E9FB64B1EAFB64010E93E0
:1002F000A7FB0432079CE7FB6462E8FB64B2E9FBFE
:100300006402EAFB6412049CE9FB6453EAFB646345
:10031000089CE7FB64B3E8FB6403E9FB6413EAFBB6
:1003200064230F955DF8049B99E80006DDF80080D2
:10033000A9FB0854EAFB68B4DDF81080ECFB680404
:10034000EEFB6814E9FB6824EAFB6834DDF80480FE
:10035000EEFB6865E9FB68B5EAFB6805DDF814802B
:10036000ECFB6815EEFB6825E9FB6835EAFB6845A0
:100370000F96DDF80880AEFB0876E9FB6806EAFB1D
:100380006816DDF81880ECFB6826EEFB6836E9FBA2
:100390006846EAFB6856DDF80C80ECFB68B7EEFBBC
:1003A0006807E9FB6817EAFB6827DDF81C80ECFBAF
:1003B0006837EEFB6847E9FB6857EAFB686708B0F7
:1003C00000BD00BF2DE9F14F87B0FFF74FFFDDF80B
:1003D0001C8008F1200888E8FF00FFBC87E87F0840
:1003E000BDE8F08F00B591E89857A3FB0352019543
:1003F000A3FB0401E3FB6420E3FB67100292A3FB71
:100400000752E3FB6802E4FB6415E3FB6805E3FBCA
:1004100069250391A4FB07B6E3FB6926E3FB6A5653
:10042000E4FB670BE4FB682BE3FB6A5BE3FB6C6BB1
:100430000490A4FB0810E4FB6950E3FB6C60E3FB51
:100440006EB0E7FB6721E4FB6951E4FB6A61E3FB03
:100450006EB1E4FB6E010592A7FB0832E4FB6A6211
:10046000E4FB6CB2E4FB6E02E7FB6E12E7FB685341
:10047000E7FB6963E4FB6CB3E7FB6C03E7FB6E131C
:10048000E8FB6E230695A7FB0954E7FB6AB4E7FB7C
:100490006C04E8FB6C14E8FB6E24E9FB6E34E8FBAB
:1004A0006865E7FB6AB5E8FB6A05E8FB6C15E9FBE4
:1004B0006C25E9FB6E35EAFB6E450796A8FB0976CD
:1004C000E8FB6A06E9FB6A16E9FB6C26EAFB6C3678
:1004D000EAFB6E46ECFB6E56E8FB69B7E9FB690781
:1004E000E9FB6A17EAFB6A27EAFB6C37ECFB6C470F
:1004F000ECFB6E57EEFB6E6700BD00BF2DE9F14FC0
:1005000087B0FFF76FFFDDF81C8008F1200888E84E
:10051000FF00FFBC87E87F08BDE8F08F30B44FF0E4
:10052000000310F8014B11F8015B013A84EA05045D
:1005300043EA0403F5D1A3F101034FEAD37030BCC1
:10054000704700BF4FF0000310F8012B013943EA58
:100550000203F9D1A3F101034FEAD370704700BF42
:1005600030B411F8014B12F8015B6C4000F8014BFC
:10057000013BF6D130BC70472DE9F00791E8F80750
:10058000B2E802105B1854EB0C04B2E802104D41C3
:1005900056EB0C06B2E802104F4158EB0C08B2E8DB
:1005A000021059EB01095AEB0C0A8941B3F1FF33F0
:1005B00074F1FF3475F1FF3576F1000677F100072D
:1005C00078F1000879F101097AF1FF3A51F100015F
:1005D0005B184C414D4156F1000657F1000758F1A8
:1005E000000859EBD1795AEB010A80E8F807BDE819
:1005F000F00770472DE9F00791E8F807B2E802101C
:100600005B1A74EB0C04B2E802108D4176EB0C0619
:10061000B2E802108F4178EB0C08B2E8021079EBD7
:1006200001097AEB0C0A89415B184C414D4156F1A6
:10063000000657F1000758F1000859EBD1795AEB41
:10064000010A80E8F807BDE8F007704718EB0408D6
:1006500059EB05095AEB060A5BEB070B5FF0000C40
:100660004CF1000C18EB050859EB06095AEB070A88
:100670005BEB070B50EB0C005FF0000C51EB0C0137
:1006800052EB0C0263414CF1000CB8EB070879F116
:1006900000097AF1000A7BEB040BA841B141A241A9
:1006A000B3416CF1000CBBEB050BB041B941AA4161
:1006B000BB416CF1000C4CF001068CF0020718EB0A
:1006C000060859EB6C095AEB6C0A7BEB6C0B70EB70
:1006D0006C0471EB6C0572EB670653EB6C076CEB0B
:1006E0006C0C18EB0C0059EB0C015AEB0C025BF193
:1006F000000354F1000455F1000556EBDC7657EB8E
:100700000C0770472DE9F14F87B0FFF7AFFDDDF81B
:100710001080DDF81490DDF818A0FFF797FFBDE812
:10072000000FFFF793FF03B05DF8048B88E8FF002C
:10073000BDE8F08F2DE9F14F87B0FFF753FEDDF8EC
:100740001080DDF81490DDF818A0FFF77FFFBDE8FA
:10075000000FFFF77BFF03B05DF8048B88E8FF0014
:10076000BDE8F08F074B1B78002B4FF00003836030
:100770000360054B436014BF02220122FF23C271B4
:1007800003727047501D002048010800064B074ABD
:100790009B7802604FF426728280C3710822002386
:1007A00082710372704700BF501D00208FC301008B
:1007B000064B074ADB7802604FF442728280C371B5
:1007C0000822002382710372704700BF501D002071
:1007D000F5C10100064B074A1B7902604FF4B8725D
:1007E0008280C3710822FF2382710372704700BFA9
:1007F000501D0020AFBD01002DE9F341C41D0028AC
:1008000024F00704064614BF2046002000F022FD15
:10081000071E04DA6FF00B0002B0BDE8F0810EB9DC
:10082000FC42F7D4354D297AE879AB7A6A7A0331FC
:10083000033017F03BFD0028ECDBA978EB783C4453
:100840000334002E194424F0030400FB01F114BF0B
:100850002046002000F08AFE20440EB90028D9DB93
:100860002B790446B3B1697C19446B791944FF298B
:10087000D0DC0330002E20F0030414BF20460020FB
:10088000AA89C9B200F0E2FE0028C3DB04440EB915
:10089000002CBFDB012000F0D3FCC8B1E97AB9B16C
:1008A00095F828300734002B15BF402325234FF43B
:1008B0008172282224F00704002E14BF2046002055
:1008C00006F0E4FC0028A5DB04440EB9002CA1DBF3
:1008D000AB7BE3B12B799BB10734002E24F00704E6
:1008E00014BF20460020A97B0CF018FF002891DBE4
:1008F000044466B9002C0ADA8CE700BF501D0020C2
:10090000012000F09DFC10B1EB7A002BE4D1714B7B
:100910001B6893B1A97981B10334002E24F003043C
:1009200014BF20460020EA7B98470028FFF672AFEC
:10093000044416B9002CFFF66DAF674B1B688BB1F2
:10094000297C79B10334002E24F0030414BF20461F
:10095000002098470028FFF65DAF044416B9002C2C
:10096000FFF658AF5D4B1F68AFB1697C99B1033496
:10097000002E2B7D009324F0030414BF204600209A
:10098000EB7CAA7CB8470028FFF644AF044416B9B4
:10099000002CFFF63FAF072000F052FC98B1A97978
:1009A00089B10334002E24F0030414BF2046002034
:1009B000AA7D00F039FF0028FFF62CAF044416B9D9
:1009C000002CFFF627AF95F82100B6FA86F77F09CD
:1009D000A0B1EB7E297E033424F00704194444F0CF
:1009E00004043B462246C9B200F060FF0028FFF62F
:1009F00011AF044416B9002CFFF60CAF95F8221085
:100A0000002957D00734002E24F0070814BF4046B1
:100A10000020AA8C17F05FFC041EFFF6FBAE4444D6
:100A200016B9002CFFF6F6AE1EB1A98C404612F0A6
:100A300087F9297F00293FD095F82030002B3BD043
:100A4000EA8B0734002E24F0070802F1240214BFB9
:100A50004046002092B217F03EFC041EFFF6DAAECC
:100A6000444416B9002CFFF6D5AEAB7E297E95F82E
:100A70002000033424F00704194444F004043B46E6
:100A80002246C9B200F004FF0028FFF6C3AE0444BA
:100A900016B9002CFFF6BEAE36B1EA8B297F0832BC
:100AA00092B2404612F052F9EB6A5BB176B1EC6259
:100AB0000020B1E68846B7E7002EF5D000221146A7
:100AC0001046EFE7002EF3D12046A5E62834FBD5EB
:100AD000A0E600BF5C000020640000206000002051
:100AE0001FB572B6184B1D6BE5B9BFF34F8F174991
:100AF000174BCA6802F4E0621343CB60BFF34F8F19
:100B000000BFFDE7B2FBF6F2DCB20133002AF9D1F7
:100B100004F110036B4403F80C2C0A2234B901A829
:100B2000A847E2E7024600230A26EDE7631E04AE6B
:100B3000DCB256FA83F3B0FBF2F602FB160030305B
:100B400003F80C0C3046E9E7501D002000ED00E0F2
:100B50000400FA0513B5114CA37A8DF80130637ABD
:100B60008DF80030237AADF804306846E379ADF8AB
:100B700002300AF063FC18B1D9210320FFF7B0FF5F
:100B8000207D0AF0BFFC08B1DC21F6E7E07C0AF02A
:100B9000B3FC08B1DD21F0E702B010BD501D00200C
:100BA00038B5054600283ED015F078FB10B94FF057
:100BB000FF3038BD1BF030FDB0F5FA7FF7D81C4C84
:100BC0001C482563002500F0B5FA26222946A01C02
:100BD00084F83450257084F82850E56215F096FFAB
:100BE0001B22E27140F21B3240F20113228140F2DB
:100BF00002326380628101231F222371A281A375C7
:100C00004FF40272F723E281E38344F60112FB23DF
:100C10006282A384EFF3108472B600F057FE2CB901
:100C200062B62046C5E76FF01500C2E72846C0E768
:100C3000501D0020550B000038B51446002840F028
:100C4000B3805B4D95F83430032B00F0AA80B1B12E
:100C500012B96FF0150038BD0139142900F2A480D3
:100C6000DFE801F00B1C1F2F59627F356568793B67
:100C7000414F54858896999C8E001378AB70002064
:100C8000FFF7BAFD0028B7BF0123022385F83430EF
:100C90006FF00B00A8BF85F83430DCE71378EB70F9
:100CA000EDE79378002BD4D0D378002BD1D01378F4
:100CB0001A2BCED953781A2BCBD91368C5F8073025
:100CC000DDE713786A799342C3D32B71D7E71378A2
:100CD0002A799342BDD86B71D1E713782A79934270
:100CE000B7D86B74CBE71378002BB2D05378013BA5
:100CF000DBB2F82BADD813886B822E4B92789A70AA
:100D0000BDE71078687510F083F8B8E71378002B0A
:100D10009FD0AB75B3E7012000F092FA237808B1B9
:100D2000012B96D9EB72AAE71388AB81A7E713785A
:100D3000AB71A4E7072000F083FA10B92378012BE8
:100D400087D9072000F07CFA10B12378002B80D0DF
:100D50002378EB7393E71378082B3FF67AAF2B7465
:100D60008DE71388FF2B3FF674AFAB7387E71378DB
:100D7000EB7584E713780E2B3FF66BAF2B767EE78F
:100D800023680D4AEB61636853602389138176E71A
:100D900013786B7673E71378EB7670E71378AB769E
:100DA0006DE74FF0FF3056E76FF02C0053E700BFC0
:100DB000501D0020621D00206C1D0020F8B50D465E
:100DC000064630B329B311F0070422D1124F97F829
:100DD0003430012B02D16FF00B00F8BD032B02D190
:100DE0004FF0FF30F9E700F0D9F80028F8D0284696
:100DF000FFF702FD0028EEDB1BF07DFB3046F96AB1
:100E00000AF058FCFFF7A6FE032387F8343020468B
:100E1000E3E76FF01500E0E7501D002010B5074C28
:100E200094F83430032B03D10AF060FC0BF0CAFCB9
:100E300017F099FB002084F8340010BD501D0020ED
:100E400050B1074B03F1140253F8041B40F8041B84
:100E50009342F9D1002070476FF01500704700BF32
:100E6000FF9C040010B5074B93F834403CB90AF0DE
:100E7000B3FB0320044900F0DBF9204610BD4FF01E
:100E8000FF30FBE7501D0020D507000010B5074BD1
:100E900093F834403CB90AF0B3FB0220044900F057
:100EA000C7F9204610BD4FF0FF30FBE7501D002072
:100EB000B107000008B50C4B93F834208AB993F8B9
:100EC00028305BB10AF0DAFB0849012000F0B0F9E4
:100ED0000020074900F0ACF9002008BD0AF0B2FB81
:100EE000F2E74FF0FF30F8E7501D002065070000E3
:100EF0008D07000010B5054B93F834401CB90AF07B
:100F00001DFB204610BD4FF0FF30FBE7501D0020B9
:100F100010B5054B93F834401CB90AF001FB20468C
:100F200010BD4FF0FF30FBE7501D002010B5054B02
:100F300093F834401CB918F088FC204610BD4FF0DF
:100F4000FF30FBE7501D002010B5054B93F83440EF
:100F50001CB918F07DFC204610BD4FF0FF30FBE7B8
:100F6000501D002010B5054B93F834401CB918F003
:100F700071FC204610BD4FF0FF30FBE7501D0020F4
:100F8000024B02681A600020704700BF881D0020D5
:100F9000014B1B68184700BF881D0020024B1868D2
:100FA000003818BF01207047881D0020F7B52E4E6D
:100FB0000446071D2C4837600BF024FC0228054628
:100FC00006D12949204616F0DAFA284603B0F0BDCA
:100FD000042842D13378092B0AD0252B1ED0314664
:100FE000204616F031FBB0F5817F2DD3722112E03F
:100FF00005213E2016F096FA0028F0D1F3783279D8
:1010000001A943EA02236846ADF8003016F024FF38
:101010000028CFD053210820FFF762FD1A213E207F
:1010200016F080FA0028DAD17368C3F30F23ADF805
:1010300004306946112301A88DF8063016F02EFF02
:101040000028B7D06521E6E70028B3D0A178207842
:1010500016F068FA0028B8D1ACE70828B5D10249E3
:10106000204616F0BBFAB0E78C1D0020074B4FF06E
:10107000FF3141F6FF72C3E9001205490022C1E9C0
:1010800000221F21C3E90212704700BF00000020A8
:10109000901E00203F280CD801380B4BC0F34212A1
:1010A00000F01F0053F8223023FA00F000F0010096
:1010B0007047FF2806D04038C0F34212034B00F0BF
:1010C0001F00EFE70120704700000020901E002065
:1010D0000146074B006849681A4603C240F48C2257
:1010E0001A6041F0107242F4FF625A60704700BF0C
:1010F000000000200246024B0068516803C370479D
:10110000901E00200246024B0068516803C37047DE
:10111000080000200138064BC0F3421203EB8203A3
:1011200000F01F009B6823FA00F000F001007047F8
:1011300000000020014B1860704700BF981E00207F
:1011400010B5FFF793FF17F0B9FD034B1B6804467A
:1011500003B19847204610BD981E00200B880288D6
:10116000F0B5C3F30E049EB204F11403C57CC35A58
:1011700002352A442B4497B213FA82F3013B42888A
:10118000B3FBF7F313FB07439BB29A42044A93BFA6
:1011900022EA0603324013439BB20B80F0BD00BF2E
:1011A0000080FFFF4A1E062A08B50346084604D8F9
:1011B0004FF4D1711520FFF793FC094A914202D9EF
:1011C00040F2A311F6E711B903B1196008BD2BB1C4
:1011D0001B680022C3E901211A1D1A600430F5E7DB
:1011E000FAFFFF7F10B5114B00EB41041A786389B9
:1011F000B3FBF2F303FB0223013A1A44B2F5706F1A
:10120000027928BF00231A448378B2FBF3F0194413
:1012100003FB1020091AB1FBF3F003FB1013134476
:101220006FEA43436FEA5343638110BD9C1E002065
:10123000024B03EB80035960704700BF9C1E0020E7
:10124000034B03EB80035868003818BF0120704738
:101250009C1E00202DE9F04F10F0070A85B00546CE
:1012600004D040F261111720FFF73AFC554F07F107
:101270004006B1460446B0464FF0010B57F8043B18
:101280008DF80BA03BB101A898479DF80A30082BB8
:1012900001D9E821E7E79DF80B1081BB05B131606A
:1012A000B94506F10406E9D12DB3DFF81CE10023AE
:1012B0008EF800301E460F2258F82200013A60B125
:1012C00090F804A08178BAF1FF0F66D14FF00007C3
:1012D0008E4207713CBFCEB20123511CECD10BB141
:1012E0008EF800600F2640F6FF6A58F82670002F2F
:1012F00065D1013EF9D2601B05B0BDE8F08F9DF8C5
:101300000AC0BCF1020FE64601F1050238BF4FF0FA
:10131000020E0EF1FF3004EB42040444CEF1000053
:101320002040BDF808406444013CCCF1000C04EAC4
:101330000C04B4F5803F4FEA420301D3F82192E751
:1013400075B1C31A336099701C8083F803B09DF89F
:101350000C201A71019A1A814FEA124CA3F806C0A8
:1013600004FB01049CE758F82C90B9F1000F06D05B
:1013700099F804B0D34504BF99F802904F440CF19A
:10138000FF3CBCF1000FEEDA3944FF29A0D90BB1C4
:101390008EF8006040F2271165E794460027F0E7D9
:1013A00007EB41033846A3F80AA0FFF71BFF09F13A
:1013B0000109BB785FFA89F18B42F1D899E74FF0C8
:1013C0000009F6E7A01E00209C1E0020F8B54FF68D
:1013D000FF730380184B03EB81030546586CB8B1CB
:1013E00086780379B3FBF6F206FB1233DBB21946BB
:1013F0000A1D00EB4202B2F902705488002F09DB8B
:101400000131B1FBF6F206FB1211C9B28B42EFD1EA
:101410000020F8BDFF29FBD0C4F30E03C4782B8055
:1014200024B94FF4D5711720FFF75AFB5380BDE85C
:10143000F84016F01ABF00BF9C1E00201D4B03EBA6
:10144000810370B55C6C054644B3030404D54FF4C6
:10145000DC711720FFF744FB0146204616F0E7FE3B
:10146000FF28014604D02046BDE8704016F0FDBEBE
:10147000A078B5FBF0F300FB1353DBB219460A1D4D
:1014800004EB4206B6F90260002E09DB0131B1FB24
:10149000F0F200FB1211C9B28B42F0D1002070BDF6
:1014A000FF29FBD08B4204EB42021CBF0023E370F8
:1014B0005580D8E79C1E0020094B03EB810310B533
:1014C0005C6C0146204616F0B2FEFF28014604D0AF
:1014D0002046BDE8104016F0C8BE002010BD00BF79
:1014E0009C1E0020F8B5104B03EB810307465C6C93
:1014F0000146204616F09BFEFF28054611D0E688DF
:10150000238953EA064606D00146204616F0ADFE72
:1015100001463846B04720462946FFF763FE0020C3
:10152000F8BD0520FCE700BF9C1E002038B50E4B1F
:10153000827903EB82030446586C08B9052038BD54
:101540008278E1799142F9D24B1CE37100EB4103BF
:101550005D89B3F90A30002BF3DBA58016F085FE18
:1015600020600020EBE700BF9C1E002070B5044601
:1015700010F003000E4603D04F211820FFF7B0FAF9
:10158000FFF710FE054624B1034831460460FFF71B
:1015900009FE284670BD00BF201F00202DE9F14F35
:1015A000DFF870B09DF828A09DF82C901E46DBF85F
:1015B000003007460D4690461BB961211820FFF701
:1015C0008FFA52460921404616F0B7FC4A4684B2CB
:1015D0000921304616F0B1FC14FA80F1DBF8000066
:1015E00016F0FAFD386018B9286001B0BDE8F08F38
:1015F00004442C60386853464146092216F056FCD4
:1016000028684B460922314601B0BDE8F04F16F07C
:101610004DBC00BF201F002070B50E46044616F0DA
:101620009FFC0546304616F09BFC044B2A182146C9
:101630001868BDE8704016F0F3BD00BF201F002001
:10164000014B186816F0BCBD201F00201F2AF8B5FA
:10165000044613460ED89200033222F00303B3F57A
:10166000803F2DD2184DACB1A00710D05F210920CA
:10167000FFF736FAFF2B4FEA420204D9FF339A42B2
:10168000A8BF1A46E8E77C2AB8BF7C22E4E72970A5
:101690006C602B8122F0030201EB81031204D8005D
:1016A00001276B68120C0025EEB28E4200D3F8BD04
:1016B00014B126181F705E60104401352833F3E71B
:1016C0004FF0FF30F3E700BF241F002038B5144A65
:1016D000147853680021C8B2844203D8AB21092092
:1016E000FFF7FEF91846013105782833002DF2D0B6
:1016F0000021817001241289447044688161C161B4
:10170000920800F12001051D21F8022B994245F8AD
:10171000044B1444F8D100234361037038BD00BF6B
:10172000241F00200A4B1B89B3F5FF7F4FEA93006B
:1017300006D25A089B1A9BB2984238BF1846704787
:10174000B3F5EE6F01D8FF22F4E740F27263F3E7DE
:10175000241F00202DE9F8434B7880460C4602F008
:10176000040602F0FB07D3B1DFB12E4BD4F804908E
:101770001D89B7BB01236370AD08A761E76104F160
:1017800020034A46211D04F1280023F8025B9842F9
:1017900041F8042B2A44F8D10023636101E0002FB3
:1017A000E3D0FF23A370002E18BF0226A3191B7DD0
:1017B000032B03D1022F1CBF0136F6B2A31901225D
:1017C0001A7506F10C0204EB8606002324F8123089
:1017D0007268A370C8F80020A8F804304046BDE83D
:1017E000F883002114226170A01815F08FF9B5F567
:1017F000FF7F0FD26B08ED1AADB209EB0502C4F8FA
:1018000004902584A2606384C4F80C90A5842261AE
:10181000E384C6E7B5F5EE6F4FF0FF03EBD940F276
:101820007265EAE7241F00202DE9F84305460C46BF
:10183000F7200521914616F080FB061E22DB1DB91C
:1018400014FB06F0BDE8F88315F0030703D09821D8
:101850001920FFF745F9DFF83480C8F81050A8F8D0
:101860001460A5B2BBB29D42EAD9B8F814C0D8F84A
:1018700010004B4607FB0C000522F72116F016FB63
:101880000137EFE74FF0FF30DCE700BF381F0020E3
:1018900007B5CDE900230B4603490246081D16F0A3
:1018A0003CFE03B05DF804FB501F002013B5064C4E
:1018B000CDE900230B46024604F1080104F10C00B7
:1018C00016F02BFE02B010BD501F0020134B01225A
:1018D00000214FF0FF309A60C3F80012C3F80803EC
:1018E000C3F80015C3F804259A60C3F80803C3F8C9
:1018F0000015C3F804250A490A4A03F580334FF45A
:101900000040C3F80825C1F88000BFF34F8FBFF334
:101910006F8FC1F88001C3F80825704700F00040C0
:1019200000E100E00000F63F8C46302300B50CF8E3
:10193000033B054B8E4607CBCEF80300CCF80410D2
:10194000CCF808205DF804FB6C1F002010B5154C86
:1019500010F050FB0FF000FC636A608C0021984788
:10196000237E9BB9104B628C93E803000BF060FF61
:10197000E36A18880BF086FE636B94F8301094F8D5
:1019800031009847002384F8383010BD94E80700F0
:1019900004F10C0383E80700044904F1190019F06D
:1019A00084F9DFE7601F0020881F0020291900004C
:1019B000034B93F8383003B97047FFF7C7BF00BF38
:1019C000601F002008B540F22B410620FFF788F881
:1019D00008B5094B93F83820022A07D1DA7A42F089
:1019E0000102DA72BDE80840FFF7B0BF40F25321B0
:1019F0002720FFF775F800BF601F002070B5364E36
:101A000096F8283005460BB1012825D001292AD89F
:101A1000336C28469847044628B396F8303013BBF9
:101A200096F8283013B31DBB96F84420D106C2F3B4
:101A300000152DD4F26C316D1278C2F3001201B38F
:101A400082F00104BBB1738F9A0715D5F36BDC7874
:101A5000023C18BF012407E0738F1807D6D5F36B3B
:101A6000DB78022BD2D10124204670BD012DDBD0C2
:101A70000024204670BD738F002BF4D1002DF3D0CD
:101A8000F6E7B6F854100029DAD0002BF3D0DAE7E5
:101A9000F16B0A7802F00302032A02D1CA78022A03
:101AA00018D0B06C16F0EFFA48B9F36B1B7803F05E
:101AB0000303032B06D196F828300546BAE796F8BB
:101AC0002830B7E709F04EFF80F0010596F828307E
:101AD000EDB2AFE70025ADE7601F002070B5254CE3
:101AE000E56AE26C95F8A430A265064694F85C00BD
:101AF0000BB10430C0B295F87D100EB9FF282FD07D
:101B00000FF026FF95F8A43023B3206E10F08EFB63
:101B100094F82830216EA06D003B18BF012384F893
:101B20008030D5E94223C4E91E230FF0B9FA46B943
:101B300095F87D30033B012B94BF2820002010F046
:101B4000E3FB95F87C10002010F046FC022384F89B
:101B5000383070BDA06D10F069FB0FF0FDFAE6E7BC
:101B600095F87C208A42CFD00FF0F2FE95F8A43091
:101B7000CAE700BF601F00202DE9F0413B4C94F8FC
:101B80003830E56A012B82B069D15FFA83F895F8A5
:101B9000943006460F4673B1638F002143F004036F
:101BA000638785F89410636A0420984794F8283076
:101BB0000BB185F89680E16B0B7803F00303032BE0
:101BC0002ED04B7843B3022385F89A3095F8A43091
:101BD000DBB1E36A93F87D10D5E94223C4E91E2303
:101BE00094F8283094F85C200139003BC9B218BF42
:101BF0000123032984F8803036D81D4B00205B5C1C
:101C000000901C4901200FF0D3F906B9E7B902B0E2
:101C1000BDE8F041FFF79ABE012385F89A30D5E779
:101C200095F89A3063B9638F43F00203638702200B
:101C3000636A9847E16B0B7803F00303032BC0D171
:101C4000032385F89A30C1E731463046FFF7D6FEC8
:101C50000028DCD102B0BDE8F041FFF73FBF40F201
:101C6000A4412720FEF73CFFFFF7ACFE601F0020D9
:101C7000AC3E0400C81F002070B5814CE56A94F8A2
:101C80005C3095F8A42082B000218DF805100AB1CF
:101C90000433DBB295F87C1010B9FF2B00F0AF8055
:101CA000FF200FF055FE95F89A30032B00F2E380E9
:101CB000DFE803F0021C807094F8C230ADF8063003
:101CC0007048A5F86C3009F027FE002840F09D8090
:101CD000A06C0DF105020DF1060116F069F9E06343
:101CE00020B195F8E130002B00F0A7806648E06352
:101CF00095F89B200378D20002F0080203F0F3036A
:101D0000134395F89C20920002F00402134303F061
:101D1000EF0203F00303032B027002D1C378022BFE
:101D200011D0A06C16F0AFF948B9E06B027802F060
:101D30000303032B07D009F015FE002876D1E06BD2
:101D4000027842F01002027095F8A33013B1437884
:101D5000002B41D110F06AFA0FF0FEF9E66B0AF0A1
:101D600059FE20B1337803F00303032B61D095F8BB
:101D70007D10012010F030FBE36B444A18889978FD
:101D8000A4F84400012384F8C430917084F83830FA
:101D900002B070BD3B4809F0BFFD002861D0E06B88
:101DA000C3781B2B14D1012105F110000FF002FEA6
:101DB000E06B0DE0B5F86C30A06CADF806300DF1BD
:101DC00005020DF1060116F0F3F8E06300284DD08E
:101DD000012384F8C3308BE7206E10F027FA94F8C3
:101DE0002860E16B206ED5E94023B6FA86F67609C5
:101DF000C4E91E2384F880600FF052F9AEE795F82D
:101E00007D308B427FF44CAF4DE7638FE16B626AAC
:101E100043F480734FF4807063879047E06B012137
:101E200085F89510C3781B2BD2D1BDE7E06B027803
:101E300089E7012011F028FE99E79DF8053043B1AC
:101E4000BDF8061018F0D8FE0123E06B84F8C3300B
:101E50004EE703808370E06B012118F0B7FDE06B63
:101E6000EEE740F2FD212720FEF73AFE40F2F32193
:101E70002720FEF735FE40F20B312720FEF730FE1B
:101E8000601F00209C1F0020F01F0020A41F0020C6
:101E90002DE9F04FB84C94F83830E66A87B000224C
:101EA000022B049240F01282638C884613F04001AA
:101EB000074606D1636A40209847638C43F040038D
:101EC0006384002F5CD096F8A430002B40F05C8136
:101ED000D4F858A09AF8013099B2A4F85410002907
:101EE00040F06A81002323659AF80050638C96F8CD
:101EF0009B10C5F3800243F400739142638400F0A9
:101F0000F080D4F82C9099F89A20FAB1022A00F0C7
:101F1000B78194F82830002189F89A1023B199F8F4
:101F20009630002B40F0A28199F89530002B40F0BC
:101F30007F8199F89B30D4F858A0012B0CBF002367
:101F4000012389F89B309AF80050638C96F89C1016
:101F5000C5F3C00243F40063914263844FF000096B
:101F600000F0C78000250AF055FDF0B19AF8003066
:101F700003F00303032B18D1012011F085FD14E0B9
:101F800096F8A420002A40F0F38043F48063638431
:101F900096F87D3094F8CE20033B0132012B84F873
:101FA000CE2040F2D4800025A94696F8A33003B392
:101FB00094F8283096F87C10F069B3FA83F35B0943
:101FC00084F8803041F64B53984294BF042000209F
:101FD0000139D6E94023C9B20329C4E91E2300F21E
:101FE0007A81664B00225B5C00926549FB220EF011
:101FF000DFFFB8F1000F08D194F8CE100120FFF7F1
:10200000FDFC8046002800F0DF8010F021FA4FF040
:102010000108002D3BD1B9F1000F09D094F8283008
:10202000002B40F09A80B4F809300133A4F809304D
:10203000002F4BD0B4F8053000220133A4F805304E
:1020400084F8CE204F480BF00BFB049830B116F00B
:1020500097F8E16A002202720AF024FC35B1E16AC5
:1020600000232B720C2228460AF0EAFBB8F1000F7D
:1020700032D1638C1B0607D4636A4146802098479F
:10208000638C43F08003638407B0BDE8F08FA16DDB
:10209000236D4D78002B00F02081B4F854201846B1
:1020A000033214F0BBFC0DF10E0205A9A065D4F8B3
:1020B000C80016F07BF8059816F062F82946012250
:1020C0000546D4F8C80016F028F8A4E7B4F807309D
:1020D0000133A4F80730B5E7FFF738FC07B0BDE8D7
:1020E000F08F96F89C10C5F3C0029142B9467FF478
:1020F00039AF05F00305032DD4F82CB06AD143F4B1
:1021000080536384638F012043F00103514663874A
:102110008BF89400636A9847D4F858A000259BF880
:102120009C30013B18BF01238BF89C309AF801309A
:10213000002B3FF418AFDBF808310133CBF808313E
:10214000DBF80C3143F10003CBF80C310BE7012035
:10215000002511F099FCA94627E7B4F80530B4F83A
:102160000710B6F898200B4313433FF461AF5AE7CA
:102170000FF064F8638C08E7601F0020AC3E040099
:10218000C81F0020881F00200FF01EF80FF000F875
:10219000D4F858A09AF8013000287FF49DAE002BA7
:1021A00061D09AF8002096F89C10C2F3C0029142C8
:1021B00077D099B2A4F85410D4F8C80015F084FF71
:1021C000D4F858A020658FE6FFF756FD002D3FF4A8
:1021D00022AF5CE7002DA2D09AF80150002D9ED0CE
:1021E00043F4805363849BF8A4500FF045FB04280C
:1021F00094F8CC3006D1002D14BF1B221F2293422D
:1022000028BF1346D4F858A09AF801209A424ED815
:10221000256D002D3FF4A7AE94F8CD30002B53D0A0
:10222000636A0021202098470025D4F858A09AE638
:10223000002589F8955009F07FFB002852D0638F64
:1022400043F0080363872946636A08209847D9F852
:1022500000310133C9F80031D9F8043143F10003EA
:10226000C9F8043165E6A4F854303BE6638F89F879
:10227000961043F0100363871020636A984753E673
:10228000A06C04A915F0B7FE88B3D9F8003101336A
:10229000C9F80031D9F8043143F10003C9F8043119
:1022A00037E6012384F83130FFF750FBECE694F871
:1022B0003030012043F0100384F83030002511F055
:1022C000E3FBD4F858A04EE63D4628E74FF4A3615F
:1022D0002720FEF705FCFFF775FB40F2954127200C
:1022E000FEF7FEFB40F225412720FEF7F9FB40F206
:1022F0000E412720FEF7F4FB70B50D4B0D4C0E4A36
:102300001A6094F838301BB1E1212720FEF7E8FB72
:1023100003F0FF0206460D4622760BF081FA0121FA
:1023200004F1900018F052FBE664256670BD00BF12
:1023300068000020601F00203028000010B5074A08
:1023400092F8383013B10C24204610BD03F0FF047E
:1023500014760BF065FA204610BD00BF601F002008
:10236000024B012283F8CD20704700BF601F002080
:10237000F0B5BF4C85B002AD85E8030094F8380095
:102380000A9E002840F0BD81002A00F0BA81002B8F
:1023900000F0B781002E00F0B48100F0FF0184F856
:1023A000CD1084F8301084F8CE1084F8311084F801
:1023B000C41084F8C3106187618495E80300236426
:1023C00004F1280383E80300E56A626266630FF0A4
:1023D00051FB0EF0C1FE95F980000FF053FCA86B85
:1023E0000FF008FF286A0FF053FC95F8B4000FF0C7
:1023F00059FC94F82860EA6941F64B53002E00F02E
:10240000C2809A4200F20D814D200FF01BFA01208C
:102410000FF070FDE36A93F800327426002B40F051
:102420000A8195F87D20314601200FF08BFD914BFC
:1024300018680FF0E5FED5E90523A264C4F8C8309A
:1024400095F88B304BB9D5F8843033B1B5F8CE1050
:10245000B5F898208A4200F00281D5F81411D5F819
:102460001821D5F81C31844ED5F810010FC6D5F8C7
:102470002031C4F88130E36AD5F82421C6F80D2054
:1024800093F89E20A2F12601012940F28B8093F857
:102490009F10262900F08680213A012A40F20F8100
:1024A000242900F0EF8093F87C60032E08BF0426F7
:1024B00005F144073146384618F0B8FC314617F0AC
:1024C000F8FEB5F8503095F87D100246934228BFCB
:1024D0001346384684F8C23018F06EFC95F87D102B
:1024E00095F8A470B5F85860042908BF032117F0C7
:1024F000E0FE0FB9043080B2B04228BF3046C6B209
:1025000084F8CC600AF086FA10B12B2E38BF2B2647
:1025100094F8280084F85C6000285ED195F8A33018
:10252000DBB1012384F88030D5E94023C4E91E23C0
:10253000EA6941F64B539A4298BF042095F87C30E3
:10254000013BDBB2032B00F2E1804C4A0021D35C5B
:102550000091FB2248490EF02BFD0120FFF78CFB78
:102560000023C4E90033A360D5F88C302988B5F87E
:10257000980095F8B4206080218022710BB101226F
:102580001A6005B0F0BD9A4258D84D200FF05AF9A4
:1025900030460FF0AFFC95F87C206E2100200FF044
:1025A000D1FC44E794F82820002A33D193F8422242
:1025B00093F87C60002A3FF47BAFF31E012B40F2BE
:1025C0008B80D31E012B40F28780012E3FF470AF29
:1025D000012A14BF022601266AE795F8A430ABB1A0
:1025E00095F87D10D5E942230139C9B201200329AC
:1025F000C4E91E2384F8800000F288801F4B5B5CD6
:102600000021009132461C490EF0D2FC0120FFF758
:1026100065FAA5E793F8D62293F87C60002ACCD11E
:1026200046E796200FF00EF9E36A93F800329D26F4
:10263000002B3FF4F6AE0FF00BFAF2E696200FF007
:1026400001F995F87C200D4B0D4803EB4203998866
:1026500001F5FA71A0FB013189096E319EE7B5F8E9
:1026600088100A440121A5F8CE201960F5E600BFC4
:10267000601F002068000020C81F0020AC3E04003E
:10268000D34D621094F82820002A3FF40CAF93F841
:102690004E2193F8751093F87C6002EA01035A0703
:1026A0001AD413F0010220D19B077FF501AFF31E6E
:1026B000DBB2012B10D9012E18BF0226F8E624291F
:1026C000E0D094F82820002A3FF4EDAE93F84E2194
:1026D00093F87C60500701D50426E9E612F0010367
:1026E00009D191077FF5E4AEE1E7033E012E8CBFEF
:1026F00016460426DCE6033E012E8CBF1E46042649
:10270000D6E640F26F112720FEF7EAF9FFF75AF9F3
:1027100008B5124B93F8382092B193F8282022B9CB
:1027200093F83830012B14D108BD93F83820022AD1
:102730000AD1DB6AD3F81802BDE808400FF0B0BD3B
:10274000BDE80840FFF702B940F235212720FEF727
:10275000C7F940F231212720FEF7C2F9601F00209F
:10276000FFF7F4B8014B1876704700BF601F0020D8
:10277000014B93F8C4007047601F0020034B93F88F
:10278000C30010B9588CC0F300307047601F0020A0
:10279000024B588CC0F3C020704700BF601F002060
:1027A000014B93F8CE007047601F00202DE9F041E7
:1027B0001E4F8207FE6A82B0044613D4E3070ED58B
:1027C000D6E9423296F89C10013342F10002012909
:1027D000C6E942320CBF0023012386F89C3002B0C8
:1027E000BDE8F0813B6DE3B1B7F854200D46B96DFB
:1027F0001846033291F8018014F010F90DF102022D
:1028000001A9B865D7F8C80015F0D0FC019815F0FB
:10281000B7FC012228604146D7F8C80015F07DFCBE
:10282000CCE740F295412720FEF75AF9601F0020BF
:10283000D1190000911E0000791B0000B1190000A1
:1028400008B540F2C1310620FEF74AF92DE9F843F8
:10285000002800F0E0800446072900F2D380DFE87A
:1028600001F0AB2424A7D11F9ECD0146204619F0CC
:10287000A8FAD4F84C3100F1DB059D4240F2C68045
:10288000E81A322838BF3220032113F081F9C4F846
:102890004C510646204619F053FB002E00F09D8057
:1028A0002046BDE8F84319F04CBB19F0CBFAD4F838
:1028B0001C21002305460E4684F8483184F8513126
:1028C000BAB150EA010314D0CA00C3001B1A42EA8D
:1028D000507262EB0102D4F838115B18D4F83C1145
:1028E00042EB0102D4E95601834272EB0103C0F0CE
:1028F0009080022304F5A47784F85031384612F012
:102900008BFB002800F08B8094F8683103F0FF0106
:10291000002B6BD1D4E958026FF000439A4208BFF4
:10292000B0F1FF3F13D02046D4E9569819F049FA88
:10293000D4F86031D4F86421B3EB090300F1DB0073
:1029400062EB08021B1A62F10002002A4BDB94F8CA
:102950001801394612F052FC00286AD0D4E9560119
:10296000D4E94C32834272EB01071FD255EA0607C5
:102970001CD0C01A61EB020133462A4613F090FFC7
:1029800005FB01F3D4E94C2100FB0636A5FB0053FF
:102990005519334443EB0103C4E94C5306E090F866
:1029A000180112F00BFB002384F84031BDE8F883D6
:1029B000BDE8F8430FF060BD0BF020FFD4F84C01E8
:1029C000CB3813F043F878B3204619F079FA002891
:1029D0003FF44BAF204619F0B3FAD4E95623C4E9CB
:1029E0004E23BDE8F88320460BF010FF94F8180141
:1029F00012F0E4FA002384F84031AFE7F4213020EC
:102A0000FEF76EF8F8213020FEF76AF8C4F84C5152
:102A1000E0E701236EE7D7213020FEF761F840F2AE
:102A200092613020FEF75CF840F251213020FEF731
:102A300057F840F296613020FEF752F82DE9F04F3A
:102A400004468BB00020174694F87DB002930E46E2
:102A5000069016F0D3FF94F801220B2A00F2C483EB
:102A6000734B33F8125094F89F200392284487F058
:102A7000010285B2049227B3B4F89092B4F898A0FA
:102A8000A6EB09090FFA89F9A6EB0A0AB9F1000FBA
:102A90000FFA8AFA04F51878C0F254826549029A4E
:102AA000097801F0FF07002940F05C8294F8443275
:102AB000032B00F2B083DFE813F0BB018201C100F9
:102AC0003A0094F84422032AD6D1039A0E2AD3D18D
:102AD000B4F8D422B242CFD1B4F81C12B4F8922286
:102AE0000A44C4F84022D4F84C22C4F83822E269DF
:102AF000C4F83C2220460DF0C5F8D4F8DC22E16988
:102B0000914205D004F1280019F0E5FCD4F8DC224C
:102B1000E261D4F8D822E263B4F8D622A4F84020C7
:102B2000D4F8E0226262022284F84422A4E7E16938
:102B3000029B01FB09F0002B00F08282B4F81C32EA
:102B4000002B40F07D8284F85B32D4F84C5294F82C
:102B50009E1005FB19092629CDF8189000F0BF82B8
:102B600094F89F10262900F0BA82BAB3B3BBD4E917
:102B7000A0C2D4E99E01604571EB020280F0468359
:102B800094F87D00C21E012A40F2FC820FF0E4FF9F
:102B9000294DD4F8801200F5234E0EF1A10EA5FBAD
:102BA0000E3ED4E99E2394F87D008439A0F1030CF5
:102BB0008A1A9144BCF1010FA9EB9E1940F22083BF
:102BC0000FF0CAFF00F2E732A5FB0232B4F81C3264
:102BD000D4F84C5292094A44103A06929A44ABF106
:102BE000030305FB0AFADBB20AF1300A012B4FEAB4
:102BF0004A0A40F2B78258460FF0AEFF0E4B00F57E
:102C00002340A130A3FB00304FEA901958460FF043
:102C10009BFF0AF17405074AE1694D442B18536084
:102C200041F64B52914240F2A08206986EE000BFFE
:102C3000BC3E040030200020D34D6210E36BD4F87A
:102C40003C022946184419F0DDFC2946C4F8480224
:102C5000E069BA4D19F0D6FCE26994F87D9041F62E
:102C60004B539A4298BF0230C4F84C0248460FF0CA
:102C700073FFA9F1030900F55F40B9F1010F00F1FD
:102C80004100A5FB003094BF2821002101EB9011E9
:102C90008031204618F030F9B4F81C32002B00F0D7
:102CA000D781D4F83C32E26BD4F8480294F87DA086
:102CB00013441B1AAAF103010693C9B2D4F838329F
:102CC000D4F84022B4F8409002FB030530350129C6
:102CD0004FEA450509F1740940F2FC8150460FF0B6
:102CE0003BFF964B00F52340A130A3FB00304FEA99
:102CF000901B50460FF028FF4D44914AE1695D4416
:102D00002B1853600698012284F84422D4F84C52C0
:102D10006FF4AD724D1B15449D42A0EB0700D4F833
:102D20008872069028BF1D46D4F88C32C4F8185219
:102D3000381843F10003C4F874320023C4F8700259
:102D400084F8603204F1440018F034F8D4E99C238C
:102D50000544C4E9A223C4F86452A4F890620CF0BC
:102D6000D9F920B1D4F864321E33C4F86432B4F80F
:102D70000812039A8E1B002336B29E4284F86832F2
:102D8000C4BF022384F868320E2A029A00F0B3818D
:102D9000002A40F0B38194F84432002B40F0CF81F8
:102DA00094F85C02414612F029FA002800F01E82D5
:102DB000049B84F8583200200BB0BDE8F08FD4F8A3
:102DC0004C02E269D4F84832D4F84012B4F81C52EC
:102DD00094F87DB0121A09FB02F20692D4F8382258
:102DE000B4F840903033AA4402FB0135C9438A4409
:102DF000ABF1030300FB0A55012B4FEA450509F12E
:102E0000740940F2618158460FF0A6FE4B4B00F565
:102E10002340A130A3FB00304FEA901A58460FF030
:102E200093FE4D44464A55442B185360069883E060
:102E300094F87D1094F81602DFF800A117F061FAFB
:102E40008146E06B2946484419F0DCFB2946C4F86A
:102E50004802E06919F0D6FBE26941F64B539A4209
:102E600098BF0230C4F84C0207A908A80FF0F8FA7E
:102E7000079B0093D4E9A201DDE9082313F0F2F8DF
:102E800094F87D300593054618460FF065FE059BC6
:102E900000F55F40033B012B00F1410094BF282166
:102EA0000021AAFB003001EB90118031204618F080
:102EB00023F8D4F89432E26B94F87D0006930592DF
:102EC0000FF04AFE4AF2A13B00EB0B03AAFB0331D1
:102ED000069B059AD4F84802943B13441B1A4B44B2
:102EE0005B1B94F87D20B4F84090A3EB91130693FC
:102EF000D31E00F13005012B4FEA450509F1960973
:102F000040F2E580104605920FF026FE8344AAFBAE
:102F10000B3A059A4FEA9A1A10460FF015FE4D44E7
:102F2000074A55442B1853600698D4F89422821A05
:102F3000B2F5917FC0F05F81E169E7E6D34D6210A1
:102F400030200020D4E99E01C4E9A201B4490978E7
:102F5000002284F85B22D146012201F0FF070029FC
:102F60003FF4A4AD059219F053FB059A07460028DB
:102F70003FF49CADB4F83012012940F2AE8094F8D1
:102F80004412022900F0A98094F85A12002940F056
:102F9000A480E06941F64B57B84240F2FE8094F8B5
:102FA00001120B2900F220819E4B33F8115094F846
:102FB000443205F5C865012BADB240F0F28094F8BB
:102FC000A230032B40F00381D4F83C02E76B0744A6
:102FD0002946059219F016FB03463846D4F8387294
:102FE000C4F83832DB1BD4F84072294603FB07F7DC
:102FF00019F008FBD4F84832C4F84802C01A074454
:103000002946E06919F0FEFAE369059A41F64B5149
:103010008B42B4F81C32D4F8401253446FEA0101D9
:10302000A3EB09030B44D4F84C1298BF0230C4F848
:103030004C02401A00FB0377012384F85A3235E52D
:1030400094F85B32002B00F08A80754B5B685DE67C
:10305000029B002B3FF425AED4F83C32E26B94F88F
:103060007D0003EB020B0FF077FD00F52340A1304C
:10307000A5FB00304FEA9019D4F84802D4F880221A
:1030800094F87DA0ABF1940BABEB000B9344AAF149
:103090000301D4E99E23C9B20129ABEB020B7AD913
:1030A00050460FF059FD94F87DA000F2E732A5FBE1
:1030B0000235AAF10301D4F84802AD09C9B2ABEB5D
:1030C00009022A440692F9E54FF0650AA6E64FF098
:1030D000650A21E74FF0650B0BE60027E6E4B4F83C
:1030E000D412711A09043FF540AD94F8D7120029A3
:1030F00018BF8B4639E5002A3FF452AEB4F83022AF
:10310000D2B1B4F8320294F8341200FB01118A42B1
:1031100000F101007FF744AE002B3FF441AE0023E5
:1031200084F86832A4F8320209F07AFC00F0070053
:10313000013084F8340233E6A4F8322230E6E16943
:10314000D4F84C324046C91A17F082F880B20028F1
:103150003FF426AE149B13B3188001202CE6B4F87C
:103160001C32F2E44FF0650950E5084606AB5146C3
:103170002D4A17F0E3F82A4B84F85B025B68069847
:10318000E169C3E5D4E99E01ACF1E90CACEB000CBC
:103190003C22E1441FE53C2591E70F4686E40120EF
:1031A0000AE62946059219F02DFAE369059ABB4211
:1031B000B4F81C72D4F84C3298BF02305744A7EBD5
:1031C0000907C4F84C02C01A00FB07F734E794F86B
:1031D0007D1094F81602E76B059217F092F8059AA5
:1031E0000744D4F83C02F3E6FFF72AFB40F27B5198
:1031F0003020FDF775FC40F2C6413020FDF770FC31
:10320000B4F81C32D4F84C523C22E4E440F21A5197
:103210003020FDF765FC40F232513020FDF760FCB4
:1032200030200020BC3E040034200020F0B585B0E2
:10323000002800F015810446072900F20081DFE82C
:1032400011F09200080008007B00FE00800088005A
:10325000FA0019F045FBD4E99E23801A61EB0301C3
:10326000012871F10003C0F20D816FF0010200230B
:1032700082428B41C0F20181E3690BB1B0FBF3F3F1
:1032800094F89F200E2A00F0CF80B4F89810B4F87C
:1032900056220B449BB2D11A0D0454BF531C013368
:1032A0009BB2A4F8563294F85932B4F8561223B9A6
:1032B000B4F80C328B4200F0C680B4F8D400B4F8F5
:1032C0009830B4F89222724F0344B4F8D200013B14
:1032D00001321B1AA4F892229EB202AD3B6853B190
:1032E000013989B2002220469847B4F856120144A9
:1032F00089B2A4F85612731A18046ED400230095EC
:103300001A462046FFF79AFB00284AD1D4F88430A9
:103310003BB3B4F8CE20B4F856329B1A1BB2002B44
:103320001FDDB4F888100B44013BB3FBF1F313FB32
:103330000123A4F8CE3014E005B0BDE8F0400FF052
:103340009BB8012010F0A0FB05B0BDE8F040FFF7EE
:1033500007BA90F84432042B40F08B80002380F8A9
:10336000443205B0F0BD90F8583253B3B0F856224D
:10337000B0F898309A426BD0D31AA0F80E32A0F869
:103380009820D4E99C232046C4E99E230CF068FBD6
:1033900094F81332002BE4D005B0BDE8F04018F0EB
:1033A0004EBF012860D1B4F85612B4F80832CA1AD8
:1033B00012042FD4BDF80830194489B2A4F856126B
:1033C0008CE7B0F85432B0F89810B0F85422A0F856
:1033D00098205B1AA0F80E32D3E794F8A220039449
:1033E000002A0CBF3E220822012384F8C12028466F
:1033F0008DF8083009F0A8FE204618F022FF0023BF
:1034000084F8443294F85C0211F0D8FD202384F84B
:103410005C32A6E7BDF80820114489B2721A12F492
:10342000004F18BF1946C9E7B4F85612013189B2E6
:10343000A4F8561241E7CB213020FDF751FBCF21F4
:103440003020FDF74DFB013189B2A4F8561234E764
:10345000B0F80C32A0F898309B1AA0F80E3290E722
:10346000A6213020FDF73CFB40F254613020FDF7EF
:1034700037FBC5213020FDF733FB40F207613020D8
:10348000FDF72EFB40F206613020FDF729FB00BF5F
:103490006C0000202DE9F043D0F81C310026D0E963
:1034A000568983B080F8206105460F4683F81622BE
:1034B00080F840610121D0F81C0108F07BFED5F8AE
:1034C0001C41C4E99E8995F8183184F85C32C4E93E
:1034D000A289C4F8947284F84462A4F890623346D6
:1034E0000096324631462046FFF7A8FAD0B90123AC
:1034F00084F84432C4F84002C4F83802A4F85602F2
:10350000A4F8540284F85902B4F89830A4F892024E
:10351000013BA4F898300EF015FE03B0BDE8F0436F
:1035200011F0D8BB40F2F3113020FDF7D9FA00BFFB
:10353000D0F81C01704700BF2DE9F04385B000238F
:103540000322CDE90033FF268DF806206846FDF7FB
:10355000EDFF044620BB009D95F84031002BF5D0CF
:1035600085F868610121284618F0EDFC95F8403196
:10357000002BEBD095F8180112F0A2F895F818017D
:1035800012F02EFC95F8180111F018FD00283CD01F
:1035900085F840416846FDF7C9FF04460028DAD0A7
:1035A000DFF87C80012388F80830002502264FF6DA
:1035B000FF771AE0029BE3B193F85C22202A18D02F
:1035C0001888B8421BD00221FDF776FF814608B368
:1035D00090F85C0212F004FC99F85C0289F844420D
:1035E00011F0ECFC202389F85C32CDE902558DF80E
:1035F0000E6002A8FDF79AFF04460028DAD00023E7
:1036000088F8083005B0BDE8F08340F2DF113020C3
:10361000FDF766FA40F22B113020FDF761FA00BF8A
:1036200030200020054B0022012142F210705A7216
:10363000588119701A72FFF77FBF00BF3020002039
:103640002DE9F84390F84031002B76D104468846A6
:1036500001465648154603F0FF0711F083FC202869
:1036600006466AD05822394604F58C7013F04EFA9B
:1036700084F81861C4F81C81FF2384F84031B8F144
:10368000000F06D009F0E4F900F00700013088F8D7
:10369000340202234FF00008A4F8503184F8488126
:1036A00018F0BCFF00F19E062046B6B218F008FCE8
:1036B000002846D016F0A2F900F5CD6189B228465F
:1036C00018F0A0FF2844C4F84C0119F009F930188B
:1036D00041F100014FF00109C4F85801A4F8268017
:1036E000C4F85C1184F82091204618F0FFFB0028F4
:1036F00045D04946204618F064FBA5F2D7452D1A5F
:10370000C4F824514FF0FF326FF00043C4E958234E
:1037100094F8180104F5A47111F070FD00283FD051
:10372000D4E956232046C4E94C23C4E94E230021A2
:1037300018F009FC3846BDE8F8830C273846BDE888
:10374000F8830146204618F03CFBDFF86480DB304C
:10375000C4F84C01B8F80A0008B1E08CB8B90644C6
:1037600019F0BEF8361841F10001C4E95661002D88
:10377000C8D0AE1941F10001C4E95861C8E7484614
:1037800018F086FCDB3D2D1AC4F82451BAE709F085
:103790005FF9B8F80A30B0FBF3F202FB1300DEE782
:1037A00040F2C1113020FDF79BF900BF4D28000009
:1037B0003020002090F840310BB90020704710B540
:1037C0000446FF2380F86831012118F0BCFB94F80F
:1037D00040310BB9002010BD94F8180111F070FFB2
:1037E00094F8180112F0FCFA94F8180111F0E6FBB5
:1037F00020B1002384F84031002010BD40F2DF11D9
:103800003020FDF76DF900BF014B5872704700BFC3
:103810003020002090F8682182B910B502F0FF0432
:1038200090F8202112B90122104610BDD0E949318B
:103830009942F9D90AF0EAFF2246F5E7002210463C
:10384000704700BF10B504460EF03CF8074BDA682D
:10385000824208D3E16941F64B52914203D9187A6A
:1038600080F0010010BD002010BD00BF30200020FE
:1038700008B540F2FF1117F047FBB0F5296F28BFDC
:103880004FF4296080B208BD90F81332002B75D137
:10389000F0B503F0FF0590F84432032B85B00446E1
:1038A00001D005B0F0BD19F01BF8D4E99E23801AB1
:1038B00061EB0301012871F10003F2DB6FF00103FA
:1038C000834275EB01035CDBE369B4F89820002BBD
:1038D00055D0B0FBF3F080B2531C184480B2A4F86A
:1038E0005402B4F85422B4F80C329B1A1BB2002BC9
:1038F000D7DD94F85C0211F0E3FE0028D1D0FF235D
:1039000084F85932B4F89850B4F8D420B4F8D230CE
:10391000214F1544013DED1A3B68ADB20DF10E0685
:103920006BB1B4F85412013989B20022204698478D
:10393000B4F8543210FA83F39BB2A4F85432B4F8BA
:103940005432EB1A1B04ACD4B4F85412009689B26A
:10395000002301222046FFF771F80028A1D001289A
:1039600014D1B4F85432BDF80E2012FA83F39BB28E
:10397000A4F854323B68002BD3D1E0E770471846D7
:10398000AAE740F2AF513020FDF7AAF840F2F65115
:103990003020FDF7A5F800BF6C0000202DE9F043B2
:1039A000044683B0062900F20081DFE801F0042517
:1039B00012222B327600D0E99E23D0E9A001824268
:1039C0008B41C0F093807B4B1B7A03F0FF02002BEE
:1039D0007DD0042384F844320EF0B4FB11F07AF960
:1039E000B4F89820A4F856220023A4F8923284F860
:1039F000593203B0BDE8F083032380F8443203B0AA
:103A0000BDE8F0830DF082FFC4E9A00103B0BDE87A
:103A1000F08390F87D30DFF89C91C569D0F84C2296
:103A2000033B40F26D1840F24511012B88BF8846D8
:103A300099F8093095428CBFAD1A00251BB9436C2B
:103A40009D4228BF1D4604F14400D4F8187217F0B7
:103A5000B1F90744022012F047F8ED1B25EAE5759D
:103A6000854228BF05460221284612F091F800B988
:103A70002F4442463946204617F02BFAE269D4F823
:103A80001832C9F80C00D01811F0E0FF0028B0D1AE
:103A900040F279313020FDF723F890F87D50284628
:103AA0000FF05AF8033D444900F55F40012D00F145
:103AB0004100A1FB003094BF2821002101EB9011AF
:103AC0008031204603B0BDE8F04317F015BAB4F8D2
:103AD0000C12009201232046FEF7B0FF00283FF4AD
:103AE0007BAF40F2CA613020FCF7FAFF94F85A32FB
:103AF000002B3FF468AF94F84432032B7FF463AF9C
:103B000094F87D8015F07AFF94F801320B2B4AD897
:103B10002A4AD4F8806232F81330D4F81892C518C3
:103B200003F5C8639FB2D4E99E234046B61A0FF04E
:103B30000BF8A8F10302012AADB2A9EB000930D9B4
:103B400040460FF009F81C4B00F52342A132A3FBBD
:103B500002239B09A9EB0303A3F174025208D43B8F
:103B60009D3205FB03F3B3FBF7F36033A2EB530184
:103B70008E424FEA530302D313449E4201D918F0F8
:103B800049FDE069294618F03DFDE26941F64B53D5
:103B90009A4298BF02300023C4F84C0284F85A328B
:103BA00011E76523D6E7FEF74BFE40F26571302042
:103BB000FCF796FF30200020D34D6210BC3E04007D
:103BC000012A70B5064609D0022A14460D461ED0B9
:103BD0004AB140F28F713020FCF782FF0DF072FE87
:103BE000C6F8940270BD0DF06DFE224601462846CF
:103BF000FFF750FC0F4995F8180132460FF034FFDB
:103C00000028EFD14FF4EF613020FCF769FFD0F8C6
:103C1000941201222846FFF73DFC064995F8180149
:103C200032460FF021FF0028DCD140F289713020AC
:103C3000FCF756FF2D320000F8B5044651B10129BA
:103C40005BD1002380F820310EF07CFABDE8F8400B
:103C500011F040B8C58C002D47D12046D4E94C76F0
:103C600018F0F0F8401941F10001C01946EB0101CC
:103C700000220223C4E95601C4E94C0184F848211A
:103C8000A4F8503194F8683103F0FF01002BDBD128
:103C9000D4E958026FF000439A4208BFB0F1FF3FE9
:103CA0000CD194F8180104F5A47111F0A7FA0028BA
:103CB000CAD140F2E9613020FCF712FF2046D4E976
:103CC000565618F07EF8D4F86031D4F864215B1BA6
:103CD00000F1DB0062EB06021B1A62F10002002A0F
:103CE000DFDA20460AF092FDAEE708F099FEE58C97
:103CF000B0FBF5F303FB1505AFE740F29F713020F1
:103D0000FCF7EEFE90F84001003818BF0120704724
:103D1000014B5881704700BF302000200B4606221F
:103D200003F8032BB0F809C0C27AA1F803C09A7057
:103D3000704700BF08B540F2B7213220FCF7D0FE33
:103D400010B582B090F8023173B903F0FF02ADF8FC
:103D500004209DF804209DF80530002062F3070040
:103D600063F30F2002B010BD0C46363804F088F91A
:103D7000182204232270ADF80430EAE770B5002859
:103D800060D0437A0D460446002B3AD0408900218A
:103D9000FDF792FB0646002859D0008807F07CFD0D
:103DA00030880021FDF79EFB002855D194F854601F
:103DB00094F8B0302BB194F8B1301E43002384F84E
:103DC000B030204604F05CF9B3072BD12B46132208
:103DD00003F8032B04F1090229341668506891682E
:103DE000D2F80CC0C3F80CC01032A2421E6058605A
:103DF000996003F11003F0D1117819700022AA71B3
:103E000070BD036DD0F80E20C3F80320428AA3F8DA
:103E10000720427B036D12F0FD0F14BF0122002228
:103E20009A70C3E7002226F0040684F85460114615
:103E3000204604F0ADFF0028C8D14FF4487132206D
:103E4000FCF74EFE4FF440713220FCF749FE4FF470
:103E500043713220FCF744FE4FF444713220FCF7EA
:103E60003FFE00BF044B1B680022A3F8BB2083F871
:103E7000BD2083F8902070474020002008B508F04E
:103E800065FA034B18700EF0B5F8032008BD00BFAB
:103E90001000002008B508F059FA024B02461A70CB
:103EA000012008BD100000202DE9F041054617460D
:103EB0001E46A1B1AB681BB12FB13846BDE8F081F9
:103EC0000120BDE8F081002EF7D01849AA7C0968CE
:103ED000BDE8F04191F84100423116F02FB9DFF80A
:103EE0004C80D8F8001091F85A2091F8A40001F104
:103EF0005B039E3116F022F9D8F8003093F8912038
:103F0000082A03D093F84E10914207D093F8563008
:103F1000012BCFD033B90028CCD1D2E793F856305B
:103F2000012BC7D90020BDE8F08100BF4020002050
:103F300038B5124C20688C3003F02CFA256803F059
:103F4000CBF92368C5F88C00D3F88C0060B103F07E
:103F5000F3F970B10EF06AF900200EF0D5F923687C
:103F6000042283F8902038BD40F2EF413220FCF764
:103F7000B7FD40F2F1413220FCF7B2FD40200020B5
:103F800008B508F0E3F90549054B024608681A70C0
:103F900001218C3003F060FA012008BD4020002090
:103FA0001000002070B53F4C236893F89020032A3E
:103FB000064635D093F89020042A31D093F8543037
:103FC0009B0733D16568002D52D0236893F85420A5
:103FD000002A43D07EB3284616F0C1FC18B9284603
:103FE00016F0D8FC30B3236893F89020022A4ED9FB
:103FF00093F89020082A4FD893F89030A26803F1E4
:1040000080431269033B284652F8233098470C2816
:1040100029D8A368DB68BDE8704053F82030184702
:10402000D3F88C0003F088F90546CCE703F09AF941
:104030000546C8E7236893F89020022A1DD993F813
:104040009020082A1ED893F89030A26803F180438C
:104050005269033B52F823309847D8E741F2BB310D
:104060003220FCF73DFD41F2CE313220FCF738FD25
:1040700041F2B5313220FCF733FD41F29B31322061
:10408000FCF72EFD41F29C313220FCF729FD41F274
:104090003B313220FCF724FD41F23C313220FCF769
:1040A0001FFD00BF4020002038B5144C236893F852
:1040B00054309B0719D16568DDB12368FF2093F860
:1040C000BA100DF045FC28460EF0B0F8236893F8BE
:1040D000BA30033B012B94BF282000200EF014F9C6
:1040E0002368072283F8902038BD03F03BF905468A
:1040F000E2E740F216513220FCF7F2FC40200020AB
:10410000F0B54E4E336800221F6D5A72FA690D46A3
:1041100039885981044641F27071A2F57A7088425B
:1041200083B07ED94649A1FB0212C2F38F221A84C2
:10413000BA8C5A84FA8C9A844FF47F42DA844FF610
:10414000FF721A85002C62D00121284616F043FB2D
:104150002A78D209336893F8481009B1002A35D17A
:10416000307B00210828596119833BD003F10E02EE
:1041700003F10D0107F088FE00285AD033685A7BFE
:1041800042F002025A7303F11A07002C39D103F1ED
:104190009E0002683A608288BA8093F95810186DC0
:1041A00008F0B8F83068274916F076FD33682649DC
:1041B0001A6D1488A3F8334092F8A62083F83520AE
:1041C00003F12A0016F071FD03B0F0BD427902F050
:1041D000C002402AC4D102685A618288307B1A83A7
:1041E0000828C3D193F8A400D3F89E105873C3F8DD
:1041F0000E10B3F8A20058820021C3F81A10D98318
:10420000CBE70021284616F0E6FA3368C1E770686C
:10421000694616F093F973681A786846C2F38012FB
:1042200098E70A49A1FB0212920902F5506292B284
:104230007DE741F204413220FCF752FC402000208F
:104240005917B7D17D3D00001D3D0000D34D6210D0
:1042500010B5064C2368022283F8902003F0BEF8C4
:104260002068BDE8104004F0BBBD00BF4020002026
:1042700008B54FF462713220FCF732FC30B5047897
:10428000264D8DB004F00F0402A9224603F008FC6D
:1042900008F05CF8042C287002D003200DB030BD6B
:1042A0001F4A039B146893F800C094F89E108C4535
:1042B000F3D193F801C094F89F108C45EDD193F899
:1042C00002C094F8A0108C45E7D193F803C094F88D
:1042D000A1108C45E1D193F804C094F8A2108C454C
:1042E000DBD1597994F8A3309942D6D19DF81910B1
:1042F00094F8A4309942D0D17F280CD00090137C40
:10430000127B04F18C0002A97F242C7003F030FB97
:1043100003200DB030BDFFF7ABFF00BF1000002041
:10432000402000202DE9F04F044687B0062905D82B
:10433000DFE801F0D0502E0404040A000DF05AFE0C
:10434000032007B0BDE8F08FB14D286890F8923097
:10435000002B00F0E98090F85430990740F13A8141
:10436000AC4A92F900307F2B00F0F38102932B7B53
:1043700001932146FF237F24009300F14203147030
:104380008C30062203F048FA00232B740920D8E76A
:104390000DF030FE9E4B186890F854209507CFD052
:1043A00090F89220002ACBD09A4D95F900207F2AD0
:1043B00000F0CF8102921A7B2146FF237F24CDE9B2
:1043C000003200F1420302228C302C7003F024FAF8
:1043D0000320B6E78E4D827C296891F8483091F829
:1043E00092A091F89390012A83F0010B00F0A28033
:1043F000002691F8542012F0040000F0A58091F8F6
:104400004D70002F00F0A08091F84E70082F40F002
:104410009E8091F841704FF00008BC4678B3626806
:1044200091F85B0092F800E0864500F039810023A6
:10443000059391F89120082A06D0059B91F84E002B
:10444000904208BF01230593B8F1000F40F0DE80D1
:10445000BBF1000F40F01D814046B9F1000F09D0BB
:104460002B6893F85630012B02D01BB9059B0BB17A
:10447000002844D10DF0BEFD2B6893F8542093071B
:104480003FF45EAF0DF0B6FDBAF1000F3FF458AF48
:104490002968A36891F84100A27C423115F04EFED4
:1044A00018B9B8F1000F00F035815A4E96F9003076
:1044B0007F2B00F04E8102932B7B2868CDE900739F
:1044C00021467F2400F1420301228C30347003F036
:1044D000A3F935E74E4D286890F854305F071BD597
:1044E00090F89330002B45D0636890F85B201978E2
:1044F000914200F0A98090F85630012B01D10A209A
:104500001FE790F84E30082B03D090F891209A4284
:10451000F5D00DF06FFD286890F8923073BB90F8DD
:104520009330002B7FF40CAF0DF064FD032007B037
:10453000BDE8F08F8268567906F0C006A6F1400605
:10454000B6FA86F6760954E791F891705EE7384638
:1045500007F0A8FB002818BF8346002E40F0CA8051
:10456000296891F8417091F85420B046BC4602F099
:10457000040053E790F89230002BD5D090F85430D7
:104580009E0749D4D8077FF5DBAE590700F1DA80E2
:10459000204B93F900207F2A00F0DB8002922A7BD7
:1045A0000192FF2200927F2018702868214600F1B6
:1045B000420300228C3003F02FF903202B6893F87C
:1045C0009320002A7FF4BDAE93F89230002B7FF445
:1045D000B8AEA9E7DA07A7D55B0700F1B0800D4AAE
:1045E00092F900307F2B00F0B480029328682B7B77
:1045F00001937F26FF230093214600F142031670AA
:104600008C30062203F008F903209AE6012024E703
:1046100040200020100000204F4A92F900307F2BEC
:1046200000F0978002932B7B01932146FF237F2488
:10463000009300F1420314708C30002203F0ECF878
:1046400001232B740920B9E7597890F85C20914236
:104650007FF451AF997890F85D2091427FF44BAF91
:10466000D97890F85E2091427FF445AF197990F89F
:104670005F2091427FF43FAF5A7990F860309A42C0
:104680007FF439AF627C90F85A309A427FF433AFAE
:1046900035E7A368A27C4231604615F04FFDDCE6A9
:1046A00092F801E091F85C0086457FF4C0AE92F884
:1046B00002E091F85D0086457FF4B9AE92F803E020
:1046C00091F85E0086457FF4B2AE92F804E091F86E
:1046D0005F0086457FF4ABAE507991F86020904240
:1046E0007FF4A5AE637C91F85A209A1A5342534145
:1046F00005939EE6A168384607F0B6FC2968804617
:1047000091F841C091F85420F8B14CF0020702F042
:10471000040083E6286890F85530023B012B3FF6F1
:104720000FAE002E3FF40CAE0B4E96F900307F2BEF
:104730000FD002932A7BFE23CDE90032C0E60DF0B4
:1047400059FC4CE70DF056FC22E7674602F00400E6
:1047500064E6FFF78DFD00BF1000002010B5104A81
:10476000136893F8901002290FD993F89010082934
:1047700010D893F89030926803F180439268033B1D
:10478000BDE8104052F82330184741F2BB413220B7
:10479000FCF7A6F941F2BC413220FCF7A1F900BFB9
:1047A0004020002038B51C4D2B6893F89020022A39
:1047B0002CD8027C83F89820C16819671A440446F3
:1047C00092F8BE2083F8BA2042685A67037A022B17
:1047D0000ED00DF04FF90DF0E5FD0CF05FFB0F482A
:1047E0000DF00EFD0E480DF005FD0E480DF050FACF
:1047F000637C03B938BD2868643015F095FC2B68DC
:10480000DB6E002BF6D001221A6038BD40F6E201C3
:104810003220FCF765F900BF40200020880100200D
:1048200055555500D6BE898E30B5194C94F90030D7
:104830007F2B85B029D0174D0A4601467F20207076
:104840002C6894F89000032815D094F8900006285E
:104850000CBF03200120CDE902302B7B019394F89B
:10486000BA30009304F18C0004F1420302F072FEAE
:1048700018B905B030BD0020EDE7286801218C3063
:1048800005B0BDE8304002F0AFBDFFF7F1FC00BF5E
:10489000100000204020002038B505460C4606F0E8
:1048A0006BFF420704D4A37803F0E003402B0DD044
:1048B00006F062FF830704D4A37803F0E003202B03
:1048C00004D0237803F03F03242B01D9002038BD06
:1048D0000CF0D8FF94F9003094F802C06278002BF5
:1048E0000CF01F03ACBF1E214FF4967142EA032364
:1048F00001FB03F31A1AB2F5877FE7D39842E5D894
:10490000054A23881068A0F8BB3080F8BDC029464E
:10491000BDE8384003F03ABC4020002070B5344E6A
:10492000346894F8923084B053B394F881300546DB
:104930000A4633B90378002B0CBF0123022384F805
:10494000813094F89030062BD9B23BD0072914BFA0
:1049500001200220274B93F900107F2946D0CDE992
:104960000210317B019194F8BA1000917F211970E7
:1049700004F18C0004F14203294602F0EBFD18B962
:104980000024204604B070BD6C7814F010041BD0D5
:10499000A9690220FFF780FF0446E8B132680023CE
:1049A00082F882306B69EBB15978C1F3031182F858
:1049B000831059781B7801F00F0143EA0123A2F814
:1049C0008430DEE70320C5E7306801218C3002F037
:1049D0000BFD204604B070BD306801218C3002F020
:1049E0003BFDCEE7FF2382F88330CAE7FFF740FCA8
:1049F000402000201000002010B504468AB007F0C7
:104A0000A5FC2378184A03F00F03072B107002D07F
:104A100001200AB010BD6946204603F0DBF8684665
:104A200003F0C4F99DF80030002BF1D19DF801305E
:104A3000DB07EDD50D4C019923689DF8110093F823
:104A4000A4209E3315F07AFB0028E1D020680121D4
:104A50009A3014F0A2FFFF216846FFF75FFF00289D
:104A6000D6D00220D5E700BF100000204020002053
:104A70002DE9F04FDFF8F0A0847C9146DAF80020B1
:104A800092F84860012C83B0054688461F4686F0A0
:104A900001063FD000249AF80D30A346F3B192F8F6
:104AA00054305B0722D46B68002B3AD092F89130D7
:104AB000082B23D01846019307F0F4F8002818BFFC
:104AC0000646BBF1000F23D09AF80F20019B8AB352
:104AD00015F082FB002203468AF80F2089F8003087
:104AE00088F800403E7003B0BDE8F08F92F84D307A
:104AF000002BD8D092F84E30082BDBD1BBF1000F41
:104B000006D09AF80EB0BBF1000F19D00023E5E7EC
:104B10005B46E3E783685B7903F0C003402BB9D1C0
:104B2000B9E7D2F88C0002F09DFF0028E6D0DAF851
:104B30000020BBE71846A96807F096FA0346CDE7C0
:104B4000A868594607F0B8F903468AF80D0000280E
:104B5000C4D0019015F036FB0828D9D0DAF800202F
:104B6000019B82F89100B9E74020002008B5064B70
:104B7000186801218C3002F037FC07F0E7FB034B8B
:104B800002461A70012008BD4020002010000020BD
:104B90002DE9F0416A4C6368D4F800800022054694
:104BA0001A8018460F460DF041FB032D38D0052D15
:104BB0004BD0606808F19E0115F0C7FC98F8A4106E
:104BC000606815F0D6FC236893F8482093F841708C
:104BD00003F142065AB193F85420520719D493F8BE
:104BE000910007F07BFA00281CBF06460127606889
:104BF000314615F09CFC6068394615F0ADFC514B10
:104C0000D3F80431002B40F09680052D12D0BDE87A
:104C1000F08193F84D20002AE1D093F84E00E0E7B0
:104C20006068037823F00F0343F0030303700C2341
:104C30004370BFE7236831681A6DC2F80A10B18863
:104C4000D1811B6D5F72BDE8F081D4E90006317837
:104C500021F02F0141EA471141F005012223317073
:104C60007370036D1B6AC6F80F30026D936BF3749B
:104C70001F0A1B0C37757375D369B2F8407041F683
:104C80004B518B42D16B3BD9DFF8BCC0ACFB01E18F
:104C9000890AACFB07C7BF0AF175C1F30721B775D5
:104CA00031762949A1FB0313C3F38F2373761B0AC3
:104CB000B376938CF3761B0A3377D38C73771B0A06
:104CC000B377D2F8A730C6F81F3092F8AB3086F829
:104CD0002330036D96F8242093F8B23022F01F029F
:104CE00003F01F03134386F8243006F06BFD96F89B
:104CF000243003F01F0343EA401386F8243058E7BA
:104D0000DFF848C0ACFB01E14909ACFB07C77F09EC
:104D1000F175C1F30721B7753176A3F57A7741F2C2
:104D200070718F42BDD80A49A1FB03139B0903F59B
:104D300050639BB2BAE740F22F613220FBF7D0FEFE
:104D400040200020001000405917B7D11F85EB51BB
:104D5000D34D62102DE9F04304468BB007F0F6FA0C
:104D60002378474A03F00F03082B107004D0012565
:104D700028460BB0BDE8F0836946204602F0C2FE2B
:104D80009DF80050002DF2D19DF8013003F003038F
:104D9000032BECD13B4F3E6896F84D30002B37D0BB
:104DA00096F84E807B7B002B35D196F8A420019994
:104DB0009DF8110006F19E0315F0C0F90028D6D029
:104DC00096F848203E6896F841904236002A46D12F
:104DD0009DF81200029901282FD033464A4615F05B
:104DE000ADF90028C3D0386801219A3014F0D5FD00
:104DF0007B7B002B3CD121460120FFF781F93868ED
:104E0000022104F093F938688C3002F0C3FAAFE75E
:104E100096F89180C6E715F0D5F908288146C4D0E8
:104E2000387396F8A42001999DF8110006F19E03AD
:104E300015F084F9C145C3D0C0E74B7903F0C00336
:104E4000402BCAD133464A4615F078F90028CAD11A
:104E50000299404607F008F90028C4D187E7404688
:104E600007F03CF900281CBF06464FF00109AFE7E8
:104E70000DF098FA0CF012F800237B73BBE700BF2B
:104E8000100000204020002038B51D4C23680E2063
:104E900093F8BA100CF05CFD236893F854309B072C
:104EA00025D165683DB328460DF0C0F9236893F815
:104EB000BA30033B012B94BF282000200DF024FAC8
:104EC0002368681D93F8BA5007F024F8607348B15E
:104ED000033D012D94BF552550250BF0C1FF2846F9
:104EE0000DF054FA2368082283F8902038BD02F0B0
:104EF00039FA0546D6E740F203513220FBF7F0FDC0
:104F00004020002010B50A4C07F020FA094A637BC4
:104F100010701BB90DF06EF8032010BD0DF042FAB1
:104F20000BF0BCFF002363730DF064F8032010BD89
:104F3000402000201000002070B52C4C236893F80E
:104F4000BD2005465F2A93F8BB009CBF5109284A43
:104F500000F03F0094BF565C00260CF0A3FE2368CF
:104F600093F958000CF08EFEEDB123683246196FAC
:104F700001200CF0E7FF236893F88230022B0CBF6E
:104F80004020FF2031460CF0E3FC236893F85420C6
:104F900092070ED193F88130656893B12846BDE839
:104FA00070400DF043B93246732101200CF0CAFF66
:104FB000E1E702F0D7F9236893F881300546002B2A
:104FC000ECD1681D06F0A6FF60730028E6D0033E12
:104FD000012E94BF552450240BF042FF20460DF0C3
:104FE000D5F92846BDE870400DF020B940200020DA
:104FF000D43E0400F0B52E4C236893F8BD205F2A00
:105000009EBF51092B4A575C1A6F83B0064688BF72
:105010000027002A40D1586F0DF042F9256895F815
:1050200054309A0703D595F88220022A2BD05B07CB
:1050300025D4D5F88C00D6B902F014FD23680646B5
:10504000D3F88C0002F014FD024605F186002568B5
:1050500095F8823095F8BA500095314602F04EFE30
:105060002268002382F8BA70A37303B0F0BD02F087
:105070000BFD014605F1860002F036FEF0E795F8DB
:105080008230012BD5D1FB1E012B0AD939460020D5
:105090000DF0A2F92568CCE70120FFF74DFF23684A
:1050A000B9E795F85930012B14BF39460321EEE7D3
:1050B00040200020D43E040010B50E4C637B8BB919
:1050C000206800F1BB020023012180F89010A0F8B5
:1050D000BB308C30937002F05DF92068BDE8104061
:1050E00003F0FABF0DF05EF90BF0D8FE00236373F6
:1050F000E6E700BF402000202DE9F047072986B0F1
:105100000E46044691464ED14068002800F090803B
:10511000637C012B00F0BF80DFF8DC82D8F8003020
:1051200093F89100082861D004AA0DF10F0106F050
:10513000ABFE002800F079819DF80F0004A916F05D
:1051400095FB0746D8F8005095F8543013F003014A
:1051500040F0B28013F0040385F8921076D185F800
:105160009330A64B1B6833B149462046984785F8D3
:105170009400D8F80050636843B1627C85F8A4209D
:105180001A68C5F89E209B88A5F8A23095F894303F
:105190000120002B00F04E81A3680BB1072E3AD0FE
:1051A00006B0BDE8F0874768002F00F09080437C90
:1051B000012BB1D17B7903F0C003402BACD1DFF8D8
:1051C000388298F80D30002B71D0D8F8005014F0C8
:1051D000F9FFD8F8003085F8910093F8910088F82D
:1051E0000C000123082888F80E309DD16168607C8E
:1051F00016F03CFBD8F80020616807469132607CCD
:1052000006F078FD00289DD1D8F80050A5F892004E
:1052100085F89400C0E795F891100829C0D00028BF
:10522000BED0184606F066FE012388F80F30B7E7B7
:10523000DFF8C481002A4DD0D8F8005095F85430DA
:1052400013F0030740F09180394683E7062E95F866
:105250004D3003D8002B82D13B4680E795F893A0D0
:10526000082E6ED8B9F1000F00F0BE80BAF1000F21
:1052700067D06268002AEDD1D5F88C00019302F066
:10528000F1FB18B9019B002B00F0CB800127D8F867
:1052900000503B4663E7437903F0C003402B7FF4A3
:1052A0003BAFDFF8548198F80D30002B4BD1D8F884
:1052B000003093F8910035E7062E95F84C1032D85F
:1052C00000297FF447AF3A463946174642E7DFF8F0
:1052D000288137E7D8F8002092F8543013F0030102
:1052E00018BF012113F0040382F8921005D023782F
:1052F000A3F10103B3FA83F35B0982F8933092F8C8
:105300008030002B3FF44CAFD8F80030D86F5030CD
:1053100017F0B9F800287FF443AFD8F80030012225
:1053200083F894203CE7082E3AD9002213F00403B6
:1053300085F892203FF413AF95F84D3095F893A07F
:105340008EE700230BE7B9F1000F7FF43EAFD8F8EA
:10535000005095F8BA1001297FF439AF06F0ACFD82
:1053600088F80D000028A2D02FE795F84C1095F88A
:1053700092A00746BAF1000FD7D06268002A9FD1E9
:10538000D5F88C00019102F06DFB10B9019900294C
:1053900042D03A460127D8F8005095F8543093E7A8
:1053A00095F892A0B9F1000FE4D16268002A87D184
:1053B0006278D00624D5012185F892105907C0D50E
:1053C00095F84D3095F893A00193D30612D4D5F8F3
:1053D0008C0002F047FB019B00283FF454AFBAF168
:1053E000000F3FF450AF51E76268002A7FF432AFFC
:1053F0006278E9E70123B2E6402000207000002037
:10540000D5F88C00019102F02DFB01990028BED047
:10541000BAF1000FBBD0BCE706F066FC3A4607467F
:10542000B9E706F061FC074631E740F6A2313220C9
:10543000FBF756FBB5F89200003818BF0120ABE629
:1054400070B5194E8AB0054606F080FF3368174ADA
:1054500093F85430107013F0060F16D12C7804F026
:105460000F0422462846694602F01AFB2146002214
:105470006846FFF741FE21466846FEF753FF737BFF
:10548000044643B920460AB070BD0122962100208F
:105490000CF06CFDE2E70CF085FF0BF0FFFC002345
:1054A000204673730AB070BD402000201000002019
:1054B00010B5104C06F04AFF0F4A637B10708BB991
:1054C000206800F1BB020023012180F89010A0F8B1
:1054D000BB308C30937001F05DFF2068BDE8104058
:1054E00003F0FABD0CF05EFF0BF0D8FC00236373F1
:1054F000E6E700BF402000201000002010B5104C4F
:10550000206801218C3001F0A7FF637B8BB92068F4
:1055100000F1BB020023012180F89010A0F8BB30FD
:105520008C30937001F036FF2068BDE8104003F026
:10553000D3BD0CF037FF0BF0B1FC00236373E6E73B
:105540004020002010B5124C206801218C3001F061
:1055500083FF06F0FBFE0F4A637B10708BB9206857
:1055600000F1BB020023012180F89010A0F8BB30AD
:105570008C30937001F00EFF2068BDE8104003F0FE
:10558000ABBD0CF00FFF0BF089FC00236373E6E763
:10559000402000201000002010B506F0D7FE124C6D
:1055A000124B024620681A7000219A3014F0F5F967
:1055B000637B8BB9206800F1BB020023012180F8D6
:1055C0009010A0F8BB308C30937001F0E3FE20689F
:1055D000BDE8104003F080BD0CF0E4FE0BF05EFC73
:1055E00000236373E6E700BF402000201000002086
:1055F00010B5154C206801218C3001F0F5FE06F045
:10560000A5FE02462068114B00219A301A7014F052
:10561000C4F9637B8BB9206800F1BB020023012130
:1056200080F89010A0F8BB308C30937001F0B2FE7F
:105630002068BDE8104003F04FBD0CF0B3FE0BF046
:105640002DFC00236373E6E74020002010000020BB
:1056500038B5164C0521206802F098FD50B123683A
:10566000012093F8BA100CF0B7FE23680B2283F8E0
:10567000902038BD637B8BB9206800F1BB0200230A
:105680000121A0F8BB3080F890108C30937001F0AD
:1056900081FE2068BDE8384003F01EBD05460CF0D1
:1056A00081FE0BF0FBFB6573E6E700BF40200020A6
:1056B00070B5234C236893F8BD205F2A9EBF510923
:1056C000204A565C1A6F88BF002662BB586F0CF0E8
:1056D000E7FD256895F854309A0703D595F88220A0
:1056E000022A17D05B0703D595F88230012B11D021
:1056F000D5F88C0002F0C8F9014605F1860002F0E9
:10570000F3FA23680622002183F8BA6083F8902018
:10571000A17370BDF31E012B0AD9314600200CF095
:105720005BFE2568E4E70120FFF706FC2368CDE770
:1057300095F85930012B14BF31460321EEE700BF25
:1057400040200020D43E040038B5174D002103202E
:10575000FFF71EFA2868032102F018FD40B101216D
:1057600008460CF039FE2B68092283F8902038BDDA
:105770006B7B8BB9286800F1BB0200230121A0F8E4
:10578000BB3080F890108C30937001F003FE2868D5
:10579000BDE8384003F0A0BC04460CF003FE0BF05B
:1057A0007DFB6C73E6E700BF4020002010B5B0B968
:1057B000A9B1204A136893F89010082930D993F8BA
:1057C00090100C2931D893F89030926803F18043FF
:1057D0005268093BBDE8104052F823301847154C79
:1057E000206801218C3001F037FE637B8BB9206883
:1057F00000F1BB020023012180F89010A0F8BB301B
:105800008C30937001F0C6FD2068BDE8104003F0B5
:1058100063BC0CF0C7FD0BF041FB00236373E6E7AC
:1058200041F28B413220FBF75BF941F28C4132208F
:10583000FBF756F94020002038B51C4C20680C239B
:1058400080F89030012103F071FC00210520FFF762
:105850009FF92068062102F099FC58B123680120C5
:1058600093F8BA100CF0B8FD23681B6D012283F881
:10587000A62038BD637B8BB9206800F1BB020023F2
:105880000121A0F8BB3080F890108C30937001F0AB
:1058900081FD2068BDE8384003F01EBC05460CF0D1
:1058A00081FD0BF0FBFA6573E6E700BF40200020A6
:1058B000F0B52B4C236893F8BD205F2A9EBF510999
:1058C000284A575C1A6F83B088BF0027002A3AD154
:1058D000586F0CF0E5FC256895F854309A0703D50D
:1058E00095F88220022A25D05B0703D595F88230EF
:1058F000012B1FD0D5F88C0002F0B4F823680646BF
:10590000D3F88C0002F0B4F8024605F18600256851
:1059100095F8823095F8BA500095314602F0EEF9CC
:1059200023680021052283F8BA70A17383F89020C0
:1059300003B0F0BDFB1E012B0AD9394600200CF044
:105940004BFD2568D6E70120FFF7F6FA2368BFE78D
:1059500095F85930012B14BF39460321EEE700BFFB
:1059600040200020D43E040030B5254D2B6883B084
:10597000D3F88C0001F0E0FC00283CD004462868F5
:105980000A2380F89030002103F0D0FB2A682378A6
:10599000126D92F8A64004EA531404F001040520A5
:1059A0002146FFF7F5F82868042102F0EFFB28B143
:1059B0002B681B6D83F8A64003B030BD6B7B93B999
:1059C000286800F1BB020023012180F89010A0F8A4
:1059D000BB308C30937001F0DDFC286803B0BDE86B
:1059E000304003F079BB01900CF0DCFC0BF056FA70
:1059F00001986873E4E740F25B513220FBF770F8DE
:105A000040200020F0B55D4C206883B08C3001F060
:105A1000C1FC256801F060FC2368C5F88C00D3F850
:105A20008C00002800F0A58001F086FC05460028C7
:105A300000F09A80236893F8B030002B58D120688A
:105A400090F8983090F89020034493F8BE7080F856
:105A5000BA701AB190F89030012B62D190F8992069
:105A6000474B134418790CF01DF9236893F89820DC
:105A7000134493F8BE60022E51D032D9F31E012B8D
:105A800031D801F023FC31460BF062FF28460CF0C0
:105A9000CDFB314601200CF00BF9012F37D0681DEA
:105AA00006F038FA607348B1033F012F94BF5525C3
:105AB00050250BF0D5F928460CF068FC236800222D
:105AC000082103202173E281227483F89110A3F846
:105AD000922083F8942083F8812083F8900003B00B
