:020000022000DC
:1070000080470020A5A502001131030091A50200D0
:1070100091A5020091A5020091A5020000000000C8
:1070200000000000000000000000000059A702005E
:1070300091A502000000000025A7020091A5020012
:107040000DA902000DA902000DA902000DA9020060
:107050000DA902000DA902000DA902000DA9020050
:107060000DA902000DA902000DA902000DA9020040
:107070000DA902000DA902000DA902000DA9020030
:107080000DA902000DA902000DA902000DA9020020
:107090000DA902000DA902000DA902000DA9020010
:1070A0000DA902000DA902000DA902000DA9020000
:1070B0000DA902000DA902000DA902000DA90200F0
:1070C0000DA902000DA902000DA902000DA90200E0
:1070D0000DA902000DA902000DA902000DA90200D0
:1070E0000DA902000DA902000DA902000DA90200C0
:1070F0000DA902000DA902000DA902000DA90200B0
:107100007BB972B90029BEBF00204FF0004106E0F4
:1071100008BF00281CBF6FF000414FF0FF3000F0A7
:1071200057B8ADF1080C6DE904CE002909DB002B3E
:107130001ADB00F04FF8DDF804E0DDE9022304B0CB
:107140007047404261EB4101002B1BDB00F042F82D
:10715000DDF804E0DDE9022304B0404261EB4101C7
:10716000524263EB43037047524263EB430300F028
:1071700031F8DDF804E0DDE9022304B0404261EBC0
:1071800041017047524263EB430300F023F8DDF8FE
:1071900004E0DDE9022304B0524263EB430370478D
:1071A00053B94AB9002908BF00281CBF4FF0FF316E
:1071B0004FF0FF3000F00CB8ADF1080C6DE904CED3
:1071C00000F008F8DDF804E0DDE9022304B07047C0
:1071D000704700BF2DE9F04786468C460846089E5A
:1071E000154674461946002B40F0C2808542B2FA1B
:1071F00082F245D94AB1C2F1200300FA02FC2EFA0C
:1072000003F3954043EA0C0C94404FEA154EA8B2A4
:10721000BCFBFEF8230C0EFB18CC08FB00F943EA7C
:107220000C43994528D9EB1808F1FF3704D299454A
:1072300002D9A8F102072B44A3EB0903A4B2B3FBC4
:10724000FEFC0EFB1C330CFB00F044EA0344A0429E
:1072500014D92C190CF1FF3304D2A04202D9ACF19D
:1072600002032C44241A43EA07401EB1D4400023F1
:1072700034607360BDE8F0874746DDE76346F1E7B9
:1072800092BB431B01214FEA154EAFB2B3FBFEFC8C
:10729000200C0EFB1C330CFB07F840EA0343984517
:1072A00062D9EB180CF1FF3004D2984502D9ACF149
:1072B00002002B44A3EB0803A4B2B3FBFEFC0EFBBD
:1072C0001C330CFB07F744EA0344A7424ED92C19A0
:1072D0000CF1FF3304D2A74202D9ACF102032C44D3
:1072E000E41B43EA0040C0E7C2F1200320FA03F1A7
:1072F000954090402EFA03F303434FEA154EAFB288
:10730000B1FBFEFC0EFB1C10190C0CFB07F841EA4C
:107310000041884504FA02F422D969180CF1FF30C3
:1073200004D2884502D9ACF102002944A1EB08013E
:107330009BB2B1FBFEFC0EFB1C110CFB07F743EAF2
:1073400001439F420ED9EB180CF1FF3104D29F424A
:1073500002D9ACF102012B44DB1B41EA004192E768
:107360006046E3E76146F7E76046A3E76346B7E7B1
:10737000834206D916B9002108467BE7C6E900E03A
:10738000F9E7B3FA83F78FB9834201D3724508D87E
:10739000BEEB020460EB030301209C461EB90021F2
:1073A00068E73846FAE7C6E9004CF8E7C7F1200C71
:1073B000BB4022FA0CF41C432EFA0CF120FA0CF319
:1073C000B84001434FEA14490EFA07F5B3FBF9F848
:1073D0001FFA84FE09FB18300B0C08FB0EFA43EA77
:1073E00000439A4502FA07F240D9E31808F1FF304A
:1073F00004D29A4502D9A8F102002344A3EB0A0360
:1074000089B2B3FBF9F809FB183308FB0EFE41EA19
:1074100003418E452CD9611808F1FF3304D28E4503
:1074200002D9A8F10203214443EA0040A0FB0298DC
:10743000A1EB0E014145CE46434602D306D14D4550
:1074400004D2B9EB020E68EB04030138002EA6D07B
:10745000B5EB0E0261EB030101FA0CFC22FA07F313
:107460004CEA0303F940C6E9003198E74046C5E716
:107470004346D9E7034613F8012B002AFBD1181A1B
:1074800001387047000000002DE9F04F1446D4E9A0
:107490000257394BA66989465168384A9DB08246E1
:1074A00012EA210B38BF9B4612EA270038BF184664
:1074B00012EA260838BF984600291390206802DA9D
:1074C000404261EB41012AA3D3E90023FFF718FEF4
:1074D000CDE91801391ECDE91A23284602DA68429F
:1074E00061EB410122A3D3E90023FFF709FE002E3F
:1074F000CDE91401CDE91623D4E904214FF47A73C0
:10750000B8BF7642B6FBF3F003FB1066CDE90F0679
:10751000B1FBF3F003FB1011CDE90C01B2FBF3F169
:1075200003FB1122DDE91634CDE90834DDE914341A
:10753000CDE90634139B04931A9B02931B9B039380
:10754000189B0093199B0193CDE90A125B460C4AE4
:10755000CDF83880494650460AF02CFA8145B4BF30
:107560006FF00B0000201DB0BDE8F08FAFF300807E
:1075700000CA9A3B00000000586F0300156D03001D
:10758000176D0300024A034803210BF008BC00BF3B
:10759000B85D03003C58030091F828300BB1FFF7A9
:1075A000F1BF024A024803210BF0F9BBC35D03009F
:1075B0003C58030038B5064D064C00214FF40040FE
:1075C00009F0DEFC03212A4620460BF0E8FBF4E735
:1075D000CA5D03003C5803002DE9F04F91B08407C9
:1075E000009302F004030293C2F3C20303F1010308
:1075F000DDF86890039205460E46059340F0BA8187
:10760000041D30B1072909D86FF01B0011B0BDE887
:10761000F08F01F00706341DC6F10806009B4FF0FD
:107620000008591E4FF0040A4FF0FF330193CDF8C4
:1076300010804746C34653460DB1009A2260059814
:10764000002800F3E8809848009A824203D39748C4
:107650008242C0F0E080039AA4EB050E92074FEA45
:107660009E0000F103810F2F00F2B180002D00F089
:10767000058107F140020DEB020C019A0CF8200C79
:107680000CF8102C049801300490E7E07A285DD8BB
:107690004B280ED8472859D829282DD8252852D02C
:1076A00054D820287AD02338D0F1000B4BEB000BB4
:1076B00074E04C382E2849D8DFE800F0704848487C
:1076C00048484848484848484B4848484848484837
:1076D0004859484B4B595959704B6D487048184B95
:1076E000184848827F4B48484B487F0000204FF0A5
:1076F000000B4FF0040A38E02A38C0B2012202FA27
:1077000000F010EA0E0F49D110F0625C2FD110EAA0
:10771000020B43D06046013C5444B4FBFAF40AFB2C
:1077200004F4002D61D0A3EB050CA444B4453FF64E
:107730006BAF002868D1042B47D159F8043B236074
:10774000043404232AE0019A013A01924FF0000B1D
:1077500024E011F8010C6C2834D111F8023C00200F
:107760006C2B8346C5D14FF0080A5346D3E709F185
:10777000070929F007090734F9E802AB24F00704E8
:1077800035B106982044B0423FF63EAFC4E900ABA5
:1077900008344FF0000B4FF0080A534611F8010F60
:1077A000002878D0BBF1000F7FF470AF2528F5D109
:1077B000019B013301934FF0010B4FF0040AECE7FA
:1077C000584694E700208346A5E7082B02D06FF0C7
:1077D00015001BE709F1070929F00709F9E8022359
:1077E000C4E9002308340823D8E768B9042B02D180
:1077F00009F10409A4E7082BE9D109F1070929F0E7
:10780000070909F10809EDE7059A013A059259F8C7
:10781000042B009210E7039A900720D5A4EB050EE5
:107820004FEA9E004FF0010CBEF5007FCFD20F2F24
:10783000CDD8F5B107F140020DEB020EC0B2019AAE
:107840000EF8200C0EF8102CBCF1000F3FF41AAF0C
:1078500060F07F000EF8200C08F101080137C5F137
:107860000802043406924FF6DA7E97E74FF0000CD8
:10787000DAE7BCF1000F01D00136EFE702980236DB
:107880000028EBD10098CDE90631FFF7F3FDDDE9E3
:1078900006310644E2E7631BB3F5806F97D23DB92A
:1078A000A6F10804E018B1E6645503005071030026
:1078B000029A28609B082B709DF81030C2B1EB70C3
:1078C00085F80280B8F1000F05D008A80022C5F1A4
:1078D000010C97420ED1C5F101030DF120094FF0C3
:1078E000000A01930DF1300B574512D1601B8DE654
:1078F0006B70E5E710F8013B190608D504EB0C0E98
:10790000B64503F07F033FF67FAE04F8013B01323A
:10791000DFE7B8F1000F03D099F90020002A17DB48
:10792000029BD3B11AF80B2004F8012B0022019B13
:1079300098182044B0423FF667AE99F8000004F86A
:10794000010B0099039220460DF0E3FD039A1444C5
:107950000AF1010A09F10109C6E799F8002055F872
:1079600022300093029B45F822300098FFF782FDF9
:10797000421CDCE76FF00D0048E600BF2DE9F04F38
:1079800097B000AF90F802A0D7F880B03B62CBF37D
:10799000C0030446FA62BB61894641B94578007864
:1079A0000AEB800020444D4517D8A0EB0409E3788A
:1079B000FB61BAF1000F02D01BF0010F16D1FB6979
:1079C00053BBFB6A1BB13A6A4946204698474D466D
:1079D00028465C37BD46BDE8F08F461C3046FFF7B1
:1079E00049FD0130304409F10109DCE72378626880
:1079F0007A62FA6A9900796104EB8301002A40F007
:107A000000814D460E4601EB0A094FF000084E4535
:107A10004CD101EB0A0610E01BF0020FD1D0237805
:107A20009A007A6162687A62FA6A04EB8301002A3A
:107A300077D14D4601EB0A0690461BF0050F0CBFAF
:107A400002230123FB62FB6906EB430A0BF00203EE
:107A5000BB625645BCD016F8021B16F8013C54F820
:107A60002390AF4B994502D3AE4B994536D3BB69B2
:107A7000002B40D0786A0AF098FC00283BD0E946F9
:107A80008AB06A46A84B53617B6AC2E906314FF45B
:107A900000731384A54B42F8103FA54800234FF410
:107AA000125100F013FD023DCD46D2E716F8013B1E
:107AB000F96254F82300FFF7DDFCD7F88430F96A47
:107AC00001304BB1D7F8883098453EBFD7F88430A5
:107AD00023F8180008F10108054498E7BB6923B1B1
:107AE000786A0AF062FC0028C9D11BF0010F05D1A9
:107AF000FB6AED1AADE7BB6A002BAAD04846FFF738
:107B0000B9FCD7F8843053B1D7F8883098453FBFD7
:107B1000D7F88420431C22F8183008F101080544E6
:107B200097E7BAF1000F72D01BF0040672D0D0466E
:107B3000002607F1480052463B61B9620DF0E9FCAE
:107B4000B96A3B6901EB0A02BA62FA69F969520043
:107B5000FA60BA6A02EB41023A610BF00202BA60C3
:107B60003A69B96A8A4257D162787A621BF0020F89
:107B700032440CBF4FEA580100211BF0010FD2B272
:107B800040F09F801BF0040F14BF40460020BB61F3
:107B90006270A070E1703A6A7969FB6A2046984782
:107BA000051EFFF615AFBB6923707B6A6370FB6926
:107BB000E37041463A6AFB6A84F802A007F1480084
:107BC0009847B0F10008C0F2B5807B693A6AA9EB2A
:107BD0000A01C91AFB68C91AD7E90A03984700289D
:107BE000C0F2AA80A84408EB00054FF0000B07F193
:107BF000380AB34567D300213A6AFB6A08469847BA
:107C0000E6E656464FF0000807F1380093E756467F
:107C1000D04697E7B04695E7BA6A12F8021BBA62F7
:107C200012F8015C3E4A54F82500904202D33D4AC6
:107C300090421ED3BA6932B1786A7B600AF0B5FB14
:107C40007B6800288CD1BA6802BB08F1280207F1D2
:107C5000300C08F10100944407F1580252FA80F008
:107C600008F102080CF8101C5FFA88F800F8105CA4
:107C700076E7BA693AB1786A7B600AF096FB7B686E
:107C800000287FF46DAF1BF0010F09D006F1280228
:107C900007F13000711C161806F8205CCEB25FE7C1
:107CA0001BF0040F3FF45CAF08F1280207F130002D
:107CB00008F1010102EB000808F8105C5FFA81F896
:107CC0004EE7002063E71BF80A3087F8373054F896
:107CD0002390D7F88430FBB133F81B803A6AFB6AF3
:107CE000012107F137009847002825DB0544B8F14A
:107CF000000F06D14846FFF7BDFB00F101081FFA4F
:107D000088F83A6AFB6A414648469847002813DBE0
:107D100005440BF1010B6CE7D7F88480DEE700BF68
:107D20006455030050710300D85D03000400000196
:107D30002C58030045464BE6054649E6014B1860C2
:107D4000704700BF180C002080B505460E46174648
:107D5000984609F051F903460DF0FAFBDFF8189048
:107D6000044649F80030424630463946A84754F8A0
:107D7000090002F085FC00BF080000002DE9F04773
:107D8000058B04462807904611D4022905F0070503
:107D900040F0CC8020460AF0A9FD78B10138218B53
:107DA000042811D8DFE800F0C2106D859500012984
:107DB0000CBF45F0100545F02005258388F3118898
:107DC000BFF36F8FBDE8F08701F0070AAA4500F006
:107DD000A5800027B9463E46A368002B00F0BC8072
:107DE00041F00801218388F31188BFF36F8FA168E8
:107DF000002900F0BA800D68002900F0B680D1F8A3
:107E00000480334652462046C047002D76D02B686A
:107E100029461D46F0E701F007035A1F012A1BD827
:107E2000002221F00701062B276889B2C4E900224D
:107E300009D13B4603E0628B013262831B68002B51
:107E4000F9D141F00201218320460AF04FFD0028BC
:107E50007AD041F0200176E0042B0AD121F007010D
:107E600089B2218320460AF041FD10B141F0200182
:107E70002183218B01F0070AAA454FD00027B9467C
:107E8000AAE7236921F0070141F00601062DD3F886
:107E9000009021832DD1B9F1000F3FD041F00801AE
:107EA000218388F31188BFF36F8F3A492046C84772
:107EB00029E021F00701236941F0040189B2042D72
:107EC000D3F804902183E6D000273E464FF0040A01
:107ED00082E721F00701236941F0050189B2052DF0
:107EE000D3F808902183D6D000273E464FF0050AEC
:107EF00072E700273E464FF0060A6DE72B4687E7FC
:107F0000B9F1000FD1D1EFF31188202383F3128848
:107F1000BFF36F8F238B23F008032383258BEA069F
:107F20002ED525F01003238305F007056669218B04
:107F3000002EBFF670AF00232768C4E9003321F09C
:107F4000070141F001012183218B01F0070AAA45B5
:107F50004FF000097FF440AF002F9CD041F00801A2
:107F6000218388F31188BFF36F8F002FC8D03D683D
:107F700039463346524620460AF0E4FC2F46F4E7E1
:107F8000AB067FF51BAF25F02003238305F0070523
:107F900000E700BF712903002DE9F047DFF85880A2
:107FA000044607464FF0010914B93846BDE8F0878A
:107FB00094FAA4F5B5FA85F509FA05F32E0108EB54
:107FC00005156FEA030A24EA03042B7B002BEBD090
:107FD00058F806301B694BB946440422736828469A
:107FE000196807EA0A0700F05DFADDE728469847B6
:107FF0000028D9D1F0E700BFDC58030030B51049A4
:10800000104889B000220DF07DF90F4D0F49002274
:108010000023CDE9062300240E23CDE90334CDE966
:1080200001440B4B00944FF44072284608F0FAFCD0
:10803000084928460CF0CAFF204609B030BD00BFF1
:10804000598002009814002010100020002E0020FB
:10805000498302008C5E0300014808F02DBA00BF7E
:10806000140F00202DE9F04780461F480F460AF004
:1080700010FE0646002830D000252846BDE8F087CF
:10808000237B6BB12368DB680BB1204698472368DC
:108090001B69D3B9636804221968204600F002FA0C
:1080A000013610344C45EBD3B8F1000FE5D0002D6C
:1080B000E2D02846FFF770FF0546002FF7D00021D9
:1080C0004FF4A47008F05CFFF1E7204698470028C1
:1080D000E0D00AFA06F31D43E2E7044CDFF8109003
:1080E00005464FF0010ADDE780180020DC58030048
:1080F000EC580300014B53F8200070474C59030023
:1081000008B5034608462BB1044A136000F06AFC28
:10811000002008BD6FF01500FBE700BF1C0C00201D
:1081200010B5044C237813B9034808F0C5F90123AE
:10813000237010BD2E2D0020140F002010B5044612
:1081400008480AF0A6FD5CB1BFF35B8F064B53E80D
:10815000001F013943E80012002AF8D1BFF35B8FFA
:1081600010BD00BF781800207C1800200020064BAE
:10817000BFF35B8F014653E8000F43E80012002A6B
:10818000F9D1BFF35B8F70477818002070B5FFF707
:10819000EDFF084C084E0546B44200D370BD63683D
:1081A0005B792BB123685B6813B129462046984759
:1081B0001034F1E7DC580300EC58030010B5044C10
:1081C000044920460AF01FFA034B1C6010BD00BF93
:1081D000480E00203859030070180020084A09484A
:1081E00008B500231370084A1360084A4FF4004191
:1081F0001360FFF785FFBDE80840FFF7DFBF00BF52
:108200002F2D00208F2C0300781800207C180020D0
:1082100001460022014800230AF016BA480E002049
:1082200001480AF0ACBA00BF480E0020024B0146DC
:1082300018680AF0F8BA00BF7018002001480AF068
:108240002DBB00BF480E002070B5284B18780028C1
:108250004BD0FFF7E5FF054690B1BFF35B8F244B92
:1082600053E8001F013943E80012002AF8D1BFF398
:108270005B8F204C204EB4422DD32846FFF7D6FF0B
:108280001E4B1F4C1B68002B19DD0CF0F4FF4FF444
:108290007A72A0FB020302FB0131C30BD4E9002078
:1082A00043EA41439B1A4FEAD13140F2E93261EB94
:1082B0000001934271F1000101D3FFF767FFD4E998
:1082C000003213F57A7342F10002C4E90032BDE8CE
:1082D0007040FFF7B3BF63685B7923B12368294619
:1082E0001B68204698471034C5E770BD2E2D00202E
:1082F0007C180020DC580300EC580300781800209C
:108300009014002070B50D4D297861B90120FFF758
:10831000A9FE0B4C0B4EB44206D3FFF795FF002885
:10832000FBD101232B7070BD63685B791BB123689F
:1083300020469B6898471034EDE700BF2F2D0020A2
:10834000DC580300EC58030000212DE9F0470846F3
:10835000FFF788FE044658B340F267684FF0000903
:108360000DF0F6F81B4B1C4A1B58136033B11B4B26
:108370001B68092B02DD1A4808F09EF8194FDFF838
:1083800060A0002544B12046FFF706FE044618B958
:108390004FF0FF384FF0FF39FFF756FF064628B978
:1083A000B5B942464B46504608F0AAF83546E9E7CB
:1083B0004FF0FF384FF0FF39D2E72B689B691BB1B4
:1083C00000221146284698471035BD42F5D3E8E70C
:1083D000054DFAE708000000741800207C18002002
:1083E000140F0020EC580300DC58030013B51848A4
:1083F0000AF04FFC174B1B7873B1EFF31184202365
:1084000083F31288BFF36F8FFFF71EFF84F3118889
:10841000BFF36F8F02B010BD0F4B1B68002BF9D05C
:1084200050B900220023CDE900230C484FF400424C
:10843000002309F049F8EDE70928EBD107480CF0D3
:108440006DFF074802B0BDE8104008F035B800BF26
:108450007C1800202F2D0020741800209814002074
:10846000140F002010B5064B1B68044698472146A0
:10847000A06004480AF064F9BDE81040FFF7B6BFF9
:108480001C0C0020480E0020044A054B9B1AB1EB3F
:10849000D30F34BF52F83100002070472C5803002E
:1084A000DC580300084BC31A10B41B114468013395
:1084B000237143689A7143681960436801225A71B5
:1084C00010BCFFF72DBE00BFDC5803002DE9F04FB4
:1084D0008FB004AFC1F34A28B8600D4691467B6067
:1084E0000C0DB8F1000F63D0002607F114034FF014
:1084F000040B4FF00A0AC7F80C80C7E907667E62D2
:108500000193CDF808B0CDF800A007F11C03F9687D
:1085100032464846FFF732FAB0F5006F03461CD3E7
:108520006C468AB0D9F8041004AB2648C3E90501AB
:1085300040F2FF71D9611A464FF400711984224B41
:1085400042F8103F214833464FF41251FFF7BEFF67
:10855000A5462C37BD46BDE8F08FC0F30A0804F1EC
:108560001700184420F0070080083B60FFF750FE1A
:1085700068F35325044690B13B68154AC7E90836AD
:1085800000F1100107F11403F961CDE900A3CDF862
:1085900008B0F96807F11C034846FFF7EFF968F3E4
:1085A00053257B68B9682A4620460AF0A8FBD0E725
:1085B00004F1170020F007008008FFF729FE0446A9
:1085C000EDE700BFA15E0300040000014458030072
:1085D000D32C03002DE9F04F87B0DDE91269DDE906
:1085E000105A04460F4693469846A6B31021CDF87C
:1085F0000090334652460020CDF81490FEF7ECFF71
:10860000014605F117000844144B039104F00704D8
:108610000BF0070BE40020F0070003EA412344EAD3
:108620008B1480081C43FFF7F3FD44EA055405460C
:1086300040B13EB10399CDF8009033465246103018
:10864000FEF7CAFF434622463946284607B0BDE832
:10865000F04F0AF054BB3146D3E700BF00FE0F00D5
:10866000406820B1034BC01A40F3CF0070474FF071
:10867000FF3070472C5803000EB403B503AB01461E
:1086800053F8042B0448019302F0DAFA02B05DF8C3
:1086900004EB03B0704700BF132E0300CA0605D4D5
:1086A0008B064CBF02490349FFF7E6BF704700BF86
:1086B000F66D0300F56D03002DE9F04F89B09B4680
:1086C000149B06939DF84CA0159B0593169B179E33
:1086D000049304460D469046BAF1000F00F09D80C9
:1086E00006F4807307930AF0F2FA06F002090246D4
:1086F00000283ED091492046FFF7BEFF0746B9F15A
:10870000000F08D016F0440F35D18D492A46204677
:10871000FFF7B2FF074406F0010353B1894B8A49C2
:1087200053F82A20894B2046002A08BF1A46FFF733
:10873000A3FF06F48073002B49D006F00803002B3A
:1087400063D1B8F1000F66D0814942462046FFF759
:1087500093FF0546069B3D44002B6DD1049B002BE7
:1087600073D1F30700F1E48031462046FFF796FF0E
:10877000D8E00746C3E7774B18680028CAD0764B85
:108780004FF47A791B68B5FBF3F54FF46161B5FBE3
:10879000F0F300FB135509FB05F54FF03C0CB3FB60
:1087A000F1F201FB1231B5FBF0FEB1FBFCF300FB73
:1087B0001E550CFB131109FB05F50091B5FBF0F5F7
:1087C0006649CDE901E52046FFF756FFA2E706F02E
:1087D0000803EBB1624B634953F82A202046FFF7A8
:1087E0004BFF0546B8F1000F05D0594942462046D7
:1087F000FFF742FF0544BBF1000FABD05A495A4680
:108800002046FFF739FF0544A4E74FF0000BE1E7EE
:1088100006F00805E6E745469CE7BBF1010F069B1D
:1088200006D1002B64D1049B002B7BD000250CE0EB
:10883000002BF8D04D485CE04D48069B4D49224640
:1088400009F082FD049B002B68D0DFF82C81DFF853
:108850002C91049F3146102F204628BF1027FFF788
:108860001DFF4FF0000B5D4545DC059B49461A781E
:108870002046FFF701FF4FF0010B1BF0070F03D15C
:1088800041462046FFF7F8FE5F453BD9059B494628
:1088900013F80B202046FFF7EFFE0BF1010BBBF1A5
:1088A000100FEAD1364920464FF0000BFFF7E4FEE7
:1088B0005A46059B9A5CA2F120015F2928BF2E220F
:1088C00030492046FFF7D8FE0BF1010BBBF1100F2A
:1088D0001DD01BF0070F03D141462046FFF7CCFE09
:1088E0005F455A46E5D841462046FFF7C5FEEBE70F
:1088F0001F485546A1E741462046FFF7BDFE0BF154
:10890000010BB0E720492046FFF7B6FEC5E7059BFF
:108910003B440593049BDB1B04939AD1BAF1000FEF
:108920007FF41FAF204609B0BDE8F04F0AF064BAEB
:10893000064A05492046FFF79FFE15E7E55E03005E
:10894000E95E03005C5903000E5F0300E05E030074
:10895000115F03008818002084180020F25E0300D5
:1089600070590300155F03001B5F0300492E0300CD
:10897000132E030041AC0200285F0300205F0300B8
:108980002A5F03002C5F0300265F030073B542F2E9
:108990000F738B4228BF0B4605680F4A044605211A
:1089A000684609F007F863680C495B6806460B22C5
:1089B00028460AF013FA63683246694628465B681F
:1089C0000AF00CFA636806495B681B2228460AF025
:1089D00005FA02B070BD00BF7D6B03004B5F030062
:1089E0002F5F0300074A00210123904206D8064A60
:1089F00001B901231360054B1860704740085B0004
:108A00000121F2E740420F0084180020881800205E
:108A1000F8B5074F0D4604464618B44201D1284622
:108A2000F8BD14F8011BBB6801489B6A9847F4E73E
:108A300048560300014B036000207047B8590300FB
:108A4000F0B40C4B0C4E5F6A0C4BB34203D36FF087
:108A50008500F0BC70475D68BD4209D31C693CB11C
:108A600095F802C00579AC4502D12346F0BC184701
:108A70002433EAE7B01800200C100020E80F002093
:108A80002DE9F047134CDFF85080DFF85090054691
:108A90000E461746444503D36FF08500BDE8F087C6
:108AA0006268D9F824309A4212D3A36983B19078CE
:108AB0002979884205D13A4631462846BDE8F04733
:108AC00018475279012A03D13A4631462846984739
:108AD0002434DFE7E80F00200C100020B01800203D
:108AE0002DE9F0410B4CDFF8308005460E46174665
:108AF000444502D36FF0850009E063690BB9243463
:108B0000F6E73A463146284698470028F7D1BDE8AF
:108B1000F08100BFE80F00200C100020024B002263
:108B20001A605A60704700BF6B19002070B50B4B7C
:108B30000B4CA34201D3002070BD196A1E7F002296
:108B40000439D5B2AE4201D82433F2E7013211F82C
:108B500032508542F5D10120EEE700BFE80F00203A
:108B60000C10002008B5044A0346012103480AF00E
:108B7000D6F9002008BD00BF915F0300C458030070
:108B800038B505460AF0D1FF10F1780F044611D12F
:108B90000D4A0E482B4602210AF0C1F928460AF078
:108BA000C0F90B4AD2F8C43023EA0003C2F8C4303B
:108BB000002407E00028F1D0064A04482B46012192
:108BC0000AF0ADF9204638BDAC5F0300C45803007D
:108BD000B0180020CD5F030008B509480378C3F33F
:108BE00041130A3350F823303BB100F1080200F181
:108BF00010019847C043C00F08BD1846FCE700BFEE
:108C0000B018002004282DE9F74FDFF89C900446A7
:108C10000F4615D001282FD1DFF8908098F8B93091
:108C200053B300F0E7FE224D4D4522D22A6A4FF0A1
:108C3000000A2B7F5FFA8AF6B34204D82435F3E7A3
:108C4000FFF76CFFE8E702EBC606019230790AF005
:108C50006CFF834630790AF064F9D8F8C430019A81
:108C600023EA0003BBF1000FC8F8C4300AF1010A7F
:108C7000DFDA002388F8B9300D4D4D4508D30B4B92
:108C80001B6A6BB13946204603B0BDE8F04F184768
:108C9000EB681BB13A462146284698472435ECE755
:108CA00003B0BDE8F08F00BF0C100020B01800200A
:108CB000E80F002073B5C4B263060D468DF8074077
:108CC00007D02046FFF732FFB0B1144B93F8BA003B
:108CD00090B1124E23468DB1114A124803210AF079
:108CE0001EF99DF8070003F02BFBF3691BB10DF192
:108CF000070108209847012002B070BD0A4A0948C0
:108D000003210AF00CF99DF8070003F04BFBF3690F
:108D1000002BF0D00DF107010920EBE7B01800207F
:108D2000EF5F0300C45803000260030073B50446FC
:108D300080788DF8000023796279294D43EA022377
:108D4000ADF80230E37803F003038DF804300AF045
:108D5000E8F8D5F8C430184206460CD0A47820466E
:108D600000F02AFE2046FFF70BFF0CF029F910B99E
:108D7000962008F023F9684603F0B4FA10F1780F52
:108D80009DF800301BD1174A174802210AF0C7F896
:108D90009DF8000003F042FB10F1780F19D19DF807
:108DA0000030124A104802210AF0B9F8D5F8C43050
:108DB0000120334385F8B900C5F8C43007E0002826
:108DC000E6D00B4A084801210AF0A9F8002002B0B9
:108DD00070BD0028EAD09DF80030064AF2E700BFD7
:108DE000B018002017600300C45803005E60030041
:108DF0003A6003007E6003002DE9F047A34EB3699B
:108E000004460F461546FBB9237803F01F03012BD8
:108E100000F09D80022B00F0048133BB94F9000028
:108E20002A686178002834DA062912D008292BD064
:108E3000D9B901231370517096F8C3305B0043F029
:108E40000103137002232AE198470028DCD1002097
:108E50000DE06288100A011F0129844605D9072800
:108E600003D8716AD2B20C781CB96FF01500BDE856
:108E7000F0874E78664503D19A4200F00B810133AA
:108E80002144F0E70B780AE196F8BA301370012319
:108E900005E101390829E8D801A353F821F000BF02
:108EA000398F02006B8E0200478F02006B8E02002A
:108EB000C58E02006B8E02006B8E02006B8E02006C
:108EC000D18E0200A07803F0CFF90028BFD0CCE704
:108ED0006388756A63BBFFF721FE638886F8BA3042
:108EE000F369002BB3D06A4903209847AFE76B784A
:108EF000042B10D0052B11D0022B04D16F7963887D
:108F0000BB4208BF01202B781D442B78002BEED1EB
:108F10000028AAD0DFE795F80380F4E76388BB4216
:108F2000F1D1B8F1000FEED12846FFF7FFFEEAE7D6
:108F3000FF270020B846E8E76388012B95D100237E
:108F400086F8C33083E76388012B8ED1F8E796F863
:108F5000BA30D5F800C0002B87D0756AA38894F882
:108F600004E02A46107800283FF47FAF51780229A8
:108F700004D192F80480F04500F293800244F1E7B6
:108F80008CF800208CF80120396060E7154494E0EB
:108F90000B2A7FF46AAF00274FF0FF08C146BA469C
:108FA00006E06B78042B0FD0052B21D02B781D44C5
:108FB0002B78002BF5D1F36913B151460720984760
:108FC000002F7FF444AF50E795F80280A38895F80E
:108FD00003909845EAD163889945E7D1B8F1070F26
:108FE0001CD806EB0803AA4683F8BB900127DDE7EF
:108FF000A3884345DAD1A3784B450AD0AF783846E9
:1090000000F0DAFC3846FFF7BBFDB0FA80F77F09C5
:10901000CCE72846FFF78AFE0746C7E7AA4600279F
:10902000C4E794F900206378002A18DA002B7FF453
:109030001CAF24792D6863060AD02046FFF776FD21
:1090400000283FF412AF96F8BA30002B3FF40DAF72
:109050002946204603F0C6F900236B70F2E6012B87
:1090600008D0032B7FF401AF6388002B7FF4FDAEA3
:10907000012103E0618800297FF4F7AEA088FFF7A3
:1090800019FE00287FF4E3AEEFE600BFB018002021
:109090006A190020022829607FF4F4AE4B883B60F7
:1090A000D5E694F9000062780028BFF671AF002A77
:1090B0003FF466AF0A2A7FF4D8AE2A78002A3FF43C
:1090C000D4AE697804297FF461AFA9788B427FF42C
:1090D0005DAF072B96BF9B19002393F8BB308CF82C
:1090E0000030D4E62DE9F84FDFF83CB0DFF83CA0C3
:1090F00005460F469046994604264B464246394659
:10910000284603F0B5F910F10B0F044609D12B46A0
:109110005A460221504609F002FF07F0AFFE013E19
:10912000EBD12046BDE8F88F9F600300C4580300D0
:1091300013B5164C237DF3B9E268A168019201AB27
:109140008020FFF7CFFF019AA3681344A360E36870
:109150009B1AE3606BB962B12369E2889A4208DD29
:1091600094F8C82093FBF2F102FB11330BB90123F1
:10917000237502B010BD00231A46194680202375BE
:1091800002B0BDE8104003F073B900BFB018002072
:109190007FB500230D4601930646002862D10029C1
:1091A0003AD108220B460DEB02010AF0D7FC002849
:1091B00004DA802003F0C4F804B070BD2E4C029A8B
:1091C0002260039A626004F13802A2609DF90820CF
:1091D000BDF80E302575002AC4E903550FDB802B3E
:1091E00009D9264A2648012109F0D9FD802003F03B
:1091F000A7F82846DEE713B1C4E90333DCE7FFF73D
:10920000EBFC0028D5D0E28823699A42D4BFE26003
:10921000E360FFF78DFFCFE7174CD4E90212002A75
:1092200001AB05DC02460AF099FC0028C4DAC0E76D
:109230000AF094FC002804DA802003F081F830461C
:10924000B8E7019AA3681344A360E3689B1AE3603C
:10925000002BB1D104F13803A360FFF7BDFC002857
:10926000D7D1A6E78028A7D1034BDA68002AD0D14E
:109270001B7D002BCDD19FE7B0180020C6600300F6
:10928000C4580300054B064A9A62064ADA62064A47
:109290001A63064A58629A6100207047B01800208D
:1092A000F98D0200418A0200E18A0200818A0200EF
:1092B0002DE9F34104464C4D4C484FF0FF334FF03D
:1092C000FF3207F013F895F8B8306BB1484A4948B7
:1092D000022109F064FD6FF07704444807F07EF83E
:1092E000204602B0BDE8F0816B6A6BB900F0D4F89B
:1092F000FFF7C8FF6B6A3BB93F4A3E48012109F0BE
:109300004EFD4FF0FF34E8E73C482C62E8616E6A9E
:1093100003F0F0F902F076FF041EDEDB00F08CFBB8
:10932000041EDADB7378012B01D1F3793BB9344A9F
:109330003048012109F033FD6FF01504CDE7002618
:10934000684685F8C830ADF802308DF804608DF8B5
:10935000006002F0C7FF041EBFDB802768468DF85F
:10936000007002F0BFFF041EB7DB2649304603F051
:10937000ADF9041EB1DB2349384603F0A7F9041EFA
:10938000ABDB214CDFF8848044451AD3002003F086
:1093900045F8041EA1DBD5F8C430802043F001035A
:1093A000C5F8C43003F03AF8041E96DBD5F8C43093
:1093B00043F48033C5F8C430012385F8B830002465
:1093C0008BE7276A0026227FF3B29A4201D8243421
:1093D000DAE707EBC30257F83310107903F076F998
:1093E00001360028EFD08CE7B0180020F00E0020E6
:1093F000DF600300C458030002610300058C020013
:109400002761030091910200E80F00200C1000205A
:1094100030B51F4B8BB005AA03F1100518685968C9
:10942000144603C40833AB422246F7D11B7823709D
:109430001022002101A80CF07AF812220021154810
:109440000CF075F8102101A80BF00CF800281BDDBA
:109450000828B8BF0820093801AB0E491A180020A7
:1094600012F8013F0AAC04EB131403F00F03283386
:109470006B44013014F8144C13F8143C0C70082899
:109480004B7001F10201EBD102480BB030BD00BFBF
:1094900061610300322D00202DE9F04F884B87B029
:1094A00093F800B000AFBBF1000F04D085481C3723
:1094B000BD46BDE8F08F834C00264FF0011AB04640
:1094C0003546B14623783BB97F4B02349C42F3D1F9
:1094D0007B4A01231370E9E76378052B1DD8DFE889
:1094E00013F0AC000600ED00AC001F00500040235C
:1094F00087F810B07B8287F814B007F1100002F0F3
:10950000C5FE40B108237B8207F1100002F0BEFEC9
:1095100008B1A7F812B07B8AE37123781C44D1E725
:10952000E378002BF9D1A37813B308F101085FFAAF
:1095300088F8F2E76B689C421CD02435634B9D424F
:10954000F8D36D4688B06A46614BC2E905340323FF
:1095500042F8103F5F4800234FF4C251FEF7B6FFB8
:10956000AD465C485C4A012109F019FC00209EE7E9
:109570005A4DE3E7AB68002BD7D0414620469847C9
:10958000D3E7002D57D1564A5248012109F007FC74
:10959000E7E72B6AA27803EBC103FB601B799A42D1
:1095A00005D001312B7F9942F3D34E4AECE70123DA
:1095B000E07800F003003875207994F805C040EA9F
:1095C0000C20788294F902000028DAB228DA03F13C
:1095D00010004FF0010C0CFA00F010EA0A0F26D12F
:1095E00042F08000387407F11000C7E90032B9601A
:1095F00002F04CFED7E901213B68C0B9397CF8681C
:10960000A17011F0800F18BF1032017118BFD2B2D3
:109610004FF0010114BF914099404AEA010A7CE7EA
:109620000120984010EA0A0F01D11046DAE7013311
:10963000102BBDD1B5E70021B4E7032E25D1FFF7EC
:10964000E7FEF86050B1FDF715FF38B11028FB6850
:1096500010D0254A1F48012109F0A1FB23786FF0A3
:109660000201E218091B04EB5303D14214D5013661
:10967000F6B252E7184600F11002A31C50F8041B82
:1096800043F8041B9042F9D1E8E7002EE6D1B9F186
:10969000000F08D1154A77E702F801BC13F8010959
:1096A00002F8020DE1E7A4EB090389F80230C3F3E5
:1096B000072389F8033089F80480D8E7A1462CE70E
:1096C000312D0020440F0020E70F00200C10002057
:1096D00072610300BC58030058620300E80F0020C9
:1096E00092610300D3610300F06103003B62030059
:1096F00010B5094B00211A461C78844204D15C68DD
:1097000014B102EB811010BD0131042903F14003B3
:10971000F2D10020F7E700BF7C1900202DE9FF41BE
:1097200050F8283C10F82C6C103304460AD1036919
:1097300050F8202C98073DD5D2B9590715D50023EC
:1097400044F8283C54F8283C10330BD054E90775F2
:1097500054F8148C0BF034FC002857D032482146C2
:109760000BF0BFFB04B0BDE8F08143F004032361BC
:1097700003AB54F8241C3046FFF7B4FC034640B159
:109780002A4A2B480096012109F01CFB6FF01503B3
:10979000D6E7039A54F8243C134444F8243C54F884
:1097A000203C9B1A44F8203C54F81C3C134444F8D9
:1097B0001C3CC7E703AB54F8241C304602F0E2FE21
:1097C00003460028DCD1039D54F8243C2B4444F884
:1097D000243C54F8203C5B1B44F8203C54F81C3CCF
:1097E0002B4444F81C3C002DA9D0304602F088FFE1
:1097F000B5FBF0F303FB1055002DA0D154F8203C2D
:10980000002B9CD0304602F013FF9BE744F8180C65
:10981000A4F1100006F050FE002DA3D042463946B8
:109820003046A8479EE700BFD014002086620300A0
:10983000D45803004B1E012B73B506460D4614D8B1
:10984000FFF756FF044690B9012D0ED101AB01225E
:109850000DF10301304602F095FE019B002BF5D17E
:109860000C4A0D48012109F09AFA02B070BD0BF0C4
:10987000A7FB04F12C0108B1012D05D1084602B067
:10988000BDE87040FFF74ABF044802B0BDE8704031
:109890000BF027BBA3620300D4580300D0140020B0
:1098A0002DE9F74F054601911646984609F07AFBD7
:1098B000002871D1EFF311832022009382F31288E4
:1098C000BFF36F8FDFF8D89083460022002348460D
:1098D00006F016FEA0B9DFF8CCA04FEA8B170AEB12
:1098E0008B1BDBF8044014F1100F20D12E4A2F48B7
:1098F0002B46012109F05CFA484606F0DDFD0DE03B
:109900000BF1010BBBF1040F09F14009DDD1284A2D
:109910002648012109F043FA6FF00B04009B83F302
:109920001188BFF36F8F204603B0BDE8F08F0C990C
:10993000019BCBF814100D99CBF81000CBF8181040
:1099400028466FF00F01CBE902360AF80750CBF832
:109950003C80CBF8041002F0D3FE68B1284602F038
:10996000CFFEB6FBF0F101FB10662EB1DBF83C1028
:1099700041F00401CBF83C1018F0020F07D007F1BA
:109980002C010C4851440BF0ACFA0024C6E72846E1
:1099900002F04EFE0446C1E76FF00F04C3E700BFBC
:1099A000981900207C190020D8620300D4580300C5
:1099B000BD620300D014002010B5EFF31184202302
:1099C00083F31288BFF36F8FFFF792FE50B14368A5
:1099D000103307D16FF08B03436000F12C01044872
:1099E0000BF07FFA84F31188BFF36F8F10BD00BFB7
:1099F000D0140020F8B50E4C04252027EFF3118673
:109A000087F31288BFF36F8F6368103307D16FF04D
:109A10008B030848636004F12C010BF062FA86F3B3
:109A20001188BFF36F8F013D04F14004E6D1F8BD0A
:109A30007C190020D014002070B50A4C0A4E002575
:109A4000314620460BF031FA0122A4F110001146F4
:109A500001350BF0ACF9042D04F14004F0D10020E5
:109A600070BD00BFA81900201D97020070B5044604
:109A70000E4601791548154609F070FA10B394F9AD
:109A800000206378002A16DB202B04D0222B0ED076
:109A90006FF085000AE02B681A6840F8102C9A884D
:109AA00020F80C2C9B7900F80A3C002070BD6388DC
:109AB00000F8093CF9E7212BEAD110380723286088
:109AC0003360F2E76FF01200F0E700BF7C1A00206D
:109AD00008B50146034809F04FFA10B1012300F818
:109AE000073C08BD7C1A00200169012381F84B3036
:109AF0000B6833B191F849301BB1024808310BF0C3
:109B0000F0B97047D01400200169012381F84A3070
:109B10000B6833B191F848301BB1024808310BF0A3
:109B2000E0B97047D014002070B5012382F84830A6
:109B300013680D4614463BB192F84A3023B10E48E3
:109B400002F108010BF0CDF9D4F890309A681B6946
:109B50009A4205D17DB904F1180140F6CD4204E0E6
:109B600004F11801002DF8D00022BDE87040024831
:109B7000002306F065BE70BDD014002038B505691D
:109B800095F89E0088B195F89F307BB985F84830EC
:109B9000D5F8900008F0F4FF0022044600230448A2
:109BA00005F1180106F04CFE204638BD0020FCE708
:109BB000D01400200D4A03460021A0F84810106878
:109BC000C3F8940090889279A3F8980083F89A20BB
:109BD00083F89C1083F89B10A3F89E1083F8A010C4
:109BE000402203F14C000BF0A2BC00BF1859030047
:109BF000F0B5D0F88C305B681B6A1F7D85B00446D9
:109C0000384609F0CFF90646F8B994F88630E3B142
:109C1000A06F4FF4806203A908F0D1FF0546A0B100
:109C20008306A4F1180308BF00F1FF3584F8306003
:109C30000193074B039900932A4602233846FFF706
:109C40002FFEA06F294608F0DAFF05B0F0BD00BF77
:109C5000299B020010B504690023C4F8A8300C4BFE
:109C6000C4F8A400596804F1A80269B9C3E9002244
:109C700004F1080007490BF018F904F1180006492F
:109C80000BF07BF9002010BD0A605A60F0E700BFBE
:109C90007C1A0020CF2F0300F19B020013B504694A
:109CA0008DF80710002384F84830D4F89000012282
:109CB0000DF1070108F064FF10B90BF081F940B114
:109CC0002122002304F11801064806F0B9FD02B074
:109CD00010BD94F8A130002BF2D00021212007F014
:109CE0004FF9E2E7D014002037B514460A1E0546A6
:109CF00020DDD4F88C0004F14C0108F041FF012371
:109D000084F8493023683BB194F84B3023B11148B3
:109D100004F108010BF0E5F8D4F88C104B684A699F
:109D20009A1ACB699B1A3F2B04D8012384F8A030E0
:109D300003B030BD94F89E30002BF9D0064B009351
:109D400001940123402204F14C012846FFF7A8FDAD
:109D5000EEE700BFD0140020E99C0200F7B50D46E5
:109D600001461D4809F0EEF8044610B30646691E88
:109D700056F8A4395F6805291BD8DFE801F01C1AE2
:109D8000031C222610F8061C99B9012300F8063C92
:109D90003B6A3246187BFFF7A7FF14F85C2C42B9E8
:109DA0003B6A187D0D4B0093019602231146FFF785
:109DB00077FD03B0F0BD304603B0BDE8F040FFF7DB
:109DC000F9BE012304F8053CF3E710F8053C002B2D
:109DD000EFD00023F6E700BF7C1A0020299B020089
:109DE00037B5094D0949002400944FF0FF334FF473
:109DF0008062284606F0E6FC054928460BF0E6F8A6
:109E0000204603B030BD00BFD014002040310020F8
:109E10001B63030008B5044808F0EEFABDE80840EB
:109E2000024808F0E9BA00BF246303005963030045
:109E3000014807F017BC00BF385A030038B5044684
:109E400018B90F4B0F485B6898476168B1F5683FD8
:109E500010D0B1F5680F0DD00B4DA9420AD011F406
:109E60006861206807D0014608480AF0E9FE00232F
:109E70002360656038BD14220BF059FBF9E700BF81
:109E8000D40D0020876303002C5F5CA9841F002091
:109E900008B520B34368B3F5683F10D101220368C9
:109EA000BFF35B8F53E8001F002903D143E8002074
:109EB0000028F7D1BFF35B8F0DD1002008BD094A00
:109EC00093420AD000684FF0FF324FF0FF3306F0A4
:109ED0000DFA0028F1D00448F0E70448EEE76FF4EB
:109EE000E040EBE72C5F5CA9E98FFFFFEA8FFFFF03
:109EF00008B5D8B14368B3F5683F10D100220368B4
:109F0000BFF35B8F53E8001F012903D143E8002012
:109F10000028F7D1BFF35B8F0BD1002008BD074AA3
:109F2000934208D0006806F059FAF6E76FF4E04073
:109F3000F4E70348F2E70348F0E700BF2C5F5CA9B1
:109F4000E98FFFFFEA8FFFFF10B5044618B91D4BDC
:109F50001D485B6898476368B3F5683F2FD0B3F539
:109F6000680F2CD0194A934219D1236803BB1848B3
:109F70004FF0FF324FF0FF33214606F089F908B960
:109F800023681BB90F4B13485B689847206814225D
:109F900000210BF0CCFA4FF46863636008E0B3F57E
:109FA000683F0DD83A2B03D040F6BA629342DED117
:109FB00020680AF07DFE636843F03A03636010BDD9
:109FC000054AF3E7D40D0020876303002C5F5CA9EA
:109FD000841F0020AD6303003A00003A08B506492B
:109FE0000648402314220AF01DFEBDE8084004493B
:109FF000044807F0A9BB00BF841A0020841F00207A
:10A00000405A0300545A03002DE9F047064600AFBA
:10A010000C46002936D0E9468AB0D1E90012A3687F
:10A020006D462148A8464FF0050AC5E90501C5E976
:10A03000072348F810AF1D48424600234FF4215132
:10A04000FEF744FACD46D4E903126369AD461848D9
:10A05000C5F810A0C5E90501C5E907231348002389
:10A0600042464FF42151FEF731FACD46E369114AD9
:10A070000E48012108F09CFEA3690F4A0B480121FC
:10A0800008F096FE012E07D1EFF305830B4A07482F
:10A09000103B314608F08CFE2146304605F048FF63
:10A0A000BD46BDE8F08700BFDA63030094580300A3
:10A0B0000964030038640300476403007564030007
:10A0C00030BFFFF7FDBF00BF2DE9F0410B4EDFF8B9
:10A0D000308006EB0807CC1B05463246094920466E
:10A0E0000BF017FAA01942460021083C0BF01FFAAA
:10A0F0002C6707F10800BDE8F08100BF00000000F8
:10A100000800000004590300074A936893F90E10F1
:10A11000002907DB526993421FBF044A536843F08A
:10A1200080535360704700BF1C2B002000ED00E0FF
:10A1300070B5294C06460D462848294908F0EFFF1E
:10A14000A36AD9043CD52548264908F0E8FF172022
:10A15000A36A1A0504D52148234908F0E0FF182016
:10A160001D4CA36A9B0512D51C48204908F0D7FF57
:10A17000A36BA26A100409D51D4A1848012108F0F2
:10A1800017FE1EB1A36A23F40043A3621920124CE8
:10A19000A36A590504D51148164908F0C0FF1A20D2
:10A1A000A36ADA050ED50D48134908F0B8FF1B2045
:10A1B000094A936A43F47F43936200232B7070BD76
:10A1C0001620C5E7A36A9B04F2D504480B4908F0A2
:10A1D000A6FF1C20ECE700BF00ED00E09458030050
:10A1E000886403009E640300AF640300C26403003C
:10A1F000DB640300F06403000B65030023650300C8
:10A2000010B5204C2049214808F089FFA36A990124
:10A2100036D51E481E4908F082FF1E20A36ADA01C7
:10A2200004D51A481B4908F07AFF1F20154CA36A71
:10A230001B0304D51548184908F071FF2120A36AB3
:10A24000590304D51148154908F069FF22200D4C27
:10A25000A36A9A0304D50D48114908F060FF232032
:10A26000A36ADB0304D509480E4908F058FF2420EF
:10A27000044A936A6FEA03436FEA1343936210BD83
:10A280001D20CBE700ED00E0526503009458030069
:10A290006A6503007D65030097650300B5650300EB
:10A2A000DA650300F46503002DE9F843364D804676
:10A2B000894636483649174608F031FFAB6ADE0654
:10A2C00027D53449314808F02AFF1124AB6A1D070D
:10A2D00004D531492D4808F022FF12242A4DAB6ADB
:10A2E000980718D52D49294808F019FF6E6BAB6AFD
:10A2F000190646D52A4A25483346012108F058FD5B
:10A30000B9F1000F03D0AB6A23F08003AB621324D2
:10A3100003E01024DAE76FF015061B4DAB6ADA078D
:10A3200004D52049194808F0FAFE1424AB6A9B06AC
:10A3300004D51D49154808F0F2FE1524124B9A6AFF
:10A34000D50602D49A6A90070AD55B68190507D525
:10A350004146304600F090FA10B180F3098802249B
:10A36000094B9A6A920642BF5A6A22F400525A6214
:10A370009A6A42F0FF029A6200233B702046BDE8D1
:10A38000F8836FF01506C2E700ED00E09458030073
:10A390001F66030035660300AF64030068660300B0
:10A3A0008066030096660300236503002DE9F041F3
:10A3B000664B8AB0D3F8048000AF0446C8F30805A2
:10A3C000002686F31188BFF36F8F02F07F43B3F14D
:10A3D0007F4F07D102F00C03082B12D15C495D4876
:10A3E00008F09DFE002634460023FB71EB1E092B6E
:10A3F00000F28A80DFE803F00A80837D88888888FD
:10A40000888610074CBF0C460126EDE7524951489B
:10A410004E4D08F084FE0023FB71EB6A9A0705D5C8
:10A420004E494C4808F07BFE002333E0EB6A002BDA
:10A4300001DA4B49F5E7EB6A5B00F5D54949454838
:10A4400008F06DFE6B69A26943F480736B61BFF322
:10A450004F8FBFF36F8F6B6932F8022C23F4807338
:10A460006B61BFF34F8FBFF36F8F4DF602739A424C
:10A4700009D0AB6ADBB27BB3FA1D01212046FFF79E
:10A4800013FF034606E02368374A3248012108F0EB
:10A490008FFC2368FA79DAB907F1080504F1200C7A
:10A4A000206861682A4603C2083464451546F7D11E
:10A4B0007A6A002E44D0C2F3080121B96FEA522211
:10A4C0006FEA42227A6207F108011846FFF79CFD05
:10A4D0002837BD46BDE8F081AB6A13F47F4F04D046
:10A4E000F91D0120FFF724FECBE7AB6AB3F5803FEF
:10A4F0009AD3FFF785FEC4E7FA1D0021BEE7F91DD8
:10A500000020EFE719498CE7194A1A4B18F4F87F35
:10A51000E8468AB018BF13466A461749C2E90513D0
:10A520004FF400731384103D144BD56142F8103F73
:10A53000084800234FF41151FDF7C8FFC54673E7E3
:10A5400022F4FF7222F00102BCE700BF00ED00E040
:10A55000E3660300945803000E67030025670300B9
:10A560004667030054670300736703008F670300A7
:10A57000CA660300B5660300B36703000400000168
:10A58000024A536943F010035361704700ED00E045
:10A59000EFF30880EFF3098101B57246FFF706FF7C
:10A5A00001BD00BF002080F31488BFF36F8F04F05B
:10A5B000DFFD00200D490860BFF34F8F0C4880F38A
:10A5C000088800F02BF8202080F3118809484FF408
:10A5D0000461401880F30988EFF3148002210843D6
:10A5E00080F31488BFF36F8F00F00EF994ED00E054
:10A5F00080470020C03900200749D1F8902000236F
:10A60000C2F307221846934200DB7047C1F8983026
:10A61000C1F8A0000133F6E700ED00E008B572B61E
:10A62000002383F31388FFF7E7FF144B4FF0FF324B
:10A63000C3F88020C3F88420C3F88820C3F88C2096
:10A64000C3F89020C3F89420C3F89820C3F89C2046
:10A65000C3F88021C3F88421C3F88821C3F88C2172
:10A66000C3F89021C3F89421C3F89821C3F89C2122
:10A6700062B6BFF34F8FBFF36F8F08BD00E100E0FC
:10A68000084B9B6883420BD1EFF3058343B1064B24
:10A690005A6842F080525A605A6A22F400425A6262
:10A6A0000AF08CBD1C2B002000ED00E0094A9368E5
:10A6B0006FF00A019967084958674B6843F0805367
:10A6C0004B60002383F31188BFF36F8F9368986FFB
:10A6D000704700BF1C2B002000ED00E010B50446C1
:10A6E000EFF31183202383F31288BFF36F8F0A4B9C
:10A6F00058699860094B4FF000625A60084B026F2E
:10A700001A600022436F426783F31188BFF36F8F93
:10A7100000F01AF9204610BD1C2B002000ED00E0CF
:10A72000A01F00200B498A684FF030001044EFF35F
:10A73000098C80E8F01F74467046FFF7CFFFA646ED
:10A7400004498A6802F1300090E8F01F8CF3098810
:10A75000704700001C2B00201EF0040F0CBFEFF30D
:10A760000880EFF30980816911F8021C0229FFD0EB
:10A7700001B508F0C9FC01BD40B2002807DB044A5E
:10A780004109012300F01F00834042F82130704747
:10A7900000E100E040B200280CDB4309064900F06C
:10A7A0001F0020330122824041F82320BFF34F8F46
:10A7B000BFF36F8F704700BF00E100E0054B420917
:10A7C00000F01F0053F82220012303FA00F010408C
:10A7D000704700BF00E100E040B20028A8BF00F1D0
:10A7E000604001F10101B8BF064B4FEA4111ACBF17
:10A7F00000F5614000F00F00C9B2B4BF195480F8F1
:10A800000013704714ED00E00B4A08B50B4B22F023
:10A810007F029A60BFF34F8FBFF36F8FD3F888200A
:10A8200022F47002C3F8882005F06CFC06F082FC6C
:10A8300000F060F805F0AAFC0070020000ED00E0F6
:10A8400042F8203C009B42F81C3C0A49019B42F81C
:10A85000183C029B42F8143C21F001014FF0807338
:10A8600042F8043C42F8081C0023203A0265436782
:10A87000704700BF497D0200094A0346906870B1E5
:10A8800013F1160F006E05D0A0F140029A4205D8D0
:10A89000834203D2814228BF0020704700207047C6
:10A8A0001C2B002008B515460B4A0C4B9060026F1C
:10A8B0001A600E4600F048F82C4686F309884FF0DF
:10A8C0000000074B984720464FF000014FF0000270
:10A8D0004FF00003034C20471C2B0020A01F00203A
:10A8E0002F310300497D0200014B10221A6170478D
:10A8F00000ED00E0044800232021C2180133302B72
:10A9000082F80013F9D1704700E100E008B5EFF3D9
:10A910000583064A103B02EBC30152F83300496835
:10A920008847BDE80840FFF7EFBB00BFAC56030007
:10A93000024B034A0348012100F08AB800000420BA
:10A9400000000020645A0300026E054B403A1A6072
:10A95000044A4021C3E901121846012100F082B8DF
:10A96000A41F002000000B1508B503461048D0F8BE
:10A970009020C2F30722013A934207D90D480E4AAC
:10A98000012108F015FA6FF0150008BDC0F89830E5
:10A990000A6822F01F021A4342F01002C0F89C20FD
:10A9A0008A6842F00102C0F8A0201846EDE700BF17
:10A9B00000ED00E084580300CA670300F0B50E46BE
:10A9C00085B01F4604460025B5420DDA606810B315
:10A9D00097B1431E18420AD0104A11482B46012154
:10A9E00008F0E6F96FF01502104605B0F0BD1F281B
:10A9F000F2D921680B42EFD12368019308F0BAFB2A
:10AA0000A36801A90343D0B20393FFF7ADFF10F190
:10AA1000160FE7D0421C01350C34D5E7F067030070
:10AA200084580300044B0522C3F89420BFF34F8FD2
:10AA3000BFF36F8F704700BF00ED00E0BFF35F8F83
:10AA4000024B0022C3F89420704700BF00ED00E0E5
:10AA500010B5034C01232278FFF7B0FF207010BD22
:10AA6000442D002008B50B4A00231278FFF7A6FFFB
:10AA700010F1160F07D0084A0021D2F89030C3F326
:10AA80000723984200DB08BDC2F89800C2F8A01066
:10AA90000130F2E7442D002000ED00E02DE9F04305
:10AAA00057485849D0F890300D68C3F307239D42AA
:10AAB00085B000F2A180FFF7C1FF496800229542EE
:10AAC00001F10C011AD1504C504F25706846FDF72A
:10AAD000B1FFDFF83C81DFF83C9106460025AE422D
:10AAE0001FD1237846490020D1F89020C2F30722D5
:10AAF00093427BDBFFF796FF00204CE0C0F89820E4
:10AB000051F80C3C23F01F03134343F01003C0F82B
:10AB10009C3051F8043C43F00103C0F8A0300132EE
:10AB2000CDE7009800EB05114FEA051CCB683B40D0
:10AB3000B3F5000F44D00AD8B3F5001F2ED0B3F5FB
:10AB4000800F34D0B3F5801F10D00135C7E7B3F1C3
:10AB5000807F3ED0B3F1007FF7D150F80C30886889
:10AB60004A6808F007FB40F4802009E050F80C30F8
:10AB700088684A6808F0FEFA40F0885040F43020B7
:10AB8000039001A92078CDE90123FFF7EDFE00280D
:10AB900028DA6FF0150005B0BDE8F08350F80C30EE
:10ABA00088684A6808F0E6FA40EA0800E8E750F8E2
:10ABB0000C3088684A6808F0DDFA40EA0900DFE7EF
:10ABC00050F80C3088684A6808F0D4FA40F0827077
:10ABD000D6E750F80C3088684A6808F0CBFA40F0A5
:10ABE0008870CDE7237801332370AEE7C1F8983041
:10ABF000C1F8A000013377E74FF0FF30CBE700BF8B
:10AC000000ED00E0705A0300442D00200000F0FF2A
:10AC1000000008110000020708B5024B1B689847A6
:10AC2000002008BDB01F0020034B044A1860937831
:10AC300043F0020393707047B01F0020A00C002067
:10AC4000F0B587B007460E4614460021102268462C
:10AC50001D460AF06CFC02238DF802302A46054B93
:10AC6000019321466846CDE9047606F045FF07B01A
:10AC7000F0BD00BF9531030008B50649064821F034
:10AC80000701C1F1005202F5802207F020FB0020ED
:10AC900008BD00BF87560020B41F002003484FF0B6
:10ACA000FF324FF0FF3305F021BB00BFB00C002096
:10ACB000014805F093BB00BFB00C002038B5054635
:10ACC000FFF7ECFF08482A46082107F098FA0446E7
:10ACD00028B925B10AF03CFC044B0C221A50FFF7AE
:10ACE000E7FF204638BD00BFB41F00200C00000065
:10ACF00010B50446FFF7D2FF2146034807F047FA94
:10AD0000BDE81040FFF7D4BFB41F00200E4A012356
:10AD1000C2F840354FF080424FF08051C2F878358C
:10AD2000D1F83001082808D1D1F83411052904D808
:10AD30000648415C09B1C2F838364FF08043012221
:10AD4000C3F880250020704700E00140226803001E
:10AD500020B1034B800143F001031847704700BF47
:10AD600030590300F8B590F8D410036E01295A68E1
:10AD7000B0F8B83000AF044604D002292DD000202E
:10AD8000BD46F8BD190102EB0313B0F8D6005158C7
:10AD90009D880144B4F8D6602068AE1BB6B2324636
:10ADA00008F0C3FB00281EDCE9D06C468AB06B4675
:10ADB000124A5A61124A1862C3E906264FF4007219
:10ADC0009A841A460F4B42F8103F0F4800234FF465
:10ADD0003151FDF77BFBA546D1E7B0F8D630416B8A
:10ADE000058F1944D6E7B4F8D630184480B28542AE
:10ADF000A4F8D6008CBF00200120C1E72C68030016
:10AE000048680300050000016C580300F8B50D46C2
:10AE100000AF0446002851D0036E002B4ED0B1B1D4
:10AE20006E4688B01B6801296A460CBF2449254933
:10AE3000C2E905134FF400739383234B42F8103F8C
:10AE4000224800234FF4E451FDF740FBB546236E42
:10AE50005B691BB16268294620469847D4F81821DF
:10AE600000233AB1B4F82021012A9CBFC4F818315C
:10AE7000A4F81C31C4E913332366A36504F17800F8
:10AE80000AF087F804F1D8000AF03BF804F1E80072
:10AE90000AF07FF8BFF35B8F04F1BC0353E8001F97
:10AEA00021F0010143E80012002AF7D1BFF35B8FC4
:10AEB00084F8C05004F1C40005F0FEFABD46F8BDA8
:10AEC000516803005D680300030000016C58030033
:10AED0002DE9F04FA0F59274A0F58A7185B0054672
:10AEE0002022206808F048FB002840F35A81002700
:10AEF0002086B846228EBBB29A4205D8284605B0B5
:10AF0000BDE8F04F05F058BC14FA87F3B4F84010D0
:10AF10001A7C0023DEB28E4210D3E389A1899942C4
:10AF200014D1A14AA148022107F039FF0023E3818F
:10AF30006387A4F84A30C4F8183105E0E06B805DFF
:10AF4000824203F10103E5D10137D3E7B4F84A00A7
:10AF5000B4F84810884201D1954AE3E7A168CA5481
:10AF6000E389B4F838B000935E1CB6B25E45E68162
:10AF7000C0F08980D4F80890616BA6EB0B0A5A46A2
:10AF800009EB0A000AF052FA00287CD15E450AD18A
:10AF9000A5F592730022DA8125F8EA2C25F8DA2C3F
:10AFA00045F80C2CD0E7D4F818316BBB09F80A30FF
:10AFB000A5F1CE00C5F1C00C4FF0140E30F8026FB1
:10AFC000002291B28E4204D801339BB2032BF5D1FB
:10AFD000DEE75CF810100EFB0211013291F80490CC
:10AFE000B9F1000FEDD1A4F82031636C714AC4F8B7
:10AFF00018111A60636CA2685A600223A4F84A30E0
:10B00000204608F038F9C3E7B4F81E3193B1B4F81C
:10B010004A10626CAAEB030A09EB0A0342F82130DA
:10B02000228FE3899B1AA268D054B4F84A300133C6
:10B03000A4F84A30204608F01EF9A4F80E80A4F8BF
:10B040003A80A4F84A80C4F818817DE7626B515CAD
:10B05000A2683244013312F8012C8A423FF474AFE3
:10B06000D9B25945F2D355F80C2CA5F5927362B9B3
:10B07000C5F1C001A5F1CE0A03913AF8021F029171
:10B080004FF0000E68E00023EAE792F80CC00020C1
:10B0900081B261456AD30021B3F81E2100297ED018
:10B0A000B3F84AC0586C002A6CD1424A40F82C20B0
:10B0B000B3F84A200132A3F84A200022A3F81E2147
:10B0C00042E7039951F81A10142000FB0E1999F861
:10B0D000041001918E423DD199684FF0000CDDF8CB
:10B0E00004B01FFA8CF0584522D3A4F82021009A0E
:10B0F000A389C4F81891023292B29B1A0B44A4F8A7
:10B100001C211846013A0AF004FAB4F84A10626C9D
:10B1100042F82100A289A3681344002203F8012CFD
:10B12000B4F84A30A4F81E210133A4F84A300BE7E2
:10B13000D9F8000011F80CB010F80C00834506D0C7
:10B1400099F80DB01BF0010F04D03F2802D10CF18B
:10B15000010CC4E70EF1010E02981FFA8EF188422D
:10B16000AFD8013292B2032A87D1EDE6916811F887
:10B1700000E099683144013011F8011C714587D114
:10B18000012189E79968B21A013A114440F82C105C
:10B19000D9899A680A44002102F8011C88E7013223
:10B1A0008CE705B0BDE8F08F6B6803006C580300B6
:10B1B00082680300586F030038B50D4604464FF40B
:10B1C0009C7200210AF0B3F92B6863606B68A3607E
:10B1D0002B89A381EB6963642B8CA4F84830EB685E
:10B1E00063632B7C23876B69E3632B7EA4F8403079
:10B1F0006B6A63652B8DA4F85C30002504F1BC03F9
:10B20000BFF35B8F53E8002F43E800510029F9D1C9
:10B21000BFF35B8F0122294604F1C40009F0C7FD8A
:10B2200004F592700E4909F040FE04F168000D49E2
:10B2300009F03BFE04F178000B4909F09EFE04F191
:10B24000A8000A4909F031FE04F1D800084909F0C4
:10B250002CFE04F1E800074909F08FFE284638BDAE
:10B26000D1AE0200E932030009320300F9310300D4
:10B27000413303006732030010B50246002408463C
:10B280001160D48104495487A2F84A40C2F8184199
:10B2900008F024F9204610BDAB31030010B550F87A
:10B2A000083C50F8040C19688C880834224608F0D1
:10B2B0003CF9A042034606DA034A0448BDE81040C0
:10B2C000012107F075BD10BDAC6803007C58030078
:10B2D0002DE9F041044630F8282C50F82C1C50F889
:10B2E000140C08F049F9002848DCBDE8F08134F876
:10B2F0001E2C54F8241C8B5434F81E5C2D49013547
:10B30000ADB2062D08BF54F8242C24F81E5C02BFF1
:10B31000928808320A800A88AA4248D154F8188CC8
:10B3200054F8246CD8F80810B3888A889A4210D14F
:10B33000083230460AF07AF8074650B904F1100096
:10B3400005F0BAF804F81C7C2046BDE8F04105F091
:10B3500033BAD8F80030B1789A78914203D1F278B4
:10B36000DB789A4203D0002304F81C3CECE7D8F8C1
:10B3700004002A4631460AF0CCF8F4E754F82C3C95
:10B3800014F81C2C1B78002AB1D10B4A1278B52A6C
:10B390000DD1622B0BD1012104F81C1C54F8241C84
:10B3A0000A7054F8242C5370022224F81E2C024AEE
:10B3B0001370C9E72C2D0020452D00202DE9F84FF2
:10B3C0000B689B88B3F5807F05460E464ED8BFF3C9
:10B3D0005B8F4368BFF35B8FDA074AD500F15407F0
:10B3E0004FF0FF324FF0FF33384605F089F8041E66
:10B3F0002ADB4FF0000BEE6105F14408D94605F158
:10B40000240AB3895B4508DC002C1ADA1A4A1B4867
:10B410005B46012107F0CCFC13E02B6A1BB34046CE
:10B4200005F094F885F81890504605F0C5F9EB69D9
:10B430009B6863B9124A11485B46032107F0B8FCC8
:10B440000024384605F038F82046BDE8F88FD6E9E4
:10B450000423404605F054F8041EEBDA631CD5D0F3
:10B460000BF1010BCDE74FF0FF34CFE76FF01A047B
:10B47000EAE74FF0FF34E7E7056903007C58030073
:10B48000D868030038B50446231D0846BFF35B8F18
:10B4900053E8002F42F0010143E80015002DF7D1D9
:10B4A000BFF35B8FD30708D405492062224608F01A
:10B4B00015F804F1540004F0FFFF002038BD00BF70
:10B4C0004537030038B50D460446642200210AF0D2
:10B4D0002EF82B6823606B68A3602B89A381EB682F
:10B4E00023612B8AA38204F124000B4909F0DDFCBF
:10B4F0000A4904F1340009F0D8FC0122002104F1CA
:10B50000440009F054FC0122114604F1540009F0F2
:10B510004EFC002038BD00BF9DB20200D1B2020037
:10B5200070B5E82204460D4600210AF000F82046D6
:10B530002B6840F8383B0B4909F01FFD0A4904F11C
:10B54000680009F0B2FC204600F02EFA261D2946BC
:10B5500020B1204600F03AFA304670BD204600F097
:10B56000B1F8F9E7153803000F3803002DE9F74368
:10B5700006460C4683689B6F002B75D098470028C1
:10B5800072DDB3689B6E93BB94F8E0904FEA491864
:10B5900008F1780727444FF0FF3201A9384607F039
:10B5A000BBFA0546C8B9454A4548022107F0F7FBF2
:10B5B0002946384607F0CFFA04EB4913A044C8E9FE
:10B5C00020554FF0FF32C3E92355DD67C3F888509B
:10B5D00001A9384607F0A0FA05462068019983685A
:10B5E0009B6CDBB90021384607F0B5FA03E0304622
:10B5F00098470028C8D1B3689B6D8BBBD4F8C8208E
:10B60000D4F8C0309A4232D154F8680B08F00FF9E0
:10B61000204603B0BDE8F04305F0CEB82A4698476F
:10B62000011EDFDD384607F096FA04EB49131421BA
:10B63000D3F89420DD6FD3F88C30B2FBF1F1EB1A24
:10B64000D21A914204F1380005D24FF4247200233B
:10B6500005F020F9CFE70022002305F04FF9CAE7F3
:10B66000304698470028C9D103B0BDE8F08304F103
:10B67000B8064FF0FF3201A9304607F0A0FA0246A3
:10B680002068019983681B6C23B90021304607F0BC
:10B69000B6FAE9E79847051EF7DB29463046D83465
:10B6A00007F0ADFABFF35B8F54E8003F5B1B44E843
:10B6B0000032002AF8D1BFF35B8FD5E7446903005D
:10B6C0006458030010B50B69A3EB9303C0F8E43092
:10B6D0004B688A6883670023C0E92033C0E92333BD
:10B6E0005208C0F89420C367C0F888300446486800
:10B6F000C4F8B420C4E92833C4E92B331044C4F897
:10B700009800C4F89C30C4F8A830D1E90320C4F8EC
:10B71000B82004F1D802C4E93033C4E93333C4F8A3
:10B72000D400C4F8BC30C4F8C830BFF35B8F52E813
:10B73000001F42E800300028F9D1BFF35B8F20687A
:10B7400008F07AF8206808F072F82068836823B15E
:10B75000DB6F13B10449224698472146201D034A56
:10B76000BDE8104007F071BE6DB50200C40C0020AA
:10B77000F8B5D0F8A83004469A4228BF1A4600AF60
:10B78000D0F8A400154609F0C4FE2068D4F8A4102F
:10B7900083682A465C68104BA0470446C8B16E46D1
:10B7A0008AB06B460D4A5A610D4A1862C3E90625F4
:10B7B0004FF400729A841A460A4B42F8103F0A4826
:10B7C00000234FF43151FCF781FEB5462046BD46BB
:10B7D000F8BD2C46FAE700BF40420F002C6803007A
:10B7E00072690300050000015C58030073B50B7813
:10B7F0000D46144602F1BC06062B1BD8DFE803F009
:10B800001204854575BDBF00BFF35B8FD4F8BC3013
:10B81000BFF35B8FDA0605D58B685D4A5D48022170
:10B8200007F0C6FA3046002108F0DAF804F16800A3
:10B8300004F0C2FFBFF35B8FD4F8BC30BFF35B8F63
:10B84000D80700F1A380BFF35B8FD4F8BC30BFF3FF
:10B850005B8F990700F19A80BFF35B8FD4F8BC30FF
:10B86000BFF35B8F5A0700F19180BFF35B8FD4F871
:10B87000BC30BFF35B8F1B0700F1888004F1AC0084
:10B8800002B0BDE8704004F097BFBFF35B8F56E88D
:10B89000003F43F0040246E800210029F7D1BFF33E
:10B8A0005B8F5B0707D42068D4F880208368A16F82
:10B8B0001B699847BEE7BFF35B8F56E8003F43F034
:10B8C000080246E800210029F7D1BFF35B8F1D076E
:10B8D00005D420688368D4E91F121B69E9E72E4A62
:10B8E0002C48022107F05BFAA4E74B68A26F934251
:10B8F00004D10221304608F073F89BE7E26F9342CF
:10B9000001D10321F6E7254AEAE7EFF31186202368
:10B9100083F31288BFF36F8FD1E90113EA681944EA
:10B9200004F1840007F02CF9EB6883421AD9D4F8AB
:10B930009420D4F88C309B1A0022C4E92322C4E955
:10B940002622C4F88820C4F8942086F31188BFF317
:10B950006F8FEA68022100921B1A114A0D4807F006
:10B9600031FA67E786F31188BFF36F8F0022002357
:10B9700004F1380004F08EFF5CE70121BAE70B798F
:10B98000084A0448022107F013FA53E702B070BDD9
:10B990008B6903005C580300A7690300C3690300B7
:10B9A000E36903000C6A030008B502460068836877
:10B9B0001B682BB104499847B0FA80F0400908BDD4
:10B9C0006FF05700F8E700BFEDB7020010B58B68C5
:10B9D0009B08C0F880304A6882671A44C2674A6888
:10B9E000044602EB430258000023C4E92333C4E9B0
:10B9F0002633C4F8A000C4F88420C4F88830C4F802
:10BA00009430CB68C4F8A4300B69C4F8A83004F1B2
:10BA1000AC00054909F049FA2146201D034ABDE85A
:10BA2000104007F012BD00BFDB390300D40C00202A
:10BA3000020600F07F0312D5082B05D1010700F0A4
:10BA40000F0306D50E48704710F0780F12D100F0A2
:10BA50000F034C2000EB43100A4B18447047082B8F
:10BA600005D1020700F00F0306D50748704710F014
:10BA7000780FF6D000207047044800EB4310704761
:10BA80000C210020C01F00202C2200202C2100208F
:10BA90000149024809F025BAE81F0020701500206E
:10BAA0000146014809F078B9340F0020024800220D
:10BAB000002304F0CFBC00BF340F002013B51248A0
:10BAC00000F09AFF114B98421AD1114804F07AF90C
:10BAD0000024104804F0BCF90F49104800944FF0BE
:10BAE000FF334FF4806204F06DFE0D490B4809F0FE
:10BAF0006DFA0C480C4909F0D8F9204602B010BD87
:10BB00006FF00400FAE700BFB9C002000000AD0BFF
:10BB1000766C0300905A03008035002070150020D9
:10BB2000456A0300E81F0020A9BC020010B50E49B9
:10BB3000BFF35B8F002351E8002F012A03D141E8B6
:10BB400000300028F7D1BFF35B8F0CD151F8044CC3
:10BB50001439204606F0A7FF783004D12046BDE80E
:10BB6000104006F07CBF10BDE01F002038B5002457
:10BB700064F07F00C0B2FFF75BFF013407F0BCFF49
:10BB8000082CF5D10E4D0024E0B2FFF751FF0369F8
:10BB900003B90561013407F0AFFF082C05F140053A
:10BBA000F2D1084807F0A8FF074BD3F87C2212B95E
:10BBB000064AC3F87C22064807F09EFF002038BDE5
:10BBC000502600200C210020C01F00205022002001
:10BBD0002C22002010B5054CFFF768FF20B141680A
:10BBE000204609F02DF8F7E710BD00BF840E0020B5
:10BBF00007B500231448002201A904F049FBE8B16D
:10BC0000124A1348012107F08AFFFFF7E3FF0E48AD
:10BC10000022002301A904F03BFB30B10D4A0C487F
:10BC2000012107F07CFF00200AE001980423406016
:10BC30000374FFF735FFFFF72BFFF4E7019840602F
:10BC400003B05DF804FB00BF840E0020506A0300BF
:10BC5000CC5803006E6A03000346024A02480121E1
:10BC600007F0A6B88A6A0300CC580300022810B572
:10BC700011D80B4A145CFFF7BBFF80B1002202749D
:10BC80000472FFF70DFF074B93F824303BB1BDE87A
:10BC90001040FFF7FDBEBDE81040FFF7DDBF10BD4F
:10BCA000736C0300C01F00202DE9F043A24CDFF8A5
:10BCB0008C9285B08046FFF7F9FE074610B905B0B3
:10BCC000BDE8F08394F825203B7C3AB9002B00F0C6
:10BCD0009A807968994808F0B3FFECE7042B00F2EA
:10BCE0007581DFE813F09000050012013D015E014F
:10BCF00018F8043C33B9BB685B7A914A914801213A
:10BD000007F056F83B7BBD68032B37D8DFE803F01C
:10BD1000023D63686E698C4B002232607260D3F81A
:10BD200080143170D3F884147170D3F88814D3F868
:10BD30008C0441EA00217180D3F89014D3F8940464
:10BD400041EA0021B180D3F89814D3F89C3441EA39
:10BD50000323F3800823EB60306871687B4B03C3D7
:10BD600011462B68687A984796F90030002B08DB5B
:10BD7000F38833B1A4F88C3201F08EF97968484623
:10BD8000A9E70023A4F88C32F8E76B7F002BF5D0ED
:10BD90002B7F002BF2D000264FF0FF326C486E77DD
:10BDA0004FF0FF332E7707F0BCFE6B6901936B6891
:10BDB000CDE9023601A9687A00F074FE654A904226
:10BDC000034604D0644A5F48012106F0F1FF604851
:10BDD00007F0A9FED2E72B680121687A9847CDE7E2
:10BDE000AB7A6BB9EB7F5BB959484FF0FF324FF03C
:10BDF000FF3307F096FE01F055F9554807F093FE22
:10BE00002B680221E9E73B7A042BB7D8DFE803F07F
:10BE100059032367730000F0BDFD05460028ADD12E
:10BE200000F0F8FCBFF35B8F4C49012351E8002F71
:10BE3000002A03D141E800300028F7D1BFF35B8F1F
:10BE40009CD141F8085C41F8105CE06963611439E9
:10BE500006F0AEFD92E7002565F07F00C0B2FFF767
:10BE6000E7FD037A13B1407A01F080FA0135082D1D
:10BE7000F2D194F854311BB194F8550101F076FADF
:10BE80000025E8B2FFF7D4FD037A13B1407A01F040
:10BE90006DFA0135082DF4D194F874321BB194F881
:10BEA000750201F063FA002000F058FD012384F8C8
:10BEB00025302368002B3FF461AF00210220984712
:10BEC0005CE7002584F8255001F0B6F9FFF72EFE57
:10BED0002368002B3FF452AF29460420EFE7002AE5
:10BEE0003FF44CAF00F060FD2368002B3FF446AFF9
:10BEF00000210520E3E72368002B3FF43FAF002A31
:10BF00003FF43CAF00210620D9E708F110054FF0BF
:10BF1000FF334FF0FF32284607F003FEFFF726FEFF
:10BF2000284607F000FE58F8283C002B3FF426AFC7
:10BF300000210120C3E700BFC01F0020840E0020A5
:10BF4000A56A0300CC58030000700240C41F002003
:10BF5000F81F00200000AD0BCB6A0300E01F00209B
:10BF600094F8743263B1012584F8895284F88852B8
:10BF7000FFF73EFE60B9184A1848294607F0CFFD82
:10BF800058F8283C002B3FF4F9AE00210A2096E730
:10BF9000134A057405738260FFF782FDFFF778FD91
:10BFA000EEE7104A0D48012107F0B9FD08F0E2FD67
:10BFB00001F042F900F024FCFFF70CFEFFF7D6FD7C
:10BFC00008F0D1FD084800F017FDD7E6074A0348FE
:10BFD000012106F0EDFED1E6F16A0300CC58030022
:10BFE0002C220020056B0300B9C002001C6B03006B
:10BFF000F7B5877806463846FFF71AFD3B06F47812
:10C0000005461DD554B1032C06D0284A2848009770
:10C010002346012106F0D6FE03B0F0BDFFF7E8FD90
:10C0200003460028F8D00122AC7702740322027381
:10C030009D60FFF735FD03B0BDE8F040FFF728BD78
:10C0400054B1012CE1D1FFF7D3FD03460028E3D022
:10C050006C7704740473EBE7FFF7CAFD0028DBD0AC
:10C06000B278144B12F0800F02F0080111D041B1E8
:10C07000D3F8A836EB6001230374022303738560B1
:10C08000D7E702F00F02142101FB0233D3F8083680
:10C09000F0E711B1D3F8A837ECE702F00F02142152
:10C0A00001FB0233D3F80837E4E700BF346B030029
:10C0B000CC58030000700240F0B514228BB0064645
:10C0C00000210DEB020009F032FA3378013B052B19
:10C0D00021D8DFE803F08B0314147B1603238DF8BB
:10C0E0001C300024FFF784FD0346A0B1047400F166
:10C0F0000802DDE9070182E80300184626E0042370
:10C10000EDE7B7783846FFF793FC837A054623B10D
:10C11000013B022B54D90BB0F0BD3B06F4781CD583
:10C120004CB1032CF7D0324A324800972346012104
:10C1300006F048FEEFE7FFF75BFD03460028EAD074
:10C140000122AC770274032202739D60FFF7A8FC02
:10C150000BB0BDE8F040FFF79BBC54B1012CE2D11D
:10C16000FFF746FD03460028D5D06C7704740473AE
:10C17000EBE7FFF73DFD04460028CCD00223012762
:10C18000037307748560B07805F10C0107F002FDB8
:10C19000034620B1184A1748394606F009FE174AE7
:10C1A000E968B2F88C328B4206D95B1AA2F88C325D
:10C1B00000F072FF2046C9E70023A2F88C32F9E7AD
:10C1C00030460BB0BDE8F040FFF712BF03A800F007
:10C1D00041FF9DF80D30052B04D19DF80C3013F074
:10C1E000600F98D0064B079301247BE7022479E780
:10C1F000346B0300CC580300606B0300C01F0020A9
:10C200002C21002038B5164D95F824402CBB05F1A3
:10C21000380008F04DFD204601F0FAF922460121D0
:10C22000E8612720FEF7D8FA08F09DFCFFF79EFC96
:10C23000044610B9012385F824300A4B1B680BB162
:10C24000FFF726FC4FF08043D3F83834DB0702D5E4
:10C250000020FFF70BFD204638BD0024FBE700BFA0
:10C26000C01F0020340F0020074B93F824203AB160
:10C2700093F82530002B14BF00206FF01200704798
:10C280006FF01200704700BFC01F002008B5037890
:10C29000027903F00F0142B991B10D4A01210D4815
:10C2A00007F03DFC4FF0FF3008BD082901D90A4ACC
:10C2B000F4E7012A04D11B0707D4084A0221EEE75C
:10C2C00013F00800F0D0064AF8E70020ECE700BFC2
:10C2D000806B0300CC5803009F6B0300BE6B030010
:10C2E000D46B030038B5134B93F824300446EBB1FC
:10C2F00005782846FFF79CFB88B145722379837245
:10C30000638843602078618810F0080F0AD14B1EC3
:10C310000B4207D0084A0948012107F000FC6FF0E2
:10C32000150038BD07F031FC0020FAE76FF012006D
:10C33000F7E700BFC01F0020F16B0300CC580300DB
:10C3400038B5154B93F8242005460AB393F82530E9
:10C35000F3B1FFF76DFB044610B96FF0150038BD5F
:10C36000817A01290FD007D90239012907D96369D8
:10C37000A3610020E060F2E700F09AFEF7E72846AC
:10C3800000F03CFEF3E7054A054807F0C8FBE4E788
:10C390006FF01200E3E700BFC01F0020196C03001C
:10C3A000CC58030038B50E4B93F82420054682B1D3
:10C3B00093F825306BB1FFF73BFB68B115F008042B
:10C3C0000AD1284600F03CFE284601F007F8204636
:10C3D00038BD6FF01200FBE76FF01500F8E700BF03
:10C3E000C01F002038B50C4B93F8242005460C469E
:10C3F00062B193F825304BB1FFF71AFB48B144B155
:10C40000284600F003FE2070002038BD6FF01200B7
:10C41000FBE76FF01500F8E7C01F002070B5134E62
:10C4200096F824300446C3B1FFF702FB0546B8B1C5
:10C43000230705D4204600F003FE204600F0CEFF7F
:10C440002B7A83B901232B7296F825300BB9002083
:10C4500070BD204600F08AFFF9E76FF01200F7E7A1
:10C460006FF01500F4E76FF07700F1E7C01F0020D0
:10C470002DE9F043DFF8F4801E4698F8243085B0AB
:10C48000074689461546002B6DD098F82530002BBD
:10C4900069D003060BD5FFF7CBFA044638B1037A0F
:10C4A0005BB9334A33483B46012106F081FC6FF00B
:10C4B0001504204605B0BDE8F0834FF0FF334FF080
:10C4C000FF3208F1380007F02CFBA37F33B108F1ED
:10C4D000380007F028FB6FF00A04EAE7A37A05B3F7
:10C4E0007BB30123A3774FF0000801A93846CDE9BB
:10C4F0000195CDF80C8000F0D5FA1F4A9042034612
:10C500002DD084F81E800EB1C6F800801B4A194851
:10C51000012106F04DFC6FF00404194807F003FBFD
:10C52000C7E7E27F02B1E577002BDAD100F0C6FD64
:10C530008742D6D000F0B6FD114807F0F4FA002487
:10C54000B7E7B8F80A309D42F0D26268B5FBF2F363
:10C5500002FB1353002BE9D10123E377E6E706B191
:10C5600035600024D9E76FF01204A2E7C01F002055
:10C570003B6C0300CC5803000000AD0B5A6C030069
:10C58000F81F00202DE9F0411D46254B174693F872
:10C59000242080460E46002A3FD093F82530002BF9
:10C5A0003BD010F0800F0ED101B967B94046FFF7BC
:10C5B0003FFA044638B1037A43B91A4A1A48434647
:10C5C000012106F0F5FB6FF0150013E04FF0FF338B
:10C5D00016484FF0FF3207F0A4FAE3689F42B846CE
:10C5E00028BF984646B93FB905B12B600F4807F000
:10C5F0009AFA0020BDE8F081A1694246304608F071
:10C6000088FFA3694344A361E368A3EB0803E360E5
:10C61000002DEBD0C5F80080E8E76FF01200E9E7E5
:10C62000C01F00203B6C0300CC580300F81F002003
:10C6300070B5224D95F824300646002B3AD095F877
:10C640002530002B36D003060BD4FFF7F1F9044652
:10C6500038B1037A43B91A4A1A483346012106F021
:10C66000A7FB6FF0150070BD4FF0FF334FF0FF32A6
:10C6700005F1380007F055FAE368B3B9012663699C
:10C680002677A361637F83B1FFF7B2FA30B905F172
:10C69000380007F048FA6FF00B00E4E70674846096
:10C6A0000673FFF7FDF9FFF7F3F9074807F03BFAC8
:10C6B0000020D8E76FF01200D5E700BFC01F0020B0
:10C6C0003B6C0300CC580300F81F002010B5084B4A
:10C6D00093F824300C462BB1FFF7AAF928B1046077
:10C6E000002010BD6FF01200FBE76FF01500F8E7B7
:10C6F000C01F0020014B1860704700BFC01F002002
:10C7000008B5074B93F8243023B1FFF791F920B116
:10C71000406808BD6FF01200FBE76FF01500F8E706
:10C72000C01F00204FF08053D3F83021082A06D1D3
:10C73000D3F83431052B04D8034AD05C704700206D
:10C7400070470120704700BF806C0300064B10F05B
:10C75000800FA3F1D80208BF134600F00F00182283
:10C7600002FB0030704700BF68290020EFF3118002
:10C77000202383F31288BFF36F8F0A4BD3F8001C7A
:10C78000032261B949F27531C3F8001CC3F8142DB6
:10C79000C3F8001C80F31188BFF36F8F7047C3F894
:10C7A000142DF7E700E00640EFF31180202383F318
:10C7B0001288BFF36F8F0A4BD3F8001C61B949F29E
:10C7C0007532C3F8002CC3F8141DC3F8002C80F395
:10C7D0001188BFF36F8F70470022C3F8142DF6E75E
:10C7E00000E006404FF08053D3F83031082B02BFF1
:10C7F000024B0022C3F81C2C704700BF007002409F
:10C80000024A00231360024A13707047482A00202E
:10C810004A2D002008B54A4B4FF40062C3F80024AB
:10C82000FFF780FF08B1FFF7A1FF4FF08053D3F867
:10C830003031082B18D1EFF31180202383F31288B5
:10C84000BFF36F8F3F4BD3F8001CC02200296ED17D
:10C8500049F27531C3F8001CC3F8142CC3F8001C4E
:10C8600080F31188BFF36F8F354B0122C3F8002589
:10C87000D3F800241205FBD54FF40062C3F800245E
:10C880004FF08053D3F83031082B17D1EFF31180DC
:10C89000202383F31288BFF36F8F2A4BD3F8001C39
:10C8A000002947D149F27532C3F8002CC3F8141C93
:10C8B000C3F8002C80F31188BFF36F8FFFF732FFAE
:10C8C00030B1FFF771FFFFF72DFF08B1FFF74EFF03
:10C8D0004FF08053D3F83031082B194B0AD140F276
:10C8E000E372C3F800284022C3F80428BFF36F8F17
:10C8F000BFF34F8F8022C3F81C250122C3F83025D7
:10C90000114B40F2FF121A60104B00211960104BBE
:10C910001970FFF767FF0F4B19700F4B02221A7047
:10C92000FFF700FF50B1BDE80840FFF73DBFC3F877
:10C93000142C95E70022C3F8142CBBE708BD00BFF8
:10C940000070024000E00640442A0020402A0020F7
:10C95000462D0020482D00204A2D0020094B0022A2
:10C9600010B51A70084A094B094C002808BF134635
:10C97000C4F800332720FDF7FFFE0123C4F8043577
:10C9800010BD00BF492D0020FDFFDF01FDFFFF01AD
:10C9900000700240034B1878012894BF002001204A
:10C9A000704700BF4A2D002010B5EFF311812023FE
:10C9B00083F31288BFF36F8F0D4B1B7803F0FF00DA
:10C9C00083B10C4BD3F8002412F400720AD1012475
:10C9D000C3F82C45D3F82C45D3F80044A40502D560
:10C9E000C3F82C25002081F31188BFF36F8F10BD91
:10C9F000492D002000700240F8B51C4B1C7894BBF8
:10CA00001B4A106001221A7040F2FF17264664F09C
:10CA10007F0514F0080FEDB214BF394640212846B7
:10CA200007F0B3F82846FFF791FE0134092C86750C
:10CA300006730661EBD1002440F2FF17254614F07F
:10CA4000080FE6B214BF39464021304607F09DF882
:10CA50003046FFF77BFE0134092C857505730561AF
:10CA6000EDD10448F8BD0448FCE700BF4A2D002082
:10CA7000482A00200000AD0B0500AD0B084B10F05C
:10CA8000800F00F00F0114BFD3F81025D3F8142540
:10CA900001238B40134214BF01200020704700BFC8
:10CAA000007002402DE9F8430246EFF3118720237E
:10CAB00083F31288BFF36F8F030703D1184B1B78E2
:10CAC000834229D1174B184E1C683568104607F071
:10CAD00054F8E443A4B24FF001092C4309FA00F8DA
