:020000022000DC
:1070000040E100206DB404009974060059B40400F6
:1070100059B4040059B4040059B40400000000003D
:1070200000000000000000000000000021B6040085
:1070300059B4040000000000EDB5040059B4040088
:10704000D9B7040013BF0600D9B70400D9B70400AC
:10705000D9B70400D9B70400D9B70400D9B70400E0
:10706000C9BE0600D9B70400D9B70400FDBE0600AA
:10707000D9B70400D9B70400D9B70400D9B70400C0
:10708000D9B70400D9B70400D9B70400D9B70400B0
:10709000D9B70400D9B70400D9B70400D9B70400A0
:1070A000D9B70400D9B70400D9B70400D9B7040090
:1070B000D9B70400D9B70400D9B70400D9B7040080
:1070C000D9B70400D9B70400D9B70400D9B7040070
:1070D000D9B70400D9B70400D9B70400D9B7040060
:1070E000D9B70400D9B70400D9B70400D9B7040050
:1070F000D9B70400D9B70400D9B70400D9B7040040
:1071000081F0004102E000BF83F0004330B54FEA58
:1071100041044FEA430594EA050F08BF90EA020FC5
:107120001FBF54EA000C55EA020C7FEA645C7FEA58
:10713000655C00F0E2804FEA5454D4EB5555B8BF7B
:107140006D420CDD2C4480EA020281EA030382EAEC
:10715000000083EA010180EA020281EA0303362D7E
:1071600088BF30BD11F0004F4FEA01314FF4801C51
:107170004CEA113102D0404261EB410113F0004F63
:107180004FEA03334CEA133302D0524263EB43031A
:1071900094EA050F00F0A780A4F10104D5F1200EB8
:1071A0000DDB02FA0EFC22FA05F2801841F1000113
:1071B00003FA0EF2801843FA05F359410EE0A5F1E7
:1071C00020050EF1200E012A03FA0EFC28BF4CF018
:1071D000020C43FA05F3C01851EBE37101F00045CE
:1071E00007D54FF0000EDCF1000C7EEB00006EEBDB
:1071F0000101B1F5801F1BD3B1F5001F0CD3490865
:107200005FEA30004FEA3C0C04F101044FEA4452BB
:1072100012F5800F80F09A80BCF1004F08BF5FEA42
:10722000500C50F1000041EB045141EA050130BD22
:107230005FEA4C0C404141EB0101013C28BFB1F534
:10724000801FE9D291F0000F04BF01460020B1FA7F
:1072500081F308BF2033A3F10B03B3F120020CDA52
:107260000C3208DD02F1140CC2F10C0201FA0CF030
:1072700021FA02F10CE002F11402D8BFC2F1200C95
:1072800001FA02F120FA0CFCDCBF41EA0C0190404B
:10729000E41AA2BF01EB0451294330BD6FEA040494
:1072A0001F3C1CDA0C340EDC04F11404C4F120027F
:1072B00020FA04F001FA02F340EA030021FA04F391
:1072C00045EA030130BDC4F10C04C4F1200220FAE8
:1072D00002F001FA04F340EA0300294630BD21FA26
:1072E00004F0294630BD94F0000F83F4801306BFEC
:1072F00081F480110134013D4EE77FEA645C18BFE0
:107300007FEA655C29D094EA050F08BF90EA020F76
:1073100005D054EA000C04BF1946104630BD91EA6E
:10732000030F1EBF0021002030BD5FEA545C05D171
:107330004000494128BF41F0004130BD14F58004B0
:107340003CBF01F5801130BD01F0004545F0FE4124
:1073500041F470014FF0000030BD7FEA645C1ABF59
:10736000194610467FEA655C1CBF0B46024650EA90
:10737000013406BF52EA033591EA030F41F40021BC
:1073800030BD00BF90F0000F04BF0021704730B542
:107390004FF4806404F132044FF000054FF0000117
:1073A00050E700BF90F0000F04BF0021704730B5D8
:1073B0004FF4806404F1320410F0004548BF4042AD
:1073C0004FF000013EE700BF42004FEAE2014FEA02
:1073D00031014FEA02701FBF12F07F4393F07F4FDD
:1073E00081F06051704732F07F4208BF704793F0E0
:1073F0007F4F04BF41F40021704730B54FF46074F3
:1074000001F0004521F000411CE700BF50EA0102F5
:1074100008BF704730B54FF000050AE050EA01029E
:1074200008BF704730B511F0004502D5404261EB0E
:1074300041014FF4806404F132045FEA915C3FF44F
:10744000D8AE4FF003025FEADC0C18BF03325FEAEC
:10745000DC0C18BF033202EBDC02C2F1200300FA9D
:1074600003FC20FA02F001FA03FE40EA0E0021FAC2
:1074700002F11444BDE600BF70B54FF0FF0C4CF4B0
:10748000E06C1CEA11541DBF1CEA135594EA0C0F62
:1074900095EA0C0F00F0DEF82C4481EA030621EA9D
:1074A0004C5123EA4C5350EA013518BF52EA0335D8
:1074B00041F4801143F4801338D0A0FB02CE4FF08A
:1074C0000005E1FB02E506F00042E0FB03E54FF0BA
:1074D0000006E1FB03569CF0000F18BF4EF0010EB2
:1074E000A4F1FF04B6F5007F64F5407404D25FEAAE
:1074F0004E0E6D4146EB060642EAC62141EA555161
:107500004FEAC52040EA5E504FEACE2EB4F1FD0CA2
:1075100088BFBCF5E06F1ED8BEF1004F08BF5FEA20
:10752000500E50F1000041EB045170BD06F00046D2
:1075300046EA010140EA020081EA0301B4EB5C047F
:10754000C2BFD4EB0C0541EA045170BD41F4801177
:107550004FF0000E013C00F3AB8014F1360FDEBF9C
:10756000002001F0004170BDC4F10004203C35DA78
:107570000C341BDC04F11404C4F1200500FA05F3FB
:1075800020FA04F001FA05F240EA020001F000429C
:1075900021F0004110EBD37021FA04F642EB060112
:1075A0005EEA430E08BF20EAD37070BDC4F10C043C
:1075B000C4F1200500FA04F320FA05F001FA04F200
:1075C00040EA020001F0004110EBD37041F10001EC
:1075D0005EEA430E08BF20EAD37070BDC4F12005F7
:1075E00000FA05F24EEA020E20FA04F301FA05F25F
:1075F00043EA020321FA04F001F0004121FA04F207
:1076000020EA020000EBD3705EEA430E08BF20EAD6
:10761000D37070BD94F0000F0FD101F00046400010
:1076200041EB010111F4801F08BF013CF7D041EA92
:10763000060195F0000F18BF704703F00046520096
:1076400043EB030313F4801F08BF013DF7D043EA67
:107650000603704794EA0C0F0CEA135518BF95EA1D
:107660000C0F0CD050EA410618BF52EA4306D1D1A4
:1076700081EA030101F000414FF0000070BD50EAC3
:10768000410606BF1046194652EA430619D094EA4D
:107690000C0F02D150EA013613D195EA0C0F05D137
:1076A00052EA03361CBF104619460AD181EA03018B
:1076B00001F0004141F0FE4141F470014FF0000043
:1076C00070BD41F0FE4141F4780170BD70B54FF0DE
:1076D000FF0C4CF4E06C1CEA11541DBF1CEA13555E
:1076E00094EA0C0F95EA0C0F00F0A7F8A4EB050440
:1076F00081EA030E52EA03354FEA013100F0888037
:107700004FEA03334FF0805545EA131343EA1263FF
:107710004FEA022245EA111545EA10654FEA0026B4
:107720000EF000419D4208BF964244F1FD0404F56D
:10773000407402D25B084FEA3202B61A65EB0305C9
:107740005B084FEA32024FF480104FF4002CB6EB86
:10775000020E75EB030E22BFB61A754640EA0C0006
:107760005B084FEA3202B6EB020E75EB030E22BF46
:10777000B61A754640EA5C005B084FEA3202B6EB87
:10778000020E75EB030E22BFB61A754640EA9C0046
:107790005B084FEA3202B6EB020E75EB030E22BF16
:1077A000B61A754640EADC0055EA060E18D04FEAD4
:1077B000051545EA16754FEA06164FEAC30343EA74
:1077C00052734FEAC2025FEA1C1CC0D111F4801F41
:1077D0000BD141EA00014FF000004FF0004CB6E73A
:1077E00011F4801F04BF01430020B4F1FD0C88BFD9
:1077F000BCF5E06F3FF6AFAEB5EB030C04BFB6EBE4
:10780000020C5FEA500C50F1000041EB045170BDD6
:107810000EF0004E4EEA113114EB5C04C2BFD4EB03
:107820000C0541EA045170BD41F480114FF0000E87
:10783000013C90E645EA060E8DE60CEA135594EA03
:107840000C0F08BF95EA0C0F3FF43BAF94EA0C0F06
:107850000AD150EA01347FF434AF95EA0C0F7FF47B
:1078600025AF104619462CE795EA0C0F06D152EACF
:1078700003353FF4FDAE1046194622E750EA4106B3
:1078800018BF52EA43067FF4C5AE50EA41047FF4C4
:107890000DAF52EA43057FF4EBAE12E74FEA410227
:1078A000B2F1E04324BFB3F5001CDCF1FE5C0DD95E
:1078B00001F0004C4FEAC0024CEA5070B2F1004FA8
:1078C00040EB830008BF20F00100704711F0804FAB
:1078D00021D113F13872BCBF01F00040704741F470
:1078E00080114FEA5252C2F11802C2F1200C10FA74
:1078F0000CF320FA02F018BF40F001004FEAC12358
:107900004FEAD32303FA0CFC40EA0C0023FA02F3FB
:107910004FEA4303CCE77FEA625307D150EA0133D1
:107920001EBF4FF0FE4040F44000704701F00040A1
:1079300040F0FE4040F40000704700BF7BB972B9D0
:107940000029BEBF00204FF0004106E008BF00281C
:107950001CBF6FF000414FF0FF3000F057B8ADF1A1
:10796000080C6DE904CE002909DB002B1ADB17F0A7
:107970007DFDDDF804E0DDE9022304B070474042FC
:1079800061EB4101002B1BDB17F070FDDDF804E01B
:10799000DDE9022304B0404261EB4101524263EB56
:1079A00043037047524263EB430317F05FFDDDF87A
:1079B00004E0DDE9022304B0404261EB410170477D
:1079C000524263EB430317F051FDDDF804E0DDE9BB
:1079D000022304B0524263EB4303704753B94AB9E0
:1079E000002908BF00281CBF4FF0FF314FF0FF30C7
:1079F00000F00CB8ADF1080C6DE904CE17F036FDBF
:107A0000DDF804E0DDE9022304B07047704700BFF1
:107A10002DE9F00791E8F807B2E802105B1854EB83
:107A20000C04B2E802104D4156EB0C06B2E802100D
:107A30004F4158EB0C08B2E8021059EB01095AEB20
:107A40000C0A80E8F80780410130BDE8F007704774
:107A50002DE9F00791E8F807B2E802105B1A74EB21
:107A60000C04B2E802108D4176EB0C06B2E802106D
:107A70008F4178EB0C08B2E8021079EB01097AEB40
:107A80000C0A80E8F80780414042BDE8F0077047E3
:107A90002DE9F007524290E87800B1E880071740DE
:107AA000DB1918EA020854EB080419EA020955EB3D
:107AB00009051AEA020A56EB0A0678C090E878002F
:107AC000B1E8800717407B4118EA020854EB08042C
:107AD00019EA020955EB09051AEA020A56EB0A06E9
:107AE00078C080410130BDE8F00770472DE9F0070C
:107AF000524290E87800B1E880071740DB1B18EA93
:107B0000020874EB080419EA020975EB09051AEA80
:107B1000020A76EB0A0678C090E87800B1E88007A0
:107B20001740BB4118EA020874EB080419EA02097D
:107B300075EB09051AEA020A76EB0A0678C080415D
:107B40004042BDE8F00770472DE9F00152424FF086
:107B5000040890E8300091E8C000A31B1340E41A29
:107B6000F618EB1B1340ED1AFF1830C0C0C1B8F176
:107B70000108EED1BDE8F001704700BF00B592E802
:107B8000DC072DE9DC07B1E8805702B4A7FB0251FE
:107B90000A95A8FB020BE7FB6310E9FB62B00B91AF
:107BA000A8FB0351EAFB6201E7FB64B5E7FB66054E
:107BB000E8FB6615CDF830B0A9FB03B6EAFB631607
:107BC000ECFB6356E8FB640BE9FB641BEAFB645BBC
:107BD000ECFB646B0D90ACFB0230059CEEFB62503D
:107BE000E9FB6460EAFB64B0E7FB6431E8FB6451E5
:107BF000069CE8FB6461E9FB64B1EAFB64010E9357
:107C0000A7FB0432079CE7FB6462E8FB64B2E9FB74
:107C10006402EAFB6412049CE9FB6453EAFB6463BC
:107C2000089CE7FB64B3E8FB6403E9FB6413EAFB2D
:107C300064230F955DF8049B99E80006DDF8008049
:107C4000A9FB0854EAFB68B4DDF81080ECFB68047B
:107C5000EEFB6814E9FB6824EAFB6834DDF8048075
:107C6000EEFB6865E9FB68B5EAFB6805DDF81480A2
:107C7000ECFB6815EEFB6825E9FB6835EAFB684517
:107C80000F96DDF80880AEFB0876E9FB6806EAFB94
:107C90006816DDF81880ECFB6826EEFB6836E9FB19
:107CA0006846EAFB6856DDF80C80ECFB68B7EEFB33
:107CB0006807E9FB6817EAFB6827DDF81C80ECFB26
:107CC0006837EEFB6847E9FB6857EAFB686708B06E
:107CD00000BD00BF2DE9F14F87B0FFF74FFFDDF882
:107CE0001C8008F1200888E8FF00FFBC87E87F08B7
:107CF000BDE8F08F00B591E89857A3FB03520195BA
:107D0000A3FB0401E3FB6420E3FB67100292A3FBE7
:107D10000752E3FB6802E4FB6415E3FB6805E3FB41
:107D200069250391A4FB07B6E3FB6926E3FB6A56CA
:107D3000E4FB670BE4FB682BE3FB6A5BE3FB6C6B28
:107D40000490A4FB0810E4FB6950E3FB6C60E3FBC8
:107D50006EB0E7FB6721E4FB6951E4FB6A61E3FB7A
:107D60006EB1E4FB6E010592A7FB0832E4FB6A6288
:107D7000E4FB6CB2E4FB6E02E7FB6E12E7FB6853B8
:107D8000E7FB6963E4FB6CB3E7FB6C03E7FB6E1393
:107D9000E8FB6E230695A7FB0954E7FB6AB4E7FBF3
:107DA0006C04E8FB6C14E8FB6E24E9FB6E34E8FB22
:107DB0006865E7FB6AB5E8FB6A05E8FB6C15E9FB5B
:107DC0006C25E9FB6E35EAFB6E450796A8FB097644
:107DD000E8FB6A06E9FB6A16E9FB6C26EAFB6C36EF
:107DE000EAFB6E46ECFB6E56E8FB69B7E9FB6907F8
:107DF000E9FB6A17EAFB6A27EAFB6C37ECFB6C4786
:107E0000ECFB6E57EEFB6E6700BD00BF2DE9F14F36
:107E100087B0FFF76FFFDDF81C8008F1200888E8C5
:107E2000FF00FFBC87E87F08BDE8F08F30B44FF05B
:107E3000000310F8014B11F8015B013A84EA0504D4
:107E400043EA0403F5D1A3F101034FEAD37030BC38
:107E5000704700BF4FF0000310F8012B013943EACF
:107E60000203F9D1A3F101034FEAD370704700BFB9
:107E700030B411F8014B12F8015B6C4000F8014B73
:107E8000013BF6D130BC70472DE9F00791E8F807C7
:107E9000B2E802105B1854EB0C04B2E802104D413A
:107EA00056EB0C06B2E802104F4158EB0C08B2E852
:107EB000021059EB01095AEB0C0A8941B3F1FF3367
:107EC00074F1FF3475F1FF3576F1000677F10007A4
:107ED00078F1000879F101097AF1FF3A51F10001D6
:107EE0005B184C414D4156F1000657F1000758F11F
:107EF000000859EBD1795AEB010A80E8F807BDE890
:107F0000F00770472DE9F00791E8F807B2E8021092
:107F10005B1A74EB0C04B2E802108D4176EB0C0690
:107F2000B2E802108F4178EB0C08B2E8021079EB4E
:107F300001097AEB0C0A89415B184C414D4156F11D
:107F4000000657F1000758F1000859EBD1795AEBB8
:107F5000010A80E8F807BDE8F007704718EB04084D
:107F600059EB05095AEB060A5BEB070B5FF0000CB7
:107F70004CF1000C18EB050859EB06095AEB070AFF
:107F80005BEB070B50EB0C005FF0000C51EB0C01AE
:107F900052EB0C0263414CF1000CB8EB070879F18D
:107FA00000097AF1000A7BEB040BA841B141A24120
:107FB000B3416CF1000CBBEB050BB041B941AA41D8
:107FC000BB416CF1000C4CF001068CF0020718EB81
:107FD000060859EB6C095AEB6C0A7BEB6C0B70EBE7
:107FE0006C0471EB6C0572EB670653EB6C076CEB82
:107FF0006C0C18EB0C0059EB0C015AEB0C025BF10A
:10800000000354F1000455F1000556EBDC7657EB04
:108010000C0770472DE9F14F87B0FFF7AFFDDDF892
:108020001080DDF81490DDF818A0FFF797FFBDE889
:10803000000FFFF793FF03B05DF8048B88E8FF00A3
:10804000BDE8F08F2DE9F14F87B0FFF753FEDDF863
:108050001080DDF81490DDF818A0FFF77FFFBDE871
:10806000000FFFF77BFF03B05DF8048B88E8FF008B
:10807000BDE8F08F1FB50B4B01934FF4B073ADF813
:10808000083008238DF80A3083788DF80B3001A969
:10809000FF2303208DF80C3000F070FD05B05DF873
:1080A00004FB00BF934304001FB50B4B01934FF437
:1080B0008063ADF8083008238DF80A3043788DF8D6
:1080C0000B3001A9002302208DF80C3000F056FD82
:1080D00005B05DF804FB00BFBF4704001FB50023D7
:1080E000019303930B4B02930B4B1B7883B10378E3
:1080F000002B0CBF012302238DF80B3001A9FF23B5
:1081000001208DF80C3000F039FD05B05DF804FB5E
:108110000123F1E738010800481F00201FB50A4B72
:1081200001934FF46273ADF8083008238DF80A30DC
:1081300001A903788DF80B3000208DF80C0000F0B9
:108140001DFD05B05DF804FBE7480400F7B50446E3
:108150000D4641B9124B5B78012B04D0019101A867
:108160000121FFF7F3FF23680E4E0F4F0733002D59
:1081700023F0070323600CBF2046002000F0D6FC4C
:10818000002556F8043B0BB13846984701350F2DB2
:10819000F7D100F043FD23680344236003B0F0BD32
:1081A000481F0020540000204A1F00202DE9F04302
:1081B00085B0974C0390064603A80D46FFF7C6FF0F
:1081C000A778E3784FF000091F44FFB2C8465FFA72
:1081D00089F39F4200F209810398033020F00300E5
:1081E000002D0390414618BF002000F059FE039B6C
:1081F00021791844039081B16379627C033020F0C7
:108200000300002D1A440390A389D2B218BF0020A6
:1082100000F0BAFE039B034403937E4F7B68CBB10F
:10822000E17AB9B194F828300398002B00F10700E7
:1082300014BF4023252320F0070014BF4FF48172A0
:108240002822002D039018BF002006F069FB039B35
:1082500003440393A17B91B123791BB97B6873B16C
:10826000E37A63B10398073020F00700002D0390F4
:1082700018BF00200CF0BEFF039B03440393664B22
:108280001B6873B1A17961B10398E27B033020F0E0
:108290000300002D039018BF00209847039B034460
:1082A00003935E4B1B686BB1217C59B1039803307B
:1082B00020F00300002D039018BF00209847039B77
:1082C00003440393564BD3F80080B8F1000F11D04C
:1082D000617C79B10398237D0093033020F0030083
:1082E000002DE37C0390A27C18BF0020C047039BB5
:1082F00003440393FB697BB1A17969B10398A27D23
:10830000033020F00300002D039018BF002000F080
:1083100029FF039B0344039394F8210080B1039A3F
:10832000E37E217E0332194422F0070242F0040268
:108330002B46C9B2039200F055FF039B03440393FD
:1083400094F8221000295AD0039FA28C0737002DE1
:1083500027F007070CBF38460020039718F011F9E3
:10836000039B034403931DB9A18C384612F07AFE97
:10837000217F002945D094F82030002B41D003986C
:10838000E28B073020F00700002D02F12402039059
:1083900092B218BF002018F0F4F8039FA37E217E4C
:1083A0003A180332194422F0070242F004022B4625
:1083B00094F820000392C9B200F006FF039B034427
:1083C000039335B9E28B217F083292B2384612F01E
:1083D00063FEE36A23B1039B05B9E3622833039389
:1083E0000398801B05B0BDE8F083A37A627A217AF6
:1083F000E07918F098F809F101098044E7E60F46A2
:10840000B1E7002DE5D12A4629462846DFE700BF1F
:10841000481F0020540000209000002098000020F9
:10842000940000208FB572B6194B1D6BE5B9BFF3F0
:108430004F8F1849184BCA6802F4E0621343CB60AF
:10844000BFF34F8F00BFFDE7B4FBF6F4DAB20133A0
:10845000002CF9D102F110036B440A2603F80C4CEE
:1084600032B901A8A847E2E7044600230A26EDE74F
:10847000531E04AC54FA83F4DAB2C3B2B3FBF6F77A
:1084800006FB1733303304F80C3CB0FBF6F0E7E79B
:10849000481F002000ED00E00400FA051FB5164C4F
:1084A000A37A8DF80930637A8DF80830237AADF815
:1084B0000C3002A8E379ADF80A300AF039FC18B1A3
:1084C000DB210320FFF7AEFF012301A88DF8043064
:1084D00019F0DAFB08B1DF21F3E7207D0AF08CFC0C
:1084E00008B1E221EDE7E07C0AF080FC08B1E3216D
:1084F000E7E704B010BD00BF481F002038B50546AF
:10850000002840D016F0D4FA10B94FF0FF3038BD33
:1085100013F0D2F8B0F5FA7FF7D81D4C1D4825634B
:10852000002500F0A5FA29463C221B48657016F08C
:108530006DFE26222946A01C257084F82850E5628D
:1085400016F064FE1B22E27140F21B32228140F2DF
:10855000023240F2011362811F226380A281012353
:108560004FF402722371E281A37544F60112FB23DA
:108570006282A384EFF3108472B600F043FE2CB93C
:1085800062B62046C3E76FF01500C0E72846BEE795
:10859000481F00209D8402005400002010B50028D0
:1085A00040F0A380544C6378022B00F09B80A1B173
:1085B000002A6CD00139142900F29780DFE801F01D
:1085C0000B181B2B535B74315E616F373D4A4F793B
:1085D0007C898C8F81001378A37001210020FFF724
:1085E000E5FDB0F5803F80F283800123637010BD0C
:1085F0001378E370F1E79378002B48D0D378002B01
:1086000045D013781A2B42D953781A2B3FD91368C7
:10861000C4F80730E1E713786279934237D32371C6
:10862000DBE713782279934231D86371D5E7137869
:10863000227993422BD86374CFE713783BB35378F6
:10864000013BDBB2F82B22D8138863822B4B927844
:108650009A70C2E71078607510F04AFCBDE7137895
:10866000ABB1A375B9E71378254A52680AB1012B5B
:108670000DD9E372B1E71388A381AEE71378A37134
:10868000ABE71F491378C96921B9012B04D86FF0F2
:108690001500ACE7002BFAD01378E3739DE713784D
:1086A000082BF4D8237498E71388FF2BEFD8A37313
:1086B00093E71378E37590E713780E2BE7D82376CA
:1086C0008BE713680F49E36153684B6013890B8193
:1086D00083E71378637680E71378E3767DE7137892
:1086E000A3767AE74FF0FF3081E76FF02C007EE74A
:1086F0006FF00B007BE700BF481F00205A1F0020CF
:1087000054000020641F002070B50D460646E8B1F5
:10871000E1B111F0070419D100F0DEF8C8B130461C
:1087200016F03AFB0C4E214686F834002846FFF737
:108730003DFD1CF08EF996F83400F16A0AF02CFC2D
:10874000FFF7ACFE02237370204670BD6FF015007A
:10875000FBE74FF0FF30F8E7481F002010B5074C4B
:108760006378022B05D10AF033FC94F8340016F03C
:108770002FFB18F04FF80020607010BD481F00203C
:1087800050B1074B03F1140253F8041B40F8041BCB
:108790009342F9D1002070476FF01500704700BF79
:1087A000B842070010B5064B5C7834B90AF086FB76
:1087B000044B054ADA60204610BD4FF0FF30FBE75E
:1087C000481F0020540000207580020010B5064BA1
:1087D0005C7834B90AF086FB044B054A9A6020465F
:1087E00010BD4FF0FF30FBE7481F00205400002071
:1087F000A980020008B50A4B5A7872B993F828305C
:1088000043B10AF0ADFB074B074A5A60074A1A60AA
:10881000002008BD0AF088FBF5E74FF0FF30F8E7CD
:10882000481F002054000020DD8002001D8102004E
:1088300010B5054B5C781CB90AF0F2FA204610BD61
:108840004FF0FF30FBE700BF481F002010B5054B7D
:108850005C781CB90AF0D6FA204610BD4FF0FF3004
:10886000FBE700BF481F002010B5054B5C781CB922
:1088700019F053FA204610BD4FF0FF30FBE700BF60
:10888000481F002010B5054B5C781CB919F048FA58
:10889000204610BD4FF0FF30FBE700BF481F00200F
:1088A00010B5054B5C781CB919F03CFA204610BD98
:1088B0004FF0FF30FBE700BF481F0020024B02686B
:1088C0001A600020704700BF801F0020014B1B680A
:1088D000184700BF801F0020024B1868003818BFDF
:1088E00001207047801F002073B52E4D031D0446E4
:1088F0002B6028460BF042FC0228064606D1294987
:10890000204616F030FF304602B070BD042842D138
:108910002B78092B0AD0252B1ED02946204616F08D
:1089200087FFB0F5817F2DD3722112E005213E2013
:1089300016F0ECFE0028F0D1EB782A7901A943EA81
:1089400002236846ADF8003017F085FB0028D0D030
:1089500053210820FFF766FD1A213E2016F0D6FEAF
:108960000028DAD16B68C3F30F23ADF804306946F1
:10897000112301A88DF8063017F08FFB0028B8D01E
:108980006521E6E70028B4D0A178207816F0BEFE75
:108990000028B8D1ADE70828B5D10249204616F025
:1089A00011FFB0E7841F0020074B4FF0FF3141F665
:1089B000FF72C3E9001205490022C1E900221F210C
:1089C000C3E90212704700BF000000208820002089
:1089D0003F280CD801380B4BC0F3421200F01F00A7
:1089E00053F8223023FA00F000F001007047FF280E
:1089F00006D04038C0F34212034B00F01F00EFE7EF
:108A00000120704700000020882000200146074B0D
:108A1000006849681A4603C240F48C221A6041F08B
:108A2000107242F4FF625A60704700BF00000020DD
:108A30000246024B0068516803C37047882000203B
:108A40000246024B0068516803C3704708000020CB
:108A50000138064BC0F3421203EB820300F01F0003
:108A60009B6823FA00F000F001007047000000202E
:108A7000014B1860704700BF9020002010B5FFF731
:108A800093FF18F03BFB034B1B68044603B1984768
:108A9000204610BD902000200B880288F0B5C3F35B
:108AA0000E049EB204F11803C57CC35A05352A444E
:108AB0002B4497B213FA82F3013B4288B3FBF7F3DE
:108AC00013FB07439BB29A42044A93BF22EA060370
:108AD000324013439BB20B80F0BD00BF0080FFFF0C
:108AE00010B5114B00EB41041A786389B3FBF2F324
:108AF00003FB0223013A1A44B2F5706F027928BFD2
:108B000000231A448378B2FBF3F0194403FB1020CE
:108B1000091AB1FBF3F003FB101313446FEA43434C
:108B20006FEA5343638110BD9420002010B5124BAF
:108B3000E0B15A78022A04D040F22B111720FFF737
:108B400071FC03225A70026812F0070102D04FF440
:108B50009871F3E75C685A60224402609A60BDE84D
:108B600010403C2203F10C0016F050BB01225A7059
:108B7000C3E9010010BD00BF942000202DE9F041A1
:108B8000254E96F801E00EF0FD0CBCF1010F04D06B
:108B900040F245111720FFF745FC91F80680B8F127
:108BA000080F02D940F24711F4E7CF7997B3454651
:108BB000022D726838BF02257B1D5C0002EB430367
:108BC0006A1E13446D422B408D884544013DC8F117
:108BD00000022A404FF6FE75AA4202D94FF4A9714D
:108BE000D8E7BEF1030F12D106EB80001C1BC5684D
:108BF00015B140F25711CDE7C460A770228084F808
:108C000003C0087A09682071080CE080218107FB05
:108C100002337360BDE8F081942000202DE9F04715
:108C2000364C6378012B65D0032B04D040F26711DA
:108C30001720FFF7F7FBD4E901329A4202D04FF434
:108C4000B571F5E72546002305F80C3B1E460E22BC
:108C5000994655F82200013A58B190F8048081787D
:108C6000B8F1FF0F2FD180F804908E423CBFCEB2F6
:108C70000123511CEDD103B126700E2640F6FF6989
:108C800055F826709FBB013EFAD204236370002082
:108C9000BDE8F08755F82CE0BEF1000F06D09EF835
:108CA00004A0C24504BF9EF802E077440CF1FF3CEB
:108CB000BCF1000FEEDA3944FF2907D903B1267061
:108CC0004FF48371B4E794460027F1E70771CCE7CE
:108CD00007EB41033846A3F80A90FFF701FF08F1BC
:108CE0000108BB785FFA88F18B42F1D8CBE74FF0EF
:108CF0000008F6E7022360686370C9E7942000204B
:108D0000F8B54FF6FF730380184B03EB810305465C
:108D1000D868B8B186780379B3FBF6F206FB123354
:108D2000DBB219460A1D00EB4202B2F90270548808
:108D3000002F09DB0131B1FBF6F206FB1211C9B2BB
:108D40008B42EFD10020F8BDFF29FBD0C4F30E0306
:108D5000C4782B8024B94FF4D9711720FFF762FB38
:108D60005380BDE8F84017F0BDBB00BF9420002041
:108D70001D4B03EB810370B5DC68054644B3030467
:108D800004D54FF4E0711720FFF74CFB0146204655
:108D900017F08AFBFF28014604D02046BDE870404A
:108DA00017F0A0BBA078B5FBF0F300FB1353DBB2C8
:108DB00019460A1D04EB4206B6F90260002E09DBD3
:108DC0000131B1FBF0F200FB1211C9B28B42F0D1BC
:108DD000002070BDFF29FBD08B4204EB42021CBF78
:108DE0000023E3705580D8E794200020094B03EB63
:108DF000810310B5DC680146204617F055FBFF28BB
:108E0000014604D02046BDE8104017F06BBB00209F
:108E100010BD00BF94200020F8B5104B03EB810378
:108E20000746DC680146204617F03EFBFF28054652
:108E300011D0E688238953EA064606D0014620462B
:108E400017F050FB01463846B04720462946FFF749
:108E500047FE0020F8BD0320FCE700BF942000205F
:108E600038B50E4B827903EB82030446D86808B903
:108E7000022038BD8278E1799142F9D24B1CE3712E
:108E800000EB41035D89B3F90A30002BF3DBA580C9
:108E900017F028FB20600020EBE700BF94200020A3
:108EA00070B5044610F003000E4603D04921182087
:108EB000FFF7B8FA17F09CFA054624B1034831468B
:108EC000046017F095FA284670BD00BFDC20002032
:108ED0002DE9F04F1E4C85B092462268BDF83CB09B
:108EE00098468146BDF838300D461AB95B211820E6
:108EF000FFF798FA1A460A215046039317F023F910
:108F00005A4606460921404617F01DF93118074612
:108F1000206817F098FA039BC9F8000018B9286078
:108F200005B0BDE8F08F84192C60D9F800000093DB
:108F3000524631460A2317F0B8F82868CDF838B001
:108F400009234246394605B0BDE8F04F17F0ADB8E9
:108F5000DC20002070B50E46044617F0FDF80546EB
:108F6000304617F0F9F8044B2A1821461868BDE876
:108F7000704017F092BA00BFDC200020014B186847
:108F800017F054BADC200020F8B511441D4EC9B2C8
:108F900010F00305317003D04D210920FFF742FA8C
:108FA0001F2B19D89B009BB2033323F003039BB202
:108FB00008B17060338101EB81047668E2004FF004
:108FC000010C00EBC404EFB2B94212D8D01D03FB70
:108FD000010020F00700F8BDFF2B4FEA430204D93F
:108FE000FF339342DFDB93B2DEE77C2AFBDC7C239A
:108FF000DAE710B186F800C07460013528361C44E9
:10900000E1E700BFE020002038B5144A1478536827
:109010000021C8B2844203D8A8210920FFF702FA30
:109020001846013105782833002DF2D000218170D7
:1090300001241289447044688161C161920800F181
:109040002001051D21F8022B994245F8044B1444D8
:10905000F8D100234361037038BD00BFE020002039
:109060000A4B1B89B3F5FF7F4FEA930006D25A08DB
:109070009B1A9BB2984238BF18467047B3F5EE6F03
:1090800001D8FF22F4E740F27263F3E7E02000200A
:109090002DE9F8434B7880460C4602F0040602F0B6
:1090A000FB07D3B1DFB12E4BD4F804901D89B7BBB9
:1090B00001236370AD08A761E76104F120034A460C
:1090C000211D04F1280023F8025B984241F8042B8B
:1090D0002A44F8D10023636101E0002FE3D0FF238D
:1090E000A370002E18BF0226A3191B7D032B03D1EA
:1090F000022F1CBF0136F6B2A31901221A7506F120
:109100000C0204EB8606002324F812307268A37068
:10911000C8F80020A8F804304046BDE8F8830021D4
:1091200014226170A01816F071F8B5F5FF7F0FD208
:109130006B08ED1AADB209EB0502C4F80490258462
:10914000A2606384C4F80C90A5842261E384C6E71E
:10915000B5F5EE6F4FF0FF03EBD940F27265EAE729
:10916000E02000202DE9F74305460C46F7200521B5
:10917000904616F0E8FF064685B115F0030703D0C8
:109180008F211920FFF74EF9DFF83890C9F81050F9
:10919000A9F81400A5B2BBB29D4204D806FB04F0A6
:1091A00003B0BDE8F083B9F814C0D9F81000CDF8C9
:1091B000008007FB0C000523F722314616F075FFEF
:1091C0000137E8E7F420002007B5CDE900230B467E
:1091D00003490246081D17F0F7FA03B05DF804FBD7
:1091E0000C21002013B5064CCDE900230B460246A6
:1091F00004F1080104F10C0017F0E6FA02B010BD0A
:109200000C210020134B012200214FF0FF309A6007
:10921000C3F80012C3F80803C3F80015C3F8042507
:109220009A60C3F80803C3F80015C3F804250A4977
:109230000A4A03F580334FF40040C3F80825C1F80B
:109240008000BFF34F8FBFF36F8FC1F88001C3F869
:109250000825704700F0004000E100E00000F63F04
:109260008C46382300B50CF8033B054B8E4607CBE4
:10927000CEF80300CCF80410CCF808205DF804FB0D
:109280002C21002070B5234DE96AAC6A0B7803F0FD
:109290000303032B04F1A8041AD16B8E2A8E01203C
:1092A000034342F400626B8620756B6B2A869847F5
:1092B000E96A237F013B18BF012323774B7833B141
:1092C000D4E92232013342F10002C4E9223270BDF6
:1092D000002BEED04B78002BEBD02A8E42F40062AC
:1092E0002A86AA6B002AF2D0FB2B08D895F83C30CE
:1092F00063B16B6B0021BDE870402020184795F8E2
:109300003D3043F0100385F83D3070BD01230370FC
:10931000CFE700BF2021002010B5174C10F0D2FC81
:109320000FF08AFF636B208E00219847237E73B96C
:10933000A36A93F89E30022B1AD0236C94F83D1048
:1093400094F83E009847002384F8443010BD94E818
:10935000070004F10C0383E807000849022204F126
:10936000190019F07DFEA36A93F89E30022BE4D118
:1093700003480BF0F5FEE0E7202100206192020097
:1093800044210020034B93F8443003B97047FFF7A2
:10939000C3BF00BF2021002038B5234D95F82430ED
:1093A00004460BB101280ED0012913D8EB6C2046DE
:1093B000984778B195F83D3063B995F8240058B1D5
:1093C00064B1002038BD6B8E1B07EDD5AB6CDB782C
:1093D000022BE9D1012038BD012CF3D195F8503092
:1093E000DC06C3F300110BD50023AA6B7AB1A8B138
:1093F0006A8E920712D5AB6CDB78022BEAD1E0E7DC
:109400006B6D1B78C3F30013C3F10103EDE7B5F8EF
:109410005820002AEBD00029DCD0E8E7002BD9D176
:109420006A8E002ACDD0D5E72021002008B5094B4F
:1094300093F84420022A07D1DA7A42F00102DA7264
:10944000BDE80840FFF768BF4FF40F712720FEF713
:10945000E9FF00BF20210020F8B5254CA66A636D06
:10946000E36296F8CC30054606F1A80794F85A0056
:109470000BB10430C0B296F87D100DB9FF282ED084
:1094800010F082F997F824301BB3E06D11F008F862
:1094900094F82430E16DE06A003B18BF012384F8A2
:1094A0007830D7E92223C4E91C230FF069FE3DB9C7
:1094B00096F87D0010F00C0018BF282011F05AF823
:1094C00096F87C10002011F0BDF8022384F8443097
:1094D000F8BDE06A10F0E4FF0FF0AEFEE7E796F8A3
:1094E0007C209142D0D010F04FF997F82430CBE790
:1094F0002021002070B57F4CA56A82B095F8CC2061
:10950000002305F1A8068DF8053094F85A300AB109
:109510000433DBB210B9FF2B00F0B28095F87C1059
:10952000FF2010F031F9B37E032B00F2DE80DFE87C
:1095300003F0021D807094F8BA30ADF806306E4822
:10954000A5F86C3009F062FF002840F0A180D4F843
:10955000BC000DF105020DF1060116F01FFEA0641E
:1095600020B196F86130002B00F0A9806348A06418
:10957000F37EDB0003F00802037803F0F3031343E8
:10958000327F920002F00402134303F0EF0203F073
:109590000303032B027002D1C378022B12D0D4F83C
:1095A000BC0016F066FE48B9A06C027802F0030316
:1095B000032B07D009F050FF002879D1A06C027866
:1095C00042F01002027096F8233013B14378002B5A
:1095D00043D110F065FF0FF02FFEA66C0AF03EFF9E
:1095E00020B1337803F00303032B64D095F87D108A
:1095F000012011F027F8A36C414A18889978A4F843
:109600005000012384F8C030917084F8443002B0D7
:1096100070BD394809F0FAFE002861D0A06CC3780B
:109620001B2BA5D1012105F1100010F0E3F8A06C6F
:109630009EE7B5F86C30D4F8BC00ADF806300DF1FB
:1096400005020DF1060116F0A9FDA06400288FD1D6
:1096500040F2D5212720FEF7E5FEE06D10F020FF57
:1096600094F82410E06DD6E92023B1FA81F676094A
:10967000A16C84F87860C4E91C230FF081FDACE78D
:1096800095F87D3095F87C108B427FF449AF4AE71E
:10969000638EA16C626B43F08003802063869047E9
:1096A000A06C01217175C3781B2B7FF461AFBAE701
:1096B000A06C027886E7012011F09EFF96E79DF8E6
:1096C00005302BB1BDF8061019F085FCA06C4FE7F2
:1096D00003808370A06C012119F067FBA06CF1E797
:1096E00040F2DE212720FEF79DFE40F2EB212720ED
:1096F000FEF798FE2021002068210020A8210020EC
:10970000702100202DE9F041434C94F84420A56AD3
:10971000012A82B006460F4605F1A8055FFA82F8D5
:1097200074D12B7D6BB1638E002143F004036386FB
:109730002975636B0420984794F824300BB185F8A1
:109740001680A16C0A7802F00302032A36D04B7807
:10975000EBB10223AB7695F82430F3B1A36A93F80A
:109760007D10D5E92223C4E91C2394F8243094F811
:109770005A20003B18BF0123013984F878300729AB
:109780003FD8DFE801F03B133E113E3E3E38012357
:10979000AB7695F82430002BE0D106B907BB02B0B8
:1097A000BDE8F041FFF7B8BD4FF003080023009378
:1097B0001A49434601200FF06BFCEEE7AB7E63B91C
:1097C000638E43F0020363860220636B9847A16CAB
:1097D0000B7803F00303032BB9D10323AB76BAE76D
:1097E00031463046FFF7D8FD0028D8D102B0BDE899
:1097F000F041FFF731BE4FF00208D7E74FF0000805
:10980000D4E740F2B2310620FEF70CFE40F275417B
:109810002720FEF707FE00BF202100208021002026
:1098200070B50C4B0C4C0D4A1A6094F8443063B977
:1098300006460D4603F0FF02012104F1880022765E
:1098400019F0B3FA6665E56570BDDE212720FEF7E5
:10985000E9FD00BF9C0000202021002018A102008B
:10986000044A92F8443003F0FF000BB910767047B9
:109870000C20704720210020024B012283F83C205D
:10988000704700BF202100202DE9F043BA4C85B07D
:1098900002AD85E8030094F844100C98002940F0CC
:1098A000D481002A00F0D181002B00F0CE81002865
:1098B00000F0CB8101F0FF06206495E80300E3642B
:1098C00004F1240383E80300A56A626384F83C6022
:1098D00084F83D6084F8C16084F83E6084F8C0601C
:1098E000668626860FF0E6FF0FF0A6FC95F980004D
:1098F00010F004F905F1A807A86B10F0B5FD286A6F
:1099000010F002F997F8340010F008F994F82430B8
:10991000002B6AD0042015F02FFDEA6941F64B5365
:109920009A4294BF4D2096200FF0CCFEA36A93F884
:10993000F032002B40F01D8195F87D10012010F0D1
:10994000D3FA002864D08D4B186810F093FD6B6932
:10995000C4F8BC30AB69C4F8C43095F88B3023B977
:10996000D5F88410002940F0C380D7F89000D7F8CC
:109970009410D7F89820D7F89C30DFF804C2ACE8F0
:109980000F00D7F8A030C4F87930D7F8A430CCF85D
:109990000D30A36A94F8241093F8C620A2F1260093
:1099A000002938D1012803D993F8C700262838D1D7
:1099B00093F8322393F87C80002A40D0B8F1080F46
:1099C0003DD0B8F1040F00F02581082A00F0228173
:1099D000042A00F01F81B8F1010F30D0012A14BF12
:1099E0004FF002084FF0010829E0032015F0C4FCF5
:1099F000EA6941F64B539A4294BF4D2096200FF0EE
:109A000061FE95F87C10002010F06EFA00289AD1C3
:109A100005B0BDE8F08301287BD993F8C70026285C
:109A200077D0213A012A40F2CB80242800F0E6804A
:109A300093F87C80B8F1040F08BF4FF0080805F1D7
:109A400044094146484619F0C5FB414618F01CFE42
:109A5000B5F8503095F87D100246934228BF134662
:109A6000484684F8BA3019F07BFB95F87D1097F8DA
:109A70002490B5F85880082908BF042118F004FE86
:109A8000B9F1000F01D1043080B2404528BF4046F3
:109A90005FFA80F884F8C8800AF0E0FC20B1B8F1E1
:109AA0002B0F38BF4FF02B0894F8241084F85A80FD
:109AB000002957D197F82330002B3AD0012384F89E
:109AC0007830D7E92023C4E91C2395F87C30E86975
:109AD00041F64B52013B904294BF04200020072BDB
:109AE00000F29B80DFE803F01E9E991D999999A0D2
:109AF000B7F84E203B8B93427FF437AFB5F8882000
:109B00001344A7F84E3095F88A00012211F058FD51
:109B10002BE793F8CE2393F87C80002A7FF44EAF96
:109B20008DE7032100220B4600921549FB220FF01E
:109B3000AFFA0120FFF7DEFC124BD3F8503523F0CB
:109B40000803032B00F086800023C4E90033A360E0
:109B50002A88398B97F8343061802280237105B0D0
:109B6000BDE8F08397F8243073B90120FFF774FC47
:109B7000E2E70FF08DFEDFE6202100209C000020B0
:109B80008021002000100040D7E9220195F87D30A7
:109B90000122013BC4E91C0184F87820072B3CD842
:109BA000DFE803F005443B043B3B3B460326002132
:109BB000009133462A49424601200FF069FAD4E762
:109BC00024281BD000293FF433AF93F86E2193F87B
:109BD0007C8050071ED412F001032BD193077FF530
:109BE0002EAFB8F1080F3FF42AAFB8F1040F11D02F
:109BF000B8F1010F18BF4FF0020820E700293FF429
:109C000017AF93F8751093F86E2193F87C800A4093
:109C10005107E0D54FF0080811E740F2B2310620B5
:109C2000FEF700FC01217DE702217BE70126BEE76C
:109C30000226BCE7B8F1080F3FF401AFB8F1040FFA
:109C400014BF98464FF00808F9E640F24F1127205C
:109C5000FEF7E8FB40F2F9112720FEF7E3FB00BF17
:109C60008021002010B5194C94F84430F3B194F8D9
:109C7000243093B194F84430022B21D1A36AD3F855
:109C8000080310F045FCA16A91F88B3003F0FF0245
:109C900013B9D1F8843063B910BD94F84430012B66
:109CA000F1D040F20E212720FEF7BCFBFFF734FB7A
:109CB000E9E791F88A00BDE81040114611F080BC38
:109CC00040F212212720FEF7ADFB00BF202100202B
:109CD000FFF722BB014B1876704700BF2021002000
:109CE000014B93F8C000704720210020024B188ED2
:109CF000C0F38020704700BF20210020014B93F863
:109D0000C1007047202100202DE9F0411E4FBC6AA0
:109D1000820782B005460E4604F1A80411D4EB0771
:109D20000CD5D4E92232217F013342F1000201290E
:109D3000C4E922320CBF00230123237702B0BDE81F
:109D4000F081BB6BDBB1B7F85820F96A18460332D3
:109D500091F8018015F0E2F90DF1020201A9F86213
:109D6000D7F8C40016F03AFB019816F021FB012247
:109D700030604146D7F8C40016F0C6FACFE740F28B
:109D800066412720FEF74EFB202100202DE9F047F9
:109D9000B24C86B00023CDE904338DF80F3094F82F
:109DA0004430A56A022B06460F4605F1A8055FFA66
:109DB00083F840F0A281238E13F0400106D1636B3B
:109DC00040209847238E43F040032386002E5AD02C
:109DD00095F82430002B40F01881D4F82CA09AF884
:109DE000011089B2A4F85810002940F02581002301
:109DF000A3639AF80000238EE97EC0F3800243F447
:109E000080739142238600F0CC80A26A94F82410DB
:109E100002F1A80999F81A20EAB1022A00F0538148
:109E2000002389F81A3021B199F81620002A40F051
:109E30003F8199F81530002B40F0168199F81B30BE
:109E4000D4F82CA0012B0CBF0023012389F81B3070
:109E50009AF80000238E43F4806222862A7FC0F3A2
:109E6000C0039A424FF0000900F0A2800AF0F6FA0F
:109E7000C0B19AF8003003F00303032B12D1012084
:109E800011F0BAFB0EE095F82420002A40F0B980CA
:109E900043F40073238694F8C130013384F8C13051
:109EA0004FF0000995F823305BB394F82430A26A90
:109EB000B3FA83F3D06992F87C105B0984F87830A8
:109EC00041F64B53984294BF04200020D5E920234B
:109ED0000139C4E91C23072900F2E280DFE811F010
:109EE0008E000800E0008B00E000E000E0000A00C7
:109EF0004FF001080022009259494346FB220FF01F
:109F0000C7F847B994F8C1100120FFF745FA074692
:109F1000002800F0998010F003FC01279DF80F3015
:109F20007BBBB9F1000F08D094F82430002B59D135
:109F3000B4F809300133A4F809303EB3B4F8053061
:109F400000220133A4F8053084F8C12045480BF005
:109F5000E5F8049840B116F02BFAA16A0023437289
:109F60000722013019F06AF8059B33B1A16A00227B
:109F70001A720C22059819F061F86FB906B0BDE8A5
:109F8000F08705A90220FFF7BFFECAE7B4F8073043
:109F90000133A4F80730D9E7FFF7BEF906B0BDE8F2
:109FA000F0872A7FC0F3C0039A42B1467FF45EAFC8
:109FB0000AF054FA00284AD0D4F82CA09AF80030BD
:109FC00003F00303013B012B41D89AF8012094F8D8
:109FD000C8309A423BD994F83D3043F0100384F8DE
:109FE0003D3043E7B4F80530B4F807102A8B0B4333
:109FF0001343A2D09CE74FF003087BE74FF0000823
:10A0000078E70FF083F9238E42E70FF045F90FF060
:10A0100027F9D4F82CA09AF8011000287FF4E1AEBB
:10A02000002942D09AF800302A7FC3F3C0039A4235
:10A030005DD089B2A4F85810D4F8C40016F03AF9EB
:10A04000D4F82CA0A063D4E6FFF754FA66E70DF12C
:10A050000F00FFF717F9D4F82CA007E72021002004
:10A0600080210020442100204FF0000A89F815A02B
:10A0700009F0DCF900284AD0638E43F008036386B8
:10A080005146636B08209847D9F880300133C9F8EE
:10A090008030D9F8843043F10003C9F88430CDE62C
:10A0A00040F2B2310620FEF7BDF9A4F858109EE642
:10A0B00089F816301946638E43F01003638610202A
:10A0C000636B9847B5E6D4F8BC0004A916F089F88C
:10A0D000C0B1D9F8803094F824100133C9F8803029
:10A0E000D9F8843043F10003C9F8843098E601239D
:10A0F00084F83E30FFF710F940E74FF49D612720C8
:10A10000FEF790F94FF479712720FEF78BF940F2B2
:10A11000FB312720FEF786F92D9402008D9D020069
:10A120000597020085930200F0B583B00023044632
:10A1300001A8019310F0B8FF019B03F00303002B6B
:10A140000BBF182522250F2619260CBF00270A272A
:10A1500015F084F938B120461AF0B2F970B905F15A
:10A16000610003B0F0BD15F0D5F800280CBF3D46E6
:10A17000354620461AF0A4F90028F0D020461AF0FF
:10A1800085F918B105F15A0003B0F0BD20461AF068
:10A1900081F90028F6D105F15000E2E708B54FF447
:10A1A00052710620FEF73EF92DE9F047002800F035
:10A1B000DA800446082900F2CB80DFE801F091A99B
:10A1C0002424A5C91F9CC500014620461AF0EBF8BF
:10A1D000D4F83C3100F1F7059D4240F2BD80E81A09
:10A1E000322838BF3220032114F0C2F8C4F83C51A1
:10A1F000064620461AF091F9002E7AD02046BDE896
:10A20000F0471AF08EB9FFF78FFFB4F83231A4F897
:10A2100040010022062B84F8382184F8432100F203
:10A220008C800133A4F8323104F59C75284613F074
:10A2300059F9002800F09B8094F8583103F0FF0191
:10A24000002B72D1D4E954026FF000439A4208BF48
:10A25000B0F1FF3F12D02046D4E952671AF0A3F8BC
:10A26000D4F85031D4F854219B1B00F1F70062EB75
:10A2700007021B1A62F10002002A53DB94F8100156
:10A28000294613F045FA00287BD0D4F84851D4F879
:10A290002871D4F84C61D4F82C81AF4278EB0603D6
:10A2A00027D220461AF0BCF850EA010381468A46BC
:10A2B0001FD0E81B4A4666EB0801534614F070FEB7
:10A2C000D4E94A3209FB01F100FB0A11A9FB009015
:10A2D00013EB0903014441EB0201C4E94A3108E0F0
:10A2E0000CF008F8D4F83C01E73813F097FF002889
:10A2F00042D0BDE8F08790F8100113F0BFF80023BA
:10A3000084F83031BDE8F087BDE8F04710F01CBAA2
:10A310001AF0C4F800283FF457AF2046BDE8F047D4
:10A320001AF0FBB820460BF0EDFF94F8100113F083
:10A33000A5F8002384F83031A7E7D4F8143173B1BD
:10A34000012384F842316FE7F2213020FEF76AF8EA
:10A35000F6213020FEF766F8C4F83C51DDE7022311
:10A3600084F8423160E7D2213020FEF75BF840F2FA
:10A370009F613020FEF756F840F281213020FEF731
:10A3800051F840F2A3613020FEF74CF82DE9F04F70
:10A3900004468BB00020029394F87D300690174657
:10A3A0000E46059317F09CFD94F8F1220B2A00F25B
:10A3B0008583B34B33F8125094F8C7200392284496
:10A3C00087F0010285B204922FB3B4F880A3B4F8E9
:10A3D000C090A6EB0A0A0FFA8AFAA6EB0909BAF1AD
:10A3E000000F0FFA89F904F55678C0F2D581A54A15
:10A3F000DDF808B0127802F0FF07002A40F0DD8196
:10A4000094F83C33032B00F26A83DFE813F03F013A
:10A410000401A2003A0094F83C23032AD5D1039A00
:10A420000E2AD2D1B4F8CC23B242CED1B4F80E1356
:10A43000B4F882230A44C4F83823D4F84423C4F877
:10A440003023E269C4F8342320460DF0D7FAD4F85B
:10A45000D423E169914205D004F128001AF0E9FA09
:10A46000D4F8D423E261D4F8D023E263B4F8CE2345
:10A47000A4F84020D4F8D8236262022284F83C2356
:10A48000A3E7E569029B05FB0AF2002B40F031824D
:10A4900094F85333002B00F0DC827A4B5868D4F8E0
:10A4A0004433EB1AA3F5AD75D4F87833D71B854246
:10A4B00028BF05460697DF19D4F87C33C4F8085343
:10A4C00043F10003C4F86C33002384F85833742339
:10A4D000A4F86033C4F8687304F1440018F03EFE39
:10A4E000D4E9DA230544C4E9DE23C4F85C53A4F8B4
:10A4F00080630CF0F7FB20B1D4F85C331E33C4F852
:10A500005C33B4F8F812039A8E1B002336B29E42D5
:10A5100084F86233C4BF022384F862330E2A029A9D
:10A5200000F06182002A40F0618294F83C33002BF5
:10A5300040F07D8294F88403414613F0E9F8002846
:10A5400000F0BE82049B84F8503300200BB0BDE8BD
:10A55000F08FE36BD4F834032946184411F082F8E5
:10A560002946C4F84003E069474D11F07BF8E269E1
:10A5700094F87D9041F64B539A4298BF0230C4F84C
:10A580004403484610F06EFC00F55F4019F00C0FD4
:10A5900000F14100A5FB003014BF2821002101EB90
:10A5A00090118031204618F071FEB4F80E33002B64
:10A5B00000F07681D4F83433E26BD4F8405313447E
:10A5C0005B1B0693D4F83033D4F8382394F87DA07D
:10A5D00002FB0355B4F8403030351AF00C0F03EB92
:10A5E000450540F05481504610F03CFC264B00F5E8
:10A5F0002340A130A3FB00304FEA9019504610F0E1
:10A6000029FC4D441F4B069A284458600123E569F4
:10A6100084F83C3343E7D4F84403E269D4F8403388
:10A62000D4F83813B4F80E53121A0AFB02F2069249
:10A63000D4F8302394F87DA03033A94402FB0133D1
:10A64000C943B4F84050894400FB09301AF00C0F9C
:10A6500005EB400540F02181504610F003FC0A4B09
:10A6600000F52340A130A3FB00304FEA901950467B
:10A6700010F0F0FB4D44034B069A2844586089E0E3
:10A6800080DD0600EC210020D34D621094F87D108F
:10A6900094F80603DFF828A318F020F88146E06B51
:10A6A0002946484410F0DEFF2946C4F84003E0691B
:10A6B00010F0D8FFE26941F64B539A4298BF02303E
:10A6C000C4F8440307A908A810F032F8079B0093C8
:10A6D000D4E9DE01DDE9082314F0CEF894F87D30EA
:10A6E00005930546184610F0BDFB059B00F55F403D
:10A6F00013F00C0F00F1410014BF28210021AAFB28
:10A70000003001EB90118031204618F0BFFDD4F8E5
:10A710008833E26B94F87D000693059210F0A2FB5B
:10A720004AF2A13B00EB0B03AAFB0331069B059AFF
:10A73000D4F84003203B13441B1A4B445B1BA3EB90
:10A740009113069394F87D30B4F8409000F13005F1
:10A7500013F00C0F4FEA450509F1220940F09A80E9
:10A760001846059310F07EFB8344AAFB0B3A059B29
:10A770004FEA9A1A184610F06DFB4D44914B069A19
:10A78000554428445860D4F88833D31AB3F5D87F99
:10A7900040F29B81E56982E6002284F85323894ACE
:10A7A000D4E9DC011278C4E9DE01CA464FF0010B9E
:10A7B00002F0FF07002A3FF423AE10F0FDFF07462A
:10A7C00000283FF41DAEB4F82423012A40F2F5809E
:10A7D00094F83C23022A00F0F08094F85223002AD7
:10A7E00040F0EB80E06941F64B57B84240F24381BC
:10A7F00094F8F1220B2A00F26181734B33F8125066
:10A8000094F83C3305F5C865012BADB240F03781B3
:10A8100094F8CA30032B40F04681D4F83403E76B38
:10A820000744294610F01EFF03463846D4F830731B
:10A83000C4F83033DB1BD4F83873294603FB07F721
:10A8400010F010FFD4F84033C4F84003C01A074496
:10A850002946E06910F006FFE36941F64B52934246
:10A86000B4F80E33D4F838234B446FEA0202A3EB5A
:10A870000A031344D4F8442398BF0230C4F84403B5
:10A88000801A00FB0377012384F85233B8E54FF0B8
:10A890006509B3E64FF0650A6CE74FF06509E6E637
:10A8A000029B002B3FF486AE94F87DB0D4F834239D
:10A8B000E36B584602EB030910F0D4FAD4F88C335A
:10A8C0008246A9F1200958469944D4F840B310F0C3
:10A8D000C1FA0AF5234AA9EB0B090AF1A10AA9EB6F
:10A8E0000009A5FB0A35A9EB95150695D4F8405348
:10A8F00068E6B4F80E33002B7FF4CAAD84F8533306
:10A90000D4F8441301FB1A2A94F8C620CDF818A0F5
:10A91000262A5BD094F8C720262A57D0BBF1000F17
:10A9200027D033BBD4F88CB3BBF1000F00F0D2803A
:10A9300094F87D0010F00C0F40F09B8010F092FA1C
:10A940001F4DD4F88CB300F52340A130A5FB003592
:10A95000AD0994F87D00103510F07CFAAAF1100AC8
:10A960000AEB0B02551B2D1AB4F80E33D4F844131E
:10A970000695059803EB090B01FB0BFB0BF1300B64
:10A9800010F00C0F4FEA4B0B61D110F06BFA0C4D2D
:10A9900000F52340A130A5FB00308509059810F093
:10A9A00059FA084B054405EB0B00E569586041F680
:10A9B0004B539D4250D9069A71E5002720E500BF10
:10A9C000D34D6210EC21002080DD0600B4F8CC23CA
:10A9D000B21A1204A2D4059894F8CF23002A18BF03
:10A9E000104605909AE7002A3FF4A4ADB4F824235A
:10A9F000D2B1B4F8260394F8281300FB01118A425F
:10AA000000F101007FF796AD002B3FF493AD0023DA
:10AA100084F86233A4F8260309F026FD00F007004D
:10AA2000013084F8280385E5A4F8262382E5E1694E
:10AA3000D4F844334046C91A17F0F5FD80B2002817
:10AA40003FF478AD149BC3B1188001207EE56525E5
:10AA5000A4E7B4F80E3353E7234A284606AB594619
:10AA600017F05AFE214B84F85303069A5868E5699B
:10AA700015E5752570E71746C2E4012066E529460D
:10AA800010F0F0FDE369BB42B4F80E73D4F8443320
:10AA900098BF02304F44A7EB0A07C4F84403C01A1A
:10AAA00000FB07F7EFE694F87D1094F80603E76BD8
:10AAB00017F014FE0744D4F83403B2E6FFF76EFB38
:10AAC00040F2A3513020FDF7ADFC40F2F2413020BE
:10AAD000FDF7A8FC40F244513020FDF7A3FC40F202
:10AAE00059513020FDF79EFCF0210020EC21002080
:10AAF0002DE9F04385B0002800F05B810446082969
:10AB000000F23D81DFE811F08900E9000900090049
:10AB100071003B0176007E0037011AF05EFAD4E93D
:10AB2000DC23801A61EB0301012871F10003C0F2FC
:10AB30004E816FF00102002382428B41C0F24281BC
:10AB4000E3690BB1B0FBF3F394F8C7200E2A00F0D1
:10AB50000B81B4F8C010B4F84E230B449BB2D11A49
:10AB6000090454BF531C01339BB2A4F84E3394F82C
:10AB70005133B4F84E1323B9B4F8FC328B4200F0D1
:10AB80000B81B4F8FC20B4F8C030B4F8FA001344D8
:10AB9000013BB4F882231B1A9EB2531C721A120492
:10ABA000A4F8823300F1B4800DF10E050023009566
:10ABB0001A462046FFF7EAFB002840F09380D4F8BD
:10ABC00084303BB3B4F8F620B4F84E339B1A1BB272
:10ABD000002B1FDDB4F888100B44013BB3FBF1F3ED
:10ABE00013FB0123A4F8F63014E005B0BDE8F043F0
:10ABF0000FF0AABD012010F0FFFC05B0BDE8F04346
:10AC0000FFF766B890F83C33042B40F0E580002352
:10AC100080F83C3305B0BDE8F08390F85033002253
:10AC2000C0F88C23002B00F08E80B0F84E23B0F8D3
:10AC3000C0309A4200F0B580D31AA0F8FE32A0F8D6
:10AC4000C020D4E9DA232046C4E9DC230CF0B4FDAB
:10AC500094F80333002BDDD094F87D20E569D4F817
:10AC60004433DFF87C8112F00C0F14BF4FF4F079FD
:10AC70004FF4DC799D4288BFED1A98F8083098BFF0
:10AC80000025002B7FD004F14400D4F8087318F09D
:10AC900065FA0744022013F01BFBED1B25EAE5755E
:10ACA000854228BF05460221284613F061FB00B902
:10ACB0002F444A463946204618F0D0FAE269D4F8C3
:10ACC0000833C8F80C00D01813F0A8FA0028A1D156
:10ACD00040F2AA313020FDF7A5FB05B0BDE8F043F6
:10ACE00019F08ABD012868D1B4F84E13B4F8F822DF
:10ACF0008B1A13F4004FBDF80E30194489B2A6EB3D
:10AD000001032CD11BB2002BA4F84E13BFF64EAF9B
:10AD100094F8CA303349002B0CBF3E23082384F833
:10AD2000E93004F1E00018F095F9204619F066FDCD
:10AD3000002384F83C3394F8840312F09FFB202313
:10AD400084F8843366E7B0F84C33B0F8C010B0F83C
:10AD50004C23A0F8C0205B1AA0F8FE3271E71B0458
:10AD600016D4A4F84E1321E7B4F84E13013189B27A
:10AD7000A4F84E1305E7C6213020FDF753FBCA2186
:10AD80003020FDF74FFB636C9D4228BF1D467AE7DC
:10AD9000B31A1BB21146B6E7013189B2A4F84E13BB
:10ADA000EFE6B0F8FC32A0F8C0309B1AA0F8FE32F3
:10ADB00047E79C213020FDF735FB4FF4CC61302074
:10ADC000FDF730FB40F221613020FDF72BFB4FF403
:10ADD000C4613020FDF726FBC0213020FDF722FBA7
:10ADE000EC210020594B03002DE9F04700260546D1
:10ADF00080F81861D0F814010127D5E9528982B092
:10AE000080F806238A4685F83061394685F8317125
:10AE100008F04CFFD5F81441C4E9DC8995F81031ED
:10AE200084F88433C4E9DE89C4F888A384F83C63D9
:10AE3000A4F8806333460096324631462046FFF739
:10AE4000A5FAC8B984F83C73C4F83803C4F83003D1
:10AE5000A4F84E03A4F84C0384F85103B4F8C030AE
:10AE6000A4F88203013BA4F8C0300EF0DBFF02B06F
:10AE7000BDE8F04712F030B940F221213020FDF753
:10AE8000D1FA00BFD0F81401704700BF2DE9F0439C
:10AE900085B000230322CDE9003301268DF806207A
:10AEA0006846FDF7DDFF044620BB009D95F8303174
:10AEB000002BF5D085F858610121284619F033FBA5
:10AEC00095F83031002BEBD095F8100112F02CFFE3
:10AED00095F8100113F076FB95F8100112F0CEFAF8
:10AEE00000283CD085F830416846FDF7B9FF04469C
:10AEF0000028DAD0DFF87C80012388F810300025A4
:10AF000002264FF6FF771AE0029BE3B193F8842301
:10AF1000202A18D01888B8421BD00221FDF766FFFE
:10AF2000814608B390F8840313F04CFB99F884032E
:10AF300089F83C4312F0A2FA202389F88433CDE942
:10AF400002558DF80E6002A8FDF78AFF044600281E
:10AF5000DAD0002088F8100005B0BDE8F08340F298
:10AF60000D213020FDF75EFA40F229113020FDF767
:10AF700059FA00BFEC210020054B0022012142F2CA
:10AF800010701A72588219701A74FFF77FBF00BFD1
:10AF9000EC21002090F83031002B40F0A3802DE907
:10AFA000F04104460F4601465648154603F0FF0897
:10AFB00012F038FA202806466DD04146502204F59A
:10AFC000887014F023F9012384F81061C4F8147117
:10AFD00084F8303137B109F05FFA00F00700013032
:10AFE00087F828032046FFF79FF800270223A4F8DC
:10AFF0004001A4F8423184F8387110F063FBB4F8D2
:10B0000040619D3606442046B6B219F047FA002842
:10B0100044D016F065FF00F5CD6189B2284610F0E6
:10B0200021FB2844C4F83C0119F0D7FF301841F146
:10B0300000010126C4F84801C4F84C1184F81861D5
:10B04000E784204619F040FA002843D031462046D4
:10B0500019F0A9F9A5F2F3452D1AC4F81C514FF0C7
:10B06000FF326FF00043C4E9542394F8100104F553
:10B070009C7112F04DFB00283ED0D4E952230025EC
:10B080002046C4E94A23A4F83251294619F04BFA64
:10B090002846BDE8F0810C20BDE8F081014620463D
:10B0A00019F081F9184FF730C4F83C01788A08B1DB
:10B0B000E08CC8B9064419F090FF361841F1000140
:10B0C000C4E95261002DCAD0AE1941F10001C4E9B2
:10B0D0005461CAE7304619F0CBFAF73D2D1AC4F88F
:10B0E0001C51BCE70C20704709F0D6F97B8AB0FBF5
:10B0F000F3F202FB1300DDE740F2EF113020FDF721
:10B1000091F900BFA9A10200EC21002090F8303194
:10B110000BB90020704710B50121044680F8581182
:10B1200019F001FA94F830310BB9002010BD94F8F1
:10B13000100112F0F9FD94F8100113F043FA94F89D
:10B14000100112F09BF920B1002384F83031002067
:10B1500010BD40F20D213020FDF764F9014B18724B
:10B16000704700BFEC21002090F8582182B910B53B
:10B1700002F0FF0490F8182112B90122104610BD08
:10B18000D0E947319942F9D90BF0BCF82246F5E7EE
:10B1900000221046704700BF10B504460EF0D6FAE4
:10B1A000074BDA68824208D3E16941F64B5291427B
:10B1B00003D9187C80F0010010BD002010BD00BF35
:10B1C000EC21002008B54FF4FF7118F072F8B0F5CB
:10B1D000296F28BF4FF4296080B208BD90F803336F
:10B1E000002B66D170B503F0FF0590F83C33032BBC
:10B1F00084B0044601D004B070BD19F0EEFED4E96D
:10B20000DC23801A61EB0301012871F10003F2DBFA
:10B210006FF00103834275EB01034DDBE369B4F882
:10B22000C020002B46D0B0FBF3F080B2531C184472
:10B2300080B2A4F84C03B4F84C23B4F8FC329B1A47
:10B240001BB2002BD7DD94F8840312F06DFD0028AB
:10B25000D1D0FF2384F85133B4F8FC30B4F8C05097
:10B26000B4F8FA201D44013DAD1AB4F84C33ADB228
:10B27000EB1A1A04BFD40DF10E06B4F84C13009665
:10B28000002389B201222046FFF780F80028B2D0BF
:10B29000012816D1B4F84C33BDF80E2012FA83F30E
:10B2A0009BB2A4F84C33B4F84C33EB1A1B04E4D52E
:10B2B000A1E770471846B9E740F2D7513020FDF7B3
:10B2C000B1F84FF4C2613020FDF7ACF82DE9F0473A
:10B2D000044682B0052900F2C180DFE801F03D1686
:10B2E00003131C23042384F83C330EF09BFD11F060
:10B2F000F3FEB4F8C020A4F84E230023A4F8823350
:10B3000084F8513302B0BDE8F087032380F83C3362
:10B3100002B0BDE8F0870EF013FAC4F88C0302B057
:10B32000BDE8F08790F87D5028460FF09BFD4E4910
:10B3300000F55F4015F00C0F00F14100A1FB00305B
:10B3400014BF2821002101EB90118031204602B06A
:10B35000BDE8F04717F09ABFD0F88C339BB9434B48
:10B360001B7C03F0FF02002BBCD1B4F8FC1200924E
:10B3700001232046FFF70AF80028B6D040F2DA6130
:10B380003020FDF74FF890F85233002BE7D090F8BB
:10B390003C33032BE3D190F87D9016F0A1FD94F897
:10B3A000F1320B2B58D8324AD4F88C5332F8133080
:10B3B000C61803F5C86348469FB20FF04BFD19F05D
:10B3C0000C0FA5EB0008B6B248463CD10FF04AFD81
:10B3D000DFF894A0D4F8085300F2E733AAFB032364
:10B3E0004846A8EB93180FF035FD2D1A48460FF08C
:10B3F00039FD00F52343A133AAFB03239B09EB1A74
:10B400005A08603B293206FB03F3B3FBF7F36033C2
:10B41000A2EB530141454FEA530302D8134443457D
:10B4200001D210F0B5FBE069314610F01BF9E2697A
:10B4300041F64B539A4298BF02300023C4F84403AC
:10B4400084F852338BE7D4F808530FF003FDA8F1CA
:10B450003C082D1A6523D2E7FEF7A0FE40F26E717C
:10B460003020FCF7DFFF00BFD34D6210EC2100203D
:10B4700080DD0600012A70B5064609D0022A14466E
:10B480000D461ED04AB14FF4F3613020FCF7CAFFDD
:10B490000EF05CF9C6F8880370BD0EF057F922462D
:10B4A00001462846FFF7A0FC0F4995F810013246E7
:10B4B00010F076F80028EFD140F281713020FCF7CF
:10B4C000B1FFD0F8881301222846FFF78DFC06490A
:10B4D00095F81001324610F063F80028DCD140F2F4
:10B4E00092713020FCF79EFFF1AA0200F8B50446E5
:10B4F00051B1012962D1002380F818310EF092FC7D
:10B50000BDE8F84011F0E8BDC58C002D4ED12046B5
:10B51000D4E94A7618F084FF401941F10001C019BE
:10B5200046EB010602230022C4E95206A4F8423188
:10B5300084F838212046FEF7F7FDD4E9525694F8F6
:10B540005831A4F84001C4E94A5603F0FF017BB921
:10B55000D4E954026FF000439A4208BFB0F1FF3FB4
:10B560000FD194F8100104F59C7112F0D1F850B38A
:10B570000023A4F832310EF055FCBDE8F84011F07C
:10B58000ABBD204618F00FFFD4F85031D4F8542149
:10B590005B1B00F1F70062EB06021B1A62F100026E
:10B5A000002ADEDA20460AF0ADFEE1E708F05CFF93
:10B5B000E58CB0FBF5F303FB1505A8E74FF4F56147
:10B5C0003020FCF72FFF40F2FA613020FCF72AFF11
:10B5D00090F83001704700BF014B5882704700BFA0
:10B5E000EC2100200B46062203F8032BB0F809C01B
:10B5F000C27AA1F803C09A70704700BF18230B707D
:10B60000704700BF08B54FF42B713220FCF70AFFDA
:10B61000F8B500284CD0437A46890F4604466BB3F0
:10B6200000213046FDF7E2FB0546002845D00088A2
:10B6300007F0ACFE28880021FDF7EEFB002841D181
:10B640003B46132203F8032B04F1290E04F10902EF
:10B65000156850689168D2F80CC0C3F80CC010325D
:10B6600072451D605860996003F11003F0D11278A3
:10B670001A700023BB71637A8BB1F8BDC36CD0F82C
:10B680000E20C3F80320428AA3F80720427BC36C34
:10B6900012F0FD0F14BF012200229A70D0E707F0CC
:10B6A000DBFC4B04E9D53046BDE8F84006F074B940
:10B6B00040F2EA213220FCF7B5FE40F2F6213220BA
:10B6C000FCF7B0FE40F2FA213220FCF7ABFE00BFDF
:10B6D000044B1B680022A3F8B22083F8B42083F83F
:10B6E000702070470022002008B508F0B3FB034B20
:10B6F00018700EF0E7FA032008BD00BF100000200C
:10B7000008B508F0A7FB024B02461A70012008BDDD
:10B71000100000202DE9F041054617461E46A1B154
:10B72000AB681BB12FB13846BDE8F0810120BDE800
:10B73000F081002EF7D01849AA7C0968BDE8F041D5
:10B7400091F84100423116F077BEDFF84C80D8F80E
:10B75000001091F8562091F89A0001F157039331A7
:10B7600016F06AFED8F8003093F88120082A03D03A
:10B7700093F88410914207D093F85230012BCFD028
:10B7800033B90028CCD1D2E793F85230012BC7D976
:10B790000020BDE8F08100BF0022002038B50D4D2B
:10B7A0002C6894F8853063B90023012184F8701067
:10B7B000A4F8B23084F8B4302046BDE8384005F033
:10B7C00067B90EF025FF0DF0D9FB002384F8853012
:10B7D0002C68E9E70022002010B50D4C236893F88F
:10B7E0005030032B0BD1606860B10EF059FE002081
:10B7F0000EF0C0FE2368042283F8702010BD03F011
:10B80000BBF8F1E740F2F2413220FCF70BFE00BF3B
:10B810000022002038B5204D2B6893F87020022AB2
:10B8200035D8027C83F88020C16859671A440446E1
:10B8300092F8B52083F8B1204268DA67037A022BC8
:10B8400002D1637CCBB938BD0EF034F80EF0E0FEC7
:10B850000DF094FB11480EF00DFE11480EF004FEA1
:10B8600010480EF051F92B6893F868305BB901204D
:10B8700013F082FD637C002BE5D02868BDE83840DA
:10B88000603016F0CFBD022013F076FDD9E740F608
:10B89000D5013220FCF7C6FD00220020B8010020AF
:10B8A00055555500D6BE898E70B5414C236893F826
:10B8B0007020032A064626D093F87020042A22D04E
:10B8C00093F85020032A4ED16568002D51D06EBBED
:10B8D00093F87020022A56D993F87020082A57D876
:10B8E00093F87030A26803F180435269033B52F829
:10B8F000233098470C2841D8A368DB68BDE8704026
:10B9000053F82030184793F85020032ADCD003F076
:10B9100033F805466DB3236893F85020013A022AA4
:10B92000D5D941F246313220FCF77CFD284617F08C
:10B9300005FA18B9284617F01CFAC0B1236893F825
:10B940007020022A29D993F87020082A2AD893F85F
:10B950007030A26803F180431269033B284652F815
:10B9600023309847C6E703F039F80546D2E7236845
:10B97000AEE74FF49A513220FCF754FD41F25B31AF
:10B980003220FCF74FFD41F226313220FCF74AFD10
:10B9900041F227313220FCF745FD41F2C621322029
:10B9A000FCF740FD41F2C7213220FCF73BFD00BF10
:10B9B0000022002038B5144C236893F85030032B34
:10B9C00018D16568D5B12368FF2093F8B1100DF048
:10B9D000DBFE28460EF064FD236893F8B10010F0FA
:10B9E0000C0018BF28200EF0C5FD2368072283F83D
:10B9F000702038BD02F0F2FF0546E3E740F2175130
:10BA00003220FCF70FFD00BF00220020F0B5504CA3
:10BA100023680022DF6C5A72FA690E463988598110
:10BA2000054641F27071A2F57A70884283B040F207
:10BA300082804849A1FB0212C2F38F221A84BA8C79
:10BA40005A84FA8C9A844FF47F42DA844FF6FF725C
:10BA50001A85002D65D00121304617F0ABF83278F9
:10BA6000D209236893F8861009B1002A37D193F8D8
:10BA7000820000210828596119833DD003F10E028C
:10BA800003F10D0107F07AFF00285CD023685A7B90
:10BA900042F002025A7303F11A07002D3BD103F161
:10BAA000930002683A608288BA8093F95410D86C87
:10BAB00008F0B4F920682849022217F0BFFA20687C
:10BAC0002649C36C1C88A0F8334093F8CE3080F828
:10BAD000353002222A3017F0C3FA03B0F0BD4279A4
:10BAE00002F0C002402AC2D102685A61828893F8EB
:10BAF00082001A830828C1D193F89A00D3F89310D2
:10BB00005873C3F80E10B3F8970058820021C3F899
:10BB10001A10D983C9E70021304617F04BF8236883
:10BB2000BFE76068694616F0F8FE63681A786846F1
:10BB3000C2F3801295E70A49A1FB0212920902F5AD
:10BB4000506292B27AE741F291313220FCF76AFCFE
:10BB5000002200205917B7D111B60200E5B5020046
:10BB6000D34D621038B50F4D2C6894F885307BB9F1
:10BB700000206968A4F8B20084F8B40084F870006A
:10BB8000FFF744FF28680221BDE8384004F0B0BF49
:10BB90000EF03EFD0DF0F2F9002384F885302C689C
:10BBA000E6E700BF0022002008B508F053F9034B78
:10BBB000187003F0F1F9012008BD00BF100000204B
:10BBC000034A1068022380F8703004F0F3BD00BF10
:10BBD0000022002008B540F243313220FCF722FC5D
:10BBE00030B504788DB004F00F0402A9224603F0AA
:10BBF000DBFB0EF067F808F02DF9214B042C1870D0
:10BC000002D003200DB030BD1E49039A0968147894
:10BC1000054691F893008442F3D1547891F894004A
:10BC20008442EED1947891F895008442E9D1D47899
:10BC300091F896008442E4D1147991F897008442F7
:10BC4000DFD1507991F898209042DAD19DF819000F
:10BC500091F89A209042D4D17F2D0ED07F221A7075
:10BC600002A891F8993091F8A82091F882100095D7
:10BC700003F0A8FA03200DB030BDFFF7ABFF00BF03
:10BC800010000020002200202DE9F047044684B077
:10BC900006290CD8DFE801F06822110B0B0B040019
:10BCA000B74D2A6892F88B30002B40F083800EF05D
:10BCB00009F8032004B0BDE8F0870EF003F8B04B9C
:10BCC0001A6892F88B302BB192F85030013B012B5F
:10BCD00040F2DE80032004B0BDE8F087A84F837CEB
:10BCE000396891F8865091F88BA0012B85F00105F9
:10BCF0007ED0002691F85030032B00F0BF8091F8E1
:10BD00008180B8F1080F40F0A88091F841804FF091
:10BD100000094046032B75D1636891F857201E78BF
:10BD2000964200F05081002691F88130082B04D013
:10BD300091F884209A4208BF0126B9F1000F40F023
:10BD4000A580002D40F0E080BAF1000FAFD03B6835
:10BD500093F85230012B03D0002BA8D1002EA6D08F
:10BD6000002DA4D00A20A5E7854D2A6892F88B30D3
:10BD7000002B9CD092F85030022B00F0CC80012B8D
:10BD800000F05881032B40F06C81436892F8571003
:10BD90001878884200F0938092F85230012BE1D05D
:10BDA00092F88430082B82D092F881209A427FF456
:10BDB0007EAFD7E792F85030022B00F0C680012BFF
:10BDC0007FF475AF6F4991F900307F2B00F0478108
:10BDD000029392F89930019392F8823000937F2574
:10BDE0000D70FF234232062103F022F9032061E7A0
:10BDF00083685E7906F0C006A6F14006B6FA86F6BC
:10BE0000760977E70DF05EFFBAF1000F3FF462AFFD
:10BE10003968A36891F84100A27C423116F00CFB0E
:10BE200018B9B9F1000F00F0AF80564D95F9003008
:10BE30007F2B00F014813A68029392F899100191D7
:10BE400092F88210009120467F244346423201211D
:10BE50002C7003F0EDF803202CE7404607F09CFC23
:10BE6000002818BF0546002E40F0D280396891F8AE
:10BE7000418091F85030B14640464BE791F8492057
:10BE8000002A3FF43CAF91F884803AE701255BE754
:10BE90003C4991F900307F2B00F0E180029392F849
:10BEA0009930019392F8823000937F2520460D70DF
:10BEB000FF234232022103F0BBF80320FAE6587850
:10BEC00092F8581088427FF467AF987892F859102A
:10BED00088427FF461AFD87892F85A1088427FF494
:10BEE0005BAF187992F85B1088427FF455AF5979AF
:10BEF00092F85C3099427FF44FAF617C92F85630F3
:10BF000099427FF449AF2DE7A368A27C423116F035
:10BF100093FA054618E71B4991F900307F2B00F092
:10BF20009E80029392F89930019392F882300093A8
:10BF30007F24FF2342320C70002103F079F82B6834
:10BF4000012283F8A8200920B4E60E4991F90030B7
:10BF50007F2B00F08480029392F89930019392F83D
:10BF6000823000937F24FF2342320C70062103F0BD
:10BF70005FF82B68002283F8A82009209AE600BF0A
:10BF800000220020100000203A6892F85130023B55
:10BF9000012B3FF69FAE002E3FF49CAE334991F942
:10BFA00000307F2B5BD0029392F89930019392F886
:10BFB000823000937F250D70FE23423220460121FE
:10BFC00003F036F886E65E7891F8582096427FF4C2
:10BFD000AAAE9E7891F8592096427FF4A4AEDE78FE
:10BFE00091F85A2096427FF49EAE1E7991F85B201C
:10BFF00096427FF498AE5A7991F85C309A427FF479
:10C0000092AE667C91F85630F31A5E425E418BE642
:10C01000A168404607F0A2FD3968814691F84100C9
:10C0200091F850308046B9F1000F3FF473AE40F004
:10C0300002086FE60D4991F900307F2B0FD0029373
:10C0400092F89930019392F8823000937F250D7019
:10C05000FF234232002102F0EBFF03202AE6FFF724
:10C06000B9FD40F6F5413220FCF7DCF91000002064
:10C0700030B5164B93F900407F2C85B024D07F2239
:10C080001A70134B1A6892F87030032B15D092F87F
:10C090007030062B0CBF0325012592F8B130CDE995
:10C0A000024592F88240019492F8994000944232FD
:10C0B00002F0B8FC18B905B030BD0025EDE705B0B9
:10C0C000BDE8304002F036BFFFF784FD10000020CD
:10C0D0000022002010B5104A136893F8701002294E
:10C0E0000FD993F87010082910D893F8703092681F
:10C0F00003F180439268033BBDE8104052F82330BF
:10C10000184741F23D413220FCF78CF941F23E41A3
:10C110003220FCF787F900BF00220020F8B5334C2D
:10C12000236893F8B42005465F2A93F8B2009CBFB9
:10C1300051092F4AC0F3050700F03F0094BF565C39
:10C1400000260DF0EBFC236893F9540083F89970F6
:10C150000DF0D4FCFDB123683246596F01200EF07A
:10C160000DF800283CD0236893F89230022B0CBFC6
:10C170004020FF2031460DF007FB256895F8503030
:10C18000032B10D195F8A8306768A3B138460EF09C
:10C1900087F90120F8BD3246732101200DF0EEFF32
:10C1A0000028E0D1F6E702F019FC256895F8A830E0
:10C1B0000746002BEAD1781D07F026FC236885F896
:10C1C000850093F88530002BE0D016F00C0F14BFDB
:10C1D000552450240CF0B4FE20460EF00DFAD5E79D
:10C1E00040F2EB713220FCF71DF900BF0022002065
:10C1F000BCDD0600F8B53A4E336893F8B4205F2AE8
:10C200009EBF5109374A575C5A6F054688BF0027C1
:10C210002AB10120FFF782FF00285BD03368D86F76
:10C220000EF076F9346894F85030022B31D0032B9D
:10C230000AD0E5B140F20113A4F8A930002384F834
:10C24000B17084F88930F8BD94F89230012BF0D1A8
:10C2500017F00C0F2CD094F85530012B14BF394631
:10C26000042100200EF0EEF93468002DE2D194F89C
:10C270009230022B14D0012B1CD0002BDED103F006
:10C280003BF884F8A90002F035FB84F8AA00346872
:10C29000D4E794F89230022BDAD0002DCAD1EAE725
:10C2A000002384F8B170A4F8A95084F88930F8BD4F
:10C2B0003946D6E794F8B130A3F10203B3FA83F319
:10C2C0005B094FF0000263F3070263F30F22A4F847
:10C2D000A920B3E740F2B4413220FCF7A3F800BF35
:10C2E00000220020BCDD060038B505460C4606F0ED
:10C2F000B9FE420704D4A37803F0E003402B0DD02D
:10C3000006F0B0FE830704D4A37803F0E003202BEB
:10C3100004D0237803F03F03242B01D9002038BD3B
:10C320000DF0F0F994F9003094F802C06278002B17
:10C330000CF01F03ACBF1E214FF4967142EA032399
:10C3400001FB03F31A1AB2F5877FE7D39842E5D8C9
:10C35000054A23881068A0F8B23080F8B4C0294696
:10C36000BDE8384004F0BAB900220020F0B5294EEB
:10C37000326892F88B3087B05BB392F8A8300446ED
:10C3800033B90378002B0CBF0123022382F8A830B5
:10C3900092F87030062BD8B230D0072814BF01278E
:10C3A00002271D4890F900507F2D31D092F8B1300E
:10C3B000CDE9025792F88250019592F89950009574
:10C3C0007F2505704232204602F02CFB20B9022F57
:10C3D00016D1002007B0F0BD607810F0100512D023
:10C3E000A1690220FFF780FF059048B13368002261
:10C3F00083F892200DF066FC0598EBE70327D0E761
:10C4000002F0CAFDE5E702F095FD284607B0F0BD51
:10C41000FFF7E0FB002200201000002010B50446CA
:10C420008AB007F017FD2378174A03F00F03072B94
:10C43000107002D001200AB010BD6946204603F0FA
:10C440004DF89DF8003000220292002BF2D19DF8A9
:10C450000130DB07EED50D4C019923689DF81100E2
:10C4600093F89A20933315F0E7FF0028E2D0206874
:10C4700001218E3015F003FDFF216846FFF776FF9E
:10C480000028D7D00220D6E710000020002200208C
:10C490002DE9F04304468BB007F0DCFC2378474AD3
:10C4A00003F00F03082B107004D0012528460BB0B1
:10C4B000BDE8F0836946204602F0A8FF9DF80050D1
:10C4C000002DF2D19DF8013003F00303032BECD1D2
:10C4D0003B4F3E6896F84930002B36D096F8848062
:10C4E00096F88530002B33D196F89A2001999DF863
:10C4F000110006F1930315F09FFF0028D5D096F8A0
:10C5000086203E6896F841904236002A45D19DF833
:10C510001200029901282ED033464A4615F08CFFAE
:10C520000028C2D0386801218E3015F0A8FC3E6882
:10C5300096F88530002B39D121460120FFF766FAA5
:10C540003868022104F0D4FAB0E796F88180C7E792
:10C5500015F0B6FF08288146C6D086F8820096F806
:10C560009A2001999DF8110006F1930315F064FFDC
:10C57000C145C4D0C1E74B7903F0C003402BCBD1F8
:10C5800033464A4615F058FF0028CBD10299404661
:10C5900007F0E4FA0028C5D187E7404607F018FB0A
:10C5A00000281CBF06464FF00109B0E70EF030F836
:10C5B0000CF0E4FC002386F88530BDE71000002075
:10C5C000002200202DE9F047072984B00E460446DA
:10C5D00017464DD14068002800F08F80637C012B06
:10C5E00000F0BA80DFF80C82D8F8003093F88100B0
:10C5F000082860D002AA0DF1070107F0BFF9002852
:10C6000000F0F0809DF8070002A917F035FB054601
:10C61000D8F80090062E99F849A000F28F80BAF160
:10C62000000F18BF55464B4683F88B50724B1B6862
:10C6300033B139462046984789F88C00D8F80090E5
:10C64000636843B1627C89F89A201A68C9F893201C
:10C650009B88A9F8973099F88C300120002B00F0C6
:10C66000C680A3680BB1072E38D004B0BDE8F087B0
:10C670004568002D00F09080437C012BB2D16B798E
:10C6800003F0C003402BADD1DFF86881D8F800502B
:10C6900095F88530002B7CD015F012FFD8F80030CB
:10C6A00085F8810093F8810083F882000122082830
:10C6B00083F889209ED16168607C17F0DDFAD8F894
:10C6C0000020616805468132607C07F08DF8002803
:10C6D0009ED1D8F80090A9F88B00C2E799F8811094
:10C6E0000829C2D00028C0D0184607F07DF9D8F834
:10C6F0000030012283F88A20B7E7002A52D0DFF801
:10C70000F480D8F8009099F849A0054699F88B3044
:10C71000002B5ED06368002B81D102F0EDFD20B1CB
:10C72000D8F8002092F88B502DB9BAF1000F53D0F1
:10C73000D8F8002055464B46914675E7082E2ED86E
:10C74000002FE3D16368002B7FF469AF6378DB06C9
:10C75000E3D54B46012567E7437903F0C003402B3F
:10C760007FF440AFDFF88C80D8F8005095F8853022
:10C770007BB1002F90D195F8B11001298CD107F031
:10C7800015F985F88500D8F8005095F88530002B0C
:10C7900082D195F881002BE7DFF8588038E74B46C7
:10C7A000002541E7134C2368012583F88B5093F84B
:10C7B000AB30002B3FF459AF2368D3F8AC005030B6
:10C7C00018F002F900287FF450AF236883F88C50EA
:10C7D0004BE71D464B4627E707F000F8D8F8002046
:10C7E0000546A8E740F651313220FBF71BFE99F8C9
:10C7F0008B0036E700220020A00000202DE9F04F3A
:10C80000DFF8FCB0847CDBF8007097F88660012CC0
:10C8100083B0054689469246984686F0010637D091
:10C82000002497F88530224603B397F85030032B45
:10C8300035D06B681BB397F88170082F25D0384628
:10C84000019206F0A9FF019A002818BF0646EAB136
:10C85000DBF8003093F88A30002B46D015F03AFE12
:10C86000DBF800200021034682F88A108AF80030A5
:10C8700089F8004088F8006003B0BDE8F08F0192AD
:10C8800002F03AFD019A002835D17AB90023EDE78C
:10C8900083685B7903F0C003402BC1D1C1E797F8EF
:10C8A0004930002BC5D097F88470C6E7DBF800301C
:10C8B00093F88970002FE9D1A8680193394607F0F1
:10C8C00075F8019B83F88500DBF8003093F885301C
:10C8D000002BCBD0019315F0F3FD08280ED0DBF828
:10C8E0000020019B82F88100C0E7A968384607F064
:10C8F00035F90346BAE7DBF800709CE73B46B5E73D
:10C900000022002008B507F0A5FA024B02461A7073
:10C91000012008BD100000202DE9F0416A4C636839
:10C92000D4F80080002205461A8018460F460DF004
:10C93000B7FD032D31D0052D4BD0606808F1930170
:10C9400015F0F2FF98F89A10606816F001F8236865
:10C9500093F8862093F8417003F142065AB193F898
:10C960005020032A2ED093F8810007F031F90028D7
:10C970001CBF064601276068314615F0C7FF606896
:10C98000394615F0D8FF514BD3F80431002B40F055
:10C990009680052D0BD0BDE8F0816068037823F008
:10C9A0000F0343F0030303700C234370C6E72368AF
:10C9B0003168DA6CC2F80A10B188D181DB6C5F7221
:10C9C000BDE8F08193F84920002ACCD093F8840088
:10C9D000CBE7D4E90006317821F02F0141EA471175
:10C9E00041F00501222331707370C36C1B6AC6F8D5
:10C9F0000F30C26C936BF3741F0A1B0C3775737581
:10CA0000D369B2F8407041F64B518B42D16B3BD9A0
:10CA1000DFF8BCC0ACFB01E1890AACFB07C7BF0A69
:10CA2000F175C1F30721B77531762949A1FB0313CD
:10CA3000C3F38F2373761B0AB376938CF3761B0AAA
:10CA40003377D38C73771B0AB377D2F8CF30C6F81D
:10CA50001F3092F8D33086F82330C36C96F8242028
:10CA600093F8DA3022F01F0203F01F03134386F815
:10CA7000243006F01DFB96F8243003F01F0343EA30
:10CA8000401386F8243058E7DFF848C0ACFB01E1DA
:10CA90004909ACFB07C77F09F175C1F30721B775D9
:10CAA0003176A3F57A7741F270718F42BDD80A4989
:10CAB000A1FB03139B0903F550639BB2BAE740F255
:10CAC00037613220FBF7AEFC00220020001000404E
:10CAD0005917B7D11F85EB51D34D621010B507F030
