:020000022000DC
:10700000C0460020F9AC0200A5420300E5AC020036
:10701000E5AC0200E5AC0200E5AC020000000000B7
:10702000000000000000000000000000ADAE020003
:10703000E5AC02000000000079AE0200E5AC020001
:1070400061B0020061B0020061B0020061B00200F4
:1070500061B0020061B0020061B0020061B00200E4
:1070600061B0020061B0020061B0020061B00200D4
:1070700061B0020061B0020061B0020061B00200C4
:1070800061B0020061B0020061B0020061B00200B4
:1070900061B0020061B0020061B0020061B00200A4
:1070A00061B0020061B0020061B0020061B0020094
:1070B00061B0020061B0020061B0020061B0020084
:1070C00061B0020061B0020061B0020061B0020074
:1070D00061B0020061B0020061B0020061B0020064
:1070E00061B0020061B0020061B0020061B0020054
:1070F00061B0020061B0020061B0020061B0020044
:1071000081F0004102E000BF83F0004330B54FEA58
:1071100041044FEA430594EA050F08BF90EA020FC5
:107120001FBF54EA000C55EA020C7FEA645C7FEA58
:10713000655C00F0E2804FEA5454D4EB5555B8BF7B
:107140006D420CDD2C4480EA020281EA030382EAEC
:10715000000083EA010180EA020281EA0303362D7E
:1071600088BF30BD11F0004F4FEA01314FF4801C51
:107170004CEA113102D0404261EB410113F0004F63
:107180004FEA03334CEA133302D0524263EB43031A
:1071900094EA050F00F0A780A4F10104D5F1200EB8
:1071A0000DDB02FA0EFC22FA05F2801841F1000113
:1071B00003FA0EF2801843FA05F359410EE0A5F1E7
:1071C00020050EF1200E012A03FA0EFC28BF4CF018
:1071D000020C43FA05F3C01851EBE37101F00045CE
:1071E00007D54FF0000EDCF1000C7EEB00006EEBDB
:1071F0000101B1F5801F1BD3B1F5001F0CD3490865
:107200005FEA30004FEA3C0C04F101044FEA4452BB
:1072100012F5800F80F09A80BCF1004F08BF5FEA42
:10722000500C50F1000041EB045141EA050130BD22
:107230005FEA4C0C404141EB0101013C28BFB1F534
:10724000801FE9D291F0000F04BF01460020B1FA7F
:1072500081F308BF2033A3F10B03B3F120020CDA52
:107260000C3208DD02F1140CC2F10C0201FA0CF030
:1072700021FA02F10CE002F11402D8BFC2F1200C95
:1072800001FA02F120FA0CFCDCBF41EA0C0190404B
:10729000E41AA2BF01EB0451294330BD6FEA040494
:1072A0001F3C1CDA0C340EDC04F11404C4F120027F
:1072B00020FA04F001FA02F340EA030021FA04F391
:1072C00045EA030130BDC4F10C04C4F1200220FAE8
:1072D00002F001FA04F340EA0300294630BD21FA26
:1072E00004F0294630BD94F0000F83F4801306BFEC
:1072F00081F480110134013D4EE77FEA645C18BFE0
:107300007FEA655C29D094EA050F08BF90EA020F76
:1073100005D054EA000C04BF1946104630BD91EA6E
:10732000030F1EBF0021002030BD5FEA545C05D171
:107330004000494128BF41F0004130BD14F58004B0
:107340003CBF01F5801130BD01F0004545F0FE4124
:1073500041F470014FF0000030BD7FEA645C1ABF59
:10736000194610467FEA655C1CBF0B46024650EA90
:10737000013406BF52EA033591EA030F41F40021BC
:1073800030BD00BF90F0000F04BF0021704730B542
:107390004FF4806404F132044FF000054FF0000117
:1073A00050E700BF90F0000F04BF0021704730B5D8
:1073B0004FF4806404F1320410F0004548BF4042AD
:1073C0004FF000013EE700BF42004FEAE2014FEA02
:1073D00031014FEA02701FBF12F07F4393F07F4FDD
:1073E00081F06051704732F07F4208BF704793F0E0
:1073F0007F4F04BF41F40021704730B54FF46074F3
:1074000001F0004521F000411CE700BF50EA0102F5
:1074100008BF704730B54FF000050AE050EA01029E
:1074200008BF704730B511F0004502D5404261EB0E
:1074300041014FF4806404F132045FEA915C3FF44F
:10744000D8AE4FF003025FEADC0C18BF03325FEAEC
:10745000DC0C18BF033202EBDC02C2F1200300FA9D
:1074600003FC20FA02F001FA03FE40EA0E0021FAC2
:1074700002F11444BDE600BF70B54FF0FF0C4CF4B0
:10748000E06C1CEA11541DBF1CEA135594EA0C0F62
:1074900095EA0C0F00F0DEF82C4481EA030621EA9D
:1074A0004C5123EA4C5350EA013518BF52EA0335D8
:1074B00041F4801143F4801338D0A0FB02CE4FF08A
:1074C0000005E1FB02E506F00042E0FB03E54FF0BA
:1074D0000006E1FB03569CF0000F18BF4EF0010EB2
:1074E000A4F1FF04B6F5007F64F5407404D25FEAAE
:1074F0004E0E6D4146EB060642EAC62141EA555161
:107500004FEAC52040EA5E504FEACE2EB4F1FD0CA2
:1075100088BFBCF5E06F1ED8BEF1004F08BF5FEA20
:10752000500E50F1000041EB045170BD06F00046D2
:1075300046EA010140EA020081EA0301B4EB5C047F
:10754000C2BFD4EB0C0541EA045170BD41F4801177
:107550004FF0000E013C00F3AB8014F1360FDEBF9C
:10756000002001F0004170BDC4F10004203C35DA78
:107570000C341BDC04F11404C4F1200500FA05F3FB
:1075800020FA04F001FA05F240EA020001F000429C
:1075900021F0004110EBD37021FA04F642EB060112
:1075A0005EEA430E08BF20EAD37070BDC4F10C043C
:1075B000C4F1200500FA04F320FA05F001FA04F200
:1075C00040EA020001F0004110EBD37041F10001EC
:1075D0005EEA430E08BF20EAD37070BDC4F12005F7
:1075E00000FA05F24EEA020E20FA04F301FA05F25F
:1075F00043EA020321FA04F001F0004121FA04F207
:1076000020EA020000EBD3705EEA430E08BF20EAD6
:10761000D37070BD94F0000F0FD101F00046400010
:1076200041EB010111F4801F08BF013CF7D041EA92
:10763000060195F0000F18BF704703F00046520096
:1076400043EB030313F4801F08BF013DF7D043EA67
:107650000603704794EA0C0F0CEA135518BF95EA1D
:107660000C0F0CD050EA410618BF52EA4306D1D1A4
:1076700081EA030101F000414FF0000070BD50EAC3
:10768000410606BF1046194652EA430619D094EA4D
:107690000C0F02D150EA013613D195EA0C0F05D137
:1076A00052EA03361CBF104619460AD181EA03018B
:1076B00001F0004141F0FE4141F470014FF0000043
:1076C00070BD41F0FE4141F4780170BD70B54FF0DE
:1076D000FF0C4CF4E06C1CEA11541DBF1CEA13555E
:1076E00094EA0C0F95EA0C0F00F0A7F8A4EB050440
:1076F00081EA030E52EA03354FEA013100F0888037
:107700004FEA03334FF0805545EA131343EA1263FF
:107710004FEA022245EA111545EA10654FEA0026B4
:107720000EF000419D4208BF964244F1FD0404F56D
:10773000407402D25B084FEA3202B61A65EB0305C9
:107740005B084FEA32024FF480104FF4002CB6EB86
:10775000020E75EB030E22BFB61A754640EA0C0006
:107760005B084FEA3202B6EB020E75EB030E22BF46
:10777000B61A754640EA5C005B084FEA3202B6EB87
:10778000020E75EB030E22BFB61A754640EA9C0046
:107790005B084FEA3202B6EB020E75EB030E22BF16
:1077A000B61A754640EADC0055EA060E18D04FEAD4
:1077B000051545EA16754FEA06164FEAC30343EA74
:1077C00052734FEAC2025FEA1C1CC0D111F4801F41
:1077D0000BD141EA00014FF000004FF0004CB6E73A
:1077E00011F4801F04BF01430020B4F1FD0C88BFD9
:1077F000BCF5E06F3FF6AFAEB5EB030C04BFB6EBE4
:10780000020C5FEA500C50F1000041EB045170BDD6
:107810000EF0004E4EEA113114EB5C04C2BFD4EB03
:107820000C0541EA045170BD41F480114FF0000E87
:10783000013C90E645EA060E8DE60CEA135594EA03
:107840000C0F08BF95EA0C0F3FF43BAF94EA0C0F06
:107850000AD150EA01347FF434AF95EA0C0F7FF47B
:1078600025AF104619462CE795EA0C0F06D152EACF
:1078700003353FF4FDAE1046194622E750EA4106B3
:1078800018BF52EA43067FF4C5AE50EA41047FF4C4
:107890000DAF52EA43057FF4EBAE12E77BB972B944
:1078A0000029BEBF00204FF0004106E008BF0028BD
:1078B0001CBF6FF000414FF0FF3000F057B8ADF142
:1078C000080C6DE904CE002909DB002B1ADB00F05F
:1078D0004FF8DDF804E0DDE9022304B070474042D0
:1078E00061EB4101002B1BDB00F042F8DDF804E006
:1078F000DDE9022304B0404261EB4101524263EBF7
:1079000043037047524263EB430300F031F8DDF864
:1079100004E0DDE9022304B0404261EB410170471D
:10792000524263EB430300F023F8DDF804E0DDE9A5
:10793000022304B0524263EB4303704753B94AB980
:10794000002908BF00281CBF4FF0FF314FF0FF3067
:1079500000F00CB8ADF1080C6DE904CE00F008F8A9
:10796000DDF804E0DDE9022304B07047704700BF92
:107970002DE9F04786468C460846089E1546744613
:107980001946002B40F0C2808542B2FA82F245D9F6
:107990004AB1C2F1200300FA02FC2EFA03F395402B
:1079A00043EA0C0C94404FEA154EA8B2BCFBFEF81B
:1079B000230C0EFB18CC08FB00F943EA0C43994555
:1079C00028D9EB1808F1FF3704D2994502D9A8F15C
:1079D00002072B44A3EB0903A4B2B3FBFEFC0EFB8E
:1079E0001C330CFB00F044EA0344A04214D92C19C8
:1079F0000CF1FF3304D2A04202D9ACF102032C44B3
:107A0000241A43EA07401EB1D44000233460736057
:107A1000BDE8F0874746DDE76346F1E792BB431BCD
:107A200001214FEA154EAFB2B3FBFEFC200C0EFB5A
:107A30001C330CFB07F840EA0343984562D9EB1866
:107A40000CF1FF3004D2984502D9ACF102002B446E
:107A5000A3EB0803A4B2B3FBFEFC0EFB1C330CFB30
:107A600007F744EA0344A7424ED92C190CF1FF331F
:107A700004D2A74202D9ACF102032C44E41B43EA2E
:107A80000040C0E7C2F1200320FA03F19540904086
:107A90002EFA03F303434FEA154EAFB2B1FBFEFCDF
:107AA0000EFB1C10190C0CFB07F841EA004188453D
:107AB00004FA02F422D969180CF1FF3004D2884587
:107AC00002D9ACF102002944A1EB08019BB2B1FB41
:107AD000FEFC0EFB1C110CFB07F743EA01439F421F
:107AE0000ED9EB180CF1FF3104D29F4202D9ACF150
:107AF00002012B44DB1B41EA004192E76046E3E7C9
:107B00006146F7E76046A3E76346B7E7834206D9D5
:107B100016B9002108467BE7C6E900E0F9E7B3FAA9
:107B200083F78FB9834201D3724508D8BEEB0204B4
:107B300060EB030301209C461EB9002168E738462C
:107B4000FAE7C6E9004CF8E7C7F1200CBB4022FA7F
:107B50000CF41C432EFA0CF120FA0CF3B84001434C
:107B60004FEA14490EFA07F5B3FBF9F81FFA84FE41
:107B700009FB18300B0C08FB0EFA43EA00439A4548
:107B800002FA07F240D9E31808F1FF3004D29A450F
:107B900002D9A8F102002344A3EB0A0389B2B3FB84
:107BA000F9F809FB183308FB0EFE41EA03418E4544
:107BB0002CD9611808F1FF3304D28E4502D9A8F1FF
:107BC0000203214443EA0040A0FB0298A1EB0E010E
:107BD0004145CE46434602D306D14D4504D2B9EBCA
:107BE000020E68EB04030138002EA6D0B5EB0E029E
:107BF00061EB030101FA0CFC22FA07F34CEA0303E0
:107C0000F940C6E9003198E74046C5E74346D9E761
:107C1000034613F8012B002AFBD1181A01387047CC
:107C20002DE9F04F83B0044600AFD0E90001FFF723
:107C3000F5FB21A3D3E90023FFF748FD0022002331
:107C4000FFF764FA82468B46D4E90201FFF7E6FBB0
:107C500019A3D3E90023FFF739FD00220023FFF722
:107C600055FAE38D7B608046606994F82C6094F847
:107C70002D508946FFF786FB00220023FFF746FAC6
:107C800090B06A460E4B53617B6813630C23C2E9C4
:107C900006ABC2E90889C2E90A65C2E90E0142F8E9
:107CA000103F0848002346F2C00100F0B9FF0C372E
:107CB000BD46BDE8F08F00BF0000000065CDCD419E
:107CC00018720300446A030091F8283008460BB18B
:107CD000FFF7A6BF024A034803210CF02AB900BFF0
:107CE0006E720300446A030038B50C480DF0F2FED2
:107CF00060B10B4D0B4C00214FF4804009F050FB5C
:107D000003212A4620460CF014F9F4E7064A0548F8
:107D100001210CF00EF94FF0FF3038BDA0680300D0
:107D20008E720300446A0300757203002DE9F04F60
:107D300091B08407009302F004030293C2F3C203DC
:107D400003F10103DDF86890039205460E460593A2
:107D500040F0BA81041D30B1072909D86FF01B002B
:107D600011B0BDE8F08F01F00706341DC6F108061A
:107D7000009B4FF00008591E4FF0040A4FF0FF33EC
:107D80000193CDF810804746C34653460DB1009A83
:107D900022600598002800F3E8809848009A824203
:107DA00003D397488242C0F0E080039AA4EB050E0B
:107DB00092074FEA9E0000F103810F2F00F2B1807D
:107DC000002D00F0058107F140020DEB020C019A35
:107DD0000CF8200C0CF8102C049801300490E7E00B
:107DE0007A285DD84B280ED8472859D829282DD86D
:107DF000252852D054D820287AD02338D0F1000B2F
:107E00004BEB000B74E04C382E2849D8DFE800F02B
:107E10007048484848484848484848484B484848B7
:107E2000484848484859484B4B595959704B6D4838
:107E30007048184B184848827F4B48484B487F0091
:107E400000204FF0000B4FF0040A38E02A38C0B28F
:107E5000012202FA00F010EA0E0F49D110F0625C24
:107E60002FD110EA020B43D06046013C5444B4FBCE
:107E7000FAF40AFB04F4002D61D0A3EB050CA44432
:107E8000B4453FF66BAF002868D1042B47D159F8B1
:107E9000043B2360043404232AE0019A013A01924E
:107EA0004FF0000B24E011F8010C6C2834D111F8CC
:107EB000023C00206C2B8346C5D14FF0080A534684
:107EC000D3E709F1070929F007090734F9E802ABFC
:107ED00024F0070435B106982044B0423FF63EAF87
:107EE000C4E900AB08344FF0000B4FF0080A5346CA
:107EF00011F8010F002878D0BBF1000F7FF470AFAC
:107F00002528F5D1019B013301934FF0010B4FF070
:107F1000040AECE7584694E700208346A5E7082BBF
:107F200002D06FF015001BE709F1070929F00709D6
:107F3000F9E80223C4E9002308340823D8E768B924
:107F4000042B02D109F10409A4E7082BE9D109F1B6
:107F5000070929F0070909F10809EDE7059A013A2F
:107F6000059259F8042B009210E7039A900720D548
:107F7000A4EB050E4FEA9E004FF0010CBEF5007F0A
:107F8000CFD20F2FCDD8F5B107F140020DEB020E85
:107F9000C0B2019A0EF8200C0EF8102CBCF1000FA4
:107FA0003FF41AAF60F07F000EF8200C08F10108D2
:107FB0000137C5F10802043406924FF6DA7E97E7DE
:107FC0004FF0000CDAE7BCF1000F01D00136EFE70B
:107FD000029802360028EBD10098CDE90631FFF770
:107FE00017FEDDE906310644E2E7631BB3F5806F57
:107FF00097D23DB9A6F10804E018B1E6A4670300E2
:10800000BC830300029A28609B082B709DF81030F7
:10801000C2B1EB7085F80280B8F1000F05D008A856
:108020000022C5F1010C97420ED1C5F101030DF1FB
:1080300020094FF0000A01930DF1300B574512D182
:10804000601B8DE66B70E5E710F8013B190608D55B
:1080500004EB0C0EB64503F07F033FF67FAE04F849
:10806000013B0132DFE7B8F1000F03D099F900209E
:10807000002A17DB029BD3B11AF80B2004F8012B5E
:108080000022019B98182044B0423FF667AE99F851
:10809000000004F8010B0099039220460EF09CFAB0
:1080A000039A14440AF1010A09F10109C6E799F893
:1080B000002055F822300093029B45F822300098AA
:1080C000FFF7A6FD421CDCE76FF00D0048E600BF9D
:1080D0002DE9F04F97B000AF90F802A0D7F880B02C
:1080E0003B62CBF3C0030446FA62BB61894641B9E7
:1080F000457800780AEB800020444D4517D8A0EB66
:108100000409E378FB61BAF1000F02D01BF0010F04
:1081100016D1FB6953BBFB6A1BB13A6A494620463C
:1081200098474D4628465C37BD46BDE8F08F461C53
:108130003046FFF76DFD0130304409F10109DCE7FD
:10814000237862687A62FA6A9900796104EB8301A4
:10815000002A40F000814D460E4601EB0A094FF01F
:1081600000084E454CD101EB0A0610E01BF0020F4F
:10817000D1D023789A007A6162687A62FA6A04EB55
:108180008301002A77D14D4601EB0A0690461BF089
:10819000050F0CBF02230123FB62FB6906EB430AB8
:1081A0000BF00203BB625645BCD016F8021B16F852
:1081B000013C54F82390AF4B994502D3AE4B9945FF
:1081C00036D3BB69002B40D0786A0BF0B8F9002891
:1081D0003BD0E9468AB06A46A84B53617B6AC2E944
:1081E00006314FF400731384A54B42F8103FA548A5
:1081F00000234FF4125100F013FD023DCD46D2E7AB
:1082000016F8013BF96254F82300FFF701FDD7F897
:108210008430F96A01304BB1D7F8883098453EBFB9
:10822000D7F8843023F8180008F10108054498E7CE
:10823000BB6923B1786A0BF082F90028C9D11BF021
:10824000010F05D1FB6AED1AADE7BB6A002BAAD07E
:108250004846FFF7DDFCD7F8843053B1D7F88830B3
:1082600098453FBFD7F88420431C22F8183008F106
:108270000108054497E7BAF1000F72D01BF004061D
:1082800072D0D046002607F1480052463B61B962E1
:108290000EF0A2F9B96A3B6901EB0A02BA62FA6907
:1082A000F9695200FA60BA6A02EB41023A610BF0D6
:1082B0000202BA603A69B96A8A4257D162787A6230
:1082C0001BF0020F32440CBF4FEA580100211BF093
:1082D000010FD2B240F09F801BF0040F14BF404644
:1082E0000020BB616270A070E1703A6A7969FB6A34
:1082F00020469847051EFFF615AFBB6923707B6AC1
:108300006370FB69E37041463A6AFB6A84F802A035
:1083100007F148009847B0F10008C0F2B5807B69CA
:108320003A6AA9EB0A01C91AFB68C91AD7E90A0314
:1083300098470028C0F2AA80A84408EB00054FF037
:10834000000B07F1380AB34567D300213A6AFB6A8C
:1083500008469847E6E656464FF0000807F1380011
:1083600093E75646D04697E7B04695E7BA6A12F8C3
:10837000021BBA6212F8015C3E4A54F82500904292
:1083800002D33D4A90421ED3BA6932B1786A7B600B
:108390000BF0D5F87B6800288CD1BA6802BB08F1D5
:1083A000280207F1300C08F10100944407F158024B
:1083B00052FA80F008F102080CF8101C5FFA88F8F5
:1083C00000F8105C76E7BA693AB1786A7B600BF026
:1083D000B6F87B6800287FF46DAF1BF0010F09D061
:1083E00006F1280207F13000711C161806F8205C0F
:1083F000CEB25FE71BF0040F3FF45CAF08F1280238
:1084000007F1300008F1010102EB000808F8105CE8
:108410005FFA81F84EE7002063E71BF80A3087F81F
:10842000373054F82390D7F88430FBB133F81B80F1
:108430003A6AFB6A012107F137009847002825DBDB
:108440000544B8F1000F06D14846FFF7E1FB00F103
:1084500001081FFA88F83A6AFB6A4146484698477D
:10846000002813DB05440BF1010B6CE7D7F884807F
:10847000DEE700BFA4670300BC8303009C72030017
:1084800004000001346A030045464BE6054649E610
:10849000014B1860704700BF180C002080B50546DE
:1084A0000E461746984608F0B7FF03460EF070F9DF
:1084B000DFF81890044649F8003042463046394605
:1084C000A84754F8090002F085FC00BF080000002E
:1084D0002DE9F047058B04462807904611D4022960
:1084E00005F0070540F0CC8020460BF0C9FA78B1C2
:1084F0000138218B042811D8DFE800F0C2106D8507
:10850000950001290CBF45F0100545F02005258395
:1085100088F31188BFF36F8FBDE8F08701F0070A79
:10852000AA4500F0A5800027B9463E46A368002B67
:1085300000F0BC8041F00801218388F31188BFF36B
:108540006F8FA168002900F0BA800D68002900F043
:10855000B680D1F80480334652462046C047002DED
:1085600076D02B6829461D46F0E701F007035A1F15
:10857000012A1BD8002221F00701062B276889B2A7
:10858000C4E9002209D13B4603E0628B01326283D9
:108590001B68002BF9D141F00201218320460BF02A
:1085A0006FFA00287AD041F0200176E0042B0AD13E
:1085B00021F0070189B2218320460BF061FA10B146
:1085C00041F020012183218B01F0070AAA454FD0F9
:1085D0000027B946AAE7236921F0070141F0060107
:1085E000062DD3F8009021832DD1B9F1000F3FD093
:1085F00041F00801218388F31188BFF36F8F3A4956
:108600002046C84729E021F00701236941F0040111
:1086100089B2042DD3F804902183E6D000273E468A
:108620004FF0040A82E721F00701236941F00501B8
:1086300089B2052DD3F808902183D6D000273E4675
:108640004FF0050A72E700273E464FF0060A6DE735
:108650002B4687E7B9F1000FD1D1EFF31188202322
:1086600083F31288BFF36F8F238B23F008032383D8
:10867000258BEA062ED525F01003238305F0070588
:108680006669218B002EBFF670AF00232768C4E90E
:10869000003321F0070141F001012183218B01F01A
:1086A000070AAA454FF000097FF440AF002F9CD085
:1086B00041F00801218388F31188BFF36F8F002FE9
:1086C000C8D03D6839463346524620460BF004FA7E
:1086D0002F46F4E7AB067FF51BAF25F0200323837D
:1086E00005F0070500E700BF053B03002DE9F04753
:1086F000DFF85880044607464FF0010914B93846A0
:10870000BDE8F08794FAA4F5B5FA85F509FA05F302
:108710002E0108EB05156FEA030A24EA03042B7BFC
:10872000002BEBD058F806301B694BB946440422A5
:1087300073682846196807EA0A0700F05DFADDE762
:10874000284698470028D9D1F0E700BFDC6A03002B
:1087500030B51049104889B000220DF070FD0F4D62
:108760000F4900220023CDE9062300240E23CDE982
:108770000334CDE901440B4B00944FF4407228467A
:1087800008F060FB084928460DF0BDFB204609B003
:1087900030BD00BFAD8702009014002008100020FB
:1087A000402D00209D8A020050730300014808F00C
:1087B00093B800BF100F00202DE9F04780461F48F6
:1087C0000F460BF030FB0646002830D00025284627
:1087D000BDE8F087237B6BB12368DB680BB12046D3
:1087E000984723681B69D3B9636804221968204637
:1087F00000F002FA013610344C45EBD3B8F1000F0B
:10880000E5D0002DE2D02846FFF770FF0546002F87
:10881000F7D000214FF4A47008F0C2FDF1E7204624
:1088200098470028E0D00AFA06F31D43E2E7044C1B
:10883000DFF8109005464FF0010ADDE778180020B8
:10884000DC6A0300EC6A0300014B53F82000704718
:10885000CC6D030008B5034608462BB1044A1360EB
:1088600000F06AFC002008BD6FF01500FBE700BFB8
:108870001C0C002010B5044C237813B9034808F0F1
:108880002BF80123237010BDF62C0020100F0020C0
:1088900010B5044608480BF0C6FA5CB1BFF35B8F15
:1088A000064B53E8001F013943E80012002AF8D1B3
:1088B000BFF35B8F10BD00BF70180020741800203C
:1088C0000020064BBFF35B8F014653E8000F43E8DF
:1088D0000012002AF9D1BFF35B8F70477018002097
:1088E00070B5FFF7EDFF084C084E0546B44200D3C3
:1088F00070BD63685B792BB123685B6813B129464F
:10890000204698471034F1E7DC6A0300EC6A030064
:1089100010B5044C044920460AF03FFF034B1C608D
:1089200010BD00BF440E0020B86D03006818002081
:10893000084A094808B500231370084A1360084A1A
:108940004FF400411360FFF785FFBDE80840FFF7D3
:10895000DFBF00BFF72C0020233E0300701800206B
:108960007418002001460022014800230AF036BF97
:10897000440E002001480AF0CCBF00BF440E002086
:10898000024B014618680BF018B800BF68180020A9
:1089900001480BF04DB800BF440E002070B5284BC5
:1089A000187800284BD0FFF7E5FF054690B1BFF3DC
:1089B0005B8F244B53E8001F013943E80012002A63
:1089C000F8D1BFF35B8F204C204EB4422DD3284604
:1089D000FFF7D6FF1E4B1F4C1B68002B19DD0DF057
:1089E000E7FB4FF47A72A0FB020302FB0131C30BD9
:1089F000D4E9002043EA41439B1A4FEAD13140F2C7
:108A0000E93261EB0001934271F1000101D3FFF7FC
:108A100067FFD4E9003213F57A7342F10002C4E92A
:108A20000032BDE87040FFF7B3BF63685B7923B1E4
:108A3000236829461B68204698471034C5E770BD57
:108A4000F62C002074180020DC6A0300EC6A030096
:108A5000701800208814002070B50D4D297861B978
:108A60000120FFF7A9FE0B4C0B4EB44206D3FFF7D3
:108A700095FF0028FBD101232B7070BD63685B79E3
:108A80001BB1236820469B6898471034EDE700BF70
:108A9000F72C0020DC6A0300EC6A030000212DE9BA
:108AA000F0470846FFF788FE044658B340F267686F
:108AB0004FF000090DF06CFE1B4B1C4A1B58136055
:108AC00033B11B4B1B68092B02DD1A4807F004FF6A
:108AD000194FDFF860A0002544B12046FFF706FEDD
:108AE000044618B94FF0FF384FF0FF39FFF756FF33
:108AF000064628B9B5B942464B46504607F010FF26
:108B00003546E9E74FF0FF384FF0FF39D2E72B68E1
:108B10009B691BB100221146284698471035BD427B
:108B2000F5D3E8E7054DFAE7080000006C180020CF
:108B300074180020100F0020EC6A0300DC6A0300A8
:108B400013B518480BF06FF9174B1B7873B1EFF39F
:108B50001184202383F31288BFF36F8FFFF71EFF6A
:108B600084F31188BFF36F8F02B010BD0F4B1B68E9
:108B7000002BF9D050B900220023CDE900230C4886
:108B80004FF40042002308F0AFFEEDE70928EBD1D7
:108B900007480DF060FB074802B0BDE8104007F041
:108BA0009BBE00BF74180020F72C00206C1800201A
:108BB00090140020100F002010B5064B1B680446CF
:108BC00098472146A06004480AF084FEBDE81040A2
:108BD000FFF7B6BF1C0C0020440E0020044A054BD2
:108BE0009B1AB1EBD30F34BF52F83100002070470D
:108BF000346A0300DC6A0300084BC31A10B41B116B
:108C000044680133237143689A714368196043686B
:108C100001225A7110BCFFF72DBE00BFDC6A0300B1
:108C20002DE9F04F8FB004AFC1F34A28B8600D466C
:108C300091467B600C0DB8F1000F63D0002607F160
:108C400014034FF0040B4FF00A0AC7F80C80C7E971
:108C500007667E620193CDF808B0CDF800A007F159
:108C60001C03F96832464846FFF732FAB0F5006F48
:108C700003461CD36C468AB0D9F8041004AB2648CE
:108C8000C3E9050140F2FF71D9611A464FF4007142
:108C90001984224B42F8103F214833464FF41251B9
:108CA000FFF7BEFFA5462C37BD46BDE8F08FC0F3E9
:108CB0000A0804F11700184420F0070080083B6000
:108CC000FFF750FE68F35325044690B13B68154A00
:108CD000C7E9083600F1100107F11403F961CDE985
:108CE00000A3CDF808B0F96807F11C034846FFF768
:108CF000EFF968F353257B68B9682A4620460BF0E4
:108D0000C8F8D0E704F1170020F007008008FFF74B
:108D100029FE0446EDE700BF65730300040000016F
:108D20004C6A0300673E03002DE9F04F87B0DDE990
:108D30001269DDE9105A04460F4693469846A6B3D9
:108D40001021CDF80090334652460020CDF8149003
:108D5000FEF7ECFF014605F117000844144B0391A0
:108D600004F007040BF0070BE40020F0070003EA0F
:108D7000412344EA8B1480081C43FFF7F3FD44EAC7
:108D80000554054640B13EB10399CDF800903346F5
:108D900052461030FEF7CAFF43462246394628465F
:108DA00007B0BDE8F04F0BF074B83146D3E700BF11
:108DB00000FE0F00406820B1034BC01A40F3CF0003
:108DC00070474FF0FF307047346A03000EB403B5AC
:108DD00003AB014653F8042B0448019302F0DAFA7E
:108DE00002B05DF804EB03B0704700BFA73F03007B
:108DF000CA0605D48B064CBF02490349FFF7E6BFFC
:108E0000704700BFA5730300A47303002DE9F04F62
:108E100089B09B46149B06939DF84CA0159B059327
:108E2000169B179E049304460D469046BAF1000F18
:108E300000F09D8006F4807307930BF012F806F0A3
:108E40000209024600283ED091492046FFF7BEFFA6
:108E50000746B9F1000F08D016F0440F35D18D49FF
:108E60002A462046FFF7B2FF074406F0010353B13C
:108E7000894B8A4953F82A20894B2046002A08BF8B
:108E80001A46FFF7A3FF06F48073002B49D006F0C3
:108E90000803002B63D1B8F1000F66D08149424628
:108EA0002046FFF793FF0546069B3D44002B6DD1FE
:108EB000049B002B73D1F30700F1E4803146204678
:108EC000FFF796FFD8E00746C3E7774B18680028FE
:108ED000CAD0764B4FF47A791B68B5FBF3F54FF4A3
:108EE0006161B5FBF0F300FB135509FB05F54FF08D
:108EF0003C0CB3FBF1F201FB1231B5FBF0FEB1FB10
:108F0000FCF300FB1E550CFB131109FB05F500914A
:108F1000B5FBF0F56649CDE901E52046FFF756FFC0
:108F2000A2E706F00803EBB1624B634953F82A202D
:108F30002046FFF74BFF0546B8F1000F05D0594911
:108F400042462046FFF742FF0544BBF1000FABD07D
:108F50005A495A462046FFF739FF0544A4E74FF027
:108F6000000BE1E706F00805E6E745469CE7BBF1A4
:108F7000010F069B06D1002B64D1049B002B7BD0F4
:108F800000250CE0002BF8D04D485CE04D48069BD6
:108F90004D4922460AF0A2FA049B002B68D0DFF864
:108FA0002C81DFF82C91049F3146102F204628BFDA
:108FB0001027FFF71DFF4FF0000B5D4545DC059BBB
:108FC00049461A782046FFF701FF4FF0010B1BF0CE
:108FD000070F03D141462046FFF7F8FE5F453BD916
:108FE000059B494613F80B202046FFF7EFFE0BF1D7
:108FF000010BBBF1100FEAD1364920464FF0000BB0
:10900000FFF7E4FE5A46059B9A5CA2F120015F2916
:1090100028BF2E2230492046FFF7D8FE0BF1010B66
:10902000BBF1100F1DD01BF0070F03D141462046A6
:10903000FFF7CCFE5F455A46E5D841462046FFF78C
:10904000C5FEEBE71F485546A1E741462046FFF71E
:10905000BDFE0BF1010BB0E720492046FFF7B6FE3D
:10906000C5E7059B3B440593049BDB1B04939AD106
:10907000BAF1000F7FF41FAF204609B0BDE8F04FF2
:109080000AF084BF064A05492046FFF79FFE15E710
:10909000AC730300B0730300DC6D0300D5730300F1
:1090A000A7730300D8730300801800207C180020E9
:1090B000B9730300F06D0300DC730300E273030077
:1090C000DD3F0300A73F030095B30200EF730300E9
:1090D000E7730300F1730300F3730300ED73030000
:1090E00073B542F20F738B4228BF0B4605680F4AD7
:1090F00004460521684608F06DFE63680C495B680C
:1091000006460B2228460AF033FF6368324669465A
:1091100028465B680AF02CFF636806495B681B22DF
:1091200028460AF025FF02B070BD00BF448003004E
:1091300012740300F6730300074A002101239042D2
:1091400006D8064A01B901231360054B1860704721
:1091500040085B000121F2E740420F007C1800202C
:1091600080180020F8B5074F0D4604464618B44253
:1091700001D12846F8BD14F8011BBB6801489B6A61
:109180009847F4E778680300014B036000207047BC
:10919000386E0300F0B40C4B0C4E5F6A0C4BB342BC
:1091A00003D36FF08500F0BC70475D68BD4209D302
:1091B0001C693CB195F802C00579AC4502D1234643
:1091C000F0BC18472433EAE7A81800200810002054
:1091D000E40F00202DE9F047134CDFF85080DFF852
:1091E000509005460E461746444503D36FF0850060
:1091F000BDE8F0876268D9F824309A4212D3A36997
:1092000083B190782979884205D13A46314628467B
:10921000BDE8F04718475279012A03D13A46314652
:10922000284698472434DFE7E40F00200810002088
:10923000A81800202DE9F0410B4CDFF830800546DE
:109240000E461746444502D36FF0850009E0636976
:109250000BB92434F6E73A463146284698470028A9
:10926000F7D1BDE8F08100BFE40F00200810002016
:10927000024B00221A605A60704700BF6319002039
:1092800070B50B4B0B4CA34201D3002070BD196A83
:109290001E7F00220439D5B2AE4201D82433F2E752
:1092A000013211F832508542F5D10120EEE700BFBE
:1092B000E40F00200810002008B5044A03460121ED
:1092C00003480AF0F6FE002008BD00BF58740300F2
:1092D000C46A030038B505460BF0F1FC10F1780FB5
:1092E000044611D10D4A0E482B4602210AF0E1FE38
:1092F00028460AF0E0FE0B4AD2F8C43023EA000305
:10930000C2F8C430002407E00028F1D0064A04481F
:109310002B4601210AF0CDFE204638BD73740300B0
:10932000C46A0300A81800209474030008B5094813
:109330000378C3F341130A3350F823303BB100F1F3
:10934000080200F110019847C043C00F08BD18463D
:10935000FCE700BFA818002004282DE9F74FDFF82C
:109360009C9004460F4615D001282FD1DFF890803D
:1093700098F8B93053B300F0E7FE224D4D4522D2A4
:109380002A6A4FF0000A2B7F5FFA8AF6B34204D8AC
:109390002435F3E7FFF76CFFE8E702EBC60601921E
:1093A00030790BF08CFC834630790AF084FED8F8D3
:1093B000C430019A23EA0003BBF1000FC8F8C4309F
:1093C0000AF1010ADFDA002388F8B9300D4D4D4566
:1093D00008D30B4B1B6A6BB13946204603B0BDE87E
:1093E000F04F1847EB681BB13A462146284698478C
:1093F0002435ECE703B0BDE8F08F00BF0810002073
:10940000A8180020E40F002073B5C4B263060D460F
:109410008DF8074007D02046FFF732FFB0B1144B5C
:1094200093F8BA0090B1124E23468DB1114A1248FA
:1094300003210AF03EFE9DF8070003F02BFBF369C1
:109440001BB10DF1070108209847012002B070BD43
:109450000A4A094803210AF02CFE9DF8070003F090
:109460004BFBF369002BF0D00DF107010920EBE76E
:10947000A8180020B6740300C46A0300C97403006E
:1094800073B5044680788DF8000023796279294D00
:1094900043EA0223ADF80230E37803F003038DF8CA
:1094A00004300AF008FED5F8C430184206460CD045
:1094B000A478204600F02AFE2046FFF70BFF0CF0B0
:1094C0001CFD10B9962007F089FF684603F0B4FA36
:1094D00010F1780F9DF800301BD1174A1748022170
:1094E0000AF0E7FD9DF8000003F042FB10F1780F51
:1094F00019D19DF80030124A104802210AF0D9FD16
:10950000D5F8C4300120334385F8B900C5F8C4301C
:1095100007E00028E6D00B4A084801210AF0C9FDFF
:10952000002002B070BD0028EAD09DF80030064A45
:10953000F2E700BFA8180020DE740300C46A03002D
:109540002575030001750300457503002DE9F047FB
:10955000A34EB36904460F461546FBB9237803F0C2
:109560001F03012B00F09D80022B00F0048133BB10
:1095700094F900002A686178002834DA062912D0AC
:1095800008292BD0D9B901231370517096F8C33034
:109590005B0043F00103137002232AE1984700287F
:1095A000DCD100200DE06288100A011F01298446E9
:1095B00005D9072803D8716AD2B20C781CB96FF0AC
:1095C0001500BDE8F0874E78664503D19A4200F059
:1095D0000B8101332144F0E70B780AE196F8BA30A9
:1095E0001370012305E101390829E8D801A353F8D4
:1095F00021F000BF8D960200BF9502009B960200ED
:10960000BF95020019960200BF950200BF950200A7
:10961000BF95020025960200A07803F0CFF900283C
:10962000BFD0CCE76388756A63BBFFF721FE638810
:1096300086F8BA30F369002BB3D06A490320984703
:10964000AFE76B78042B10D0052B11D0022B04D17F
:109650006F796388BB4208BF01202B781D442B78AB
:10966000002BEED10028AAD0DFE795F80380F4E7BD
:109670006388BB42F1D1B8F1000FEED12846FFF765
:10968000FFFEEAE7FF270020B846E8E76388012BE2
:1096900095D1002386F8C33083E76388012B8ED1F0
:1096A000F8E796F8BA30D5F800C0002B87D0756A75
:1096B000A38894F804E02A46107800283FF47FAF8E
:1096C0005178022904D192F80480F04500F2938089
:1096D0000244F1E78CF800208CF80120396060E743
:1096E000154494E00B2A7FF46AAF00274FF0FF087F
:1096F000C146BA4606E06B78042B0FD0052B21D06B
:109700002B781D442B78002BF5D1F36913B151460A
:1097100007209847002F7FF444AF50E795F8028068
:10972000A38895F803909845EAD163889945E7D1D5
:10973000B8F1070F1CD806EB0803AA4683F8BB90C4
:109740000127DDE7A3884345DAD1A3784B450AD04A
:10975000AF78384600F0DAFC3846FFF7BBFDB0FAC8
:1097600080F77F09CCE72846FFF78AFE0746C7E760
:10977000AA460027C4E794F900206378002A18DA83
:10978000002B7FF41CAF24792D6863060AD0204695
:10979000FFF776FD00283FF412AF96F8BA30002BA1
:1097A0003FF40DAF2946204603F0C6F900236B7045
:1097B000F2E6012B08D0032B7FF401AF6388002B66
:1097C0007FF4FDAE012103E0618800297FF4F7AE4C
:1097D000A088FFF719FE00287FF4E3AEEFE600BF94
:1097E000A818002062190020022829607FF4F4AE36
:1097F0004B883B60D5E694F9000062780028BFF6FC
:1098000071AF002A3FF466AF0A2A7FF4D8AE2A78F7
:10981000002A3FF4D4AE697804297FF461AFA978B7
:109820008B427FF45DAF072B96BF9B19002393F803
:10983000BB308CF80030D4E62DE9F84FDFF83CB0AF
:10984000DFF83CA005460F469046994604264B4655
:1098500042463946284603F0B5F910F10B0F04468D
:1098600009D12B465A46022150460AF022FC07F045
:1098700015FD013EEBD12046BDE8F88F667503006B
:10988000C46A030013B5164C237DF3B9E268A168DE
:10989000019201AB8020FFF7CFFF019AA368134428
:1098A000A360E3689B1AE3606BB962B12369E28845
:1098B0009A4208DD94F8C82093FBF2F102FB1133C1
:1098C0000BB90123237502B010BD00231A461946B7
:1098D0008020237502B0BDE8104003F073B900BFCB
:1098E000A81800207FB500230D46019306460028E6
:1098F00062D100293AD108220B460DEB02010BF090
:10990000F7F9002804DA802003F0C4F804B070BD31
:109910002E4C029A2260039A626004F13802A2601F
:109920009DF90820BDF80E302575002AC4E90355BD
:109930000FDB802B09D9264A264801210AF0F9FAC3
:10994000802003F0A7F82846DEE713B1C4E903330B
:10995000DCE7FFF7EBFC0028D5D0E28823699A42C8
:10996000D4BFE260E360FFF78DFFCFE7174CD4E987
:109970000212002A01AB05DC02460BF0B9F90028FF
:10998000C4DAC0E70BF0B4F9002804DA802003F051
:1099900081F83046B8E7019AA3681344A360E368EE
:1099A0009B1AE360002BB1D104F13803A360FFF7E9
:1099B000BDFC0028D7D1A6E78028A7D1034BDA68E1
:1099C000002AD0D11B7D002BCDD19FE7A818002005
:1099D0008D750300C46A0300054B064A9A62064A65
:1099E000DA62064A1A63064A58629A610020704792
:1099F000A81800204D9502009591020035920200B2
:109A0000D59102002DE9F34104464C4D4C484FF0EE
:109A1000FF334FF0FF3206F079FE95F8B8306BB1A6
:109A2000484A494802210AF084FA6FF07704444812
:109A300006F0E4FE204602B0BDE8F0816B6A6BB927
:109A400000F0D4F8FFF7C8FF6B6A3BB93F4A3E48C5
:109A500001210AF06EFA4FF0FF34E8E73C482C622F
:109A6000E8616E6A03F0F0F902F076FF041EDEDBB7
:109A700000F08CFB041EDADB7378012B01D1F37943
:109A80003BB9344A304801210AF053FA6FF015040B
:109A9000CDE70026684685F8C830ADF802308DF86D
:109AA00004608DF8006002F0C7FF041EBFDB802752
:109AB00068468DF8007002F0BFFF041EB7DB264930
:109AC000304603F0ADF9041EB1DB2349384603F0FC
:109AD000A7F9041EABDB214CDFF8848044451AD380
:109AE000002003F045F8041EA1DBD5F8C430802027
:109AF00043F00103C5F8C43003F03AF8041E96DBC6
:109B0000D5F8C43043F48033C5F8C430012385F858
:109B1000B83000248BE7276A0026227FF3B29A42EE
:109B200001D82434DAE707EBC30257F83310107971
:109B300003F076F901360028EFD08CE7A818002052
:109B4000EC0E0020A6750300C46A0300C97503006B
:109B500059930200EE750300E5980200E40F00201F
:109B60000810002030B51F4B8BB005AA03F110057B
:109B700018685968144603C40833AB422246F7D12B
:109B80001B7823701022002101A80CF033FD122253
:109B9000002115480CF02EFD102101A80BF02CFD22
:109BA00000281BDD0828B8BF0820093801AB0E4982
:109BB0001A18002012F8013F0AAC04EB131403F04A
:109BC0000F0328336B44013014F8144C13F8143C81
:109BD0000C7008284B7001F10201EBD102480BB068
:109BE00030BD00BF28760300FA2C00202DE9F04F8D
:109BF000884B87B093F800B000AFBBF1000F04D0E2
:109C000085481C37BD46BDE8F08F834C00264FF0D9
:109C1000011AB0463546B14623783BB97F4B023432
:109C20009C42F3D17B4A01231370E9E76378052B4B
:109C30001DD8DFE813F0AC000600ED00AC001F00FB
:109C40005000402387F810B07B8287F814B007F1EA
:109C5000100002F0C5FE40B108237B8207F110001E
:109C600002F0BEFE08B1A7F812B07B8AE371237838
:109C70001C44D1E7E378002BF9D1A37813B308F1A2
:109C800001085FFA88F8F2E76B689C421CD0243523
:109C9000634B9D42F8D36D4688B06A46614BC2E97A
:109CA0000534032342F8103F5F4800234FF4C251AC
:109CB000FEF7B6FFAD465C485C4A01210AF039F96F
:109CC00000209EE75A4DE3E7AB68002BD7D0414612
:109CD00020469847D3E7002D57D1564A52480121D4
:109CE0000AF027F9E7E72B6AA27803EBC103FB60D0
:109CF0001B799A4205D001312B7F9942F3D34E4A0A
:109D0000ECE70123E07800F003003875207994F83F
:109D100005C040EA0C20788294F902000028DAB2EB
:109D200028DA03F110004FF0010C0CFA00F010EAF1
:109D30000A0F26D142F08000387407F11000C7E9FD
:109D40000032B96002F04CFED7E901213B68C0B98E
:109D5000397CF868A17011F0800F18BF10320171C2
:109D600018BFD2B24FF0010114BF914099404AEAA6
:109D7000010A7CE70120984010EA0A0F01D1104641
:109D8000DAE70133102BBDD1B5E70021B4E7032E8C
:109D900025D1FFF7E7FEF86050B1FDF739FF38B184
:109DA0001028FB6810D0254A1F4801210AF0C1F88D
:109DB00023786FF00201E218091B04EB5303D14230
:109DC00014D50136F6B252E7184600F11002A31C72
:109DD00050F8041B43F8041B9042F9D1E8E7002E29
:109DE000E6D1B9F1000F08D1154A77E702F801BCB6
:109DF00013F8010902F8020DE1E7A4EB090389F861
:109E00000230C3F3072389F8033089F80480D8E7C8
:109E1000A1462CE7F92C0020400F0020E30F002082
:109E20000810002039760300BC6A03001F77030086
:109E3000E40F0020597603009A760300B7760300FA
:109E40000277030010B5094B00211A461C788442A2
:109E500004D15C6814B102EB811010BD01310429FA
:109E600003F14003F2D10020F7E700BF741900208E
:109E70002DE9FF4150F8283C10F82C6C10330446B3
:109E80000AD1036950F8202C98073DD5D2B959075B
:109E900015D5002344F8283C54F8283C10330BD047
:109EA00054E9077554F8148C0CF027F8002857D0A3
:109EB000324821460BF0B2FF04B0BDE8F08143F018
:109EC0000403236103AB54F8241C3046FFF7B4FCB1
:109ED000034640B12A4A2B48009601210AF03CF87B
:109EE0006FF01503D6E7039A54F8243C134444F862
:109EF000243C54F8203C9B1A44F8203C54F81C3C69
:109F0000134444F81C3CC7E703AB54F8241C304608
:109F100002F0E2FE03460028DCD1039D54F8243C05
:109F20002B4444F8243C54F8203C5B1B44F8203C70
:109F300054F81C3C2B4444F81C3C002DA9D030465E
:109F400002F088FFB5FBF0F303FB1055002DA0D104
:109F500054F8203C002B9CD0304602F013FF9BE7C6
:109F600044F8180CA4F1100006F0B6FC002DA3D0A4
:109F7000424639463046A8479EE700BFC814002035
:109F80004D770300D46A03004B1E012B73B50646C0
:109F90000D4614D8FFF756FF044690B9012D0ED197
:109FA00001AB01220DF10301304602F095FE019B49
:109FB000002BF5D10C4A0D48012109F0BAFF02B07F
:109FC00070BD0BF09AFF04F12C0108B1012D05D1F1
:109FD000084602B0BDE87040FFF74ABF044802B02F
:109FE000BDE870400BF01ABF6A770300D46A030023
:109FF000C81400202DE9F74F0546019116469846F2
:10A000000AF09AF8002871D1EFF31183202200930F
:10A0100082F31288BFF36F8FDFF8D8908346002257
:10A020000023484606F07CFCA0B9DFF8CCA04FEA3C
:10A030008B170AEB8B1BDBF8044014F1100F20D1B7
:10A040002E4A2F482B46012109F07CFF484606F096
:10A0500043FC0DE00BF1010BBBF1040F09F14009CA
:10A06000DDD1284A2648012109F063FF6FF00B0477
:10A07000009B83F31188BFF36F8F204603B0BDE8C8
:10A08000F08F0C99019BCBF814100D99CBF81000B0
:10A09000CBF8181028466FF00F01CBE902360AF80A
:10A0A0000750CBF83C80CBF8041002F0D3FE68B127
:10A0B000284602F0CFFEB6FBF0F101FB10662EB190
:10A0C000DBF83C1041F00401CBF83C1018F0020F13
:10A0D00007D007F12C010C4851440BF09FFE0024DF
:10A0E000C6E7284602F04EFE0446C1E76FF00F04B3
:10A0F000C3E700BF90190020741900209F77030068
:10A10000D46A030084770300C814002010B5EFF36D
:10A110001184202383F31288BFF36F8FFFF792FE21
:10A1200050B14368103307D16FF08B03436000F1E7
:10A130002C0104480BF072FE84F31188BFF36F8F7B
:10A1400010BD00BFC8140020F8B50E4C0425202710
:10A15000EFF3118687F31288BFF36F8F63681033B4
:10A1600007D16FF08B030848636004F12C010BF0FA
:10A1700055FE86F31188BFF36F8F013D04F1400453
:10A18000E6D1F8BD74190020C814002070B50A4C3F
:10A190000A4E0025314620460BF024FE0122A4F190
:10A1A0001000114601350BF09FFD042D04F1400411
:10A1B000F0D1002070BD00BFA0190020719E0200E8
:10A1C00070B504460E4601791548154609F090FF12
:10A1D00010B394F900206378002A16DB202B04D0FA
:10A1E000222B0ED06FF085000AE02B681A6840F829
:10A1F000102C9A8820F80C2C9B7900F80A3C00203F
:10A2000070BD638800F8093CF9E7212BEAD11038CA
:10A21000072328603360F2E76FF01200F0E700BF19
:10A22000741A002008B50146034809F06FFF10B109
:10A23000012300F8073C08BD741A002001690123BE
:10A2400081F84B300B6833B191F849301BB10248AB
:10A2500008310BF0E3BD7047C814002001690123E9
:10A2600081F84A300B6833B191F848301BB102488D
:10A2700008310BF0D3BD7047C814002070B501231E
:10A2800082F8483013680D4614463BB192F84A30C4
:10A2900023B10E4802F108010BF0C0FDD4F8903054
:10A2A0009A681B699A4205D17DB904F1180140F6FC
:10A2B000CD4204E004F11801002DF8D00022BDE8E1
:10A2C00070400248002306F0CBBC70BDC8140020CB
:10A2D00038B5056995F89E0088B195F89F307BB92F
:10A2E00085F84830D5F8900009F014FD00220446A6
:10A2F0000023044805F1180106F0B2FC204638BDE1
:10A300000020FCE7C81400200D4A03460021A0F8F5
:10A3100048101068C3F8940090889279A3F89800C8
:10A3200083F89A2083F89C1083F89B10A3F89E1062
:10A3300083F8A010402203F14C000CF05BB900BF81
:10A34000086B0300F0B5D0F88C305B681B6A1F7D8A
:10A3500085B00446384609F0EFFE0646F8B994F891
:10A360008630E3B1A06F4FF4806203A909F0F1FCDD
:10A370000546A0B18306A4F1180308BF00F1FF351C
:10A3800084F830600193074B039900932A46022317
:10A390003846FFF72FFEA06F294609F0FAFC05B0FA
:10A3A000F0BD00BF7DA2020010B504690023C4F80F
:10A3B000A8300C4BC4F8A400596804F1A80269B98C
:10A3C000C3E9002204F1080007490BF00BFD04F17A
:10A3D000180006490BF06EFD002010BD0A605A609F
:10A3E000F0E700BF741A00206341030045A3020098
:10A3F00013B504698DF80710002384F84830D4F8A9
:10A40000900001220DF1070109F084FC10B90BF056
:10A4100074FD40B12122002304F11801064806F022
:10A420001FFC02B010BD94F8A130002BF2D0002127
:10A43000212006F0B5FFE2E7C814002037B5144626
:10A440000A1E054620DDD4F88C0004F14C0109F009
:10A4500061FC012384F8493023683BB194F84B3008
:10A4600023B1114804F108010BF0D8FCD4F88C108A
:10A470004B684A699A1ACB699B1A3F2B04D801236F
:10A4800084F8A03003B030BD94F89E30002BF9D092
:10A49000064B009301940123402204F14C0128460D
:10A4A000FFF7A8FDEEE700BFC81400203DA402009E
:10A4B000F7B50D4601461D4809F00EFE044610B3DF
:10A4C0000646691E56F8A4395F6805291BD8DFE8DF
:10A4D00001F01C1A031C222610F8061C99B901234E
:10A4E00000F8063C3B6A3246187BFFF7A7FF14F8DA
:10A4F0005C2C42B93B6A187D0D4B009301960223F8
:10A500001146FFF777FD03B0F0BD304603B0BDE85C
:10A51000F040FFF7F9BE012304F8053CF3E710F81B
:10A52000053C002BEFD00023F6E700BF741A002093
:10A530007DA2020037B5094D0949002400944FF06F
:10A54000FF334FF48062284606F04CFB054928464D
:10A550000BF0D9FC204603B030BD00BFC81400206A
:10A5600080300020E277030008B5044809F00EF8B7
:10A57000BDE80840024809F009B800BFEB770300C6
:10A5800020780300014807F07DBA00BFB86E0300D1
:10A5900038B5044618B90F4B0F485B689847616897
:10A5A000B1F5683F10D0B1F5680F0DD00B4DA94241
:10A5B0000AD011F46861206807D0014608480BF002
:10A5C000DCFA00232360656038BD14220CF012F819
:10A5D000F9E700BFD40D00204E7803002C5F5CA982
:10A5E0007C1F002008B520B34368B3F5683F10D145
:10A5F00001220368BFF35B8F53E8001F002903D1DA
:10A6000043E800200028F7D1BFF35B8F0DD1002075
:10A6100008BD094A93420AD000684FF0FF324FF05C
:10A62000FF3306F073F80028F1D00448F0E704483F
:10A63000EEE76FF4E040EBE72C5F5CA9E98FFFFFEA
:10A64000EA8FFFFF08B5D8B14368B3F5683F10D172
:10A6500000220368BFF35B8F53E8001F012903D179
:10A6600043E800200028F7D1BFF35B8F0BD1002017
:10A6700008BD074A934208D0006806F0BFF8F6E725
:10A680006FF4E040F4E70348F2E70348F0E700BF67
:10A690002C5F5CA9E98FFFFFEA8FFFFF10B504462E
:10A6A00018B91D4B1D485B6898476368B3F5683F50
:10A6B0002FD0B3F5680F2CD0194A934219D12368D3
:10A6C00003BB18484FF0FF324FF0FF33214605F02F
:10A6D000EFFF08B923681BB90F4B13485B68984715
:10A6E0002068142200210BF085FF4FF4686363603B
:10A6F00008E0B3F5683F0DD83A2B03D040F6BA62B4
:10A700009342DED120680BF070FA636843F03A039D
:10A71000636010BD054AF3E7D40D00204E780300B6
:10A720002C5F5CA97C1F0020747803003A00003A7B
:10A7300008B506490648402314220BF010FABDE87C
:10A7400008400449044807F00FBA00BF7C1A0020F3
:10A750007C1F0020C06E0300D46E03002DE9F0477B
:10A76000064600AF0C46002936D0E9468AB0D1E94A
:10A770000012A3686D462148A8464FF0050AC5E9B6
:10A780000501C5E9072348F810AF1D4842460023DC
:10A790004FF42151FEF744FACD46D4E90312636920
:10A7A000AD461848C5F810A0C5E90501C5E907235D
:10A7B0001348002342464FF42151FEF731FACD46AB
:10A7C000E369114A0E48012109F0BCFBA3690F4A55
:10A7D0000B48012109F0B6FB012E07D1EFF30583E9
:10A7E0000B4A0748103B314609F0ACFB2146304686
:10A7F00005F0AEFDBD46BDE8F08700BFA1780300BF
:10A800009C6A0300D0780300FF7803000E790300F0
:10A810003C79030030BFFFF7FDBF00BF2DE9F041D9
:10A820000B4EDFF8308006EB0807CC1B054632469E
:10A83000094920460BF0D0FEA01942460021083CF1
:10A840000BF0D8FE2C6707F10800BDE8F08100BFCF
:10A850000000000008000000F46A0300074A936843
:10A8600093F90E10002907DB526993421FBF044A77
:10A87000536843F080535360704700BFE42A0020C0
:10A8800000ED00E070B5294C06460D4628482949E0
:10A8900009F00FFDA36AD9043CD52548264909F0E3
:10A8A00008FD1720A36A1A0504D52148234909F099
:10A8B00000FD18201D4CA36A9B0512D51C48204999
:10A8C00009F0F7FCA36BA26A100409D51D4A1848C9
:10A8D000012109F037FB1EB1A36A23F40043A362F0
:10A8E0001920124CA36A590504D51148164909F0DC
:10A8F000E0FC1A20A36ADA050ED50D48134909F0C9
:10A90000D8FC1B20094A936A43F47F4393620023D7
:10A910002B7070BD1620C5E7A36A9B04F2D50448CE
:10A920000B4909F0C6FC1C20ECE700BF00ED00E07D
:10A930009C6A03004F790300657903007679030070
:10A9400089790300A2790300B7790300D279030063
:10A95000EA79030010B5204C2049214809F0A9FCF0
:10A96000A36A990136D51E481E4909F0A2FC1E2093
:10A97000A36ADA0104D51A481B4909F09AFC1F2082
:10A98000154CA36A1B0304D51548184909F091FC1E
:10A990002120A36A590304D51148154909F089FCFF
:10A9A00022200D4CA36A9A0304D50D48114909F0E1
:10A9B00080FC2320A36ADB0304D509480E4909F073
:10A9C00078FC2420044A936A6FEA03436FEA134336
:10A9D000936210BD1D20CBE700ED00E0197A030063
:10A9E0009C6A0300317A0300447A03005E7A030014
:10A9F0007C7A0300A17A0300BB7A03002DE9F843B7
:10AA0000364D8046894636483649174609F051FC8E
:10AA1000AB6ADE0627D53449314809F04AFC1124D7
:10AA2000AB6A1D0704D531492D4809F042FC1224B8
:10AA30002A4DAB6A980718D52D49294809F039FCE9
:10AA40006E6BAB6A190646D52A4A25483346012162
:10AA500009F078FAB9F1000F03D0AB6A23F0800354
:10AA6000AB62132403E01024DAE76FF015061B4DE8
:10AA7000AB6ADA0704D52049194809F01AFC1424F6
:10AA8000AB6A9B0604D51D49154809F012FC152434
:10AA9000124B9A6AD50602D49A6A90070AD55B6867
:10AAA000190507D54146304600F090FA10B180F301
:10AAB00009880224094B9A6A920642BF5A6A22F414
:10AAC00000525A629A6A42F0FF029A6200233B7077
:10AAD0002046BDE8F8836FF01506C2E700ED00E000
:10AAE0009C6A0300E67A0300FC7A0300767903008F
:10AAF0002F7B0300477B03005D7B0300EA790300A3
:10AB00002DE9F041664B8AB0D3F8048000AF0446CB
:10AB1000C8F30805002686F31188BFF36F8F02F093
:10AB20007F43B3F17F4F07D102F00C03082B12D102
:10AB30005C495D4809F0BDFB002634460023FB71EB
:10AB4000EB1E092B00F28A80DFE803F00A80837D88
:10AB500088888888888610074CBF0C460126EDE758
:10AB6000524951484E4D09F0A4FB0023FB71EB6A9A
:10AB70009A0705D54E494C4809F09BFB002333E06A
:10AB8000EB6A002B01DA4B49F5E7EB6A5B00F5D580
:10AB90004949454809F08DFB6B69A26943F480730C
:10ABA0006B61BFF34F8FBFF36F8F6B6932F8022C6D
:10ABB00023F480736B61BFF34F8FBFF36F8F4DF63C
:10ABC00002739A4209D0AB6ADBB27BB3FA1D012152
:10ABD0002046FFF713FF034606E02368374A324852
:10ABE000012109F0AFF92368FA79DAB907F108050C
:10ABF00004F1200C206861682A4603C208346445C9
:10AC00001546F7D17A6A002E44D0C2F3080121B963
:10AC10006FEA52226FEA42227A6207F1080118466F
:10AC2000FFF79CFD2837BD46BDE8F081AB6A13F401
:10AC30007F4F04D0F91D0120FFF724FECBE7AB6A5C
:10AC4000B3F5803F9AD3FFF785FEC4E7FA1D0021D4
:10AC5000BEE7F91D0020EFE719498CE7194A1A4BA6
:10AC600018F4F87FE8468AB018BF13466A461749B9
:10AC7000C2E905134FF400731384103D144BD561E2
:10AC800042F8103F084800234FF41151FDF7C8FF68
:10AC9000C54673E722F4FF7222F00102BCE700BF51
:10ACA00000ED00E0AA7B03009C6A0300D57B030053
:10ACB000EC7B03000D7C03001B7C03003A7C03004B
:10ACC000567C0300917B03007C7B03007A7C0300AD
:10ACD00004000001024A536943F0100353617047B6
:10ACE00000ED00E0EFF30880EFF3098101B5724653
:10ACF000FFF706FF01BD00BF002080F31488BFF3FB
:10AD00006F8F04F045FC00200D490860BFF34F8FA2
:10AD10000C4880F3088800F02BF8202080F311887D
:10AD200009484FF40461401880F30988EFF3148058
:10AD30000221084380F31488BFF36F8F00F00EF9EF
:10AD400094ED00E0C0460020003900200749D1F80A
:10AD500090200023C2F307221846934200DB70477D
:10AD6000C1F89830C1F8A0000133F6E700ED00E02B
:10AD700008B572B6002383F31388FFF7E7FF144B7F
:10AD80004FF0FF32C3F88020C3F88420C3F8882036
:10AD9000C3F88C20C3F89020C3F89420C3F89820FF
:10ADA000C3F89C20C3F88021C3F88421C3F888210C
:10ADB000C3F88C21C3F89021C3F89421C3F89821DB
:10ADC000C3F89C2162B6BFF34F8FBFF36F8F08BDEE
:10ADD00000E100E0084B9B6883420BD1EFF3058351
:10ADE00043B1064B5A6842F080525A605A6A22F4C4
:10ADF00000425A620BF07FB9E42A002000ED00E027
:10AE0000094A93686FF00A019967084958674B68C7
:10AE100043F080534B60002383F31188BFF36F8F9F
:10AE20009368986F704700BFE42A002000ED00E0AF
:10AE300010B50446EFF31183202383F31288BFF388
:10AE40006F8F0A4B58699860094B4FF000625A6047
:10AE5000084B026F1A600022436F426783F3118828
:10AE6000BFF36F8F00F01AF9204610BDE42A0020CE
:10AE700000ED00E0981F00200B498A684FF0300079
:10AE80001044EFF3098C80E8F01F74467046FFF71A
:10AE9000CFFFA64604498A6802F1300090E8F01F0F
:10AEA0008CF3098870470000E42A00201EF0040F8C
:10AEB0000CBFEFF30880EFF30980816911F8021CE1
:10AEC0000229FFD001B509F0E9F901BD40B200281F
:10AED00007DB044A4109012300F01F00834042F8C8
:10AEE0002130704700E100E040B200280CDB43094C
:10AEF000064900F01F0020330122824041F8232040
:10AF0000BFF34F8FBFF36F8F704700BF00E100E0CA
:10AF1000054B420900F01F0053F82220012303FAD9
:10AF200000F01040704700BF00E100E040B2002890
:10AF3000A8BF00F1604001F10101B8BF064B4FEA24
:10AF40004111ACBF00F5614000F00F00C9B2B4BFC1
:10AF5000195480F80013704714ED00E00B4A08B54F
:10AF60000B4B22F07F029A60BFF34F8FBFF36F8FBE
:10AF7000D3F8882022F47002C3F8882005F0D2FAB2
:10AF800006F0E8FA00F060F805F010FB007002002F
:10AF900000ED00E042F8203C009B42F81C3C0A49CE
:10AFA000019B42F8183C029B42F8143C21F001013D
:10AFB0004FF0807342F8043C42F8081C0023203A0A
:10AFC00002654367704700BF9D840200094A03463B
:10AFD000906870B113F1160F006E05D0A0F1400219
:10AFE0009A4205D8834203D2814228BF002070478D
:10AFF00000207047E42A002008B515460B4A0C4B88
:10B000009060026F1A600E4600F048F82C4686F3F6
:10B0100009884FF00000074B984720464FF0000189
:10B020004FF000024FF00003034C2047E42A0020B9
:10B03000981F0020C34203009D840200014B102290
:10B040001A61704700ED00E0044800232021C21877
:10B050000133302B82F80013F9D1704700E100E092
:10B0600008B5EFF30583064A103B02EBC30152F823
:10B07000330049688847BDE80840FFF7EFBB00BFD1
:10B08000B4680300024B034A0348012100F08AB868
:10B090000000042000000020E46E0300026E054B57
:10B0A000403A1A60044A4021C3E9011218460121BE
:10B0B00000F082B89C1F002000000B1508B5034665
:10B0C0001048D0F89020C2F30722013A934207D9E2
:10B0D0000D480E4A012108F035FF6FF0150008BD3C
:10B0E000C0F898300A6822F01F021A4342F010029A
:10B0F000C0F89C208A6842F00102C0F8A0201846DF
:10B10000EDE700BF00ED00E08C6A0300917C0300D6
:10B11000F0B50E4685B01F4604460025B5420DDA4F
:10B12000606810B397B1431E18420AD0104A114804
:10B130002B46012108F006FF6FF01502104605B0FE
:10B14000F0BD1F28F2D921680B42EFD1236801938B
:10B1500009F0DAF8A36801A90343D0B20393FFF71B
:10B16000ADFF10F1160FE7D0421C01350C34D5E7C6
:10B17000B77C03008C6A0300044B0522C3F89420BB
:10B18000BFF34F8FBFF36F8F704700BF00ED00E03C
:10B19000BFF35F8F024B0022C3F89420704700BFBB
:10B1A00000ED00E010B5034C01232278FFF7B0FF5B
:10B1B000207010BD0C2D002008B50B4A002312781A
:10B1C000FFF7A6FF10F1160F07D0084A0021D2F8AA
:10B1D0009030C3F30723984200DB08BDC2F8980003
:10B1E000C2F8A0100130F2E70C2D002000ED00E0C5
:10B1F0002DE9F04357485849D0F890300D68C3F313
:10B2000007239D4285B000F2A180FFF7C1FF496886
:10B210000022954201F10C011AD1504C504F25707B
:10B220006846FDF7B1FFDFF83C81DFF83C91064648
:10B230000025AE421FD1237846490020D1F8902046
:10B24000C2F3072293427BDBFFF796FF00204CE01E
:10B25000C0F8982051F80C3C23F01F03134343F02F
:10B260001003C0F89C3051F8043C43F00103C0F8CF
:10B27000A0300132CDE7009800EB05114FEA051C24
:10B28000CB683B40B3F5000F44D00AD8B3F5001F9C
:10B290002ED0B3F5800F34D0B3F5801F10D0013518
:10B2A000C7E7B3F1807F3ED0B3F1007FF7D150F80C
:10B2B0000C3088684A6809F027F840F4802009E0DB
:10B2C00050F80C3088684A6809F01EF840F0885041
:10B2D00040F43020039001A92078CDE90123FFF745
:10B2E000EDFE002828DA6FF0150005B0BDE8F08308
:10B2F00050F80C3088684A6809F006F840EA0800FF
:10B30000E8E750F80C3088684A6808F0FDFF40EA2A
:10B310000900DFE750F80C3088684A6808F0F4FF4D
:10B3200040F08270D6E750F80C3088684A6808F020
:10B33000EBFF40F08870CDE7237801332370AEE750
:10B34000C1F89830C1F8A000013377E74FF0FF3023
:10B35000CBE700BF00ED00E0F06E03000C2D0020F5
:10B360000000F0FF000008110000020708B5024BC2
:10B370001B689847002008BDA81F0020034B044A03
:10B380001860937843F0020393707047A81F002061
:10B39000A00C0020F0B587B007460E4614460021E9
:10B3A000102268461D460BF025F902238DF8023065
:10B3B0002A46054B019321466846CDE9047606F0FE
:10B3C00047FE07B0F0BD00BF2943030008B506499A
:10B3D000064821F00701C1F1005202F5802208F071
:10B3E00040F8002008BD00BFC7550020AC1F00205A
:10B3F00003484FF0FF324FF0FF3305F087B900BF2D
:10B40000B00C0020014805F0F9B900BFB00C0020D5
:10B4100038B50546FFF7ECFF08482A46082107F033
:10B42000B8FF044628B925B10BF0B2F9044B0C2241
:10B430001A50FFF7E7FF204638BD00BFAC1F0020C1
:10B440000C00000010B50446FFF7D2FF2146034868
:10B4500007F067FFBDE81040FFF7D4BFAC1F002026
:10B460000E4A0123C2F840354FF080424FF0805120
:10B47000C2F87835D1F83001082808D1D1F8341154
:10B48000052904D80648415C09B1C2F838364FF0A6
:10B4900080430122C3F880250020704700E001406E
:10B4A000E97C030020B1034B800143F001031847FE
:10B4B000704700BF206B0300F8B590F8D410036EFE
:10B4C00001295A68B0F8B83000AF044604D0022908
:10B4D0002DD00020BD46F8BD190102EB0313B0F8D2
:10B4E000D60051589D880144B4F8D6602068AE1B40
:10B4F000B6B2324609F0E3F800281EDCE9D06C460B
:10B500008AB06B46124A5A61124A1862C3E906268B
:10B510004FF400729A841A460F4B42F8103F0F48BE
:10B5200000234FF43151FDF77BFBA546D1E7B0F87E
:10B53000D630416B058F1944D6E7B4F8D63018449D
:10B5400080B28542A4F8D6008CBF00200120C1E75C
:10B55000F37C03000F7D030005000001746A030003
:10B56000F8B50D4600AF0446002851D0036E002BFD
:10B570004ED0B1B16E4688B01B6801296A460CBF37
:10B5800024492549C2E905134FF400739383234BE3
:10B5900042F8103F224800234FF4E451FDF740FBEE
:10B5A000B546236E5B691BB1626829462046984701
:10B5B000D4F8182100233AB1B4F82021012A9CBF05
:10B5C000C4F81831A4F81C31C4E913332366A36509
:10B5D00004F178000AF07AFC04F1D8000AF02EFC9D
:10B5E00004F1E8000AF072FCBFF35B8F04F1BC03C6
:10B5F00053E8001F21F0010143E80012002AF7D1AF
:10B60000BFF35B8F84F8C05004F1C40005F064F907
:10B61000BD46F8BD187D0300247D03000300000132
:10B62000746A03002DE9F04FA0F59274A0F58A71B9
:10B6300085B005462022206809F068F8002840F30C
:10B640005A8100272086B846228EBBB29A4205D87E
:10B65000284605B0BDE8F04F05F0BEBA14FA87F3EE
:10B66000B4F840101A7C0023DEB28E4210D3E38976
:10B67000A189994214D1A14AA148022108F059FC9C
:10B680000023E3816387A4F84A30C4F8183105E049
:10B69000E06B805D824203F10103E5D10137D3E71E
:10B6A000B4F84A00B4F84810884201D1954AE3E75B
:10B6B000A168CA54E389B4F838B000935E1CB6B2EE
:10B6C0005E45E681C0F08980D4F80890616BA6EBF6
:10B6D0000B0A5A4609EB0A000AF045FE00287CD105
:10B6E0005E450AD1A5F592730022DA8125F8EA2C8D
:10B6F00025F8DA2C45F80C2CD0E7D4F818316BBBC0
:10B7000009F80A30A5F1CE00C5F1C00C4FF0140EB7
:10B7100030F8026F002291B28E4204D801339BB2FE
:10B72000032BF5D1DEE75CF810100EFB021101329D
:10B7300091F80490B9F1000FEDD1A4F82031636CB9
:10B74000714AC4F818111A60636CA2685A60022327
:10B75000A4F84A30204608F058FEC3E7B4F81E317A
:10B7600093B1B4F84A10626CAAEB030A09EB0A031E
:10B7700042F82130228FE3899B1AA268D054B4F892
:10B780004A300133A4F84A30204608F03EFEA4F8BF
:10B790000E80A4F83A80A4F84A80C4F818817DE7A6
:10B7A000626B515CA2683244013312F8012C8A4268
:10B7B0003FF474AFD9B25945F2D355F80C2CA5F526
:10B7C000927362B9C5F1C001A5F1CE0A03913AF8AE
:10B7D000021F02914FF0000E68E00023EAE792F8A2
:10B7E0000CC0002081B261456AD30021B3F81E214C
:10B7F00000297ED0B3F84AC0586C002A6CD1424A66
:10B8000040F82C20B3F84A200132A3F84A20002245
:10B81000A3F81E2142E7039951F81A10142000FBE7
:10B820000E1999F8041001918E423DD199684FF09C
:10B83000000CDDF804B01FFA8CF0584522D3A4F8B0
:10B840002021009AA389C4F81891023292B29B1A5F
:10B850000B44A4F81C211846013A0AF0BDFEB4F8C6
:10B860004A10626C42F82100A289A36813440022A6
:10B8700003F8012CB4F84A30A4F81E210133A4F8CF
:10B880004A300BE7D9F8000011F80CB010F80C00A2
:10B89000834506D099F80DB01BF0010F04D03F2866
:10B8A00002D10CF1010CC4E70EF1010E02981FFA4F
:10B8B0008EF18842AFD8013292B2032A87D1EDE6E9
:10B8C000916811F800E099683144013011F8011CC9
:10B8D000714587D1012189E79968B21A013A11446B
:10B8E00040F82C10D9899A680A44002102F8011CFA
:10B8F00088E701328CE705B0BDE8F08F327D0300A8
:10B90000746A0300497D03000A82030038B50D46BE
:10B9100004464FF49C7200210AF06CFE2B686360B1
:10B920006B68A3602B89A381EB6963642B8CA4F8FB
:10B930004830EB6863632B7C23876B69E3632B7E62
:10B94000A4F840306B6A63652B8DA4F85C30002549
:10B9500004F1BC03BFF35B8F53E8002F43E80051B1
:10B960000029F9D1BFF35B8F0122294604F1C400FD
:10B970000AF0BAF904F592700E490AF033FA04F1AC
:10B9800068000D490AF02EFA04F178000B490AF01C
:10B9900091FA04F1A8000A490AF024FA04F1D80047
:10B9A00008490AF01FFA04F1E80007490AF082FA90
:10B9B000284638BD25B602007D4403009D430300A0
:10B9C0008D430300D5440300FB43030010B502463A
:10B9D000002408461160D48104495487A2F84A40E3
:10B9E000C2F8184108F044FE204610BD3F43030052
:10B9F00010B550F8083C50F8040C19688C880834CD
:10BA0000224608F05CFEA042034606DA034A0448D8
:10BA1000BDE81040012108F095BA10BD737D030008
:10BA2000846A03002DE9F041044630F8282C50F8D0
:10BA30002C1C50F8140C08F069FE002848DCBDE806
:10BA4000F08134F81E2C54F8241C8B5434F81E5CFE
:10BA50002D490135ADB2062D08BF54F8242C24F829
:10BA60001E5C02BF928808320A800A88AA4248D126
:10BA700054F8188C54F8246CD8F80810B3888A88C5
:10BA80009A4210D1083230460AF06DFC074650B990
:10BA900004F1100004F020FF04F81C7C2046BDE8EF
:10BAA000F04105F099B8D8F80030B1789A78914211
:10BAB00003D1F278DB789A4203D0002304F81C3CCF
:10BAC000ECE7D8F804002A4631460AF085FDF4E791
:10BAD00054F82C3C14F81C2C1B78002AB1D10B4ACA
:10BAE0001278B52A0DD1622B0BD1012104F81C1C50
:10BAF00054F8241C0A7054F8242C5370022224F8A1
:10BB00001E2C024A1370C9E7F42C00200D2D0020D2
:10BB10002DE9F84F0B689B88B3F5807F05460E46EC
:10BB20004ED8BFF35B8F4368BFF35B8FDA074AD50C
:10BB300000F154074FF0FF324FF0FF33384604F066
:10BB4000EFFE041E2ADB4FF0000BEE6105F1440806
:10BB5000D94605F1240AB3895B4508DC002C1ADAC2
:10BB60001A4A1B485B46012108F0ECF913E02B6AE6
:10BB70001BB3404604F0FAFE85F81890504605F0D5
:10BB80002BF8EB699B6863B9124A11485B460321A5
:10BB900008F0D8F90024384604F09EFE2046BDE89F
:10BBA000F88FD6E90423404604F0BAFE041EEBDA0F
:10BBB000631CD5D00BF1010BCDE74FF0FF34CFE77D
:10BBC0006FF01A04EAE74FF0FF34E7E7CC7D03009B
:10BBD000846A03009F7D030038B50446231D084690
:10BBE000BFF35B8F53E8002F42F0010143E80015DB
:10BBF000002DF7D1BFF35B8FD30708D4054920622E
:10BC0000224608F035FD04F1540004F065FE0020E2
:10BC100038BD00BFD948030038B50D46044664223C
:10BC200000210AF0E7FC2B6823606B68A3602B8976
:10BC3000A381EB6823612B8AA38204F124000B49C2
:10BC40000AF0D0F80A4904F134000AF0CBF80122D6
:10BC5000002104F144000AF047F80122114604F1E2
:10BC600054000AF041F8002038BD00BFF1B90200CD
:10BC700025BA020070B5E82204460D4600210AF0FC
:10BC8000B9FC20462B6840F8383B0B490AF012F902
:10BC90000A4904F168000AF0A5F8204600F02EFADF
:10BCA000261D294620B1204600F03AFA304670BDE4
:10BCB000204600F0B1F8F9E7A9490300A3490300C1
:10BCC0002DE9F74306460C4683689B6F002B75D021
:10BCD0009847002872DDB3689B6E93BB94F8E090A0
:10BCE0004FEA491808F1780727444FF0FF3201A9BD
:10BCF000384607F0DBFF0546C8B9454A45480221EA
:10BD000008F017F92946384607F0EFFF04EB49130E
:10BD1000A044C8E920554FF0FF32C3E92355DD6741
:10BD2000C3F8885001A9384607F0C0FF05462068CF
:10BD3000019983689B6CDBB90021384607F0D5FF79
:10BD400003E0304698470028C8D1B3689B6D8BBB91
:10BD5000D4F8C820D4F8C0309A4232D154F8680BD5
:10BD600008F02FFE204603B0BDE8F04304F034BFD6
:10BD70002A469847011EDFDD384607F0B6FF04EB80
:10BD800049131421D3F89420DD6FD3F88C30B2FB23
:10BD9000F1F1EB1AD21A914204F1380005D24FF4B6
:10BDA0002472002304F086FFCFE70022002304F072
:10BDB000B5FFCAE7304698470028C9D103B0BDE8AF
:10BDC000F08304F1B8064FF0FF3201A9304607F0C6
:10BDD000C0FF02462068019983681B6C23B90021CB
:10BDE000304607F0D6FFE9E79847051EF7DB2946FE
:10BDF0003046D83407F0CDFFBFF35B8F54E8003FE7
:10BE00005B1B44E80032002AF8D1BFF35B8FD5E713
:10BE10000B7E03006C6A030010B50B69A3EB930360
:10BE2000C0F8E4304B688A6883670023C0E9203398
:10BE3000C0E923335208C0F89420C367C0F88830A3
:10BE400004464868C4F8B420C4E92833C4E92B3355
:10BE50001044C4F89800C4F89C30C4F8A830D1E964
:10BE60000320C4F8B82004F1D802C4E93033C4E98F
:10BE70003333C4F8D400C4F8BC30C4F8C830BFF3BE
:10BE80005B8F52E8001F42E800300028F9D1BFF371
:10BE90005B8F206808F09AFD206808F092FD20680A
:10BEA000836823B1DB6F13B10449224698472146CA
:10BEB000201D034ABDE8104008F091BBC1BC020040
:10BEC000C40C0020F8B5D0F8A83004469A4228BF28
:10BED0001A4600AFD0F8A40015460AF07DFB206892
:10BEE000D4F8A41083682A465C68104BA047044627
:10BEF000C8B16E468AB06B460D4A5A610D4A186247
:10BF0000C3E906254FF400729A841A460A4B42F898
:10BF1000103F0A4800234FF43151FCF781FEB5462B
:10BF20002046BD46F8BD2C46FAE700BF40420F0050
:10BF3000F37C0300397E030005000001646A0300FE
:10BF400073B50B780D46144602F1BC06062B1BD8C0
:10BF5000DFE803F01204854575BDBF00BFF35B8FBA
:10BF6000D4F8BC30BFF35B8FDA0605D58B685D4A29
:10BF70005D48022107F0E6FF3046002108F0FAFD97
:10BF800004F1680004F028FEBFF35B8FD4F8BC30E6
:10BF9000BFF35B8FD80700F1A380BFF35B8FD4F8AA
:10BFA000BC30BFF35B8F990700F19A80BFF35B8FC2
:10BFB000D4F8BC30BFF35B8F5A0700F19180BFF318
:10BFC0005B8FD4F8BC30BFF35B8F1B0700F1888018
:10BFD00004F1AC0002B0BDE8704004F0FDBDBFF359
:10BFE0005B8F56E8003F43F0040246E80021002939
:10BFF000F7D1BFF35B8F5B0707D42068D4F88020AC
:10C000008368A16F1B699847BEE7BFF35B8F56E853
:10C01000003F43F0080246E800210029F7D1BFF3B2
:10C020005B8F1D0705D420688368D4E91F121B6944
:10C03000E9E72E4A2C48022107F07BFFA4E74B6872
:10C04000A26F934204D10221304608F093FD9BE792
:10C05000E26F934201D10321F6E7254AEAE7EFF3C5
:10C060001186202383F31288BFF36F8FD1E9011368
:10C07000EA68194404F1840007F04CFEEB6883423F
:10C080001AD9D4F89420D4F88C309B1A0022C4E931
:10C090002322C4E92622C4F88820C4F8942086F319
:10C0A0001188BFF36F8FEA68022100921B1A114AB0
:10C0B0000D4807F051FF67E786F31188BFF36F8FD4
:10C0C0000022002304F1380004F0F4FD5CE70121B4
:10C0D000BAE70B79084A0448022107F033FF53E717
:10C0E00002B070BD527E0300646A03006E7E0300DE
:10C0F0008A7E0300AA7E0300D37E030008B50246B1
:10C10000006883681B682BB104499847B0FA80F037
:10C11000400908BD6FF05700F8E700BF41BF0200BB
:10C1200010B58B689B08C0F880304A6882671A4453
:10C13000C2674A68044602EB430258000023C4E980
:10C140002333C4E92633C4F8A000C4F88420C4F81B
:10C150008830C4F89430CB68C4F8A4300B69C4F8B4
:10C16000A83004F1AC00054909F03CFE2146201D31
:10C17000034ABDE8104008F032BA00BF6F4B03001D
:10C18000D40C0020020600F07F0312D5082B05D145
:10C19000010700F00F0306D50E48704710F0780F26
:10C1A00012D100F00F034C2000EB43100A4B18444F
:10C1B0007047082B05D1020700F00F0306D507488A
:10C1C000704710F0780FF6D000207047044800EB5D
:10C1D0004310704704210020B81F002024220020B3
:10C1E000242100200149024809F018BEE01F002068
:10C1F000681500200146014809F06BBD300F002092
:10C2000002480022002304F035BB00BF300F00209D
:10C2100013B5124800F09AFF114B98421AD11148F9
:10C2200003F0E0FF0024104804F022F80F49104802
:10C2300000944FF0FF334FF4806204F0D3FC0D49BB
:10C240000B4809F060FE0C480C4909F0CBFD204674
:10C2500002B010BD6FF00400FAE700BF0DC8020085
:10C260000000AD0B3D810300106F0300C0340020BF
:10C27000681500200C7F0300E01F0020FDC30200B2
:10C2800010B50E49BFF35B8F002351E8002F012A40
:10C2900003D141E800300028F7D1BFF35B8F0CD108
:10C2A00051F8044C1439204607F0C7FC783004D10B
:10C2B0002046BDE8104007F09CBC10BDD81F0020F0
:10C2C00038B5002464F07F00C0B2FFF75BFF013493
:10C2D00008F0DCFC082CF5D10E4D0024E0B2FFF78D
:10C2E00051FF036903B90561013408F0CFFC082C44
:10C2F00005F14005F2D1084808F0C8FC074BD3F817
:10C300007C2212B9064AC3F87C22064808F0BEFC1B
:10C31000002038BD4826002004210020B81F00203E
:10C32000482200202422002010B5054CFFF768FFAA
:10C3300020B14168204609F020FCF7E710BD00BF9E
:10C34000800E002007B500231448002201A904F044
:10C35000AFF9E8B1124A1348012108F0AAFCFFF72F
:10C36000E3FF0E480022002301A904F0A1F930B137
:10C370000D4A0C48012108F09CFC00200AE00198BD
:10C38000042340600374FFF735FFFFF72BFFF4E74A
:10C390000198406003B05DF804FB00BF800E0020F0
:10C3A000177F0300CC6A0300357F03000346024A6F
:10C3B0000248012107F0C6BD517F0300CC6A03008B
:10C3C000022810B511D80B4A145CFFF7BBFF80B1EF
:10C3D000002202740472FFF70DFF074B93F824301C
:10C3E0003BB1BDE81040FFF7FDBEBDE81040FFF7D0
:10C3F000DDBF10BD3A810300B81F00202DE9F043D6
:10C40000A24CDFF88C9285B08046FFF7F9FE074614
:10C4100010B905B0BDE8F08394F825203B7C3AB90B
:10C42000002B00F09A807968994809F0A6FBECE7A8
:10C43000042B00F27581DFE813F090000500120173
:10C440003D015E0118F8043C33B9BB685B7A914A40
:10C450009148012107F076FD3B7BBD68032B37D85F
:10C46000DFE803F0023D63686E698C4B00223260A6
:10C470007260D3F880143170D3F884147170D3F8DB
:10C480008814D3F88C0441EA00217180D3F8901409
:10C49000D3F8940441EA0021B180D3F89814D3F87A
:10C4A0009C3441EA0323F3800823EB603068716811
:10C4B0007B4B03C311462B68687A984796F9003086
:10C4C000002B08DBF38833B1A4F88C3201F08EF92D
:10C4D00079684846A9E70023A4F88C32F8E76B7F17
:10C4E000002BF5D02B7F002BF2D000264FF0FF322F
:10C4F0006C486E774FF0FF332E7708F0DCFB6B69EA
:10C5000001936B68CDE9023601A9687A00F074FEE8
:10C51000654A9042034604D0644A5F48012107F00F
:10C5200011FD604808F0C9FBD2E72B680121687A49
:10C530009847CDE7AB7A6BB9EB7F5BB959484FF0C1
:10C54000FF324FF0FF3308F0B6FB01F055F95548C4
:10C5500008F0B3FB2B680221E9E73B7A042BB7D83C
:10C56000DFE803F059032367730000F0BDFD0546C3
:10C570000028ADD100F0F8FCBFF35B8F4C490123DC
:10C5800051E8002F002A03D141E800300028F7D1FC
:10C59000BFF35B8F9CD141F8085C41F8105CE06907
:10C5A0006361143907F0CEFA92E7002565F07F0049
:10C5B000C0B2FFF7E7FD037A13B1407A01F080FAC9
:10C5C0000135082DF2D194F854311BB194F855017E
:10C5D00001F076FA0025E8B2FFF7D4FD037A13B133
:10C5E000407A01F06DFA0135082DF4D194F87432D7
:10C5F0001BB194F8750201F063FA002000F058FDB9
:10C60000012384F825302368002B3FF461AF00211B
:10C61000022098475CE7002584F8255001F0B6F920
:10C62000FFF72EFE2368002B3FF452AF294604206B
:10C63000EFE7002A3FF44CAF00F060FD2368002BC9
:10C640003FF446AF00210520E3E72368002B3FF4C9
:10C650003FAF002A3FF43CAF00210620D9E708F1A4
:10C6600010054FF0FF334FF0FF32284608F023FB50
:10C67000FFF726FE284608F020FB58F8283C002B40
:10C680003FF426AF00210120C3E700BFB81F002000
:10C69000800E00206C7F0300CC6A03000070024013
:10C6A000BC1F0020F01F00200000AD0B927F030094
:10C6B000D81F002094F8743263B1012584F88952A0
:10C6C00084F88852FFF73EFE60B9184A1848294698
:10C6D00008F0EFFA58F8283C002B3FF4F9AE00219F
:10C6E0000A2096E7134A057405738260FFF782FDFE
:10C6F000FFF778FDEEE7104A0D48012108F0D9FA5E
:10C7000009F0D5F901F042F900F024FCFFF70CFE26
:10C71000FFF7D6FD09F0C4F9084800F017FDD7E689
:10C72000074A0348012107F00DFCD1E6B87F03005A
:10C73000CC6A030024220020CC7F03000DC8020035
:10C74000E37F0300F7B5877806463846FFF71AFD02
:10C750003B06F47805461DD554B1032C06D0284A73
:10C76000284800972346012107F0F6FB03B0F0BDEF
:10C77000FFF7E8FD03460028F8D00122AC770274E9
:10C78000032202739D60FFF735FD03B0BDE8F04062
:10C79000FFF728BD54B1012CE1D1FFF7D3FD0346CB
:10C7A0000028E3D06C7704740473EBE7FFF7CAFD4D
:10C7B0000028DBD0B278144B12F0800F02F0080191
:10C7C00011D041B1D3F8A836EB60012303740223E2
:10C7D00003738560D7E702F00F02142101FB0233D7
:10C7E000D3F80836F0E711B1D3F8A837ECE702F038
:10C7F0000F02142101FB0233D3F80837E4E700BF2E
:10C80000FB7F0300CC6A030000700240F0B51422E5
:10C810008BB0064600210DEB020009F0EBFE3378E9
:10C82000013B052B21D8DFE803F08B0314147B16A2
:10C8300003238DF81C300024FFF784FD0346A0B1CC
:10C84000047400F10802DDE9070182E803001846DC
:10C8500026E00423EDE7B7783846FFF793FC837AA8
:10C86000054623B1013B022B54D90BB0F0BD3B066A
:10C87000F4781CD54CB1032CF7D0324A32480097DB
:10C880002346012107F068FBEFE7FFF75BFD034656
:10C890000028EAD00122AC770274032202739D6063
:10C8A000FFF7A8FC0BB0BDE8F040FFF79BBC54B10C
:10C8B000012CE2D1FFF746FD03460028D5D06C7766
:10C8C00004740473EBE7FFF73DFD04460028CCD069
:10C8D00002230127037307748560B07805F10C010A
:10C8E00008F022FA034620B1184A1748394607F0E3
:10C8F00029FB174AE968B2F88C328B4206D95B1AD9
:10C90000A2F88C3200F072FF2046C9E70023A2F89B
:10C910008C32F9E730460BB0BDE8F040FFF712BFAC
:10C9200003A800F041FF9DF80D30052B04D19DF8C0
:10C930000C3013F0600F98D0064B079301247BE76F
:10C94000022479E7FB7F0300CC6A03002780030001
:10C95000B81F00202421002038B5164D95F824403A
:10C960002CBB05F1380009F040F9204601F0FAF936
:10C9700022460121E8612720FEF7D8FA09F090F855
:10C98000FFF79EFC044610B9012385F824300A4BBA
:10C990001B680BB1FFF726FC4FF08043D3F8383407
:10C9A000DB0702D50020FFF70BFD204638BD002431
:10C9B000FBE700BFB81F0020300F0020074B93F8A3
:10C9C00024203AB193F82530002B14BF00206FF0DB
:10C9D000120070476FF01200704700BFB81F0020B0
:10C9E00008B50378027903F00F0142B991B10D4AFD
:10C9F00001210D4808F05DF94FF0FF3008BD08290E
:10CA000001D90A4AF4E7012A04D11B0707D4084ACE
:10CA10000221EEE713F00800F0D0064AF8E7002004
:10CA2000ECE700BF47800300CC6A03006680030088
:10CA3000858003009B80030038B5134B93F82430A6
:10CA40000446EBB105782846FFF79CFB88B1457298
:10CA500023798372638843602078618810F0080F1F
:10CA60000AD14B1E0B4207D0084A0948012108F0A1
:10CA700020F96FF0150038BD08F051F90020FAE7F1
:10CA80006FF01200F7E700BFB81F0020B880030066
:10CA9000CC6A030038B5154B93F8242005460AB339
:10CAA00093F82530F3B1FFF76DFB044610B96FF032
:10CAB000150038BD817A01290FD007D90239012923
:10CAC00007D96369A3610020E060F2E700F09AFEF5
:10CAD000F7E7284600F03CFEF3E7054A054808F072
