:020000022000DC
:10700000803F0020FDA80200453C0300E9A80200E3
:10701000E9A80200E9A80200E9A8020000000000B7
:10702000000000000000000000000000B1AA020003
:10703000E9A80200000000007DAA0200E9A8020001
:1070400065AC020065AC020065AC020065AC0200F4
:1070500065AC020065AC020065AC020065AC0200E4
:1070600065AC020065AC020065AC020065AC0200D4
:1070700065AC020065AC020065AC020065AC0200C4
:1070800065AC020065AC020065AC020065AC0200B4
:1070900065AC020065AC020065AC020065AC0200A4
:1070A00065AC020065AC020065AC020065AC020094
:1070B00065AC020065AC020065AC020065AC020084
:1070C00065AC020065AC020065AC020065AC020074
:1070D00065AC020065AC020065AC020065AC020064
:1070E00065AC020065AC020065AC020065AC020054
:1070F00065AC020065AC020065AC020065AC020044
:107100007BB972B90029BEBF00204FF0004106E0F4
:1071100008BF00281CBF6FF000414FF0FF3000F0A7
:1071200057B8ADF1080C6DE904CE002909DB002B3E
:107130001ADB00F04FF8DDF804E0DDE9022304B0CB
:107140007047404261EB4101002B1BDB00F042F82D
:10715000DDF804E0DDE9022304B0404261EB4101C7
:10716000524263EB43037047524263EB430300F028
:1071700031F8DDF804E0DDE9022304B0404261EBC0
:1071800041017047524263EB430300F023F8DDF8FE
:1071900004E0DDE9022304B0524263EB430370478D
:1071A00053B94AB9002908BF00281CBF4FF0FF316E
:1071B0004FF0FF3000F00CB8ADF1080C6DE904CED3
:1071C00000F008F8DDF804E0DDE9022304B07047C0
:1071D000704700BF2DE9F04786468C460846089E5A
:1071E000154674461946002B40F0C2808542B2FA1B
:1071F00082F245D94AB1C2F1200300FA02FC2EFA0C
:1072000003F3954043EA0C0C94404FEA154EA8B2A4
:10721000BCFBFEF8230C0EFB18CC08FB00F943EA7C
:107220000C43994528D9EB1808F1FF3704D299454A
:1072300002D9A8F102072B44A3EB0903A4B2B3FBC4
:10724000FEFC0EFB1C330CFB00F044EA0344A0429E
:1072500014D92C190CF1FF3304D2A04202D9ACF19D
:1072600002032C44241A43EA07401EB1D4400023F1
:1072700034607360BDE8F0874746DDE76346F1E7B9
:1072800092BB431B01214FEA154EAFB2B3FBFEFC8C
:10729000200C0EFB1C330CFB07F840EA0343984517
:1072A00062D9EB180CF1FF3004D2984502D9ACF149
:1072B00002002B44A3EB0803A4B2B3FBFEFC0EFBBD
:1072C0001C330CFB07F744EA0344A7424ED92C19A0
:1072D0000CF1FF3304D2A74202D9ACF102032C44D3
:1072E000E41B43EA0040C0E7C2F1200320FA03F1A7
:1072F000954090402EFA03F303434FEA154EAFB288
:10730000B1FBFEFC0EFB1C10190C0CFB07F841EA4C
:107310000041884504FA02F422D969180CF1FF30C3
:1073200004D2884502D9ACF102002944A1EB08013E
:107330009BB2B1FBFEFC0EFB1C110CFB07F743EAF2
:1073400001439F420ED9EB180CF1FF3104D29F424A
:1073500002D9ACF102012B44DB1B41EA004192E768
:107360006046E3E76146F7E76046A3E76346B7E7B1
:10737000834206D916B9002108467BE7C6E900E03A
:10738000F9E7B3FA83F78FB9834201D3724508D87E
:10739000BEEB020460EB030301209C461EB90021F2
:1073A00068E73846FAE7C6E9004CF8E7C7F1200C71
:1073B000BB4022FA0CF41C432EFA0CF120FA0CF319
:1073C000B84001434FEA14490EFA07F5B3FBF9F848
:1073D0001FFA84FE09FB18300B0C08FB0EFA43EA77
:1073E00000439A4502FA07F240D9E31808F1FF304A
:1073F00004D29A4502D9A8F102002344A3EB0A0360
:1074000089B2B3FBF9F809FB183308FB0EFE41EA19
:1074100003418E452CD9611808F1FF3304D28E4503
:1074200002D9A8F10203214443EA0040A0FB0298DC
:10743000A1EB0E014145CE46434602D306D14D4550
:1074400004D2B9EB020E68EB04030138002EA6D07B
:10745000B5EB0E0261EB030101FA0CFC22FA07F313
:107460004CEA0303F940C6E9003198E74046C5E716
:107470004346D9E7034613F8012B002AFBD1181A1B
:1074800001387047000000002DE9F04F1446D4E9A0
:107490000257394BA66989465168384A9DB08246E1
:1074A00012EA210B38BF9B4612EA270038BF184664
:1074B00012EA260838BF984600291390206802DA9D
:1074C000404261EB41012AA3D3E90023FFF718FEF4
:1074D000CDE91801391ECDE91A23284602DA68429F
:1074E00061EB410122A3D3E90023FFF709FE002E3F
:1074F000CDE91401CDE91623D4E904214FF47A73C0
:10750000B8BF7642B6FBF3F003FB1066CDE90F0679
:10751000B1FBF3F003FB1011CDE90C01B2FBF3F169
:1075200003FB1122DDE91634CDE90834DDE914341A
:10753000CDE90634139B04931A9B02931B9B039380
:10754000189B0093199B0193CDE90A125B460C4AE4
:10755000CDF83880494650460BF0B6FA8145B4BFA5
:107560006FF00B0000201DB0BDE8F08FAFF300807E
:1075700000CA9A3B00000000FF870300C585030096
:10758000C78503001FB591F8283063B1074B0293FC
:107590000023CDE900330649032218460BF093FD82
:1075A00005B05DF804FB034A0292F2E7A864030009
:1075B000E45F0300B364030030B5094D094C85B0A6
:1075C00000214FF400400AF00FFE0023CDE9003304
:1075D00002950322214618460BF075FDF0E700BF27
:1075E000BA640300E45F03002DE9F04F91B0840713
:1075F000009302F004030293C2F3C20303F10103F8
:10760000DDF86890039205460E46059340F0BA8176
:10761000041D30B1072909D86FF01B0011B0BDE877
:10762000F08F01F00706341DC6F10806009B4FF0ED
:107630000008591E4FF0040A4FF0FF330193CDF8B4
:1076400010804746C34653460DB1009A2260059804
:10765000002800F3E8809848009A824203D39748B4
:107660008242C0F0E080039AA4EB050E92074FEA35
:107670009E0000F103810F2F00F2B180002D00F079
:10768000058107F140020DEB020C019A0CF8200C69
:107690000CF8102C049801300490E7E07A285DD8AB
:1076A0004B280ED8472859D829282DD8252852D01C
:1076B00054D820287AD02338D0F1000B4BEB000BA4
:1076C00074E04C382E2849D8DFE800F0704848486C
:1076D00048484848484848484B4848484848484827
:1076E0004859484B4B595959704B6D487048184B85
:1076F000184848827F4B48484B487F0000204FF095
:10770000000B4FF0040A38E02A38C0B2012202FA16
:1077100000F010EA0E0F49D110F0625C2FD110EA90
:10772000020B43D06046013C5444B4FBFAF40AFB1C
:1077300004F4002D61D0A3EB050CA444B4453FF63E
:107740006BAF002868D1042B47D159F8043B236064
:10775000043404232AE0019A013A01924FF0000B0D
:1077600024E011F8010C6C2834D111F8023C0020FF
:107770006C2B8346C5D14FF0080A5346D3E709F175
:10778000070929F007090734F9E802AB24F00704D8
:1077900035B106982044B0423FF63EAFC4E900AB95
:1077A00008344FF0000B4FF0080A534611F8010F50
:1077B000002878D0BBF1000F7FF470AF2528F5D1F9
:1077C000019B013301934FF0010B4FF0040AECE7EA
:1077D000584694E700208346A5E7082B02D06FF0B7
:1077E00015001BE709F1070929F00709F9E8022349
:1077F000C4E9002308340823D8E768B9042B02D170
:1078000009F10409A4E7082BE9D109F1070929F0D6
:10781000070909F10809EDE7059A013A059259F8B7
:10782000042B009210E7039A900720D5A4EB050ED5
:107830004FEA9E004FF0010CBEF5007FCFD20F2F14
:10784000CDD8F5B107F140020DEB020EC0B2019A9E
:107850000EF8200C0EF8102CBCF1000F3FF41AAFFC
:1078600060F07F000EF8200C08F101080137C5F127
:107870000802043406924FF6DA7E97E74FF0000CC8
:10788000DAE7BCF1000F01D00136EFE702980236CB
:107890000028EBD10098CDE90631FFF7EBFDDDE9DB
:1078A00006310644E2E7631BB3F5806F97D23DB91A
:1078B000A6F10804E018B1E6445D0300F08B030074
:1078C000029A28609B082B709DF81030C2B1EB70B3
:1078D00085F80280B8F1000F05D008A80022C5F194
:1078E000010C97420ED1C5F101030DF120094FF0B3
:1078F000000A01930DF1300B574512D1601B8DE644
:107900006B70E5E710F8013B190608D504EB0C0E87
:10791000B64503F07F033FF67FAE04F8013B01322A
:10792000DFE7B8F1000F03D099F90020002A17DB38
:10793000029BD3B11AF80B2004F8012B0022019B03
:1079400098182044B0423FF667AE99F8000004F85A
:10795000010B0099039220460EF0CBF9039A1444D0
:107960000AF1010A09F10109C6E799F8002055F862
:1079700022300093029B45F822300098FFF77AFDF1
:10798000421CDCE76FF00D0048E600BF014B1860B9
:10799000704700BF180C002080B505460E461746FC
:1079A00098460AF05DFC03460EF0C2F9DFF8189025
:1079B000044649F80030424630463946A84754F854
:1079C000090003F009F800BF080000002DE9F047A6
:1079D000058B04462807904611D4022905F00705B7
:1079E00040F0CC8020460BF0A4FD78B10138218B0B
:1079F000042811D8DFE800F0C2106D859500012938
:107A00000CBF45F0100545F02005258388F311884B
:107A1000BFF36F8FBDE8F08701F0070AAA4500F0B9
:107A2000A5800027B9463E46A368002B00F0BC8025
:107A300041F00801218388F31188BFF36F8FA1689B
:107A4000002900F0BA800D68002900F0B680D1F856
:107A50000480334652462046C047002D76D02B681E
:107A600029461D46F0E701F007035A1F012A1BD8DB
:107A7000002221F00701062B276889B2C4E9002201
:107A800009D13B4603E0628B013262831B68002B05
:107A9000F9D141F00201218320460BF04AFD002874
:107AA0007AD041F0200176E0042B0AD121F00701C1
:107AB00089B2218320460BF03CFD10B141F020013A
:107AC0002183218B01F0070AAA454FD00027B94630
:107AD000AAE7236921F0070141F00601062DD3F83A
:107AE000009021832DD1B9F1000F3FD041F0080162
:107AF000218388F31188BFF36F8F3A492046C84726
:107B000029E021F00701236941F0040189B2042D25
:107B1000D3F804902183E6D000273E464FF0040AB4
:107B200082E721F00701236941F0050189B2052DA3
:107B3000D3F808902183D6D000273E464FF0050A9F
:107B400072E700273E464FF0060A6DE72B4687E7AF
:107B5000B9F1000FD1D1EFF31188202383F31288FC
:107B6000BFF36F8F238B23F008032383258BEA0653
:107B70002ED525F01003238305F007056669218BB8
:107B8000002EBFF670AF00232768C4E9003321F050
:107B9000070141F001012183218B01F0070AAA4569
:107BA0004FF000097FF440AF002F9CD041F0080156
:107BB000218388F31188BFF36F8F002FC8D03D68F1
:107BC00039463346524620460BF0DFFC2F46F4E799
:107BD000AB067FF51BAF25F02003238305F00705D7
:107BE00000E700BFB73503002DE9F84F81462F4865
:107BF0000F460BF061FE064670B92D4CDFF8B4A0BD
:107C00000546A0464FF0010B544507D3B9F1000FCC
:107C100002D04FF0010AE5B9BDE8F88F237B6BB1C4
:107C20002368DB680BB12046984723681B6943B97A
:107C3000636804221968204600F0C8F80136103441
:107C4000E2E7204698470028F2D00BFA06F31D43DE
:107C5000F4E7A94695FAA5F4B4FA84F40AFA04F311
:107C6000260108EB04146FEA030B25EA0305237BC6
:107C700063B158F806301B6993B94644042273680F
:107C80002046196809EA0B0900F0A0F8002DE1D19F
:107C900027B14FF4A47000210AF0A6FA4D46BAE7C6
:107CA000204698470028F1D1E7E700BF681300207D
:107CB0007C6003008C600300014B53F82000704788
:107CC000D860030008B5034608462BB1044A136088
:107CD00000F06CFA002008BD6FF01500FBE700BF54
:107CE0001C0C0020054A064800231370054A136047
:107CF000054A4FF400411360FFF7E4BFE627002078
:107D0000B5380300601300206413002070B50B4DDC
:107D1000297841B90120FFF767FF094C094EB442A9
:107D200002D301232B7070BD63685B791BB123689C
:107D300020469B6898471034F1E700BFE6270020F3
:107D40007C6003008C60030010B5044608480BF00B
:107D5000B3FD5CB1BFF35B8F064B53E8001F0139E5
:107D600043E80012002AF8D1BFF35B8F10BD00BFBB
:107D7000601300206413002070B50A4B0A4C1B6886
:107D80000A4E05469847A860B44200D370BD6368A8
:107D90005B7923B1236829461B6820469847103435
:107DA000F2E700BF1C0C00207C6003008C60030025
:107DB000044A054B9B1AB1EBD30F34BF52F8310084
:107DC00000207047D45F03007C600300084BC31A97
:107DD00010B41B1144680133237143689A714368DE
:107DE0001960436801225A7110BC0BF087BD00BFB7
:107DF0007C6003002DE9F04F85B002AFD7E90EA9F2
:107E00003D6B04460E4693469846BAF1000F33D0B8
:107E1000C7F80490CDF8009010217A6B53460020EB
:107E2000FFF7E2FB0146154A04F007040BF0070BCD
:107E3000E40044EA8B1402EA4122144344EA055464
:107E400017350D4425F00705ADEB050D02ADBAF170
:107E5000000F07D0CDF800907A6B534605F1100063
:107E6000FFF7C2FB43462246314628460BF049FD48
:107E70000C37BD46BDE8F08F5146D4E700FE0F0039
:107E8000406820B1034BC01A40F3CF0070474FF059
:107E9000FF307047D45F03000EB403B503AB014657
:107EA00053F8042B0448019303F0E2F802B05DF8A4
:107EB00004EB03B0704700BF35390300CA0605D490
:107EC0008B064CBF02490349FFF7E6BF704700BF6E
:107ED0006D8503006C8503002DE9F04F89B09B464A
:107EE000149B06939DF84CA0159B0593169B179E1B
:107EF000049304460D469046BAF1000F00F09D80B1
:107F000006F4807307930BF0FAFC06F002090246B0
:107F100000283ED091492046FFF7BEFF0746B9F141
:107F2000000F08D016F0440F35D18D492A4620465F
:107F3000FFF7B2FF074406F0010353B1894B8A49AA
:107F400053F82A20894B2046002A08BF1A46FFF71B
:107F5000A3FF06F48073002B49D006F00803002B22
:107F600063D1B8F1000F66D0814942462046FFF741
:107F700093FF0546069B3D44002B6DD1049B002BCF
:107F800073D1F30700F1E48031462046FFF796FFF6
:107F9000D8E00746C3E7774B18680028CAD0764B6D
:107FA0004FF47A791B68B5FBF3F54FF46161B5FBCB
:107FB000F0F300FB135509FB05F54FF03C0CB3FB48
:107FC000F1F201FB1231B5FBF0FEB1FBFCF300FB5B
:107FD0001E550CFB131109FB05F50091B5FBF0F5DF
:107FE0006649CDE901E52046FFF756FFA2E706F016
:107FF0000803EBB1624B634953F82A202046FFF790
:108000004BFF0546B8F1000F05D0594942462046BE
:10801000FFF742FF0544BBF1000FABD05A495A4667
:108020002046FFF739FF0544A4E74FF0000BE1E7D6
:1080300006F00805E6E745469CE7BBF1010F069B05
:1080400006D1002B64D1049B002B7BD000250CE0D3
:10805000002BF8D04D485CE04D48069B4D49224628
:108060000BF00CFA049B002B68D0DFF82C81DFF8B2
:108070002C91049F3146102F204628BF1027FFF770
:108080001DFF4FF0000B5D4545DC059B49461A7806
:108090002046FFF701FF4FF0010B1BF0070F03D144
:1080A00041462046FFF7F8FE5F453BD9059B494610
:1080B00013F80B202046FFF7EFFE0BF1010BBBF18D
:1080C000100FEAD1364920464FF0000BFFF7E4FECF
:1080D0005A46059B9A5CA2F120015F2928BF2E22F7
:1080E00030492046FFF7D8FE0BF1010BBBF1100F12
:1080F0001DD01BF0070F03D141462046FFF7CCFEF1
:108100005F455A46E5D841462046FFF7C5FEEBE7F6
:108110001F485546A1E741462046FFF7BDFE0BF13B
:10812000010BB0E720492046FFF7B6FEC5E7059BE7
:108130003B440593049BDB1B04939AD1BAF1000FD7
:108140007FF41FAF204609B0BDE8F04F0BF01CBC18
:10815000064A05492046FFF79FFE15E7EB6403003A
:10816000EF640300E8600300746C0300E66403003E
:1081700014650300701300206C130020F8640300E2
:10818000FC600300186503001E65030051390300FD
:108190003539030071B002002B650300236503002D
:1081A0002D650300578A030029650300074A002153
:1081B0000123904206D8064A01B901231360054BFA
:1081C0001860704740085B000121F2E740420F0051
:1081D0006C13002070130020F8B5074F0D460446BD
:1081E0004618B44201D12846F8BD14F8011BBB68FB
:1081F00001489B6A9847F4E7185E0300014B03604F
:108200000020704744610300024B00221A605A604C
:10821000704700BF5314002070B50B4B0B4CA342AA
:1082200001D3002070BD196A1E7F00220439D5B227
:10823000AE4201D82433F2E7013211F832508542C0
:10824000F5D10120EEE700BF9C0F0020C00F0020F9
:1082500070B5254C2578C5F3411505F10A038AB0A0
:1082600054F823307BB9214A0392214A0292082212
:10827000CDE900321F490495042218460BF0E9FBB2
:1082800000200AB070BD04F1080204F1100120467C
:108290009847002825DA154B0495039300250826F6
:1082A000154B029328462B46CDE90056114904226E
:1082B0000BF0CFFBE3880893A388079363880693AA
:1082C00063780593237804930C4B03930C4B094973
:1082D0000095CDE9016304222B4628460BF0B9FB3B
:1082E000CEE70120CDE700BF98130020126B0300FA
:1082F000696503006460030087650300026B030087
:108300009C6503002DE9F04387B08388059343788B
:1083100004931B4B03931B4B029317460023082225
:10832000CDE9003204460E4604221749174DDFF806
:108330006080DFF8609018460BF08BFB454504D356
:108340006FF0850007B0BDE8F0836A68D9F8243083
:10835000934213D8AB698BB190782179884206D1CA
:108360003A463146204607B0BDE8F04318475279F7
:10837000012A03D13A463146204698472435DDE7A5
:10838000486C0300DF650300646003009C0F00205D
:10839000C00F00209813002010F0700F1FB500F0E0
:1083A0007F030ED000240A4B039002932046CDE9B0
:1083B00000440849234601220BF04BFB204604B041
:1083C00010BD10F0800F18BF103301209840F6E761
:1083D000026603006460030030B585B0054604F012
:1083E00045FE10F1780F044616D1134B029300237B
:1083F000CDE9003311490395022218460BF029FB01
:108400002846FFF7C9FF0E4AD2F8C43023EA00031A
:10841000C2F8C43000240CE00028F1D0094B0293CC
:108420000023CDE9003305490395012218460BF0DE
:1084300010FB204605B030BD1D66030064600300DC
:10844000981300203E660300F0B587B0838805933B
:1084500043780493164B0393164B0293164600235E
:108460000822CDE9003204460D461846124904227E
:108470000BF0EFFA114B1249586A124B8B4203D39F
:108480006FF0850007B0F0BD5A6890420ED81F69A2
:1084900067B192F802C02279944507D13246294645
:1084A00020463B4607B0BDE8F04018472433E5E7D7
:1084B0002B6C0300DF650300646003009813002049
:1084C000C00F00209C0F00202DE9F04186B083886A
:1084D000059343780493124B0393124B0293174670
:1084E00000230822CDE9003204460E4604220E493C
:1084F0000E4DDFF83C8018460BF0ABFA454502D331
:108500006FF0850009E06B690BB92435F6E73A4650
:108510003146204698470028F7D106B0BDE8F081E3
:10852000396C0300DF650300646003009C0F0020CA
:10853000C00F002004282DE9F74FDFF89C90044677
:108540000F4615D001282FD1DFF8908098F8B93068
:1085500053B301F029FB224D4D4522D22A6A4FF038
:10856000000A2B7F5FFA8AF6B34204D82435F3E77A
:10857000FFF74AFEE8E702EBC6060192307904F005
:1085800075FD83463079FFF707FFD8F8C430019AAC
:1085900023EA0003BBF1000FC8F8C4300AF1010A56
:1085A000DFDA002388F8B9300D4D4D4508D30B4B69
:1085B0001B6A6BB13946204603B0BDE8F04F18473F
:1085C000EB681BB13A462146284698472435ECE72C
:1085D00003B0BDE8F08F00BFC00F0020981300204B
:1085E0009C0F002070B5C4B286B063060D468DF8AE
:1085F000174007D02046FFF70FFED8B1194B93F86C
:10860000BA00B8B1174E0394B5B1174B02930023CB
:108610001846CDE90033154903220BF01AFA9DF8EC
:10862000170004F043FCF3691BB10DF1170108209A
:108630009847012006B070BD0D4B0C490095CDE95F
:10864000015303222B4628460BF003FA9DF817002E
:1086500004F07AFCF369002BEBD00DF1170109202F
:10866000E6E700BF98130020606603006460030023
:108670007366030010B586B00E4B03930E4B029346
:1086800001F0030100230822CDE90032CDE9040105
:1086900004460A49184604220BF0DBF9204601F093
:1086A00065FA2046FFF798FEB0FA80F0400906B060
:1086B00010BD00BFBD6B030088660300646003004B
:1086C00070B58AB082788DF820208388ADF822308A
:1086D00099B2C378049203F00303CDE905318DF814
:1086E0002430344B0393344B029304460023082276
:1086F000CDE9003218463149314D04220BF0A9F979
:10870000A078FFF749FED5F8C4301842064609D0D4
:10871000E178A078FFF7AEFF0DF082F810B996204F
:1087200009F080FD08A804F08DFB10F1780F9DF88A
:10873000203027D10393234B02930023CDE900334C
:108740001E49022218460BF084F99DF8200004F01F
:108750004DFC10F1780F25D19DF8203003931A4B72
:1087600002930023CDE900331449022218460BF08E
:1087700070F9D5F8C4300120334385F8B900C5F845
:10878000C4300DE00028E0D00393104B0293002387
:108790001846CDE90033094901220BF05AF90020AF
:1087A0000AB070BD0028E4D09DF820300393084B38
:1087B000ECE700BFCC6B0300AA6603006460030013
:1087C00098130020CF66030016670300F2660300CB
:1087D000366703002DE9F04FAA4EB36987B004460F
:1087E0000F469046BBBB227802F01F0ABAF1010F78
:1087F00000F02881BAF1020F00F00682BAF1000FF2
:1088000040F08B8094F90030D8F800906578002B08
:1088100063DA062D24D0082D4CD0002D40F00081C5
:10882000994B0393994B02930823CDE90053984940
:108830002B46042228460BF00CF9012389F800305E
:1088400089F8015096F8C3305B0043F0010389F8C2
:108850000030022310E298470028C4D100205EE0D7
:108860008C4B02938C4D8A4903950823CDE900A3D4
:108870000422534650460BF0ECF86288100A031F9E
:10888000012B044649D9072847D8716A5FFA82FC50
:108890000B781BB9CDE90352804A7DE04E78A642A1
:1088A00004D1D44500F0E2810AF1010A1944EFE74E
:1088B0000B78E1E17A4B03937A4B7549CDF800A030
:1088C000CDE901530422534650460BF0C2F896F806
:1088D000BA3089F800300123CEE1013D082D00F2C5
:1088E0009F80DFE805F0759D899D059D9D9D1F007A
:1088F000638804936A4B03936B4B02934FF0080910
:1089000000231846CDE90039614904220BF0A1F893
:10891000A07804F019FA0028A0D06FF0150007B075
:10892000BDE8F08F6388776A0493604B029300255B
:108930000823DFF87C815649CDF80C80CDE900533F
:1089400004222B4628460BF084F86388002B3BD189
:10895000FFF75AFC638886F8BA30F369002B3FF4BE
:108960007DAF54490320984778E77A78042A1DD0D0
:10897000052A1ED0022A04D17D796288AA4208BF46
:1089800001233A7817443A78002AEED1002BDFD140
:108990006288CDE90382484A02920822CDE900327A
:1089A0003B49042218460BF054F8B6E797F80390B9
:1089B000E7E76288AA42E4D1B9F1000FE1D1384675
:1089C000FFF77EFE0346DCE72B46FF25A946DAE7E4
:1089D000334B0393394B029300250823CDE9005311
:1089E0002B492B46042228460BF033F86388012BD1
:1089F00016D186F8C35031E7294B0393304B0293CD
:108A00004FF008080023CDE9003818462049042219
:108A10000BF01FF86388012B02D186F8C3301DE7E5
:108A200063780593237804931D4B0393254B02939E
:108A300008220023CDE900321549042218460BF024
:108A400008F86AE796F8BA30D8F80010002B3FF41F
:108A500064AF756AA28894F804E02B4693F800C0CE
:108A6000BCF1000F3FF459AF5878022804D193F8B5
:108A70000480F04500F202816344EFE70B704B7015
:108A80003860EBE698130020026C03005767030080
:108A9000646003006E670300EF6B0300E768030088
:108AA000116C030089670300A7670300C267030016
:108AB000D96B030052140020E3670300036803002E
:108AC0001D680300356803001D442B78002B3FF41C
:108AD00024AF68780428F7D1A8788242F4D1072A15
:108AE00096BF9219002392F8BB300B700593A388B0
:108AF00004936C4B03936C4B02934FF0080E0023CE
:108B0000CDE9003E6949042218460AF0A2FFE2E6D8
:108B10000B2B40F0C28063886449CDE90423644B89
:108B200003930027634B02934FF0080BCDE9007BC2
:108B30003B46042238460AF08CFF4FF0FF08C1463E
:108B4000BA462B7843B9F36913B1514607209847C9
:108B5000002F7FF483AEE0E66B78042B04D0052B66
:108B600027D02B781D44ECE795F80280A38895F870
:108B7000039098450ED1638899450BD1B8F1070F42
:108B80009FBF06EB0803AA4683F8BB90012784BF6A
:108B9000AA460027464B0393434B4449CDE901B312
:108BA0000023CDE904890093042218460AF051FFFE
:108BB000D7E7A3884345D4D1A378AA7804924B453C
:108BC0003D4B039311D03D4B02934FF0080C002313
:108BD00036491846CDE9003C04220AF03AFFE9780C
:108BE000A878FFF747FD0746BBE7354B02930827F8
:108BF00000231846CDE900372C4904220AF029FF4A
:108C00002846FFF75DFDEEE71006637817D5D3B968
:108C10002479D8F8005061060AD02046FFF7FCFA04
:108C200000283FF47AAE96F8BA30002B3FF475AEC8
:108C30002946204604F0BEF900236B7009E6012B9B
:108C400005D0032B0DD0CDE904231E4BEDE6618842
:108C50000029F8D1A088FFF7C5FC00287FF4FEADFD
:108C60005BE661880029EED10121F3E70228C8F80C
:108C700000107FF41DAE4B883B60EFE594F900E0F7
:108C800094F800C06378BEF1000FBFF641AF002B2F
:108C90003FF4F4AE0A2B3FF418AFCDE904C30A4BFE
:108CA000C3E600BF8E6B03006A68030064600300C4
:108CB0007C6B03008E680300686B0300B0680300E0
:108CC000CC6803004C6B0300A06B03002DE9F04F50
:108CD000DFF848B085B005460F4690469946042611
:108CE0004FF0000A4B4642463946284604F0EEF95A
:108CF00010F10B0F04460DD10023CDE902B5CDE9EB
:108D000000AA0749022218460AF0A3FE09F0D2F988
:108D1000013EE7D1204605B0BDE8F08FFE680300B4
:108D20006460030010B51D4C237D88B063BBE2680E
:108D3000A168079207AB8020FFF7C8FF079AA368D6
:108D40001344A360E3689B1AE360DBB9D2B1E18806
:108D50002269914216DD94F8C80092FBF0F300FB03
:108D600013237BB9CDE904120D4A03920D4A0292F6
:108D70000822CDE9003218460B4904220AF069FEA8
:108D80000123237508B010BD00231A461946802020
:108D9000237508B0BDE8104004F098B9981300207E
:108DA000F16A03002569030064600300F0B58BB02D
:108DB00000235E4A5E4F02920826CDE90401054673
:108DC0000C46CDE900365B49039704221846079309
:108DD0000AF03FFE002D40F09E80002C53D1234628
:108DE000324608A9204604F0C9FA002809DA524B95
:108DF0000397CDE90163009423464E4904221846A7
:108E000034E04E4D089A2A60099A6A6005F13802EA
:108E1000AA609DF92020BDF826302C75002AC5E9EE
:108E2000034417DB802B11D9454B42490094CDE90F
:108E300001430122234620460AF00BFE802004F065
:108E400035F8204604F032F80BB0F0BD13B1C5E997
:108E50000333F9E7FFF7FCF9034658B9394A0292A0
:108E60000822039701923349009304220AF0F1FD8E
:108E70008020E7E7EA882B699A42D4BFEA60EB607A
:108E8000FFF750FFE0E72D4CD4E90212002A07ABB0
:108E90000CDC2A46284604F071FA0028D4DA2A4B62
:108EA0000397CDE9016300952B46A6E7284604F019
:108EB00065FA00280FDA244B1E490397CDE90163B8
:108EC00004222B46284600950AF0C3FD802003F0BB
:108ED000EDFF2846B6E7079AA368E5681344AD1A84
:108EE000A360E560002DAFD104F13803A360FFF764
:108EF000AFF90397034618B9144ACDE90162B2E706
:108F0000134B0C490095CDE9016304222B462846FA
:108F10000AF09FFDB4E7802D96D1084BDA68002A4D
:108F2000AED11B7D002B8FD0AAE700BF486903009C
:108F3000256B03006460030065690300981300203B
:108F4000826903009B690300B9690300D5690300C6
:108F5000F4690300054B064A9A62064ADA62064A39
:108F60001A63064A58629A610020704798130020DD
:108F7000D587020049840200C984020005830200EB
:108F80002DE9F04F89B06B4B02930025DFF8A881E3
:108F90006A49CDF80C800823CDE9005306462B46DC
:108FA000042228460AF055FD654C66484FF0FF3311
:108FB0004FF0FF3208F0BEF994F8B830FBB1624BC5
:108FC0000095CDE9015328462B465C4902220AF060
:108FD00040FD6FF077055D4B029308220023CDE939
:108FE00000325649CDF80C80042218460AF031FDB3
:108FF000544808F091FA284609B0BDE8F08F636A3A
:109000008BB900F013F9FFF7A5FF636A5BB9504A0B
:109010004A490093CDE90132184601220AF019FDB0
:109020004FF0FF35D7E74B48E061676A266204F0EE
:10903000E5F903F057FE051ECDDB00F0F1FD051E3E
:10904000C9DB7B78012B01D1FB7963B9424B0293D9
:109050000023CDE900333949012218460AF0F9FC12
:109060006FF01505B7E7002606A884F8C830ADF8FC
:109070001A308DF81C608DF8186003F0E3FE051EB1
:10908000A9DB802706A88DF8187003F0DBFE051E0B
:10909000A1DB3249304604F09DF9051E9BDB2F49C8
:1090A000384604F097F9051E95DB2D4DDFF8B4B076
:1090B0005D451AD3002003F099FF051E8BDBD4F821
:1090C000C430802043F00103C4F8C43003F08EFFA5
:1090D000051E80DBD4F8C43043F48033C4F8C430B8
:1090E000012384F8B830002575E7D5F820900027D3
:1090F0002B7FFEB2B34201D82435D9E709EBC60A6B
:1091000008219AF804300493174B0393174B0293EA
:109110000023CDE900311846084904220AF099FCE1
:1091200059F836109AF8040004F054F90137002871
:10913000DED075E70F6A0300416B03006460030033
:1091400098130020B40E00202E6A0300BA6A0300B0
:10915000516A030035850200766A0300AD8D020076
:109160009C0F0020C00F0020DB6A0300A56A0300EB
:1091700030B5284B91B00BAA03F110051868596857
:10918000144603C40833AB422246F7D11B78237040
:109190001022002107A80CF0BAFD122200211E485F
:1091A0000CF0B5FD102107A80BF0A0FE041E2DDD6C
:1091B0001A4A04921A4A0392082C1A4A0292B8BF19
:1091C00008240822CDE90022A4F1080307AA1344C9
:1091D0001549002004220AF04FFC093C07AB0E4958
:1091E0002344002013F8012F10AC04EB121402F0FA
:1091F0000F0240326A44013014F8144C12F8142C57
:109200000C7008284A7001F10201EBD1024811B03C
:1092100030BD00BF776C0300E9270020626C0300BB
:1092200078700300706C03005C6003002DE9F04F60
:109230008DB000258F4F904B904C9149029308269A
:109240002B4604222846CDE90056049403970AF0E1
:1092500013FC8C4B8A490095CDE903738A4B042299
:10926000CDE9016328462B460AF006FC874B1B78A4
:109270001BB182480DB0BDE8F08F00264FF0011BF6
:10928000089635463746237893B97E4A023494428D
:1092900000F003827E4A03927E4A02920822CDE9C0
:1092A000003277490494042218460AF0E5FBE4E70B
:1092B00063780B2B52D8DFE813F068010C004200F2
:1092C00068015900AB00510051005100510051009C
:1092D00054006F4B03934FF000096F4B02934FF014
:1092E00008084B464846CDE9009865490494042295
:1092F0000AF0C2FB40230AA88DF82890ADF82A3066
:109300008DF82C9003F046FD38B10AA8ADF82A80FC
:1093100003F040FD08B1ADF82A909DF82A30E371C2
:1093200004935E4B03935E4B029308200023CDE928
:1093300000305349042218460AF09EFB0EE0544BBD
:109340000393584B029308270023CDE900374C497B
:109350000494042218460AF08FFB274623781C4405
:1093600091E74B4B039304944F4BDDE74FF0000A1A
:109370004E4BDFF81C9102934FF008085346CDE99D
:1093800000A83F490494CDF80C90042250460AF0FE
:1093900073FBE3786BB1464B3949CDF80C90CDE9BE
:1093A0000183CDF800A05346042250460AF064FB26
:1093B000D4E7A37813B3089B0133DBB20893CDE75E
:1093C0006A6894421DD024359D42F9D3394B0293EB
:1093D0000023CDE900332A490394012218460AF0FC
:1093E0004BFB0024344B02932046CDE90044244932
:1093F000234601220AF040FB20463BE72F4D304B2D
:10940000E2E7AB68002BD6D0089920469847D2E710
:1094100055B92C4B0095CDE901532B461849012233
:1094200018460AF029FBDCE7194B0393264B0293FD
:109430004FF0000A0823CDE900A304221049049448
:10944000534650460AF018FB01222B7F9A4505D35C
:109450001E4B02930023CDE90033DFE72B6AA1788E
:1094600003EBCA0309931B79994231D00AF1010A2F
:10947000EBE700BF5E700300886C0300F80E00206D
:109480005C6003009B0F0020A66C0300E82700200F
:109490004B700300076F0300C26C030036700300BB
:1094A000DB6C0300F66C0300166D0300346D0300E3
:1094B000506D03006D6D03002C6F03009C0F0020A6
:1094C000C00F00208D6D0300CE6D03001A6E0300E7
:1094D0004FF00108E37803F003038DF82C30237973
:1094E000617943EA0123ADF82A3094F90230002B68
:1094F0005FFA88F93CDA08F1100302FA03F313EA81
:109500000B0F3CD149F080030AA88DF8283003F0F6
:1095100041FC0122034690BB9DF828200592A278C9
:109520000492604ADFF880A102920822CDE900028D
:109530005E49CDF80CA004220AF09EFA9DF828207E
:10954000099BA27012F0800F18BF09F110091A715F
:1095500018BF5FFA89F94FF0010314BF03FA09F34A
:1095600003FA08F34BEA030BCDE903A2504BDBE609
:1095700002FA08F313EA0B0F01D14B46C4E708F1D6
:109580000108B8F1100FA5D170E7032E45D1FFF700
:10959000EFFD804670B1FDF76DFF58B1102831D056
:1095A000444B02930023CDE9003340490122184681
:1095B0000AF062FA2346082113F8029B06934FEA49
:1095C0005908A8F10203A9F1030ACDE904A33A4B13
:1095D00003933A4B02930023CDE9003118463349F7
:1095E00004220AF049FA6FF001031B1BA044A144B6
:1095F0000993099BBAF1000F03EB080216DA013652
:10960000F6B2ABE64046A31C08F1100250F8041B6A
:1096100043F8041B9042F9D1CCE7002ECAD117BB06
:10962000274B0097CDE901733B46F7E698F80030E9
:109630001E49CDE90433204B0393224B0293CDE91D
:10964000062A00230822CDE90032184604220AF037
:1096500013FA002309F8013C18F8013909F8023D12
:10966000AAF1020AC5E7184B0393184B0293A4EB27
:1096700007080823CDE90063CDF8108033460B4975
:10968000042230460AF0F8F9089B87F80280C8F3F4
:10969000072887F803803B71B1E70D4B01221A7050
:1096A000E7E500BFE96D03001D7003005C60030087
:1096B000086E0300376E03000B700300826E030018
:1096C000CA6E0300AB6E03004B700300E76E03002D
:1096D000E827002010B5006886B040B150F8043C7F
:1096E0005B689942A0F1040011D04068F5E7094B8E
:1096F0000393094B029300240823CDE9004304910E
:1097000020460649234604220AF0B6F9204606B050
:1097100010BD00BFF36F03004B6F03005C600300DC
:1097200010B5006886B050B150F8043C5B685B68C7
:109730009B788B42A0F1040011D04068F3E7094BFD
:109740000393094B029300240823CDE900430491BD
:1097500020460649234604220AF08EF9204606B028
:1097600010BD00BFD96F0300706F03005C60030081
:1097700030B5006887B098B150F8043C5B681A6A4D
:109780001D7F04380023043ADCB2A54201D84068AA
:10979000F1E7013312F833408C42F5D107B030BD08
:1097A000084B0393084B029300240823CDE90043A0
:1097B000049120460549234604220AF05DF920461B
:1097C000ECE700BFC26F03009E6F03005C60030004
:1097D00010B5094B00211A461C78844204D15C68FC
:1097E00014B102EB811010BD0131042903F14003D3
:1097F000F2D10020F7E700BF641400202DE9F04308
:1098000050F8283C10F82C5C10338BB0044621D063
:109810005D4B03935D4B029308220023CDE9003298
:109820005B490495042218460AF036F954F8283C9E
:1098300010330CD054E9078754F8149C0BF0F0FF58
:10984000064600287DD0534821460BF07AFF0BB026
:10985000BDE8F083036950F8202C13F002063ED0D7
:10986000B2B913F0040303D0002344F8283CDDE729
:10987000454A0392484A02920822CDE9003218462E
:10988000434904220AF008F9236943F004032361E1
:1098900054E9091209AB2846FFF718FA70B13F4B9B
:1098A00002930023CDE90305CDE90033184638497A
:1098B00001220AF0F1F86FF01503D6E7099A54F87F
:1098C000243C134444F8243C54F8203C9B1A44F8AC
:1098D000203C54F81C3C134444F81C3CA6E750F8C8
:1098E000241C09AB284603F099FC38B12B4B009699
:1098F000CDE90163CDE903053346D7E7099E54F866
:10990000243C334444F8243C54F8203C9B1B44F84A
:10991000203C54F81C3C334444F81C3C002EA3D09B
:10992000284603F071FDB6FBF0F303FB1066002E32
:109930009AD154F8203C002B96D0284603F0CCFC5A
:1099400074E754F81C3C069354F8283C059314F82B
:109950002C3C04930C4B0393114B02930823CDE949
:1099600000030B49034604220AF096F844F8186CE9
:10997000A4F1100007F070FE002F3FF468AF4A46D4
:1099800041462846B84762E70A720300A770030001
:1099900074600300C00F0020D6700300E77003005E
:1099A0000471030070B54B1E012B86B006460D46B0
:1099B00018D8FFF70DFF0446B0B9012D12D105AB41
:1099C00001220DF11301304603F028FC059B002B0A
:1099D000F5D10F4A0F490093CDE901321846012213
:1099E0000AF05AF806B070BD0BF01AFF04F12C0112
:1099F00008B1012D05D1084606B0BDE87040FFF75B
:109A0000FDBE054806B0BDE870400BF09ABE00BF31
:109A10003671030074600300C00F00202DE9F04F81
:109A20008BB005460891164698460AF045F804465C
:109A3000002840F08780089B44490696CDE90453EE
:109A4000434B0393434B02930823CDE900030422C5
:109A500003460AF021F8EFF311830993202383F3DF
:109A60001288BFF36F8FDFF8F0A00023002250466A
:109A700007F016FE0346B0B9DFF8E0B00BEB84192F
:109A8000A701D9F8044014F1100F26D1344A2F4908
:109A90000395CDE901020090012209F0FDFF504637
:109AA00007F0DAFD10E00134042C0AF1400ADCD1A1
:109AB0002C4B02930023CDE90033244901221846A0
:109AC00009F0EAFF6FF00B04099B83F31188BFF3E1
:109AD0006F8F20460BB0BDE8F08F149B089AC9F831
:109AE0001430159BC9F81000C9F8183028466FF0DB
:109AF0000F03C9E902260BF80750C9F83C80C9F8E2
:109B0000043003F081FC68B1284603F07DFCB6FB0D
:109B1000F0F303FB10662EB1D9F83C3043F0040398
:109B2000C9F83C3018F0020F07D007F12C010E489D
:109B300059440BF006FE0024C6E7284603F0CCFB90
:109B40000446C1E76FF00F04C3E700BF7460030071
:109B5000FD71030050710300801400206414002084
:109B60009C71030081710300C00F002010B5EFF35A
:109B70001184202383F31288BFF36F8FFFF728FE31
:109B800050B14368103307D16FF08B03436000F18D
:109B90002C0104480BF0D5FD84F31188BFF36F8FBF
:109BA00010BD00BFC00F0020F0B5184C87B00425D1
:109BB0002027EFF3118687F31288BFF36F8F54F8D5
:109BC000283C103317D16FF08B0344F8283C214612
:109BD0000F480BF0B6FD14F82C3C04930D4B039387
:109BE0000D4B029308220023CDE900320B490422D9
:109BF000184609F051FF86F31188BFF36F8F013DBE
:109C000004F14004D5D107B0F0BD00BF901400208E
:109C1000C00F0020E8710300C571030074600300E9
:109C200070B50A4C0A4E0025314620460BF06DFDFA
:109C30000122A4F11000114601350BF0E8FC042DBF
:109C400004F14004F0D1002070BD00BF901400204A
:109C5000FD97020070B504460E4601791548154679
:109C6000FFF75EFD10B394F900206378002A16DB3D
:109C7000202B04D0222B0ED06FF085000AE02B6839
:109C80001A6840F8102C9A8820F80C2C9B7900F860
:109C90000A3C002070BD638800F8093CF9E7212BDD
:109CA000EAD11038072328603360F2E76FF0120022
:109CB000F0E700BF6415002008B501460348FFF730
:109CC00057FD10B1012300F8073C08BD64150020C2
:109CD0000169012381F84B300B6833B191F84930A9
:109CE0001BB1024808310BF02CBD7047C00F00209B
:109CF0000169012381F84A300B6833B191F848308B
:109D00001BB1024808310BF01CBD7047C00F00208A
:109D100070B5012382F8483013680D4614463BB1F4
:109D200092F84A3023B10E4802F108010BF009FD08
:109D3000D4F890301A699B689A4205D17DB904F134
:109D4000180140F6CD4204E004F11801002DF8D0CE
:109D50000022BDE870400248002307F041BE70BDFC
:109D6000C00F002038B5056995F89E0088B195F8B8
:109D70009F307BB985F84830D5F8900009F023FD75
:109D8000002204460023044805F1180107F028FECC
:109D9000204638BD0020FCE7C00F00200D4A0346D6
:109DA0000021A0F848101068C3F8940090889279B8
:109DB000A3F8980083F89A2083F89C1083F89B10EE
:109DC000A3F89E1083F8A010402203F14C000BF082
:109DD0009EBF00BFB8600300F0B5D0F88C305B6860
:109DE0001B6A1F7D85B00446384609F065FE0646AD
:109DF000F8B994F88630E3B1A06F4FF4806203A9FC
:109E000009F000FD0546A0B18306A4F1180308BFC0
:109E100000F1FF3584F830600193074B03990093FC
:109E20002A4602233846FFF7F9FDA06F294609F0BC
:109E300009FD05B0F0BD00BF119D020010B5046919
:109E40000023C4F8A8300C4BC4F8A400596804F1EE
:109E5000A80269B9C3E9002204F1080007490BF020
:109E600054FC04F1180006490BF0B7FC002010BDAB
:109E70000A605A60F0E700BF64150020E33A03006F
:109E8000D99D020013B504698DF80710002384F8EA
:109E90004830D4F8900001220DF1070109F093FC3D
:109EA00010B90BF0BDFC40B12122002304F11801D0
:109EB000064807F095FD02B010BD94F8A130002BC4
:109EC000F2D00021212008F08FF9E2E7C00F002036
:109ED00037B514460A1E054620DDD4F88C0004F17F
:109EE0004C0109F070FC012384F8493023683BB130
:109EF00094F84B3023B1114804F108010BF021FC18
:109F0000D4F88C104B684A699A1ACB699B1A3F2B7C
:109F100004D8012384F8A03003B030BD94F89E30FB
:109F2000002BF9D0064B009301940123402204F149
:109F30004C012846FFF772FDEEE700BFC00F00207E
:109F4000D19E0200F7B50D4601461D48FFF7C2FB42
:109F5000044610B30646691E56F8A4395F68052901
:109F60001BD8DFE801F01C1A031C222610F8061C7F
:109F700099B9012300F8063C3B6A3246187BFFF78B
:109F8000A7FF14F85C2C42B93B6A187D0D4B009377
:109F9000019602231146FFF741FD03B0F0BD3046A4
:109FA00003B0BDE8F040FFF7F9BE012304F8053C1B
:109FB000F3E710F8053C002BEFD00023F6E700BFD5
:109FC00064150020119D020037B5094D0949002490
:109FD00000944FF0FF334FF48062284607F0C2FC34
:109FE000054928460BF022FC204603B030BD00BFD7
:109FF000C00F0020402900203672030008B5044835
:10A0000009F06FFABDE80840024809F06ABA00BFDB
:10A010003F72030074720300014808F0ADBB00BF3B
:10A02000C461030038B5044618B90F4B0F485B688C
:10A0300098476168B1F5683F10D0B1F5680F0DD051
:10A040000B4DA9420AD011F46861206807D001467F
:10A0500008480BF01CFA00232360656038BD142209
:10A060000BF055FEF9E700BFD40D0020A2720300EB
:10A070002C5F5CA96C1A002008B520B34368B3F5C7
:10A08000683F10D101220368BFF35B8F53E8001FC4
:10A09000002903D143E800200028F7D1BFF35B8FEC
:10A0A0000DD1002008BD094A93420AD000684FF044
:10A0B000FF324FF0FF3307F03DF90028F1D004489C
:10A0C000F0E70448EEE76FF4E040EBE72C5F5CA9B3
:10A0D000E98FFFFFEA8FFFFF08B5D8B14368B3F5FA
:10A0E000683F10D100220368BFF35B8F53E8001F65
:10A0F000012903D143E800200028F7D1BFF35B8F8B
:10A100000BD1002008BD074A934208D0006807F031
:10A1100003FAF6E76FF4E040F4E70348F2E7034898
:10A12000F0E700BF2C5F5CA9E98FFFFFEA8FFFFF1C
:10A1300010B5044618B91D4B1D485B689847636805
:10A14000B3F5683F2FD0B3F5680F2CD0194A93426E
:10A1500019D1236803BB18484FF0FF324FF0FF338B
:10A16000214607F085F808B923681BB90F4B13483F
:10A170005B6898472068142200210BF0C8FD4FF45B
:10A180006863636008E0B3F5683F0DD83A2B03D0ED
:10A1900040F6BA629342DED120680BF0B9F96368E9
:10A1A00043F03A03636010BD054AF3E7D40D002085
:10A1B000A27203002C5F5CA96C1A0020C872030015
:10A1C0003A00003A08B506490648402314220BF02D
:10A1D00050F9BDE808400449044808F03FBB00BFFF
:10A1E0006C1500206C1A0020CC610300E0610300B4
:10A1F00070B5064686B00D46002938D08B680593A9
:10A200004B6804930B6803930024244B2449029366
:10A21000012223462046CDE9004409F0FFFC6B698A
:10A2200005932B690493EB6803931E4B1C49009420
:10A23000CDE9014301222346204609F0EFFCEB69FA
:10A240000393194B16490094CDE90143012223469B
:10A25000204609F0E3FCAB690393144B10490094CA
:10A26000CDE9014301222346204609F0D7FC012E07
:10A270000DD1EFF30583103B03930D4B02930023A5
:10A28000CDE9003306493246184609F0C7FC294695
:10A29000304606B0BDE8704006F048BEF5720300D7
:10A2A0003C600300247303005373030062730300D4
:10A2B0009073030030BFFFF7FDBF00BF2DE9F041F1
:10A2C0000B4EDFF8308006EB0807CC1B0546324604
:10A2D000094920460BF00DFDA01942460021083C1B
:10A2E0000BF015FD2C6707F10800BDE8F08100BFF9
:10A2F0000000000008000000A4600300074A936803
:10A3000093F90E10002907DB526993421FBF044ADC
:10A31000536843F080535360704700BFD42500203A
:10A3200000ED00E0F0B585B00024434B0293CDE989
:10A330000044234607460E4601224049204609F0C4
:10A3400088FC3F4B9B6ADB0465D53E4B3B49009440
:10A35000CDE9014320462346012209F07AFC17206B
:10A36000374B9B6A1D050AD5374B029300231846CD
:10A37000CDE900333149012209F06BFC1820304D42
:10A38000AB6A9C051FD50024304B02930122234663
:10A390002046CDE90044294909F05BFCAB6BAA6A71
:10A3A00010040FD503932A4B24490094CDE90143AF
:10A3B00001222346204609F04CFC1FB1AB6A23F46E
:10A3C0000043AB6219201E4B9B6A59050AD5214BED
:10A3D000029300231846CDE900331849012209F001
:10A3E00038FC1A20164A936A13F4807315D01A4B5E
:10A3F000029300231846CDE900331049012209F0E9
:10A4000028FC1B200E4A936A43F47F439362002387
:10A41000337005B0F0BD1620A2E7926A9204F1D520
:10A420000E4A06490093CDE901321846012209F08F
:10A4300010FC1C20E6E700BFA37303003C60030090
:10A4400000ED00E0B9730300CA730300DD7303007D
:10A45000F67303000B740300267403003E740300BC
:10A460001FB50024374B029301222346CDE9004457
:10A470003549204609F0EDFB344B9B6A9A015ED5C5
:10A48000334B31490094CDE9014320462346012254
:10A4900009F0DFFB1E202D4B9B6ADB010AD52D4BFB
:10A4A000029300231846CDE900332749012209F021
:10A4B000D0FB1F20254B9B6A1C030AD5264B029319
:10A4C00000231846CDE900331F49012209F0C1FBE2
:10A4D00021201E4B9B6A59030AD5204B029300236F
:10A4E0001846CDE900331849012209F0B2FB2220B9
:10A4F000164B9B6A9A030AD5194B02930023184600
:10A50000CDE900331049012209F0A3FB23200F4BB2
:10A510009B6ADB030AD5134B029300231846CDE94F
:10A5200000330949012209F094FB2420074A936A69
:10A530006FEA03436FEA1343936204B010BD1D201A
:10A54000A9E700BF6D7403003C60030000ED00E06C
:10A550008574030098740300B2740300D074030080
:10A56000F57403000F7503002DE9F04385B0002456
:10A570004D4B0293CDE9004423468046894616465A
:10A580004A490122204609F064FB494B9B6ADF06D9
:10A5900040D5484B0094CDE901432046234643492A
:10A5A000012209F056FB1124414B9B6A1D070AD575
:10A5B000414B02930023CDE900333C490122184668
:10A5C00009F047FB12243A4DAB6A980724D50024C2
:10A5D0003A4B36490293CDE90044234601222046F6
:10A5E00009F037FB6F6BAB6A190659D5344B2F490D
:10A5F0000397CDE90143009423460122204609F048
:10A6000028FBB9F1000F03D0AB6A23F08003AB62E3
:10A61000132403E01024C7E76FF01507244B9B6A4F
:10A62000DA070AD5274B02930023CDE900331F49EF
:10A630000122184609F00DFB14241D4B9B6A9B0652
:10A640000AD5214B02930023CDE90033174901229B
:10A65000184609F0FEFA1524154B9A6AD50602D45D
:10A660009A6A90070AD55B68190507D541463846AE
:10A6700000F0AEFA10B180F3098802240C4B9A6AFC
:10A68000920642BF5A6A22F400525A629A6A42F013
:10A69000FF029A6220460023337005B0BDE8F083C4
:10A6A0006FF01507B4E700BF3A7503003C60030084
:10A6B00000ED00E050750300CA73030083750300CA
:10A6C0009B750300B17503003E7403002DE9F04152
:10A6D000754B5F6890B00446C7F30806002383F308
:10A6E0001188BFF36F8F02F07F40B0F17F4F0CD124
:10A6F00002F00C00082819D16C4A6D490093CDE98D
:10A7000001321846012209F0A4FA00252C464FF028
:10A710000008F31E8DF81F80092B00F2AC80DFE8E3
:10A7200003F00BA0A49DAAAAAAAAAAA8120746BF32
:10A730000C461D460125EAE75E4B5D495A4FCDF8B0
:10A740000080CDE9018300230122184609F081FA37
:10A750008DF81F80FE6A16F0020605D0564BCDF824
:10A760000080CDE9018306E0FB6A002B0BDA534B36
:10A770000096CDE9016300234D490122184609F0F6
:10A7800068FA00223CE0FB6A5B00FAD54C4B484972
:10A790000096CDE9016301223346304609F059FAAB
:10A7A0007B69A26943F480737B61BFF34F8FBFF372
:10A7B0006F8F7B6932F8022C23F480737B61BFF3C7
:10A7C0004F8FBFF36F8F4DF602739A420BD0BB6A67
:10A7D000DBB2002B34D00DF11F0201212046FFF720
:10A7E000C3FE02460CE023680393364B30490096C3
:10A7F000CDE9016301223346304609F02AFA226886
:10A800009DF81F30CBB908AE04F1200720686168BD
:10A81000334603C30834BC421E46F7D10F9B002DBC
:10A820003DD0C3F3080121B96FEA53236FEA4323F4
:10A830000F9308A91046FFF7DBFC10B0BDE8F081CC
:10A84000BB6A13F47F4F05D00DF11F010120FFF704
:10A8500069FDC6E7BB6AB3F5803F92D3FFF700FE00
:10A86000BFE70DF11F020021B8E70DF11F01002025
:10A87000EDE7154B73E7154A154B0D4917F4F87FB3
:10A8800018BF1346103ECDE90336124B0293002346
:10A89000CDE900330122184609F0DBF971E723F412
:10A8A000FF7323F00103C3E700ED00E0FE75030032
:10A8B0003C600300297603004076030061760300C4
:10A8C0006F7603008E760300AA760300E575030019
:10A8D000D0750300CE760300024A536943F010039B
:10A8E0005361704700ED00E0EFF30880EFF309815A
:10A8F00001B57246FFF7EAFE01BD00BF002080F3FC
:10A900001488BFF36F8F05F02BFC00200D49086001
:10A91000BFF34F8F0C4880F3088800F02BF82020FD
:10A9200080F3118809484FF40461401880F30988C6
:10A93000EFF314800221084380F31488BFF36F8F74
:10A9400000F00EF994ED00E0803F0020C0310020BF
:10A950000749D1F890200023C2F3072218469342FA
:10A9600000DB7047C1F89830C1F8A0000133F6E76A
:10A9700000ED00E008B572B6002383F31388FFF7FB
:10A98000E7FF144B4FF0FF32C3F88020C3F8842058
:10A99000C3F88820C3F88C20C3F89020C3F8942013
:10A9A000C3F89820C3F89C20C3F88021C3F8842101
:10A9B000C3F88821C3F88C21C3F89021C3F89421EF
:10A9C000C3F89821C3F89C2162B6BFF34F8FBFF341
:10A9D0006F8F08BD00E100E0084B9B6883420BD1FC
:10A9E000EFF3058343B1064B5A6842F080525A6038
:10A9F0005A6A22F400425A620AF0FABFD4250020B3
:10AA000000ED00E0094A93686FF00A019967084970
:10AA100058674B6843F080534B60002383F31188E1
:10AA2000BFF36F8F9368986F704700BFD4250020E5
:10AA300000ED00E010B50446EFF31183202383F30B
:10AA40001288BFF36F8F0A4B58699860094B4FF01B
:10AA500000625A60084B026F1A600022436F42671F
:10AA600083F31188BFF36F8F00F01AF9204610BDF1
:10AA7000D425002000ED00E0881A00200B498A68E8
:10AA80004FF030001044EFF3098C80E8F01F74465B
:10AA90007046FFF7CFFFA64604498A6802F13000EE
:10AAA00090E8F01F8CF3098870470000D42500203F
:10AAB0001EF0040F0CBFEFF30880EFF309808169EB
:10AAC00011F8021C0229FFD001B509F0B7F801BD49
:10AAD00040B2002807DB044A4109012300F01F00AF
:10AAE000834042F82130704700E100E040B2002886
:10AAF0000CDB4309064900F01F002033012282408D
:10AB000041F82320BFF34F8FBFF36F8F704700BF13
:10AB100000E100E0054B420900F01F0053F822203D
:10AB2000012303FA00F01040704700BF00E100E08D
:10AB300040B20028A8BF00F1604001F10101B8BF98
:10AB4000064B4FEA4111ACBF00F5614000F00F0029
:10AB5000C9B2B4BF195480F80013704714ED00E077
:10AB60000B4A08B50B4B22F07F029A60BFF34F8F60
:10AB7000BFF36F8FD3F8882022F47002C3F88820C7
:10AB800006F0B0FA07F00AFC00F060F806F0EEFA02
:10AB90000070020000ED00E042F8203C009B42F80B
:10ABA0001C3C0A49019B42F8183C029B42F8143CA9
:10ABB00021F001014FF0807342F8043C42F8081C78
:10ABC0000023203A02654367704700BF997902006D
:10ABD000094A0346906870B113F1160F006E05D054
:10ABE000A0F140029A4205D8834203D2814228BF95
:10ABF0000020704700207047D425002008B5154676
:10AC00000B4A0C4B9060026F1A600E4600F048F839
:10AC10002C4686F309884FF00000074B98472046E2
:10AC20004FF000014FF000024FF00003034C2047AB
:10AC3000D4250020881A00207B3C0300997902006B
:10AC4000014B10221A61704700ED00E00448002318
:10AC50002021C2180133302B82F80013F9D170473C
:10AC600000E100E008B5EFF30583064A103B02EB74
:10AC7000C30152F8330049688847BDE80840FFF730
:10AC80003DBB00BF545E0300024B034A0348012151
:10AC900000F0ECB80000042000000020F061030088
:10ACA000026E054B403A1A60044A4021C3E9011282
:10ACB0001846012100F0E4B88C1A002000000B15A2
:10ACC00000B5134AC2F898000B6823F01F03034332
:10ACD00043F01003C2F89C308B6843F0010389B045
:10ACE000C2F8A0308B6806930B680A49CDE90403CB
:10ACF000094B0393094B029308220023CDE900324C
:10AD00001846042208F0ECFF09B05DF804FB00BF10
:10AD100000ED00E02C600300BB770300E576030044
:10AD200030B5174BD3F89030C3F30723013B98425B
:10AD300087B00D4604460FD9124B029300230390AF
:10AD4000CDE9003310490122184608F0C9FF6FF021
:10AD50001504204607B030BD0C4B03930C4B0293F7
:10AD600008220023CDE90032049007491846042246
:10AD700008F0B6FF29462046FFF7A2FFE9E700BF2B
:10AD800000ED00E0FC7603002C600300C7770300B1
:10AD9000227703002DE9F04FDFF89480DFF89490DC
:10ADA000DFF894A08BB00E461F4604460025B5423E
:10ADB00013DA6368002B38D0C7B1591E0B4210D08C
:10ADC0001E4B02930023CDE900331B49039501225A
:10ADD000184608F085FF6FF0150210460BB0BDE86D
:10ADE000F08F1F2BECD923681942E9D100235FFAB9
:10ADF00082FB0822CDE90032184604225146CDE9F3
:10AE0000038BCDF8089008F06BFF23680793D4E913
:10AE1000010308F055FF07A9034358460993FFF7BC
:10AE20007FFF10F1160FD6D0421C01350C34BEE75F
:10AE3000E07703006A7703002C6003004777030084
:10AE4000044B0522C3F89420BFF34F8FBFF36F8FDD
:10AE5000704700BF00ED00E0BFF35F8F024B0022A0
:10AE6000C3F89420704700BF00ED00E010B5034C1C
:10AE700001232278FFF78EFF207010BDFB270020F2
:10AE800008B50B4A00231278FFF784FF10F1160F64
:10AE900007D0084A0021D2F89030C3F30723984224
:10AEA00000DB08BDC2F89800C2F8A0100130F2E73C
:10AEB000FB27002000ED00E02DE9F043594A5A4EEF
:10AEC000D2F890303568C3F307239D428BB000F26F
:10AED000A680D2F890305549C3F307230493544B0E
:10AEE0000393544B029300240823CDE9004304222A
:10AEF0002346204608F0F4FEFFF7AEFF0C27A542DC
:10AF00001AD14D4C4D4F257006A8FDF777F9DFF8A3
:10AF10003081DFF8309106460025AE4214D1237807
:10AF200040490020D1F89020C2F30722934270DB01
:10AF3000FFF786FF002041E07168204607FB0411FF
:10AF4000FFF7BEFE0134DAE7069800EB05114FEA81
:10AF5000051CCB683B40B3F5000F44D00AD8B3F5CD
:10AF6000001F2ED0B3F5800F34D0B3F5801F10D062
:10AF70000135D2E7B3F1807F3ED0B3F1007FF7D146
:10AF800050F80C3088684A6808F09AFE40F4802037
:10AF900009E050F80C3088684A6808F091FE40F0EB
:10AFA000885040F43020099007A92078CDE9072384
:10AFB000FFF7B6FE002828DA6FF015000BB0BDE8E9
:10AFC000F08350F80C3088684A6808F079FE40EA4F
:10AFD0000800E8E750F80C3088684A6808F070FE0E
:10AFE00040EA0900DFE750F80C3088684A6808F04A
:10AFF00067FE40F08270D6E750F80C3088684A68E7
:10B0000008F05EFE40F08870CDE7237801332370AE
:10B01000AEE7C1F89830C1F8A000013382E74FF0E5
:10B02000FF30CBE700ED00E0FC6103002C60030083
:10B03000AC77030091770300FB2700200000F0FFAE
:10B04000000008110000020708B5024B1B68984772
:10B05000002008BD981A0020034B044A186093781A
:10B0600043F0020393707047981A0020A00C002050
:10B07000F0B587B007460E461446002110226846F8
:10B080001D460AF044FE02238DF802302A46054B85
:10B09000019321466846CDE9047607F0B7FD07B075
:10B0A000F0BD00BF013D030008B50649064821F088
:10B0B0000701C1F1005202F5802208F0A2F9002038
:10B0C00008BD00BF874E00209C1A002003484FF0A7
:10B0D000FF324FF0FF3306F02DB900BFB00C002057
:10B0E000014806F019BA00BFB00C002038B505467B
:10B0F000FFF7ECFF08482A46082108F01AF9044631
:10B1000028B925B10AF014FE044B0C221A50FFF79F
:10B11000E7FF204638BD00BF9C1A00200C0000004D
:10B1200010B50446FFF7D2FF2146034808F0C9F8DE
:10B13000BDE81040FFF7D4BF9C1A00200E4A01233F
:10B14000C2F840354FF080424FF08051C2F8783558
:10B15000D1F83001082808D1D1F83411052904D8D4
:10B160000648415C09B1C2F838364FF080430122ED
:10B17000C3F880250020704700E0014004780300F8
:10B1800020B1034B800143F001031847704700BF13
:10B19000D060030070B590F8D410036E01295A688E
:10B1A000B0F8B83086B0044604D0022924D000207C
:10B1B00006B070BD190102EB0313B0F8D600515868
:10B1C0009D880144B4F8D6602068AE1BB6B2324602
:10B1D00008F0E1FE002815DCE9D0104B0393104B7A
:10B1E00002930023CDE90460CDE900330D4901222B
:10B1F000184608F0B7FDDAE7B0F8D630416B058F96
:10B200001944DFE7B4F8D630184480B28542A4F878
:10B21000D6008CBF00200120CAE700BF0E780300D3
:10B22000177803001460030030B50D4687B004465C
:10B2300000285CD0036E002B59D01A68002947D132
:10B240002C4B03932C4B02930823CDE9001304925B
:10B250000B4604222949284608F084FD236E5B69C9
:10B260001BB16268294620469847D4F8182100236C
:10B270003AB1B4F82021012A9CBFC4F81831A4F8CF
:10B280001C31C4E913332366A36504F178000AF086
:10B29000B0FA04F1D8000AF064FA04F1E8000AF008
:10B2A000A8FABFF35B8F04F1BC0353E8001F21F041
:10B2B000010143E80012002AF7D1BFF35B8F84F845
:10B2C000C05004F1C40007B0BDE8304006F0C4B976
:10B2D000012903920CBF0A4A0A4A08490023CDE912
:10B2E000013200930222184608F03CFDB6E707B091
:10B2F00030BD00BF357903003378030014600300CC
:10B300004478030050780300F0B5044687B081B953
:10B31000B0F8B83001339BB2226EA4F8B83011896E
:10B32000994208D10021204607B0BDE8F040FFF760
:10B330007BBF0023F0E70593136804930025214B9E
:10B34000214F2249029308262B4604222846CDE9A4
:10B350000056039708F006FD226EB4F8B830516825
:10B36000180101EB03139A88E2B10B5817490397B0
:10B37000CDE90423164B0095CDE9016328462B4601
:10B38000042208F0EFFC012304F1D800E564A4F8DE
:10B390005850A4F8D65084F8D43007B0BDE8F04037
:10B3A00006F0DABA9A8932B19A68E2649B89A4F805
:10B3B000583007B0F0BD204607B0BDE8F04008F0B7
:10B3C000B6BC00BF5E7803004C7903001460030034
:10B3D0006F7803002DE9F0474FF00009414F86B028
:10B3E00004464D464FF02008B4F84A201FFA89F36E
:10B3F0009A4219D91FFA89F2636C53F822A0504679
:10B40000FCF738F886B215FA80F07F28324609F149
:10B41000010939DD344B02930023CDE90033334970
:10B420000222184608F09EFC0DB1013DADB200238A
:10B430002F4A7B5503922F4A02920822CDE900320F
:10B4400018462A490497042208F08CFCB4F82031ED
:10B45000012B32D0022B22D0002B3FD1D4F818314F
:10B460001D692DB16368B4F84A20616C2046A84775
:10B47000D4F81831597B11F002012FD1204606B0C3
:10B48000BDE8F047FFF740BF781951460AF031FC9C
:10B4900073199BB207F8038001339DB2A4E7D4F877
:10B4A00018311D69D5B16368B4F84A20616C204633
:10B4B000AC4606B0BDE8F0476047D4F818311D69C6
:10B4C0002DB16368B4F84A20616C2046A847012179
:10B4D000204606B0BDE8F047FFF7A6BE06B0BDE8BF
:10B4E000F08700BFFC270020817803001460030070
:10B4F000D6780300706C03002DE9F04FA0F592742C
:10B50000A0F58A718BB005462022206808F06AFDFC
:10B51000002840F3708100272086B846228EBBB2F7
:10B520009A4205D828460BB0BDE8F04F06F014BA91
:10B5300014FA87F3B4F840101A7C0023DEB28E426E
:10B5400015D3E389A189994219D1AC4B0293002606
:10B55000CDE90066AA4933460222304608F002FCD3
:10B56000E6816687A4F84A60C4F8186105E0E06BDC
:10B57000805D824203F10103E0D10137CEE7B4F8E8
:10B580004A00B4F84810884201D19E4BDEE7A1681A
:10B59000CA54E389B4F838B006935E1CB6B25E456F
:10B5A000E681C0F09A80D4F80890616BA6EB0B0A94
:10B5B0005A4609EB0A000AF029FB002840F08D806A
:10B5C0005E450AD1A5F592730022DA8125F8EA2CAE
:10B5D00025F8DA2C45F80C2CCFE7D4F81831002BDD
:10B5E0003CD109F80A30A5F1CE00C5F1C00C4FF0EE
:10B5F000140E30F8026F002291B28E4213D801333C
:10B600009BB2032BF5D1A36804937F4B03937F4B2D
:10B61000029308220023CDE900327949042218461A
:10B6200008F0A0FBCEE75CF810100EFB021101320F
:10B6300091F80490B9F1000FDED1A4F82031636CC9
:10B64000734AC4F818111A60636CA2685A60022326
:10B65000A4F84A302046FFF7BDFEB3E7B4F81E3128
:10B6600093B1B4F84A10626CAAEB030A09EB0A031F
:10B6700042F82130228FE3899B1AA268D054B4F893
:10B680004A300133A4F84A302046FFF7A3FEA4F85D
:10B690000E80A4F83A80A4F84A80C4F818816CE7B8
:10B6A000626B515CA2683244013312F8012C8A4269
:10B6B0003FF463AFD9B25945F2D355F80C2CA5F538
:10B6C000927362B9C5F1C001A5F1CE0A09913AF8A9
:10B6D000021F08914FF0000E68E00023EAE792F89D
:10B6E0000CC0002081B261456AD30021B3F81E214D
:10B6F00000297ED0B3F84AC0586C002A6CD1444A65
:10B7000040F82C20B3F84A200132A3F84A20002246
:10B71000A3F81E2131E7099951F81A10142000FBF3
:10B720000E1999F8041007918E423DD199684FF097
:10B73000000CDDF81CB01FFA8CF0584522D3A4F899
:10B740002021069AA389C4F81891023292B29B1A5A
:10B750000B44A4F81C211846013A0AF0CAFAB4F8BE
:10B760004A10626C42F82100A289A36813440022A7
:10B7700003F8012CB4F84A30A4F81E210133A4F8D0
:10B780004A30FAE6D9F8000011F80CB010F80C00B5
:10B79000834506D099F80DB01BF0010F04D03F2867
:10B7A00002D10CF1010CC4E70EF1010E08981FFA4A
:10B7B0008EF18842AFD8013292B2032A87D1DCE6FB
:10B7C000916811F800E099683144013011F8011CCA
:10B7D000714587D1012189E79968B21A013A11446C
:10B7E00040F82C10D9899A680A44002102F8011CFB
:10B7F00088E701328CE70BB0BDE8F08F9478030046
:10B8000014600300AB780300F6780300706C03004B
:10B81000FF870300F0B550F8043C40F8083CDA68B4
:10B8200040F8182C1A8A20F80E2C87B01B68049355
:10B83000184B0393184B0293002508230446CDE9C7
:10B84000005316492B460422284608F08BFA0121A2
:10B85000A4F16800FFF758FD54F8083CC3B19E6995
:10B860004FF47A735E434FF40047294640F2E730C5
:10B870004FF47A720023E6FB0701FBF791FC0246C6
:10B880000B4604F1100007B0BDE8F04006F0D2B856
:10B8900007B0F0BD1D790300BF78030014600300FA
:10B8A00038B50D4604464FF49C7200210AF02FFA79
:10B8B0002B6863606B68A3602B89A381EB69636469
:10B8C0002B8CA4F84830EB6863632B7C23876B696F
:10B8D000E3632B7EA4F840306B6A63652B8DA4F87C
:10B8E0005C30002504F1BC03BFF35B8F53E8002FED
:10B8F00043E800510029F9D1BFF35B8F01222946AB
:10B9000004F1C40009F083FE04F592700E4909F0B9
:10B91000FCFE04F168000D4909F0F7FE04F178001F
:10B920000B4909F05AFF04F1A8000A4909F0EDFE9D
:10B9300004F1D800084909F0E8FE04F1E8000749DD
:10B9400009F04BFF284638BDF9B4020015B80200D3
:10B95000953D0300853D0300AD3D03009D3D030083
:10B9600010B50246002408461160D481044954876A
:10B97000A2F84A40C2F8184108F0E6FA204610BD85
:10B98000173D03001FB550F8083C50F8040C196827
:10B990008C880834224608F0FEFAA0420ADA064BE8
:10B9A000029300230390CDE9003304490122184695
:10B9B00008F005FC04B010BD797903002460030091
:10B9C0002DE9F041044630F8282C50F82C1C50F892
:10B9D000140C08F007FB002848DCBDE8F08134F8BF
:10B9E0001E2C54F8241C8B5434F81E5C2D49013550
:10B9F000ADB2062D08BF54F8242C24F81E5C02BFFB
:10BA0000928808320A800A88AA4248D154F8188CD1
:10BA100054F8246CD8F80810B3888A889A4210D158
:10BA2000083230460AF0F2F8074650B904F1100027
:10BA300005F012FE04F81C7C2046BDE8F04105F03C
:10BA40008BBFD8F80030B1789A78914203D1F27860
:10BA5000DB789A4203D0002304F81C3CECE7D8F8CA
:10BA600004002A4631460AF044F9F4E754F82C3C25
:10BA700014F81C2C1B78002AB1D10B4A1278B52A75
:10BA80000DD1622B0BD1012104F81C1C54F8241C8D
:10BA90000A7054F8242C5370022224F81E2C024AF7
:10BAA0001370C9E7E42700207C2800202DE9F04F1F
:10BAB0000B689B88B3F5807F85B005460F4655D847
:10BAC000BFF35B8F4368BFF35B8FDA0751D500F19B
:10BAD00054084FF0FF324FF0FF33404605F0E0FDD1
:10BAE000041E31DB0026EF6105F14409B24605F181
:10BAF000240BBB89B3420BDC002C22DA1E4B0293D1
:10BB00000023CDE900331D4903960122184616E0B3
:10BB10002B6A43B3484605F0E9FD85F818A058465E
:10BB200005F01AFFEB699B6893B90024CDE9004446
:10BB3000134B12490293039623460322204608F032
:10BB40003EFB404605F088FD204605B0BDE8F08F7D
:10BB5000D7E90423484605F0A3FD041EE5DA631C7B
:10BB6000CCD00136C5E74FF0FF34C7E76FF01A04B9
:10BB7000EAE74FF0FF34E7E7D279030024600300DF
:10BB8000A579030038B50446231D0846BFF35B8F33
:10BB900053E8002F42F0010143E80015002DF7D1D2
:10BBA000BFF35B8FD30708D405492062224608F013
:10BBB000CBF904F1540005F04FFD002038BD00BF63
:10BBC000B141030038B50D460446642200210AF055
:10BBD0009EF82B6823606B68A3602B89A381EB68B8
:10BBE00023612B8AA38204F124000B4909F08DFD07
:10BBF0000A4904F1340009F088FD0122002104F112
:10BC0000440009F004FD0122114604F1540009F03A
:10BC1000FEFC002038BD00BF85B90200C1B902009A
:10BC200070B5E82204460D4600210AF070F820465F
:10BC30002B6840F8383B0B4909F0CFFD0A4904F165
:10BC4000680009F062FD204600F066FA261D2946CC
:10BC500020B1204600F072FA304670BD204600F058
:10BC6000C9F8F9E79F420300994203007FB50BAB87
:10BC700005930393054B02930023CDE90033022281
:10BC80001846FCF7B7F807B05DF804FB117A03001B
:10BC90002DE9F043064687B00C4683689B6F002B66
:10BCA0007AD09847002877DDB3689B6E002B36D199
:10BCB00094F8E0904FEA491808F1780727444FF0CC
:10BCC000FF3205A9384607F04AFD0546E8B9474B5B
:10BCD00047490090CDE9010302220346FFF7C6FF62
:10BCE0002946384607F05AFD04EB4913A044C8E939
:10BCF00020554FF0FF32C3E92355DD67C3F8885064
:10BD000005A9384607F02BFD05462068059983688C
:10BD10009B6CDBB90021384607F040FD03E030465C
:10BD200098470028C4D1B3689B6D8BBBD4F8C8205A
:10BD3000D4F8C0309A4232D154F8680B08F0BCFAFB
:10BD4000204607B0BDE8F04305F006BE2A469847F6
:10BD5000011EDFDD384607F021FD04EB49131421F5
:10BD6000D3F89420DD6FD3F88C30B2FBF1F1EB1AED
:10BD7000D21A914204F1380005D24FF42472002304
:10BD800005F058FECFE70022002305F087FECAE742
:10BD9000304698470028C9D107B0BDE8F08304F1C8
:10BDA000B8064FF0FF3205A9304607F02BFD0246DA
:10BDB0002068059983681B6C23B90021304607F081
:10BDC00041FDE9E79847051EF7DB29463046D834A0
:10BDD00007F038FDBFF35B8F54E8003F5B1B44E87E
:10BDE0000032002AF8D1BFF35B8FD5E7117A030048
:10BDF0000C60030010B50B69A3EB9303C0F8E430AB
:10BE00004B688A6883670023C0E92033C0E9233385
:10BE10005208C0F89420C367C0F8883004464868C8
:10BE2000C4F8B420C4E92833C4E92B331044C4F85F
:10BE30009800C4F89C30C4F8A830D1E90320C4F8B5
:10BE4000B82004F1D802C4E93033C4E93333C4F86C
:10BE5000D400C4F8BC30C4F8C830BFF35B8F52E8DC
:10BE6000001F42E800300028F9D1BFF35B8F206843
:10BE700008F027FA206808F01FFA2068836823B1C9
:10BE8000DB6F13B10449224698472146201D034A1F
:10BE9000BDE8104008F00FB891BC0200C40C0020AF
:10BEA00070B500F1BC0386B005461446BFF35B8F46
:10BEB00053E8006F46F0010243E800200028F7D164
:10BEC000BFF35B8F16F0010626D1D5F8A830D5F860
:10BED000A4009C4228BF1C46224609F00AFF28689D
:10BEE000D5F8A410836822465D680C4BA847054628
:10BEF00080B10B4B03930B4B0B490096CDE90440EB
:10BF0000CDE9016301223346304608F0AEFA2846F7
:10BF100006B070BD2546FAE70025F8E740420F005D
:10BF20003F7A0300177803000460030070B50B78B4
:10BF300086B00D46144602F1BC06062B21D8DFE878
:10BF400003F01804904B80CDCF00BFF35B8FD4F883
:10BF5000BC30BFF35B8FDA060BD58B680393684B5D
:10BF600002930023CDE9003366490222184608F007
:10BF70007CFA3046002108F087FA04F1680005F0E9
:10BF8000EBFCBFF35B8FD4F8BC30BFF35B8FD807FB
:10BF900000F1B380BFF35B8FD4F8BC30BFF35B8F8D
:10BFA000990700F1AA80BFF35B8FD4F8BC30BFF3D0
:10BFB0005B8F5A0700F1A180BFF35B8FD4F8BC30D0
:10BFC000BFF35B8F1B0700F1988004F1AC0006B053
:10BFD000BDE8704005F0C0BCBFF35B8F56E8003F82
:10BFE00043F0040246E800210029F7D1BFF35B8F3C
:10BFF0005B0707D42068D4F880208368A16F1B6991
:10C000009847BEE7BFF35B8F56E8003F43F0080256
:10C0100046E800210029F7D1BFF35B8F1D0705D447
:10C0200020688368D4E91F121B69E9E7364B029345
:10C030000023CDE9003333490222184608F015FAEF
:10C040009FE74B68A26F934204D10221304608F06B
:10C050001BFA96E7E26F934201D10321F6E72B4BDF
:10C06000E5E7EFF31186202383F31288BFF36F8F88
:10C07000D1E90113EA68194404F1840007F0A3FB35
:10C08000EB6883421FD9D4F88C30D4F894209A1AE4
:10C090000023C4E92333C4E92633C4F88830C4F844
:10C0A000943086F31188BFF36F8F101A184AE9682D
:10C0B0000491CDE9013203901249009302221846FF
:10C0C00008F0D3F95DE786F31188BFF36F8F002284
:10C0D000002304F1380005F0ADFC52E70121B5E77B
:10C0E0000B7903930B4B02930023CDE900330549F1
:10C0F0000222184608F0B9F943E706B070BD00BF48
:10C10000587A030004600300747A0300907A0300F5
:10C11000B07A0300D97A030008B502460068836844
:10C120001B682BB104499847B0FA80F0400908BD5C
:10C130006FF05700F8E700BF2DBF020010B58B6805
:10C140009B08C0F880304A6882671A44C2674A6810
:10C15000044602EB430258000023C4E92333C4E938
:10C160002633C4F8A000C4F88420C4F88830C4F88A
:10C170009430CB68C4F8A4300B69C4F8A83004F13B
:10C18000AC00054909F0C1FA2146201D034ABDE86B
:10C19000104007F090BE00BF65440300D40C00209F
:10C1A000020600F07F0312D5082B05D1010700F02D
:10C1B0000F0306D50E48704710F0780F12D100F02B
:10C1C0000F034C2000EB43100A4B18447047082B18
:10C1D00005D1020700F00F0306D50748704710F09D
:10C1E000780FF6D000207047044800EB43107047EA
:10C1F000F41B0020A81A0020141D0020141C00208D
:10C200000149024809F09DBAD01A002060100020B0
:10C210000146014809F0F0B9E80E0020024800226A
:10C22000002305F0E7B900BFE80E002010B519485B
:10C2300086B001F065FA184B984211D0174B039362
:10C24000174B029308220023CDE9003204901549D0
:10C250001846042208F0A0F96FF0040006B010BDE3
:10C26000114804F0A7FD0024104804F0E9FD10492E
:10C27000104800944FF0FF334FF4806205F072FBDA
:10C280000D490C4809F0D2FA0C480D4909F03DFA65
:10C290002046E3E7B9C502000000AD0BF5800300BE
:10C2A000127B03006C600300F48003001C62030037
:10C2B000802D0020601000203C7B0300D01A00205D
:10C2C00011C8020010B50E49BFF35B8F002351E87F
:10C2D000002F012A03D141E800300028F7D1BFF335
:10C2E0005B8F0CD151F8044C1439204607F0FEF94D
:10C2F000783004D12046BDE8104007F0D3B910BD16
:10C30000C81A002038B5002464F07F00C0B2FFF7DF
:10C3100047FF013408F02DF9082CF5D10E4D00240B
:10C32000E0B2FFF73DFF036903B90561013408F08E
:10C3300020F9082C05F14005F2D1084808F019F958
:10C34000074BD3F87C2212B9064AC3F87C22064870
:10C3500008F00FF9002038BD38210020F41B002020
:10C36000A81A0020381D0020141D002010B5054C0F
:10C37000FFF754FF20B14168204609F088F8F7E73D
:10C3800010BD00BF480E002010B586B0194800222D
:10C39000002305A904F06CFF40B30024164B174995
:10C3A0000293012223462046CDE9004408F0F4F828
:10C3B000FFF7DCFF0F480022002305A904F058FF17
:10C3C00058B10F4B0D490094CDE90143012223469A
:10C3D000204608F0E1F800200AE0059804234060B8
:10C3E0000374FFF715FFFFF70BFFF4E705984060B4
:10C3F00006B010BD480E0020477B03006C600300B0
:10C40000657B030002281FB512D8104B1C5CFFF798
:10C41000BBFFC0B1002202740472FFF7F9FE0C4B9F
:10C4200093F824307BB104B0BDE81040FFF7E8BEBC
:10C43000084B029300230390CDE900330649012203
:10C44000184608F0A9F804B010BD00BF3F800300F3
:10C45000A81A0020817B03006C600300F0B5877888
:10C46000064687B03846FFF79BFE3B06F478054644
:10C470003CD554B1032C29D0474B02930023CDE97E
:10C480000347CDE9003301222AE0FFF77DFF07468D
:10C4900050B3B3780493414B0393414B0293082369
:10C4A000CDE900433F4923460422204608F074F8B2
:10C4B0000123AC773B7403233B73BD603846FFF721
:10C4C000A7FE07B0BDE8F040FFF79ABE334B0393D9
:10C4D000354B029308200023CDE900300497042255
:10C4E0003049184608F058F807B0F0BDCCB1012C1F
:10C4F000C2D1FFF749FF07460028F5D0B37804936F
:10C50000264B0393294B029308210023CDE90031E8
:10C5100004222449184608F03FF86C773C743C73B9
:10C52000CBE7FFF731FF04460028DDD0B278204B7F
:10C5300012F0800F02F0080122D0C9B1D3F8A8365A
:10C54000EB600593B3780493144B0393194B029358
:10C5500008220023CDE9003218461249042208F0CF
:10C560001BF80123237402232373A5602046A6E74A
:10C5700002F00F02142101FB0233D3F80836DFE783
:10C5800011B1D3F8A837DBE702F00F02142101FB49
:10C590000233D3F80837D3E7DC7B03004280030083
:10C5A0009C7B03006C600300BA7B0300087C0300E3
:10C5B00000700240247C03002DE9F04107468EB054
:10C5C0001422002109A809F0A2FB3C78631E052B68
:10C5D0004ED8DFE813F0FE00060024003300ED0023
:10C5E00041007D4B03937D4B029308200023CDE94E
:10C5F00000307B490422184607F0CEFF03248DF853
:10C600002C400024FFF7C0FE034688B3047400F1F9
:10C610000802DDE90B0182E8030018467FE06E4B5B
:10C620000393704B029308210023CDE900310422CB
:10C630006B49184607F0B0FF0424E0E7664B03930C
:10C64000694B029308220023CDE900326449042299
:10C65000184607F0A1FFD2E797F802804046FFF79F
:10C660009FFD857A064635B1013D022D40F29A8044
:10C670000EB0BDE8F08118F0800FFC7835D054B1D1
:10C68000032C22D0594B0095CDE90153CDE9034845
:10C690002B46012224E0FFF777FE05460028E7D06D
:10C6A0000123B477037403230373514B8660039310
:10C6B000504B02930823CDE9004349492346042205
:10C6C000204607F069FF284629E0494B03934A4B6F
:10C6D00002930823CDE90053CDF810802B460422A5
:10C6E0003F49184607F058FFC2E7FCB1012CC9D1F9
:10C6F000FFF74AFE07460028BAD03D4B03933F4B55
:10C7000002930823CDE90053284635492B460422DD
:10C7100007F042FF747738463C743C73BE60FFF705
:10C7200077FD0EB0BDE8F041FFF76ABDFFF72CFEC4
:10C73000054600289CD04FF00108022380F81080A5
:10C7400003738660B87806F10C0107F057FF50B10B
:10C750002B4B0390CDE901432149009423464246E7
:10C76000204607F019FFF3680493214B0393254BF0
:10C77000029300240823CDE90043194923460422EB
:10C78000204607F009FF204AF168B2F88C328B424C
:10C7900005D95B1AA2F88C3201F064FC93E7A2F889
:10C7A0008C4290E738460EB0BDE8F041FFF756BE28
:10C7B00007A801F035FC9DF81D30052B05D19DF82B
:10C7C0001C3013F0600F3FF453AF104B0B93012458
:10C7D00018E7022416E700BF74800300497C0300B9
:10C7E0006C600300647C03007E7C0300DC7B030040
:10C7F0005B800300957C0300BA7B0300AD7C0300E3
:10C80000C37C0300E37C0300A81A0020141C002052
:10C810002DE9F047A44CDFF894928EB08046FFF7E4
:10C82000FDFC074610B90EB0BDE8F08794F825204E
:10C830003B7C3AB9002B00F0BE8079689B4808F039
:10C8400026FEECE7042B00F21E82DFE813F0B400B2
:10C8500005009901BD01EF0118F8043C5BB9BA6805
:10C860009349527A0392934A0093CDE901321846D4
:10C87000012207F091FE3B7BBD68032B51D8DFE816
:10C8800003F0025782876E698B4A4FF0000AC6F8A0
:10C8900000A0C6F804A0D2F880343370D2F88434F3
:10C8A0007370D2F88834D2F88C1443EA0123738071
:10C8B000D2F89034D2F8941443EA0123B380D2F82A
:10C8C0009834D2F89C2443EA02230822F380EA60D9
:10C8D00030687168794B03C3F3880893B388079372
:10C8E000738806933378059373780493744B03939A
:10C8F000744B6F49CDE90123504653460422CDF8CD
:10C9000000A007F049FE2B68687A5146984796F9CF
:10C910000030534508DBF38833B1A4F88C3201F0C2
:10C92000A1FB796848468AE70023A4F88C32F8E72F
:10C930006B7F002BF5D02B7F002BF2D000266248B6
:10C940006E774FF0FF324FF0FF332E7707F034FE53
:10C950006B690B936B68CDE90C360BA9687A00F014
:10C9600025FF5A4B98420AD0594B0390CDE90163F9
:10C970004F49009633460122304607F00DFE5248DB
:10C9800007F01CFECDE72B680121687A9847C8E7BD
:10C99000AB7A6BB9EB7F5BB94B484FF0FF324FF08E
:10C9A000FF3307F009FE01F063FB474807F006FE7E
:10C9B0002B680221E9E73B7A042BB2D8DFE803F0C9
:10C9C00092032FADC70000F069FE05460028A8D1EC
:10C9D000404B0393404B02930823CDE900033449B5
:10C9E0000346042207F0D8FD00F098FDBFF35B8FEB
:10C9F0003A49012351E8002F002A03D141E80030D1
:10CA00000028F7D1BFF35B8F8BD141F8085C41F868
:10CA1000105CE0696361143906F0EDFD81E70025E3
:10CA200065F07F00C0B2FFF7BBFB037A13B1407A19
:10CA300001F0AEFC0135082DF2D194F854311BB150
:10CA400094F8550101F0A4FC0025E8B2FFF7A8FB1B
:10CA5000037A13B1407A01F09BFC0135082DF4D123
:10CA600094F874321BB194F8750201F091FC002027
:10CA700000F0F8FD012384F82530164B0393184B82
:10CA8000029300250823CDE9005309492B460422CF
:10CA9000284607F081FD2368002B3FF442AF29466A
:10CAA000022098473DE700BFA81A0020480E00204A
:10CAB0006C600300FA7C030000700240AC1A002096
:10CAC000CA800300207D0300E01A00200000AD0BA7
:10CAD0005B7D0300AD800300817D0300C81A002048
